{
  "contractName": "AuctionHouse",
  "abi": [
    {
      "inputs": [],
      "payable": false,
      "stateMutability": "nonpayable",
      "type": "constructor"
    },
    {
      "anonymous": false,
      "inputs": [
        {
          "indexed": false,
          "internalType": "uint256",
          "name": "id_artist",
          "type": "uint256"
        },
        {
          "indexed": false,
          "internalType": "string",
          "name": "artist_name",
          "type": "string"
        },
        {
          "indexed": false,
          "internalType": "string",
          "name": "details",
          "type": "string"
        }
      ],
      "name": "ArtistCreated",
      "type": "event"
    },
    {
      "anonymous": false,
      "inputs": [
        {
          "indexed": false,
          "internalType": "uint256",
          "name": "id_artist",
          "type": "uint256"
        },
        {
          "indexed": false,
          "internalType": "string",
          "name": "artist_name",
          "type": "string"
        },
        {
          "indexed": false,
          "internalType": "string",
          "name": "details",
          "type": "string"
        }
      ],
      "name": "ArtistUpdated",
      "type": "event"
    },
    {
      "anonymous": false,
      "inputs": [
        {
          "indexed": false,
          "internalType": "uint256",
          "name": "id_auction",
          "type": "uint256"
        },
        {
          "indexed": false,
          "internalType": "uint256",
          "name": "target_price",
          "type": "uint256"
        },
        {
          "indexed": false,
          "internalType": "uint256",
          "name": "auctionEndTime",
          "type": "uint256"
        },
        {
          "indexed": false,
          "internalType": "uint256",
          "name": "id_product",
          "type": "uint256"
        }
      ],
      "name": "AuctionCreated",
      "type": "event"
    },
    {
      "anonymous": false,
      "inputs": [
        {
          "indexed": false,
          "internalType": "address payable",
          "name": "winner",
          "type": "address"
        },
        {
          "indexed": false,
          "internalType": "uint256",
          "name": "amount",
          "type": "uint256"
        }
      ],
      "name": "AuctionEnded",
      "type": "event"
    },
    {
      "anonymous": false,
      "inputs": [
        {
          "indexed": false,
          "internalType": "uint256",
          "name": "id_auction",
          "type": "uint256"
        },
        {
          "indexed": false,
          "internalType": "uint256",
          "name": "target_price",
          "type": "uint256"
        },
        {
          "indexed": false,
          "internalType": "uint256",
          "name": "auctionEndTime",
          "type": "uint256"
        },
        {
          "indexed": false,
          "internalType": "address payable",
          "name": "highestBidder",
          "type": "address"
        },
        {
          "indexed": false,
          "internalType": "uint256",
          "name": "highestBid",
          "type": "uint256"
        },
        {
          "indexed": false,
          "internalType": "uint256",
          "name": "offerCount",
          "type": "uint256"
        },
        {
          "indexed": false,
          "internalType": "bool",
          "name": "ended",
          "type": "bool"
        },
        {
          "indexed": false,
          "internalType": "uint256",
          "name": "id_product",
          "type": "uint256"
        },
        {
          "indexed": false,
          "internalType": "bool",
          "name": "moneySent",
          "type": "bool"
        },
        {
          "indexed": false,
          "internalType": "bool",
          "name": "sellUnderTarget",
          "type": "bool"
        }
      ],
      "name": "AuctionUpdated",
      "type": "event"
    },
    {
      "anonymous": false,
      "inputs": [
        {
          "indexed": false,
          "internalType": "uint256",
          "name": "id_artist",
          "type": "uint256"
        },
        {
          "indexed": false,
          "internalType": "string",
          "name": "artist_name",
          "type": "string"
        },
        {
          "indexed": false,
          "internalType": "uint256",
          "name": "amount",
          "type": "uint256"
        }
      ],
      "name": "IncreasedDonation",
      "type": "event"
    },
    {
      "anonymous": false,
      "inputs": [
        {
          "indexed": false,
          "internalType": "address payable",
          "name": "bidder",
          "type": "address"
        },
        {
          "indexed": false,
          "internalType": "uint256",
          "name": "amount",
          "type": "uint256"
        }
      ],
      "name": "NewHighestBid",
      "type": "event"
    },
    {
      "anonymous": false,
      "inputs": [
        {
          "indexed": false,
          "internalType": "uint256",
          "name": "id_product",
          "type": "uint256"
        },
        {
          "indexed": false,
          "internalType": "string",
          "name": "name",
          "type": "string"
        },
        {
          "indexed": false,
          "internalType": "uint256",
          "name": "price",
          "type": "uint256"
        },
        {
          "indexed": false,
          "internalType": "uint256",
          "name": "id_artist",
          "type": "uint256"
        },
        {
          "indexed": false,
          "internalType": "string",
          "name": "category",
          "type": "string"
        },
        {
          "indexed": false,
          "internalType": "string",
          "name": "description",
          "type": "string"
        },
        {
          "indexed": false,
          "internalType": "string",
          "name": "image_hash",
          "type": "string"
        }
      ],
      "name": "ProductCreated",
      "type": "event"
    },
    {
      "anonymous": false,
      "inputs": [
        {
          "indexed": false,
          "internalType": "uint256",
          "name": "id_product",
          "type": "uint256"
        },
        {
          "indexed": false,
          "internalType": "string",
          "name": "name",
          "type": "string"
        },
        {
          "indexed": false,
          "internalType": "uint256",
          "name": "price",
          "type": "uint256"
        },
        {
          "indexed": false,
          "internalType": "uint256",
          "name": "id_artist",
          "type": "uint256"
        },
        {
          "indexed": false,
          "internalType": "string",
          "name": "category",
          "type": "string"
        },
        {
          "indexed": false,
          "internalType": "string",
          "name": "description",
          "type": "string"
        },
        {
          "indexed": false,
          "internalType": "string",
          "name": "image_hash",
          "type": "string"
        },
        {
          "indexed": false,
          "internalType": "bool",
          "name": "purchased",
          "type": "bool"
        },
        {
          "indexed": false,
          "internalType": "uint256",
          "name": "priceSold",
          "type": "uint256"
        },
        {
          "indexed": false,
          "internalType": "address payable",
          "name": "winner",
          "type": "address"
        }
      ],
      "name": "ProductSold",
      "type": "event"
    },
    {
      "anonymous": false,
      "inputs": [
        {
          "indexed": false,
          "internalType": "uint256",
          "name": "id_product",
          "type": "uint256"
        },
        {
          "indexed": false,
          "internalType": "string",
          "name": "name",
          "type": "string"
        },
        {
          "indexed": false,
          "internalType": "uint256",
          "name": "price",
          "type": "uint256"
        },
        {
          "indexed": false,
          "internalType": "uint256",
          "name": "id_artist",
          "type": "uint256"
        },
        {
          "indexed": false,
          "internalType": "string",
          "name": "category",
          "type": "string"
        },
        {
          "indexed": false,
          "internalType": "string",
          "name": "description",
          "type": "string"
        },
        {
          "indexed": false,
          "internalType": "string",
          "name": "image_hash",
          "type": "string"
        }
      ],
      "name": "ProductUpdated",
      "type": "event"
    },
    {
      "constant": true,
      "inputs": [],
      "name": "activeAuction",
      "outputs": [
        {
          "internalType": "uint256",
          "name": "",
          "type": "uint256"
        }
      ],
      "payable": false,
      "stateMutability": "view",
      "type": "function"
    },
    {
      "constant": true,
      "inputs": [],
      "name": "artistCount",
      "outputs": [
        {
          "internalType": "uint256",
          "name": "",
          "type": "uint256"
        }
      ],
      "payable": false,
      "stateMutability": "view",
      "type": "function"
    },
    {
      "constant": true,
      "inputs": [
        {
          "internalType": "uint256",
          "name": "",
          "type": "uint256"
        }
      ],
      "name": "artists",
      "outputs": [
        {
          "internalType": "uint256",
          "name": "id_artist",
          "type": "uint256"
        },
        {
          "internalType": "string",
          "name": "artist_name",
          "type": "string"
        },
        {
          "internalType": "string",
          "name": "details",
          "type": "string"
        },
        {
          "internalType": "uint256",
          "name": "amount_collected",
          "type": "uint256"
        }
      ],
      "payable": false,
      "stateMutability": "view",
      "type": "function"
    },
    {
      "constant": true,
      "inputs": [],
      "name": "auctionCount",
      "outputs": [
        {
          "internalType": "uint256",
          "name": "",
          "type": "uint256"
        }
      ],
      "payable": false,
      "stateMutability": "view",
      "type": "function"
    },
    {
      "constant": true,
      "inputs": [
        {
          "internalType": "uint256",
          "name": "",
          "type": "uint256"
        }
      ],
      "name": "auctionList",
      "outputs": [
        {
          "internalType": "uint256",
          "name": "id_auction",
          "type": "uint256"
        },
        {
          "internalType": "uint256",
          "name": "target_price",
          "type": "uint256"
        },
        {
          "internalType": "uint256",
          "name": "auctionEndTime",
          "type": "uint256"
        },
        {
          "internalType": "address payable",
          "name": "highestBidder",
          "type": "address"
        },
        {
          "internalType": "uint256",
          "name": "highestBid",
          "type": "uint256"
        },
        {
          "internalType": "uint256",
          "name": "offerCount",
          "type": "uint256"
        },
        {
          "internalType": "bool",
          "name": "ended",
          "type": "bool"
        },
        {
          "internalType": "uint256",
          "name": "id_product",
          "type": "uint256"
        },
        {
          "internalType": "bool",
          "name": "moneySent",
          "type": "bool"
        },
        {
          "internalType": "bool",
          "name": "sellUnderTarget",
          "type": "bool"
        }
      ],
      "payable": false,
      "stateMutability": "view",
      "type": "function"
    },
    {
      "constant": true,
      "inputs": [
        {
          "internalType": "address",
          "name": "",
          "type": "address"
        }
      ],
      "name": "donations",
      "outputs": [
        {
          "internalType": "uint256",
          "name": "",
          "type": "uint256"
        }
      ],
      "payable": false,
      "stateMutability": "view",
      "type": "function"
    },
    {
      "constant": true,
      "inputs": [],
      "name": "donationsCount",
      "outputs": [
        {
          "internalType": "uint256",
          "name": "",
          "type": "uint256"
        }
      ],
      "payable": false,
      "stateMutability": "view",
      "type": "function"
    },
    {
      "constant": true,
      "inputs": [],
      "name": "name",
      "outputs": [
        {
          "internalType": "string",
          "name": "",
          "type": "string"
        }
      ],
      "payable": false,
      "stateMutability": "view",
      "type": "function"
    },
    {
      "constant": true,
      "inputs": [],
      "name": "owner",
      "outputs": [
        {
          "internalType": "address payable",
          "name": "",
          "type": "address"
        }
      ],
      "payable": false,
      "stateMutability": "view",
      "type": "function"
    },
    {
      "constant": true,
      "inputs": [],
      "name": "productCount",
      "outputs": [
        {
          "internalType": "uint256",
          "name": "",
          "type": "uint256"
        }
      ],
      "payable": false,
      "stateMutability": "view",
      "type": "function"
    },
    {
      "constant": true,
      "inputs": [
        {
          "internalType": "uint256",
          "name": "",
          "type": "uint256"
        }
      ],
      "name": "products",
      "outputs": [
        {
          "internalType": "uint256",
          "name": "id_product",
          "type": "uint256"
        },
        {
          "internalType": "string",
          "name": "name",
          "type": "string"
        },
        {
          "internalType": "uint256",
          "name": "price",
          "type": "uint256"
        },
        {
          "internalType": "uint256",
          "name": "id_artist",
          "type": "uint256"
        },
        {
          "internalType": "string",
          "name": "category",
          "type": "string"
        },
        {
          "internalType": "string",
          "name": "description",
          "type": "string"
        },
        {
          "internalType": "string",
          "name": "image_hash",
          "type": "string"
        },
        {
          "internalType": "bool",
          "name": "purchased",
          "type": "bool"
        },
        {
          "internalType": "bool",
          "name": "auction_started",
          "type": "bool"
        },
        {
          "internalType": "bool",
          "name": "auction_ended",
          "type": "bool"
        },
        {
          "internalType": "bool",
          "name": "active",
          "type": "bool"
        }
      ],
      "payable": false,
      "stateMutability": "view",
      "type": "function"
    },
    {
      "constant": true,
      "inputs": [],
      "name": "productsOnAuction",
      "outputs": [
        {
          "internalType": "uint256",
          "name": "",
          "type": "uint256"
        }
      ],
      "payable": false,
      "stateMutability": "view",
      "type": "function"
    },
    {
      "constant": true,
      "inputs": [],
      "name": "soldCount",
      "outputs": [
        {
          "internalType": "uint256",
          "name": "",
          "type": "uint256"
        }
      ],
      "payable": false,
      "stateMutability": "view",
      "type": "function"
    },
    {
      "constant": false,
      "inputs": [
        {
          "internalType": "string",
          "name": "_name",
          "type": "string"
        },
        {
          "internalType": "string",
          "name": "_details",
          "type": "string"
        }
      ],
      "name": "createArtist",
      "outputs": [],
      "payable": false,
      "stateMutability": "nonpayable",
      "type": "function"
    },
    {
      "constant": false,
      "inputs": [
        {
          "internalType": "uint256",
          "name": "_id",
          "type": "uint256"
        },
        {
          "internalType": "string",
          "name": "_name",
          "type": "string"
        },
        {
          "internalType": "string",
          "name": "_details",
          "type": "string"
        }
      ],
      "name": "editArtist",
      "outputs": [],
      "payable": false,
      "stateMutability": "nonpayable",
      "type": "function"
    },
    {
      "constant": false,
      "inputs": [
        {
          "internalType": "string",
          "name": "_name",
          "type": "string"
        },
        {
          "internalType": "uint256",
          "name": "_price",
          "type": "uint256"
        },
        {
          "internalType": "uint256",
          "name": "_id_artist",
          "type": "uint256"
        },
        {
          "internalType": "string",
          "name": "_category",
          "type": "string"
        },
        {
          "internalType": "string",
          "name": "_description",
          "type": "string"
        },
        {
          "internalType": "string",
          "name": "_imageHash",
          "type": "string"
        }
      ],
      "name": "createProduct",
      "outputs": [],
      "payable": false,
      "stateMutability": "nonpayable",
      "type": "function"
    },
    {
      "constant": false,
      "inputs": [
        {
          "internalType": "uint256",
          "name": "_id",
          "type": "uint256"
        },
        {
          "internalType": "string",
          "name": "_name",
          "type": "string"
        },
        {
          "internalType": "uint256",
          "name": "_price",
          "type": "uint256"
        },
        {
          "internalType": "uint256",
          "name": "id_artist",
          "type": "uint256"
        },
        {
          "internalType": "string",
          "name": "_category",
          "type": "string"
        },
        {
          "internalType": "string",
          "name": "_description",
          "type": "string"
        },
        {
          "internalType": "string",
          "name": "_imageHash",
          "type": "string"
        }
      ],
      "name": "editProduct",
      "outputs": [],
      "payable": false,
      "stateMutability": "nonpayable",
      "type": "function"
    },
    {
      "constant": false,
      "inputs": [
        {
          "internalType": "uint256",
          "name": "_id_product",
          "type": "uint256"
        }
      ],
      "name": "deleteProduct",
      "outputs": [],
      "payable": false,
      "stateMutability": "nonpayable",
      "type": "function"
    },
    {
      "constant": false,
      "inputs": [
        {
          "internalType": "uint256",
          "name": "_id",
          "type": "uint256"
        }
      ],
      "name": "createAuction",
      "outputs": [],
      "payable": false,
      "stateMutability": "nonpayable",
      "type": "function"
    },
    {
      "constant": false,
      "inputs": [
        {
          "internalType": "uint256",
          "name": "_id",
          "type": "uint256"
        },
        {
          "internalType": "uint256",
          "name": "_target_price",
          "type": "uint256"
        }
      ],
      "name": "editAuction",
      "outputs": [],
      "payable": false,
      "stateMutability": "nonpayable",
      "type": "function"
    },
    {
      "constant": false,
      "inputs": [
        {
          "internalType": "uint256",
          "name": "auction_id",
          "type": "uint256"
        },
        {
          "internalType": "uint256",
          "name": "bid_value",
          "type": "uint256"
        },
        {
          "internalType": "uint256",
          "name": "product_id",
          "type": "uint256"
        }
      ],
      "name": "bid",
      "outputs": [],
      "payable": true,
      "stateMutability": "payable",
      "type": "function"
    },
    {
      "constant": false,
      "inputs": [
        {
          "internalType": "uint256",
          "name": "value",
          "type": "uint256"
        },
        {
          "internalType": "uint256",
          "name": "artist_id",
          "type": "uint256"
        }
      ],
      "name": "donation",
      "outputs": [],
      "payable": true,
      "stateMutability": "payable",
      "type": "function"
    },
    {
      "constant": false,
      "inputs": [
        {
          "internalType": "uint256",
          "name": "_id",
          "type": "uint256"
        }
      ],
      "name": "sendValue",
      "outputs": [],
      "payable": true,
      "stateMutability": "payable",
      "type": "function"
    },
    {
      "constant": false,
      "inputs": [
        {
          "internalType": "uint256",
          "name": "_id",
          "type": "uint256"
        }
      ],
      "name": "sellingUnderTarget",
      "outputs": [],
      "payable": true,
      "stateMutability": "payable",
      "type": "function"
    },
    {
      "constant": false,
      "inputs": [
        {
          "internalType": "uint256",
          "name": "_id",
          "type": "uint256"
        }
      ],
      "name": "auctionEnd",
      "outputs": [],
      "payable": true,
      "stateMutability": "payable",
      "type": "function"
    }
  ],
  "bytecode": "0x608060405260006002556000600355600060045560006005556000600655600060075560006008553480156200003457600080fd5b506040518060400160405280601481526020017f41756374696f6e20486f757365206f66204172740000000000000000000000008152506000908051906020019062000082929190620000ca565b5033600160006101000a81548173ffffffffffffffffffffffffffffffffffffffff021916908373ffffffffffffffffffffffffffffffffffffffff16021790555062000179565b828054600181600116156101000203166002900490600052602060002090601f016020900481019282601f106200010d57805160ff19168380011785556200013e565b828001600101855582156200013e579182015b828111156200013d57825182559160200191906001019062000120565b5b5090506200014d919062000151565b5090565b6200017691905b808211156200017257600081600090555060010162000158565b5090565b90565b614b9080620001896000396000f3fe6080604052600436106101665760003560e01c80637acc0b20116100d1578063d5563f311161008a578063ed90c7b711610064578063ed90c7b714610d5a578063f821a91514610d95578063fb0cf2cc14610dda578063fbf8f46814610f3957610166565b8063d5563f3114610cc6578063e0f6ef8714610d01578063e722b03d14610d2c57610166565b80637acc0b201461084d57806380edeb5314610a865780638da5cb5b14610ab1578063be53048214610b08578063cc6cb19a14610b33578063cd7e10c114610b9857610166565b806332246e9f1161012357806332246e9f1461069d57806333ed796c146106cb57806336d1e2dd146106f657806339f9c82c1461072e578063669c008314610759578063675632681461081f57610166565b806306fdde031461016b57806307f8b0c7146101fb5780631f5225951461036457806324b8ab2c1461038f5780632ac9bf09146106305780632ad7157314610672575b600080fd5b34801561017757600080fd5b506101806111e4565b6040518080602001828103825283818151815260200191508051906020019080838360005b838110156101c05780820151818401526020810190506101a5565b50505050905090810190601f1680156101ed5780820380516001836020036101000a031916815260200191505b509250505060405180910390f35b34801561020757600080fd5b506103626004803603606081101561021e57600080fd5b81019080803590602001909291908035906020019064010000000081111561024557600080fd5b82018360208201111561025757600080fd5b8035906020019184600183028401116401000000008311171561027957600080fd5b91908080601f016020809104026020016040519081016040528093929190818152602001838380828437600081840152601f19601f820116905080830192505050505050509192919290803590602001906401000000008111156102dc57600080fd5b8201836020820111156102ee57600080fd5b8035906020019184600183028401116401000000008311171561031057600080fd5b91908080601f016020809104026020016040519081016040528093929190818152602001838380828437600081840152601f19601f820116905080830192505050505050509192919290505050611282565b005b34801561037057600080fd5b50610379611479565b6040518082815260200191505060405180910390f35b34801561039b57600080fd5b5061062e600480360360c08110156103b257600080fd5b81019080803590602001906401000000008111156103cf57600080fd5b8201836020820111156103e157600080fd5b8035906020019184600183028401116401000000008311171561040357600080fd5b91908080601f016020809104026020016040519081016040528093929190818152602001838380828437600081840152601f19601f82011690508083019250505050505050919291929080359060200190929190803590602001909291908035906020019064010000000081111561047a57600080fd5b82018360208201111561048c57600080fd5b803590602001918460018302840111640100000000831117156104ae57600080fd5b91908080601f016020809104026020016040519081016040528093929190818152602001838380828437600081840152601f19601f8201169050808301925050505050505091929192908035906020019064010000000081111561051157600080fd5b82018360208201111561052357600080fd5b8035906020019184600183028401116401000000008311171561054557600080fd5b91908080601f016020809104026020016040519081016040528093929190818152602001838380828437600081840152601f19601f820116905080830192505050505050509192919290803590602001906401000000008111156105a857600080fd5b8201836020820111156105ba57600080fd5b803590602001918460018302840111640100000000831117156105dc57600080fd5b91908080601f016020809104026020016040519081016040528093929190818152602001838380828437600081840152601f19601f82011690508083019250505050505050919291929050505061147f565b005b6106706004803603606081101561064657600080fd5b810190808035906020019092919080359060200190929190803590602001909291905050506118ce565b005b34801561067e57600080fd5b50610687611f51565b6040518082815260200191505060405180910390f35b6106c9600480360360208110156106b357600080fd5b8101908080359060200190929190505050611f57565b005b3480156106d757600080fd5b506106e0612780565b6040518082815260200191505060405180910390f35b61072c6004803603604081101561070c57600080fd5b810190808035906020019092919080359060200190929190505050612786565b005b34801561073a57600080fd5b5061074361299e565b6040518082815260200191505060405180910390f35b34801561076557600080fd5b506107926004803603602081101561077c57600080fd5b81019080803590602001909291905050506129a4565b604051808b81526020018a81526020018981526020018873ffffffffffffffffffffffffffffffffffffffff1673ffffffffffffffffffffffffffffffffffffffff1681526020018781526020018681526020018515151515815260200184815260200183151515158152602001821515151581526020019a505050505050505050505060405180910390f35b61084b6004803603602081101561083557600080fd5b8101908080359060200190929190505050612a3f565b005b34801561085957600080fd5b506108866004803603602081101561087057600080fd5b8101908080359060200190929190505050612d43565b604051808c8152602001806020018b81526020018a81526020018060200180602001806020018915151515815260200188151515158152602001871515151581526020018615151515815260200185810385528f818151815260200191508051906020019080838360005b8381101561090c5780820151818401526020810190506108f1565b50505050905090810190601f1680156109395780820380516001836020036101000a031916815260200191505b5085810384528c818151815260200191508051906020019080838360005b83811015610972578082015181840152602081019050610957565b50505050905090810190601f16801561099f5780820380516001836020036101000a031916815260200191505b5085810383528b818151815260200191508051906020019080838360005b838110156109d85780820151818401526020810190506109bd565b50505050905090810190601f168015610a055780820380516001836020036101000a031916815260200191505b5085810382528a818151815260200191508051906020019080838360005b83811015610a3e578082015181840152602081019050610a23565b50505050905090810190601f168015610a6b5780820380516001836020036101000a031916815260200191505b509f5050505050505050505050505050505060405180910390f35b348015610a9257600080fd5b50610a9b613031565b6040518082815260200191505060405180910390f35b348015610abd57600080fd5b50610ac6613037565b604051808273ffffffffffffffffffffffffffffffffffffffff1673ffffffffffffffffffffffffffffffffffffffff16815260200191505060405180910390f35b348015610b1457600080fd5b50610b1d61305d565b6040518082815260200191505060405180910390f35b348015610b3f57600080fd5b50610b8260048036036020811015610b5657600080fd5b81019080803573ffffffffffffffffffffffffffffffffffffffff169060200190929190505050613063565b6040518082815260200191505060405180910390f35b348015610ba457600080fd5b50610bd160048036036020811015610bbb57600080fd5b810190808035906020019092919050505061307b565b604051808581526020018060200180602001848152602001838103835286818151815260200191508051906020019080838360005b83811015610c21578082015181840152602081019050610c06565b50505050905090810190601f168015610c4e5780820380516001836020036101000a031916815260200191505b50838103825285818151815260200191508051906020019080838360005b83811015610c87578082015181840152602081019050610c6c565b50505050905090810190601f168015610cb45780820380516001836020036101000a031916815260200191505b50965050505050505060405180910390f35b348015610cd257600080fd5b50610cff60048036036020811015610ce957600080fd5b81019080803590602001909291905050506131db565b005b348015610d0d57600080fd5b50610d16613615565b6040518082815260200191505060405180910390f35b610d5860048036036020811015610d4257600080fd5b810190808035906020019092919050505061361b565b005b348015610d6657600080fd5b50610d9360048036036020811015610d7d57600080fd5b8101908080359060200190929190505050613910565b005b348015610da157600080fd5b50610dd860048036036040811015610db857600080fd5b810190808035906020019092919080359060200190929190505050613eb6565b005b348015610de657600080fd5b50610f3760048036036040811015610dfd57600080fd5b8101908080359060200190640100000000811115610e1a57600080fd5b820183602082011115610e2c57600080fd5b80359060200191846001830284011164010000000083111715610e4e57600080fd5b91908080601f016020809104026020016040519081016040528093929190818152602001838380828437600081840152601f19601f82011690508083019250505050505050919291929080359060200190640100000000811115610eb157600080fd5b820183602082011115610ec357600080fd5b80359060200191846001830284011164010000000083111715610ee557600080fd5b91908080601f016020809104026020016040519081016040528093929190818152602001838380828437600081840152601f19601f8201169050808301925050505050505091929192905050506141f2565b005b348015610f4557600080fd5b506111e2600480360360e0811015610f5c57600080fd5b810190808035906020019092919080359060200190640100000000811115610f8357600080fd5b820183602082011115610f9557600080fd5b80359060200191846001830284011164010000000083111715610fb757600080fd5b91908080601f016020809104026020016040519081016040528093929190818152602001838380828437600081840152601f19601f82011690508083019250505050505050919291929080359060200190929190803590602001909291908035906020019064010000000081111561102e57600080fd5b82018360208201111561104057600080fd5b8035906020019184600183028401116401000000008311171561106257600080fd5b91908080601f016020809104026020016040519081016040528093929190818152602001838380828437600081840152601f19601f820116905080830192505050505050509192919290803590602001906401000000008111156110c557600080fd5b8201836020820111156110d757600080fd5b803590602001918460018302840111640100000000831117156110f957600080fd5b91908080601f016020809104026020016040519081016040528093929190818152602001838380828437600081840152601f19601f8201169050808301925050505050505091929192908035906020019064010000000081111561115c57600080fd5b82018360208201111561116e57600080fd5b8035906020019184600183028401116401000000008311171561119057600080fd5b91908080601f016020809104026020016040519081016040528093929190818152602001838380828437600081840152601f19601f820116905080830192505050505050509192919290505050614493565b005b60008054600181600116156101000203166002900480601f01602080910402602001604051908101604052809291908181526020018280546001816001161561010002031660029004801561127a5780601f1061124f5761010080835404028352916020019161127a565b820191906000526020600020905b81548152906001019060200180831161125d57829003601f168201915b505050505081565b600082511161129057600080fd5b600081511161129e57600080fd5b6000600960008581526020019081526020016000209050828160010190805190602001906112cd92919061498c565b50818160020190805190602001906112e692919061498c565b508060096000868152602001908152602001600020600082015481600001556001820181600101908054600181600116156101000203166002900461132c929190614a0c565b5060028201816002019080546001816001161561010002031660029004611354929190614a0c565b50600382015481600301559050507f32141d773ee9c2c3d65647f0cefc910eb6ae3973dcb50abf2affd519d6d71ebb848484604051808481526020018060200180602001838103835285818151815260200191508051906020019080838360005b838110156113d05780820151818401526020810190506113b5565b50505050905090810190601f1680156113fd5780820380516001836020036101000a031916815260200191505b50838103825284818151815260200191508051906020019080838360005b8381101561143657808201518184015260208101905061141b565b50505050905090810190601f1680156114635780820380516001836020036101000a031916815260200191505b509550505050505060405180910390a150505050565b60075481565b600160009054906101000a900473ffffffffffffffffffffffffffffffffffffffff1673ffffffffffffffffffffffffffffffffffffffff163373ffffffffffffffffffffffffffffffffffffffff16146114d957600080fd5b60008651116114e757600080fd5b600085116114f457600080fd5b600083511161150257600080fd5b600082511161151057600080fd5b600081511161151e57600080fd5b600260008154809291906001019190505550600460008154809291906001019190505550604051806101600160405280600254815260200187815260200186815260200185815260200184815260200183815260200182815260200160001515815260200160001515815260200160001515815260200160011515815250600a600060025481526020019081526020016000206000820151816000015560208201518160010190805190602001906115d7929190614a93565b5060408201518160020155606082015181600301556080820151816004019080519060200190611608929190614a93565b5060a0820151816005019080519060200190611625929190614a93565b5060c0820151816006019080519060200190611642929190614a93565b5060e08201518160070160006101000a81548160ff0219169083151502179055506101008201518160070160016101000a81548160ff0219169083151502179055506101208201518160070160026101000a81548160ff0219169083151502179055506101408201518160070160036101000a81548160ff0219169083151502179055509050507f8827633fd6f7cc8fea01ef2debac580ba0afd149fc94f73670eb94cda1c68246600254878787878787604051808881526020018060200187815260200186815260200180602001806020018060200185810385528b818151815260200191508051906020019080838360005b83811015611751578082015181840152602081019050611736565b50505050905090810190601f16801561177e5780820380516001836020036101000a031916815260200191505b50858103845288818151815260200191508051906020019080838360005b838110156117b757808201518184015260208101905061179c565b50505050905090810190601f1680156117e45780820380516001836020036101000a031916815260200191505b50858103835287818151815260200191508051906020019080838360005b8381101561181d578082015181840152602081019050611802565b50505050905090810190601f16801561184a5780820380516001836020036101000a031916815260200191505b50858103825286818151815260200191508051906020019080838360005b83811015611883578082015181840152602081019050611868565b50505050905090810190601f1680156118b05780820380516001836020036101000a031916815260200191505b509b50505050505050505050505060405180910390a1505050505050565b6000600a60008381526020019081526020016000209050600081600001541180156118ff5750600254816000015411155b611971576040517f08c379a00000000000000000000000000000000000000000000000000000000081526004018080602001828103825260118152602001807f50726f64756374206e6f7420666f756e6400000000000000000000000000000081525060200191505060405180910390fd5b6000600b60008681526020019081526020016000209050600081600001541180156119a25750600354816000015411155b611a14576040517f08c379a00000000000000000000000000000000000000000000000000000000081526004018080602001828103825260118152602001807f41756374696f6e206e6f7420666f756e6400000000000000000000000000000081525060200191505060405180910390fd5b8060020154421115611a8e576040517f08c379a000000000000000000000000000000000000000000000000000000000815260040180806020018281038252600d8152602001807f41756374696f6e20656e6465640000000000000000000000000000000000000081525060200191505060405180910390fd5b600160009054906101000a900473ffffffffffffffffffffffffffffffffffffffff1673ffffffffffffffffffffffffffffffffffffffff163373ffffffffffffffffffffffffffffffffffffffff161415611b52576040517f08c379a00000000000000000000000000000000000000000000000000000000081526004018080602001828103825260088152602001807f4f776e657221212100000000000000000000000000000000000000000000000081525060200191505060405180910390fd5b80600401548411611bcb576040517f08c379a00000000000000000000000000000000000000000000000000000000081526004018080602001828103825260108152602001807f56616c756520746f6f206c6974746c650000000000000000000000000000000081525060200191505060405180910390fd5b8160020154816004015410611c495780600401548160090160008360030160009054906101000a900473ffffffffffffffffffffffffffffffffffffffff1673ffffffffffffffffffffffffffffffffffffffff1673ffffffffffffffffffffffffffffffffffffffff168152602001908152602001600020819055505b60018160050160008282540192505081905550338160030160006101000a81548173ffffffffffffffffffffffffffffffffffffffff021916908373ffffffffffffffffffffffffffffffffffffffff16021790555083816004018190555080600b60008781526020019081526020016000206000820154816000015560018201548160010155600282015481600201556003820160009054906101000a900473ffffffffffffffffffffffffffffffffffffffff168160030160006101000a81548173ffffffffffffffffffffffffffffffffffffffff021916908373ffffffffffffffffffffffffffffffffffffffff16021790555060048201548160040155600582015481600501556006820160009054906101000a900460ff168160060160006101000a81548160ff021916908315150217905550600782015481600701556008820160009054906101000a900460ff168160080160006101000a81548160ff0219169083151502179055506008820160019054906101000a900460ff168160080160016101000a81548160ff0219169083151502179055509050507f3a5e2acc0c7033bec9c14e8b5433cd2a6b948cf3d35c62d77cf2e0afcb42a41e8582600101548360020154338886600501548760060160009054906101000a900460ff168a8960080160009054906101000a900460ff168a60080160019054906101000a900460ff16604051808b81526020018a81526020018981526020018873ffffffffffffffffffffffffffffffffffffffff1673ffffffffffffffffffffffffffffffffffffffff1681526020018781526020018681526020018515151515815260200184815260200183151515158152602001821515151581526020019a505050505050505050505060405180910390a17fdeda60fb6e38f55d4ccab679f50f933d04b1dca8584775216dbdac46f251ca4a3385604051808373ffffffffffffffffffffffffffffffffffffffff1673ffffffffffffffffffffffffffffffffffffffff1681526020018281526020019250505060405180910390a15050505050565b60035481565b6000600b6000838152602001908152602001600020905060008160000154118015611f885750600354816000015411155b611f9157600080fd5b8060060160009054906101000a900460ff1615611ff9576040517f08c379a0000000000000000000000000000000000000000000000000000000008152600401808060200182810382526023815260200180614b396023913960400191505060405180910390fd5b6000600a60008360070154815260200190815260200160002090506000816000015411801561202e5750600254816000015411155b61203757600080fd5b8060070160009054906101000a900460ff161561205357600080fd5b6000826005015414156120825760008160070160006101000a81548160ff0219169083151502179055506120a0565b60018160070160006101000a81548160ff0219169083151502179055505b60018160070160026101000a81548160ff02191690831515021790555060018260060160006101000a81548160ff021916908315150217905550600460008154809291906001900391905055506005600081548092919060019003919050555060086000815480929190600101919050555081600b60008581526020019081526020016000206000820154816000015560018201548160010155600282015481600201556003820160009054906101000a900473ffffffffffffffffffffffffffffffffffffffff168160030160006101000a81548173ffffffffffffffffffffffffffffffffffffffff021916908373ffffffffffffffffffffffffffffffffffffffff16021790555060048201548160040155600582015481600501556006820160009054906101000a900460ff168160060160006101000a81548160ff021916908315150217905550600782015481600701556008820160009054906101000a900460ff168160080160006101000a81548160ff0219169083151502179055506008820160019054906101000a900460ff168160080160016101000a81548160ff02191690831515021790555090505080600a600084600701548152602001908152602001600020600082015481600001556001820181600101908054600181600116156101000203166002900461229c929190614a0c565b506002820154816002015560038201548160030155600482018160040190805460018160011615610100020316600290046122d8929190614a0c565b5060058201816005019080546001816001161561010002031660029004612300929190614a0c565b5060068201816006019080546001816001161561010002031660029004612328929190614a0c565b506007820160009054906101000a900460ff168160070160006101000a81548160ff0219169083151502179055506007820160019054906101000a900460ff168160070160016101000a81548160ff0219169083151502179055506007820160029054906101000a900460ff168160070160026101000a81548160ff0219169083151502179055506007820160039054906101000a900460ff168160070160036101000a81548160ff0219169083151502179055509050507fdaec4582d5d9595688c8c98545fdd1c696d41c6aeaeb636737e84ed2f5c00eda8260030160009054906101000a900473ffffffffffffffffffffffffffffffffffffffff168360040154604051808373ffffffffffffffffffffffffffffffffffffffff1673ffffffffffffffffffffffffffffffffffffffff1681526020018281526020019250505060405180910390a17fc9cf267540414db4c25729c73a4a878a6bdc1e2bba366b78ed4975bf356419e8816000015482600101836002015484600301548560040186600501876006018860070160009054906101000a900460ff168a600401548b60030160009054906101000a900473ffffffffffffffffffffffffffffffffffffffff16604051808b8152602001806020018a8152602001898152602001806020018060200180602001881515151581526020018781526020018673ffffffffffffffffffffffffffffffffffffffff1673ffffffffffffffffffffffffffffffffffffffff16815260200185810385528e8181546001816001161561010002031660029004815260200191508054600181600116156101000203166002900480156125d85780601f106125ad576101008083540402835291602001916125d8565b820191906000526020600020905b8154815290600101906020018083116125bb57829003601f168201915b505085810384528b81815460018160011615610100020316600290048152602001915080546001816001161561010002031660029004801561265b5780601f106126305761010080835404028352916020019161265b565b820191906000526020600020905b81548152906001019060200180831161263e57829003601f168201915b505085810383528a8181546001816001161561010002031660029004815260200191508054600181600116156101000203166002900480156126de5780601f106126b3576101008083540402835291602001916126de565b820191906000526020600020905b8154815290600101906020018083116126c157829003601f168201915b50508581038252898181546001816001161561010002031660029004815260200191508054600181600116156101000203166002900480156127615780601f1061273657610100808354040283529160200191612761565b820191906000526020600020905b81548152906001019060200180831161274457829003601f168201915b50509e50505050505050505050505050505060405180910390a1505050565b60055481565b6000600960008381526020019081526020016000209050600083116127aa57600080fd5b6000600c60003373ffffffffffffffffffffffffffffffffffffffff1673ffffffffffffffffffffffffffffffffffffffff168152602001908152602001600020541415612805576007600081548092919060010191905055505b82600c60003373ffffffffffffffffffffffffffffffffffffffff1673ffffffffffffffffffffffffffffffffffffffff16815260200190815260200160002060008282540192505081905550828160030160008282540192505081905550600160009054906101000a900473ffffffffffffffffffffffffffffffffffffffff1673ffffffffffffffffffffffffffffffffffffffff166108fc349081150290604051600060405180830381858888f193505050501580156128cc573d6000803e3d6000fd5b507f62947c19bd0e82be02869f914e667557a9d0310712ea4a7c9a07186958d1c79882826001013460405180848152602001806020018381526020018281038252848181546001816001161561010002031660029004815260200191508054600181600116156101000203166002900480156129895780601f1061295e57610100808354040283529160200191612989565b820191906000526020600020905b81548152906001019060200180831161296c57829003601f168201915b505094505050505060405180910390a1505050565b60085481565b600b6020528060005260406000206000915090508060000154908060010154908060020154908060030160009054906101000a900473ffffffffffffffffffffffffffffffffffffffff16908060040154908060050154908060060160009054906101000a900460ff16908060070154908060080160009054906101000a900460ff16908060080160019054906101000a900460ff1690508a565b6000600b6000838152602001908152602001600020905060018160080160006101000a81548160ff02191690831515021790555080600b60008481526020019081526020016000206000820154816000015560018201548160010155600282015481600201556003820160009054906101000a900473ffffffffffffffffffffffffffffffffffffffff168160030160006101000a81548173ffffffffffffffffffffffffffffffffffffffff021916908373ffffffffffffffffffffffffffffffffffffffff16021790555060048201548160040155600582015481600501556006820160009054906101000a900460ff168160060160006101000a81548160ff021916908315150217905550600782015481600701556008820160009054906101000a900460ff168160080160006101000a81548160ff0219169083151502179055506008820160019054906101000a900460ff168160080160016101000a81548160ff0219169083151502179055509050507f3a5e2acc0c7033bec9c14e8b5433cd2a6b948cf3d35c62d77cf2e0afcb42a41e82826001015483600201548460030160009054906101000a900473ffffffffffffffffffffffffffffffffffffffff16856004015486600501548760060160009054906101000a900460ff1688600701548960080160009054906101000a900460ff168a60080160019054906101000a900460ff16604051808b81526020018a81526020018981526020018873ffffffffffffffffffffffffffffffffffffffff1673ffffffffffffffffffffffffffffffffffffffff1681526020018781526020018681526020018515151515815260200184815260200183151515158152602001821515151581526020019a505050505050505050505060405180910390a1600160009054906101000a900473ffffffffffffffffffffffffffffffffffffffff1673ffffffffffffffffffffffffffffffffffffffff166108fc349081150290604051600060405180830381858888f19350505050158015612d3e573d6000803e3d6000fd5b505050565b600a602052806000526040600020600091509050806000015490806001018054600181600116156101000203166002900480601f016020809104026020016040519081016040528092919081815260200182805460018160011615610100020316600290048015612df55780601f10612dca57610100808354040283529160200191612df5565b820191906000526020600020905b815481529060010190602001808311612dd857829003601f168201915b505050505090806002015490806003015490806004018054600181600116156101000203166002900480601f016020809104026020016040519081016040528092919081815260200182805460018160011615610100020316600290048015612e9f5780601f10612e7457610100808354040283529160200191612e9f565b820191906000526020600020905b815481529060010190602001808311612e8257829003601f168201915b505050505090806005018054600181600116156101000203166002900480601f016020809104026020016040519081016040528092919081815260200182805460018160011615610100020316600290048015612f3d5780601f10612f1257610100808354040283529160200191612f3d565b820191906000526020600020905b815481529060010190602001808311612f2057829003601f168201915b505050505090806006018054600181600116156101000203166002900480601f016020809104026020016040519081016040528092919081815260200182805460018160011615610100020316600290048015612fdb5780601f10612fb057610100808354040283529160200191612fdb565b820191906000526020600020905b815481529060010190602001808311612fbe57829003601f168201915b5050505050908060070160009054906101000a900460ff16908060070160019054906101000a900460ff16908060070160029054906101000a900460ff16908060070160039054906101000a900460ff1690508b565b60045481565b600160009054906101000a900473ffffffffffffffffffffffffffffffffffffffff1681565b60065481565b600c6020528060005260406000206000915090505481565b6009602052806000526040600020600091509050806000015490806001018054600181600116156101000203166002900480601f01602080910402602001604051908101604052809291908181526020018280546001816001161561010002031660029004801561312d5780601f106131025761010080835404028352916020019161312d565b820191906000526020600020905b81548152906001019060200180831161311057829003601f168201915b505050505090806002018054600181600116156101000203166002900480601f0160208091040260200160405190810160405280929190818152602001828054600181600116156101000203166002900480156131cb5780601f106131a0576101008083540402835291602001916131cb565b820191906000526020600020905b8154815290600101906020018083116131ae57829003601f168201915b5050505050908060030154905084565b6000600a600083815260200190815260200160002090506000816000015411801561320c5750600254816000015411155b61321557600080fd5b600160009054906101000a900473ffffffffffffffffffffffffffffffffffffffff1673ffffffffffffffffffffffffffffffffffffffff163373ffffffffffffffffffffffffffffffffffffffff161461326f57600080fd5b60018160070160016101000a81548160ff0219169083151502179055506003600081548092919060010191905055506005600081548092919060010191905055506000620151804201905060006002836002015402905082600a6000868152602001908152602001600020600082015481600001556001820181600101908054600181600116156101000203166002900461330b929190614a0c565b50600282015481600201556003820154816003015560048201816004019080546001816001161561010002031660029004613347929190614a0c565b506005820181600501908054600181600116156101000203166002900461336f929190614a0c565b5060068201816006019080546001816001161561010002031660029004613397929190614a0c565b506007820160009054906101000a900460ff168160070160006101000a81548160ff0219169083151502179055506007820160019054906101000a900460ff168160070160016101000a81548160ff0219169083151502179055506007820160029054906101000a900460ff168160070160026101000a81548160ff0219169083151502179055506007820160039054906101000a900460ff168160070160036101000a81548160ff0219169083151502179055509050506040518061014001604052806003548152602001828152602001838152602001600073ffffffffffffffffffffffffffffffffffffffff16815260200160008152602001600081526020016000151581526020018460000154815260200160001515815260200160001515815250600b6000600354815260200190815260200160002060008201518160000155602082015181600101556040820151816002015560608201518160030160006101000a81548173ffffffffffffffffffffffffffffffffffffffff021916908373ffffffffffffffffffffffffffffffffffffffff1602179055506080820151816004015560a0820151816005015560c08201518160060160006101000a81548160ff02191690831515021790555060e082015181600701556101008201518160080160006101000a81548160ff0219169083151502179055506101208201518160080160016101000a81548160ff0219169083151502179055509050507fa9c8dfcda5664a5a124c713e386da27de87432d5b668e79458501eb296389ba7600354828486600001546040518085815260200184815260200183815260200182815260200194505050505060405180910390a150505050565b60025481565b600160009054906101000a900473ffffffffffffffffffffffffffffffffffffffff1673ffffffffffffffffffffffffffffffffffffffff163373ffffffffffffffffffffffffffffffffffffffff161461367557600080fd5b6000600b6000838152602001908152602001600020905060018160080160016101000a81548160ff02191690831515021790555080600b60008481526020019081526020016000206000820154816000015560018201548160010155600282015481600201556003820160009054906101000a900473ffffffffffffffffffffffffffffffffffffffff168160030160006101000a81548173ffffffffffffffffffffffffffffffffffffffff021916908373ffffffffffffffffffffffffffffffffffffffff16021790555060048201548160040155600582015481600501556006820160009054906101000a900460ff168160060160006101000a81548160ff021916908315150217905550600782015481600701556008820160009054906101000a900460ff168160080160006101000a81548160ff0219169083151502179055506008820160019054906101000a900460ff168160080160016101000a81548160ff0219169083151502179055509050507f3a5e2acc0c7033bec9c14e8b5433cd2a6b948cf3d35c62d77cf2e0afcb42a41e82826001015483600201548460030160009054906101000a900473ffffffffffffffffffffffffffffffffffffffff16856004015486600501548760060160009054906101000a900460ff1688600701548960080160009054906101000a900460ff168a60080160019054906101000a900460ff16604051808b81526020018a81526020018981526020018873ffffffffffffffffffffffffffffffffffffffff1673ffffffffffffffffffffffffffffffffffffffff1681526020018781526020018681526020018515151515815260200184815260200183151515158152602001821515151581526020019a505050505050505050505060405180910390a15050565b6000600a60008381526020019081526020016000209050600081600001541180156139415750600254816000015411155b6139b3576040517f08c379a00000000000000000000000000000000000000000000000000000000081526004018080602001828103825260118152602001807f50726f64756374206e6f7420666f756e6400000000000000000000000000000081525060200191505060405180910390fd5b60018160070160006101000a81548160ff02191690831515021790555060008160070160026101000a81548160ff02191690831515021790555060008160070160036101000a81548160ff02191690831515021790555080600a60008481526020019081526020016000206000820154816000015560018201816001019080546001816001161561010002031660029004613a4f929190614a0c565b50600282015481600201556003820154816003015560048201816004019080546001816001161561010002031660029004613a8b929190614a0c565b5060058201816005019080546001816001161561010002031660029004613ab3929190614a0c565b5060068201816006019080546001816001161561010002031660029004613adb929190614a0c565b506007820160009054906101000a900460ff168160070160006101000a81548160ff0219169083151502179055506007820160019054906101000a900460ff168160070160016101000a81548160ff0219169083151502179055506007820160029054906101000a900460ff168160070160026101000a81548160ff0219169083151502179055506007820160039054906101000a900460ff168160070160036101000a81548160ff021916908315150217905550905050600460008154809291906001900391905055508060070160019054906101000a900460ff1615613bd157600560008154809291906001900391905055505b7fc9cf267540414db4c25729c73a4a878a6bdc1e2bba366b78ed4975bf356419e8816000015482600101836002015484600301548560040186600501876006018860070160009054906101000a900460ff16600080604051808b8152602001806020018a8152602001898152602001806020018060200180602001881515151581526020018781526020018673ffffffffffffffffffffffffffffffffffffffff1673ffffffffffffffffffffffffffffffffffffffff16815260200185810385528e818154600181600116156101000203166002900481526020019150805460018160011615610100020316600290048015613d0f5780601f10613ce457610100808354040283529160200191613d0f565b820191906000526020600020905b815481529060010190602001808311613cf257829003601f168201915b505085810384528b818154600181600116156101000203166002900481526020019150805460018160011615610100020316600290048015613d925780601f10613d6757610100808354040283529160200191613d92565b820191906000526020600020905b815481529060010190602001808311613d7557829003601f168201915b505085810383528a818154600181600116156101000203166002900481526020019150805460018160011615610100020316600290048015613e155780601f10613dea57610100808354040283529160200191613e15565b820191906000526020600020905b815481529060010190602001808311613df857829003601f168201915b5050858103825289818154600181600116156101000203166002900481526020019150805460018160011615610100020316600290048015613e985780601f10613e6d57610100808354040283529160200191613e98565b820191906000526020600020905b815481529060010190602001808311613e7b57829003601f168201915b50509e50505050505050505050505050505060405180910390a15050565b6000600b6000848152602001908152602001600020905060008160000154118015613ee75750600354816000015411155b613f59576040517f08c379a00000000000000000000000000000000000000000000000000000000081526004018080602001828103825260118152602001807f41756374696f6e206e6f7420666f756e6400000000000000000000000000000081525060200191505060405180910390fd5b6000600a6000858152602001908152602001600020905080600201548311613f8057600080fd5b82826001018190555081600b60008681526020019081526020016000206000820154816000015560018201548160010155600282015481600201556003820160009054906101000a900473ffffffffffffffffffffffffffffffffffffffff168160030160006101000a81548173ffffffffffffffffffffffffffffffffffffffff021916908373ffffffffffffffffffffffffffffffffffffffff16021790555060048201548160040155600582015481600501556006820160009054906101000a900460ff168160060160006101000a81548160ff021916908315150217905550600782015481600701556008820160009054906101000a900460ff168160080160006101000a81548160ff0219169083151502179055506008820160019054906101000a900460ff168160080160016101000a81548160ff0219169083151502179055509050507f3a5e2acc0c7033bec9c14e8b5433cd2a6b948cf3d35c62d77cf2e0afcb42a41e84836001015484600201548560030160009054906101000a900473ffffffffffffffffffffffffffffffffffffffff16866004015487600501548860060160009054906101000a900460ff1689600701548a60080160009054906101000a900460ff168b60080160019054906101000a900460ff16604051808b81526020018a81526020018981526020018873ffffffffffffffffffffffffffffffffffffffff1673ffffffffffffffffffffffffffffffffffffffff1681526020018781526020018681526020018515151515815260200184815260200183151515158152602001821515151581526020019a505050505050505050505060405180910390a150505050565b6000825111614269576040517f08c379a000000000000000000000000000000000000000000000000000000000815260040180806020018281038252600e8152602001807f6e616d6520746f6f2073686f727400000000000000000000000000000000000081525060200191505060405180910390fd5b60008151116142e0576040517f08c379a000000000000000000000000000000000000000000000000000000000815260040180806020018281038252600d8152602001807f656d7074792064657461696c730000000000000000000000000000000000000081525060200191505060405180910390fd5b600660008154809291906001019190505550604051806080016040528060065481526020018381526020018281526020016000815250600960006006548152602001908152602001600020600082015181600001556020820151816001019080519060200190614351929190614a93565b50604082015181600201908051906020019061436e929190614a93565b50606082015181600301559050507fc80d84d603620f36f0e23c87749890542fbe6208721d2fc986e0545713e68da46006548383604051808481526020018060200180602001838103835285818151815260200191508051906020019080838360005b838110156143ec5780820151818401526020810190506143d1565b50505050905090810190601f1680156144195780820380516001836020036101000a031916815260200191505b50838103825284818151815260200191508051906020019080838360005b83811015614452578082015181840152602081019050614437565b50505050905090810190601f16801561447f5780820380516001836020036101000a031916815260200191505b509550505050505060405180910390a15050565b600160009054906101000a900473ffffffffffffffffffffffffffffffffffffffff1673ffffffffffffffffffffffffffffffffffffffff163373ffffffffffffffffffffffffffffffffffffffff16146144ed57600080fd5b60008651116144fb57600080fd5b6000851161450857600080fd5b600083511161451657600080fd5b600082511161452457600080fd5b600081511161453257600080fd5b6000600960008681526020019081526020016000209050600081600001541180156145635750600654816000015411155b61456c57600080fd5b6000600a60008a815260200190815260200160002090508781600101908051906020019061459b92919061498c565b50868160020181905550858160030181905550848160040190805190602001906145c692919061498c565b50838160050190805190602001906145df92919061498c565b50828160060190805190602001906145f892919061498c565b5080600a600060025481526020019081526020016000206000820154816000015560018201816001019080546001816001161561010002031660029004614640929190614a0c565b5060028201548160020155600382015481600301556004820181600401908054600181600116156101000203166002900461467c929190614a0c565b50600582018160050190805460018160011615610100020316600290046146a4929190614a0c565b50600682018160060190805460018160011615610100020316600290046146cc929190614a0c565b506007820160009054906101000a900460ff168160070160006101000a81548160ff0219169083151502179055506007820160019054906101000a900460ff168160070160016101000a81548160ff0219169083151502179055506007820160029054906101000a900460ff168160070160026101000a81548160ff0219169083151502179055506007820160039054906101000a900460ff168160070160036101000a81548160ff0219169083151502179055509050507fa96fb91f542a05bd99b8aefd1c433d4d0401735ee76ee79ea91c06a8d78a2138600254898989898989604051808881526020018060200187815260200186815260200180602001806020018060200185810385528b818151815260200191508051906020019080838360005b8381101561480c5780820151818401526020810190506147f1565b50505050905090810190601f1680156148395780820380516001836020036101000a031916815260200191505b50858103845288818151815260200191508051906020019080838360005b83811015614872578082015181840152602081019050614857565b50505050905090810190601f16801561489f5780820380516001836020036101000a031916815260200191505b50858103835287818151815260200191508051906020019080838360005b838110156148d85780820151818401526020810190506148bd565b50505050905090810190601f1680156149055780820380516001836020036101000a031916815260200191505b50858103825286818151815260200191508051906020019080838360005b8381101561493e578082015181840152602081019050614923565b50505050905090810190601f16801561496b5780820380516001836020036101000a031916815260200191505b509b50505050505050505050505060405180910390a1505050505050505050565b828054600181600116156101000203166002900490600052602060002090601f016020900481019282601f106149cd57805160ff19168380011785556149fb565b828001600101855582156149fb579182015b828111156149fa5782518255916020019190600101906149df565b5b509050614a089190614b13565b5090565b828054600181600116156101000203166002900490600052602060002090601f016020900481019282601f10614a455780548555614a82565b82800160010185558215614a8257600052602060002091601f016020900482015b82811115614a81578254825591600101919060010190614a66565b5b509050614a8f9190614b13565b5090565b828054600181600116156101000203166002900490600052602060002090601f016020900481019282601f10614ad457805160ff1916838001178555614b02565b82800160010185558215614b02579182015b82811115614b01578251825591602001919060010190614ae6565b5b509050614b0f9190614b13565b5090565b614b3591905b80821115614b31576000816000905550600101614b19565b5090565b9056fe61756374696f6e456e642068617320616c7265616479206265656e2063616c6c65642ea265627a7a72315820dff3ce2b461e69ae868f1b546ea7c3a0da88bddbb7fd152c18f4404457e75b6664736f6c63430005100032",
  "source": "// pragma solidity ^0.5.0;\npragma solidity >=0.5.0 <0.9.0;\n\n/**\n * The AuctionHouse\n contract does this and that...\n */\n\ncontract AuctionHouse {\n\tstring public name;\n    address payable public owner;\n\tuint public productCount = 0;\n    uint public auctionCount = 0;\n    uint public productsOnAuction = 0;\n    uint public activeAuction = 0;\n    uint public artistCount = 0;\n    uint public donationsCount = 0;\n    uint public soldCount = 0;\n    mapping (uint => Artist) public artists;\n\tmapping(uint => Product) public products;\n    mapping(uint => Auction) public auctionList;\n    mapping(address => uint) public donations;\n\n\tstruct Product{\n        uint id_product;\n        string name;\n        uint price;\n        uint id_artist;\n        string category;\n        string description;\n        string image_hash;\n        bool purchased;\n        bool auction_started;\n        bool auction_ended;\n        bool active;\n    }\n\n    struct Auction{\n        uint id_auction;\n        uint target_price;\n        uint auctionEndTime;\n        address payable highestBidder;\n        uint highestBid;\n        uint offerCount;\n        bool ended;\n        uint id_product;\n        bool moneySent;\n        bool sellUnderTarget;\n        mapping(address => uint) clients;\n    }\n\n    struct Artist{\n        uint id_artist;\n        string artist_name;\n        string details;\n        uint amount_collected;\n    }\n\n    event ProductCreated(\n        uint id_product,\n        string name,\n        uint price,\n        uint id_artist,\n        string category,\n        string description,\n        string image_hash\n    );\n\n    event ProductUpdated(\n        uint id_product,\n        string name,\n        uint price,\n        uint id_artist,\n        string category,\n        string description,\n        string image_hash\n    );\n\n    event ProductSold(\n        uint id_product,\n        string name,\n        uint price,\n        uint id_artist,\n        string category,\n        string description,\n        string image_hash,\n        bool purchased,\n        uint priceSold,\n        address payable winner\n    );\n\n    event ArtistCreated(\n        uint id_artist,\n        string artist_name,\n        string details\n    );\n\n    event ArtistUpdated(\n        uint id_artist,\n        string artist_name,\n        string details\n    );\n\n    event IncreasedDonation(\n        uint id_artist,\n        string artist_name,\n        uint amount\n    );\n\n    event AuctionCreated(\n        uint id_auction,\n        uint target_price,\n        uint auctionEndTime,\n        uint id_product\n    );\n\n    event AuctionUpdated(\n        uint id_auction,\n        uint target_price,\n        uint auctionEndTime,\n        address payable highestBidder,\n        uint highestBid,\n        uint offerCount,\n        bool ended,\n        uint id_product, \n        bool moneySent,\n        bool sellUnderTarget\n    );\n\n    event NewHighestBid(\n        address payable bidder, \n        uint amount\n    );\n\n    event AuctionEnded(\n        address payable winner, \n        uint amount\n    );\n    \n\n\tconstructor() public {\n\t\tname = \"Auction House of Art\";\n        owner = msg.sender;\n\t}\n\n    function createArtist (string memory _name, string memory _details) public {\n        require(bytes(_name).length > 0, \"name too short\");\n        require(bytes(_details).length > 0, \"empty details\");\n        artistCount++;\n        artists[artistCount] = Artist(artistCount, _name, _details, 0);\n        emit ArtistCreated(artistCount, _name, _details);\n    }\n\n    function editArtist (uint _id, string memory _name, string memory _details) public {\n        require(bytes(_name).length > 0);\n        require(bytes(_details).length > 0);\n        Artist storage _artist = artists[_id];\n        _artist.artist_name= _name;\n        _artist.details = _details;\n        artists[_id] = _artist;\n        emit ArtistUpdated(_id, _name, _details);\n    }\n\n\tfunction createProduct (string memory _name, uint _price, uint _id_artist, string memory _category, string memory _description, string memory _imageHash) public {\n        require(msg.sender == owner);\n        require(bytes(_name).length > 0);\n        require(_price > 0);\n        require(bytes(_category).length > 0);\n        require(bytes(_description).length > 0);\n        require(bytes(_imageHash).length > 0);\n\t\tproductCount++;\n        productsOnAuction++;\n        products[productCount] = Product(productCount, _name, _price, _id_artist, _category, _description, _imageHash, false, false, false, true);\n\t\temit ProductCreated(productCount, _name, _price, _id_artist, _category, _description, _imageHash);\n\t}\n\n    function editProduct (uint _id, string memory _name, uint _price, uint id_artist, string memory _category, string memory _description, string memory _imageHash) public {\n        require(msg.sender == owner);\n        require(bytes(_name).length > 0);\n        require(_price > 0);\n        require(bytes(_category).length > 0);\n        require(bytes(_description).length > 0);\n        require(bytes(_imageHash).length > 0);\n        Artist storage _artist = artists[id_artist];\n        require(_artist.id_artist > 0 && _artist.id_artist <= artistCount);\n        Product storage _product = products[_id];\n        _product.name= _name;\n        _product.price = _price;\n        _product.id_artist = id_artist;\n        _product.category = _category;\n        _product.description = _description;\n        _product.image_hash = _imageHash;\n        products[productCount] = _product;\n        emit ProductUpdated(productCount, _name, _price, id_artist, _category, _description, _imageHash);\n    }\n\n    function deleteProduct (uint _id_product) public {\n        Product storage _product = products[_id_product];\n        require(_product.id_product > 0 && _product.id_product <= productCount, \"Product not found\");\n        _product.purchased = true;\n        _product.auction_ended = false;\n        _product.active = false;\n        products[_id_product] = _product;\n        productsOnAuction--;\n        if(_product.auction_started){\n            activeAuction--;\n        }\n        emit ProductSold(_product.id_product, _product.name, _product.price, _product.id_artist, _product.category, _product.description, _product.image_hash, _product.purchased, 0, address(0));\n    }\n\n    function createAuction (uint _id) public {\n        Product storage _product = products[_id];\n        require(_product.id_product > 0 && _product.id_product <= productCount);\n        require(msg.sender == owner);\n        _product.auction_started = true;\n        auctionCount++;\n        activeAuction++;\n        uint endTime = now + 1 days;\n        uint target_price = _product.price * 2;\n        products[_id] = _product;\n        auctionList[auctionCount] = Auction(auctionCount, target_price, endTime, address(0), 0, 0, false, _product.id_product, false, false);\n        emit AuctionCreated(auctionCount, target_price, endTime, _product.id_product);\n    }\n\n    function editAuction (uint _id, uint _target_price) public{\n        Auction storage _auction = auctionList[_id];\n        require(_auction.id_auction > 0 && _auction.id_auction <= auctionCount, \"Auction not found\");\n        Product storage _product = products[_id];\n        require (_target_price > _product.price);\n        \n        _auction.target_price = _target_price;\n        auctionList[_id] = _auction;\n        emit AuctionUpdated(_id, _auction.target_price, _auction.auctionEndTime, _auction.highestBidder, _auction.highestBid, _auction.offerCount, _auction.ended, _auction.id_product, _auction.moneySent, _auction.sellUnderTarget);\n    }\n\n    function bid (uint auction_id, uint bid_value, uint product_id) public payable {\n        Product storage _product = products[product_id];\n        require(_product.id_product > 0 && _product.id_product <= productCount, \"Product not found\");\n        Auction storage _auction = auctionList[auction_id];\n        require(_auction.id_auction > 0 && _auction.id_auction <= auctionCount, \"Auction not found\");\n        require(block.timestamp <= _auction.auctionEndTime, \"Auction ended\");\n        require(msg.sender != owner, \"Owner!!!\");\n        require(bid_value > _auction.highestBid, \"Value too little\");\n        if (_auction.highestBid >= _product.price){\n            _auction.clients[_auction.highestBidder] = _auction.highestBid;\n        }        \n        _auction.offerCount += 1;\n        _auction.highestBidder = msg.sender;\n        _auction.highestBid = bid_value;\n        auctionList[auction_id] = _auction;\n        emit AuctionUpdated(auction_id, _auction.target_price, _auction.auctionEndTime, msg.sender, bid_value, _auction.offerCount, _auction.ended, product_id, _auction.moneySent, _auction.sellUnderTarget);\n        emit NewHighestBid(msg.sender, bid_value);\n    }\n\n    function donation (uint value, uint artist_id) public payable {\n        Artist storage _artist = artists[artist_id];\n        require (value > 0);\n        if(donations[msg.sender]==0){\n            donationsCount++;\n        }\n        donations[msg.sender] += value;\n        _artist.amount_collected += value;\n        address(owner).transfer(msg.value);\n        emit IncreasedDonation(artist_id, _artist.artist_name, msg.value);\n    }\n    \n    function sendValue(uint _id) public payable {\n        Auction storage _auction = auctionList[_id];\n        _auction.moneySent = true;\n        auctionList[_id] = _auction;\n        emit AuctionUpdated(_id, _auction.target_price, _auction.auctionEndTime, _auction.highestBidder, _auction.highestBid, _auction.offerCount, _auction.ended, _auction.id_product, _auction.moneySent, _auction.sellUnderTarget);\n        address(owner).transfer(msg.value);\n    }\n\n    function sellingUnderTarget(uint _id) public payable {\n        require(msg.sender == owner);\n        Auction storage _auction = auctionList[_id];\n        _auction.sellUnderTarget = true;\n        auctionList[_id] = _auction;\n        emit AuctionUpdated(_id, _auction.target_price, _auction.auctionEndTime, _auction.highestBidder, _auction.highestBid, _auction.offerCount, _auction.ended, _auction.id_product, _auction.moneySent, _auction.sellUnderTarget);\n    }\n\n    function auctionEnd(uint _id) public payable {\n        Auction storage _auction = auctionList[_id];\n        require(_auction.id_auction > 0 && _auction.id_auction <= auctionCount);\n        require(!_auction.ended, \"auctionEnd has already been called.\");\n\n        Product storage _product = products[_auction.id_product];\n        require(_product.id_product > 0 && _product.id_product <= productCount);\n        require(!_product.purchased);\n\n        if(_auction.offerCount==0){\n            _product.purchased = false;\n        }\n        else{\n            _product.purchased = true;\n        }\n        \n        _product.auction_ended = true;\n        _auction.ended = true;\n        productsOnAuction--;\n        activeAuction--;\n        soldCount++;\n\n        auctionList[_id] = _auction;\n        products[_auction.id_product] = _product;\n        emit AuctionEnded(_auction.highestBidder, _auction.highestBid);\n        emit ProductSold(_product.id_product, _product.name, _product.price, _product.id_artist, _product.category, _product.description, _product.image_hash, _product.purchased, _auction.highestBid, _auction.highestBidder);\n\n    }\n    \n    \n}\n",
  "sourcePath": "/Users/alexandrazambitchi/Desktop/licenta/licitatie2/src/contracts/AuctionHouse.sol",
  "compiler": {
    "name": "solc",
    "version": "0.5.16+commit.9c3226ce.Emscripten.clang"
  },
  "schemaVersion": "3.4.1",
  "updatedAt": "2021-06-28T06:57:34.013Z",
  "networkType": "ethereum",
  "devdoc": {
    "methods": {}
  },
  "userdoc": {
    "methods": {},
    "notice": "The AuctionHouse contract does this and that..."
  }
}