{
  "contractName": "AuctionHouse",
  "abi": [
    {
      "inputs": [],
      "payable": false,
      "stateMutability": "nonpayable",
      "type": "constructor"
    },
    {
      "anonymous": false,
      "inputs": [
        {
          "indexed": false,
          "internalType": "uint256",
          "name": "id_auction",
          "type": "uint256"
        },
        {
          "indexed": false,
          "internalType": "uint256",
          "name": "auctionEndTime",
          "type": "uint256"
        },
        {
          "indexed": false,
          "internalType": "address",
          "name": "highestBidder",
          "type": "address"
        },
        {
          "indexed": false,
          "internalType": "uint256",
          "name": "highestBid",
          "type": "uint256"
        },
        {
          "indexed": false,
          "internalType": "uint256",
          "name": "offerCount",
          "type": "uint256"
        },
        {
          "indexed": false,
          "internalType": "bool",
          "name": "ended",
          "type": "bool"
        },
        {
          "indexed": false,
          "internalType": "uint256",
          "name": "id_product",
          "type": "uint256"
        }
      ],
      "name": "AuctionCreated",
      "type": "event"
    },
    {
      "anonymous": false,
      "inputs": [
        {
          "indexed": false,
          "internalType": "address",
          "name": "winner",
          "type": "address"
        },
        {
          "indexed": false,
          "internalType": "uint256",
          "name": "amount",
          "type": "uint256"
        }
      ],
      "name": "AuctionEnded",
      "type": "event"
    },
    {
      "anonymous": false,
      "inputs": [
        {
          "indexed": false,
          "internalType": "uint256",
          "name": "id_auction",
          "type": "uint256"
        },
        {
          "indexed": false,
          "internalType": "uint256",
          "name": "auctionEndTime",
          "type": "uint256"
        },
        {
          "indexed": false,
          "internalType": "address",
          "name": "highestBidder",
          "type": "address"
        },
        {
          "indexed": false,
          "internalType": "uint256",
          "name": "highestBid",
          "type": "uint256"
        },
        {
          "indexed": false,
          "internalType": "uint256",
          "name": "offerCount",
          "type": "uint256"
        },
        {
          "indexed": false,
          "internalType": "bool",
          "name": "ended",
          "type": "bool"
        },
        {
          "indexed": false,
          "internalType": "uint256",
          "name": "id_product",
          "type": "uint256"
        }
      ],
      "name": "AuctionUpdated",
      "type": "event"
    },
    {
      "anonymous": false,
      "inputs": [
        {
          "indexed": false,
          "internalType": "address",
          "name": "bidder",
          "type": "address"
        },
        {
          "indexed": false,
          "internalType": "uint256",
          "name": "amount",
          "type": "uint256"
        }
      ],
      "name": "HighestBidIncreased",
      "type": "event"
    },
    {
      "anonymous": false,
      "inputs": [
        {
          "indexed": false,
          "internalType": "uint256",
          "name": "id_product",
          "type": "uint256"
        },
        {
          "indexed": false,
          "internalType": "string",
          "name": "name",
          "type": "string"
        },
        {
          "indexed": false,
          "internalType": "uint256",
          "name": "price",
          "type": "uint256"
        },
        {
          "indexed": false,
          "internalType": "string",
          "name": "artist_name",
          "type": "string"
        },
        {
          "indexed": false,
          "internalType": "string",
          "name": "category",
          "type": "string"
        },
        {
          "indexed": false,
          "internalType": "string",
          "name": "description",
          "type": "string"
        },
        {
          "indexed": false,
          "internalType": "string",
          "name": "image_hash",
          "type": "string"
        },
        {
          "indexed": false,
          "internalType": "bool",
          "name": "purchased",
          "type": "bool"
        },
        {
          "indexed": false,
          "internalType": "bool",
          "name": "auction_started",
          "type": "bool"
        }
      ],
      "name": "ProductCreated",
      "type": "event"
    },
    {
      "anonymous": false,
      "inputs": [
        {
          "indexed": false,
          "internalType": "uint256",
          "name": "id_product",
          "type": "uint256"
        },
        {
          "indexed": false,
          "internalType": "string",
          "name": "name",
          "type": "string"
        },
        {
          "indexed": false,
          "internalType": "uint256",
          "name": "price",
          "type": "uint256"
        },
        {
          "indexed": false,
          "internalType": "string",
          "name": "artist_name",
          "type": "string"
        },
        {
          "indexed": false,
          "internalType": "string",
          "name": "category",
          "type": "string"
        },
        {
          "indexed": false,
          "internalType": "string",
          "name": "description",
          "type": "string"
        },
        {
          "indexed": false,
          "internalType": "string",
          "name": "image_hash",
          "type": "string"
        },
        {
          "indexed": false,
          "internalType": "bool",
          "name": "purchased",
          "type": "bool"
        }
      ],
      "name": "ProductSold",
      "type": "event"
    },
    {
      "constant": true,
      "inputs": [],
      "name": "auctionCount",
      "outputs": [
        {
          "internalType": "uint256",
          "name": "",
          "type": "uint256"
        }
      ],
      "payable": false,
      "stateMutability": "view",
      "type": "function"
    },
    {
      "constant": true,
      "inputs": [
        {
          "internalType": "uint256",
          "name": "",
          "type": "uint256"
        }
      ],
      "name": "auctionList",
      "outputs": [
        {
          "internalType": "uint256",
          "name": "id_auction",
          "type": "uint256"
        },
        {
          "internalType": "uint256",
          "name": "auctionEndTime",
          "type": "uint256"
        },
        {
          "internalType": "address",
          "name": "highestBidder",
          "type": "address"
        },
        {
          "internalType": "uint256",
          "name": "highestBid",
          "type": "uint256"
        },
        {
          "internalType": "uint256",
          "name": "offerCount",
          "type": "uint256"
        },
        {
          "internalType": "bool",
          "name": "ended",
          "type": "bool"
        },
        {
          "internalType": "uint256",
          "name": "id_product",
          "type": "uint256"
        }
      ],
      "payable": false,
      "stateMutability": "view",
      "type": "function"
    },
    {
      "constant": true,
      "inputs": [],
      "name": "name",
      "outputs": [
        {
          "internalType": "string",
          "name": "",
          "type": "string"
        }
      ],
      "payable": false,
      "stateMutability": "view",
      "type": "function"
    },
    {
      "constant": true,
      "inputs": [],
      "name": "owner",
      "outputs": [
        {
          "internalType": "address payable",
          "name": "",
          "type": "address"
        }
      ],
      "payable": false,
      "stateMutability": "view",
      "type": "function"
    },
    {
      "constant": true,
      "inputs": [],
      "name": "productCount",
      "outputs": [
        {
          "internalType": "uint256",
          "name": "",
          "type": "uint256"
        }
      ],
      "payable": false,
      "stateMutability": "view",
      "type": "function"
    },
    {
      "constant": true,
      "inputs": [
        {
          "internalType": "uint256",
          "name": "",
          "type": "uint256"
        }
      ],
      "name": "products",
      "outputs": [
        {
          "internalType": "uint256",
          "name": "id_product",
          "type": "uint256"
        },
        {
          "internalType": "string",
          "name": "name",
          "type": "string"
        },
        {
          "internalType": "uint256",
          "name": "price",
          "type": "uint256"
        },
        {
          "internalType": "string",
          "name": "artist_name",
          "type": "string"
        },
        {
          "internalType": "string",
          "name": "category",
          "type": "string"
        },
        {
          "internalType": "string",
          "name": "description",
          "type": "string"
        },
        {
          "internalType": "string",
          "name": "image_hash",
          "type": "string"
        },
        {
          "internalType": "bool",
          "name": "purchased",
          "type": "bool"
        },
        {
          "internalType": "bool",
          "name": "auction_started",
          "type": "bool"
        },
        {
          "internalType": "bool",
          "name": "auction_ended",
          "type": "bool"
        }
      ],
      "payable": false,
      "stateMutability": "view",
      "type": "function"
    },
    {
      "constant": false,
      "inputs": [
        {
          "internalType": "string",
          "name": "_name",
          "type": "string"
        },
        {
          "internalType": "uint256",
          "name": "_price",
          "type": "uint256"
        },
        {
          "internalType": "string",
          "name": "_artist",
          "type": "string"
        },
        {
          "internalType": "string",
          "name": "_category",
          "type": "string"
        },
        {
          "internalType": "string",
          "name": "_description",
          "type": "string"
        },
        {
          "internalType": "string",
          "name": "_imageHash",
          "type": "string"
        }
      ],
      "name": "createProduct",
      "outputs": [],
      "payable": false,
      "stateMutability": "nonpayable",
      "type": "function"
    },
    {
      "constant": false,
      "inputs": [
        {
          "internalType": "uint256",
          "name": "_id",
          "type": "uint256"
        }
      ],
      "name": "createAuction",
      "outputs": [],
      "payable": false,
      "stateMutability": "nonpayable",
      "type": "function"
    },
    {
      "constant": false,
      "inputs": [
        {
          "internalType": "uint256",
          "name": "auction_id",
          "type": "uint256"
        },
        {
          "internalType": "uint256",
          "name": "bid_value",
          "type": "uint256"
        },
        {
          "internalType": "uint256",
          "name": "product_id",
          "type": "uint256"
        }
      ],
      "name": "bid",
      "outputs": [],
      "payable": true,
      "stateMutability": "payable",
      "type": "function"
    },
    {
      "constant": false,
      "inputs": [
        {
          "internalType": "uint256",
          "name": "_id_auction",
          "type": "uint256"
        }
      ],
      "name": "auctionEnd",
      "outputs": [],
      "payable": false,
      "stateMutability": "nonpayable",
      "type": "function"
    }
  ],
  "bytecode": "0x6080604052600060025560006003553480156200001b57600080fd5b506040518060400160405280601481526020017f41756374696f6e20486f757365206f66204172740000000000000000000000008152506000908051906020019062000069929190620000b1565b5033600160006101000a81548173ffffffffffffffffffffffffffffffffffffffff021916908373ffffffffffffffffffffffffffffffffffffffff16021790555062000160565b828054600181600116156101000203166002900490600052602060002090601f016020900481019282601f10620000f457805160ff191683800117855562000125565b8280016001018555821562000125579182015b828111156200012457825182559160200191906001019062000107565b5b50905062000134919062000138565b5090565b6200015d91905b80821115620001595760008160009055506001016200013f565b5090565b90565b61277180620001706000396000f3fe6080604052600436106100915760003560e01c80637acc0b20116100595780637acc0b20146102775780638da5cb5b1461050a578063d5563f3114610561578063e0f6ef871461059c578063e6821f5c146105c757610091565b806306fdde03146100965780632ac9bf09146101265780632ad715731461016857806332246e9f14610193578063669c0083146101ce575b600080fd5b3480156100a257600080fd5b506100ab6108f5565b6040518080602001828103825283818151815260200191508051906020019080838360005b838110156100eb5780820151818401526020810190506100d0565b50505050905090810190601f1680156101185780820380516001836020036101000a031916815260200191505b509250505060405180910390f35b6101666004803603606081101561013c57600080fd5b81019080803590602001909291908035906020019092919080359060200190929190505050610993565b005b34801561017457600080fd5b5061017d610f6c565b6040518082815260200191505060405180910390f35b34801561019f57600080fd5b506101cc600480360360208110156101b657600080fd5b8101908080359060200190929190505050610f72565b005b3480156101da57600080fd5b50610207600480360360208110156101f157600080fd5b8101908080359060200190929190505050611935565b604051808881526020018781526020018673ffffffffffffffffffffffffffffffffffffffff1673ffffffffffffffffffffffffffffffffffffffff1681526020018581526020018481526020018315151515815260200182815260200197505050505050505060405180910390f35b34801561028357600080fd5b506102b06004803603602081101561029a57600080fd5b81019080803590602001909291905050506119a4565b604051808b8152602001806020018a81526020018060200180602001806020018060200189151515158152602001881515151581526020018715151515815260200186810386528f818151815260200191508051906020019080838360005b8381101561032a57808201518184015260208101905061030f565b50505050905090810190601f1680156103575780820380516001836020036101000a031916815260200191505b5086810385528d818151815260200191508051906020019080838360005b83811015610390578082015181840152602081019050610375565b50505050905090810190601f1680156103bd5780820380516001836020036101000a031916815260200191505b5086810384528c818151815260200191508051906020019080838360005b838110156103f65780820151818401526020810190506103db565b50505050905090810190601f1680156104235780820380516001836020036101000a031916815260200191505b5086810383528b818151815260200191508051906020019080838360005b8381101561045c578082015181840152602081019050610441565b50505050905090810190601f1680156104895780820380516001836020036101000a031916815260200191505b5086810382528a818151815260200191508051906020019080838360005b838110156104c25780820151818401526020810190506104a7565b50505050905090810190601f1680156104ef5780820380516001836020036101000a031916815260200191505b509f5050505050505050505050505050505060405180910390f35b34801561051657600080fd5b5061051f611d17565b604051808273ffffffffffffffffffffffffffffffffffffffff1673ffffffffffffffffffffffffffffffffffffffff16815260200191505060405180910390f35b34801561056d57600080fd5b5061059a6004803603602081101561058457600080fd5b8101908080359060200190929190505050611d3d565b005b3480156105a857600080fd5b506105b1612135565b6040518082815260200191505060405180910390f35b3480156105d357600080fd5b506108f3600480360360c08110156105ea57600080fd5b810190808035906020019064010000000081111561060757600080fd5b82018360208201111561061957600080fd5b8035906020019184600183028401116401000000008311171561063b57600080fd5b91908080601f016020809104026020016040519081016040528093929190818152602001838380828437600081840152601f19601f82011690508083019250505050505050919291929080359060200190929190803590602001906401000000008111156106a857600080fd5b8201836020820111156106ba57600080fd5b803590602001918460018302840111640100000000831117156106dc57600080fd5b91908080601f016020809104026020016040519081016040528093929190818152602001838380828437600081840152601f19601f8201169050808301925050505050505091929192908035906020019064010000000081111561073f57600080fd5b82018360208201111561075157600080fd5b8035906020019184600183028401116401000000008311171561077357600080fd5b91908080601f016020809104026020016040519081016040528093929190818152602001838380828437600081840152601f19601f820116905080830192505050505050509192919290803590602001906401000000008111156107d657600080fd5b8201836020820111156107e857600080fd5b8035906020019184600183028401116401000000008311171561080a57600080fd5b91908080601f016020809104026020016040519081016040528093929190818152602001838380828437600081840152601f19601f8201169050808301925050505050505091929192908035906020019064010000000081111561086d57600080fd5b82018360208201111561087f57600080fd5b803590602001918460018302840111640100000000831117156108a157600080fd5b91908080601f016020809104026020016040519081016040528093929190818152602001838380828437600081840152601f19601f82011690508083019250505050505050919291929050505061213b565b005b60008054600181600116156101000203166002900480601f01602080910402602001604051908101604052809291908181526020018280546001816001161561010002031660029004801561098b5780601f106109605761010080835404028352916020019161098b565b820191906000526020600020905b81548152906001019060200180831161096e57829003601f168201915b505050505081565b6000600460008381526020019081526020016000209050600081600001541180156109c45750600254816000015411155b610a36576040517f08c379a00000000000000000000000000000000000000000000000000000000081526004018080602001828103825260118152602001807f50726f64756374206e6f7420666f756e6400000000000000000000000000000081525060200191505060405180910390fd5b600060056000868152602001908152602001600020905060008160000154118015610a675750600354816000015411155b610ad9576040517f08c379a00000000000000000000000000000000000000000000000000000000081526004018080602001828103825260118152602001807f41756374696f6e206e6f7420666f756e6400000000000000000000000000000081525060200191505060405180910390fd5b8060010154421115610b53576040517f08c379a000000000000000000000000000000000000000000000000000000000815260040180806020018281038252600d8152602001807f41756374696f6e20656e6465640000000000000000000000000000000000000081525060200191505060405180910390fd5b80600301548411610bcc576040517f08c379a00000000000000000000000000000000000000000000000000000000081526004018080602001828103825260108152602001807f56616c756520746f6f206c6974746c650000000000000000000000000000000081525060200191505060405180910390fd5b600160009054906101000a900473ffffffffffffffffffffffffffffffffffffffff1673ffffffffffffffffffffffffffffffffffffffff163373ffffffffffffffffffffffffffffffffffffffff161415610c90576040517f08c379a00000000000000000000000000000000000000000000000000000000081526004018080602001828103825260088152602001807f4f776e657221212100000000000000000000000000000000000000000000000081525060200191505060405180910390fd5b8160020154816003015414610d0e5780600301548160070160008360020160009054906101000a900473ffffffffffffffffffffffffffffffffffffffff1673ffffffffffffffffffffffffffffffffffffffff1673ffffffffffffffffffffffffffffffffffffffff168152602001908152602001600020819055505b60018160040160008282540192505081905550338160020160006101000a81548173ffffffffffffffffffffffffffffffffffffffff021916908373ffffffffffffffffffffffffffffffffffffffff160217905550838160030181905550806005600087815260200190815260200160002060008201548160000155600182015481600101556002820160009054906101000a900473ffffffffffffffffffffffffffffffffffffffff168160020160006101000a81548173ffffffffffffffffffffffffffffffffffffffff021916908373ffffffffffffffffffffffffffffffffffffffff16021790555060038201548160030155600482015481600401556005820160009054906101000a900460ff168160050160006101000a81548160ff021916908315150217905550600682015481600601559050507fbddf7d5b3d652be151c4b606fb4afe67059a9ccc0f0a1b66b292488b36d002a7858260010154338785600401548660050160009054906101000a900460ff1689604051808881526020018781526020018673ffffffffffffffffffffffffffffffffffffffff1673ffffffffffffffffffffffffffffffffffffffff1681526020018581526020018481526020018315151515815260200182815260200197505050505050505060405180910390a17ff4757a49b326036464bec6fe419a4ae38c8a02ce3e68bf0809674f6aab8ad3003385604051808373ffffffffffffffffffffffffffffffffffffffff1673ffffffffffffffffffffffffffffffffffffffff1681526020018281526020019250505060405180910390a15050505050565b60035481565b600060056000838152602001908152602001600020905060008160000154118015610fa35750600354816000015411155b610fac57600080fd5b8060010154421015611026576040517f08c379a00000000000000000000000000000000000000000000000000000000081526004018080602001828103825260168152602001807f41756374696f6e206e6f742079657420656e6465642e0000000000000000000081525060200191505060405180910390fd5b8060050160009054906101000a900460ff161561108e576040517f08c379a000000000000000000000000000000000000000000000000000000000815260040180806020018281038252602381526020018061271a6023913960400191505060405180910390fd5b600060046000836006015481526020019081526020016000209050600081600001541180156110c35750600254816000015411155b6110cc57600080fd5b8060070160009054906101000a900460ff16156110e857600080fd5b6000826004015414156111175760008160070160006101000a81548160ff021916908315150217905550611135565b60018160070160006101000a81548160ff0219169083151502179055505b60018260050160006101000a81548160ff021916908315150217905550816005600085815260200190815260200160002060008201548160000155600182015481600101556002820160009054906101000a900473ffffffffffffffffffffffffffffffffffffffff168160020160006101000a81548173ffffffffffffffffffffffffffffffffffffffff021916908373ffffffffffffffffffffffffffffffffffffffff16021790555060038201548160030155600482015481600401556005820160009054906101000a900460ff168160050160006101000a81548160ff0219169083151502179055506006820154816006015590505060018160070160026101000a81548160ff02191690831515021790555080600460008460060154815260200190815260200160002060008201548160000155600182018160010190805460018160011615610100020316600290046112959291906125ed565b5060028201548160020155600382018160030190805460018160011615610100020316600290046112c79291906125ed565b50600482018160040190805460018160011615610100020316600290046112ef9291906125ed565b50600582018160050190805460018160011615610100020316600290046113179291906125ed565b506006820181600601908054600181600116156101000203166002900461133f9291906125ed565b506007820160009054906101000a900460ff168160070160006101000a81548160ff0219169083151502179055506007820160019054906101000a900460ff168160070160016101000a81548160ff0219169083151502179055506007820160029054906101000a900460ff168160070160026101000a81548160ff021916908315150217905550905050600073ffffffffffffffffffffffffffffffffffffffff168260020160009054906101000a900473ffffffffffffffffffffffffffffffffffffffff1673ffffffffffffffffffffffffffffffffffffffff161415611491576040517f08c379a000000000000000000000000000000000000000000000000000000000815260040180806020018281038252601a8152602001807f4e6f206f6e652062696420617420746869732061756374696f6e00000000000081525060200191505060405180910390fd5b7fdaec4582d5d9595688c8c98545fdd1c696d41c6aeaeb636737e84ed2f5c00eda8260020160009054906101000a900473ffffffffffffffffffffffffffffffffffffffff168360030154604051808373ffffffffffffffffffffffffffffffffffffffff1673ffffffffffffffffffffffffffffffffffffffff1681526020018281526020019250505060405180910390a17fe9e4c127b50c1627c94f22cc6a0ff4837900e57becd252a7489ecd6a62ed3bdc8160000154826001018360020154846003018560040186600501876006018860070160009054906101000a900460ff166040518089815260200180602001888152602001806020018060200180602001806020018715151515815260200186810386528d8181546001816001161561010002031660029004815260200191508054600181600116156101000203166002900480156116245780601f106115f957610100808354040283529160200191611624565b820191906000526020600020905b81548152906001019060200180831161160757829003601f168201915b505086810385528b8181546001816001161561010002031660029004815260200191508054600181600116156101000203166002900480156116a75780601f1061167c576101008083540402835291602001916116a7565b820191906000526020600020905b81548152906001019060200180831161168a57829003601f168201915b505086810384528a81815460018160011615610100020316600290048152602001915080546001816001161561010002031660029004801561172a5780601f106116ff5761010080835404028352916020019161172a565b820191906000526020600020905b81548152906001019060200180831161170d57829003601f168201915b50508681038352898181546001816001161561010002031660029004815260200191508054600181600116156101000203166002900480156117ad5780601f10611782576101008083540402835291602001916117ad565b820191906000526020600020905b81548152906001019060200180831161179057829003601f168201915b50508681038252888181546001816001161561010002031660029004815260200191508054600181600116156101000203166002900480156118305780601f1061180557610100808354040283529160200191611830565b820191906000526020600020905b81548152906001019060200180831161181357829003601f168201915b50509d505050505050505050505050505060405180910390a1600160009054906101000a900473ffffffffffffffffffffffffffffffffffffffff1673ffffffffffffffffffffffffffffffffffffffff168260020160009054906101000a900473ffffffffffffffffffffffffffffffffffffffff1673ffffffffffffffffffffffffffffffffffffffff161461193057600160009054906101000a900473ffffffffffffffffffffffffffffffffffffffff1673ffffffffffffffffffffffffffffffffffffffff166108fc83600301549081150290604051600060405180830381858888f1935050505015801561192e573d6000803e3d6000fd5b505b505050565b60056020528060005260406000206000915090508060000154908060010154908060020160009054906101000a900473ffffffffffffffffffffffffffffffffffffffff16908060030154908060040154908060050160009054906101000a900460ff16908060060154905087565b6004602052806000526040600020600091509050806000015490806001018054600181600116156101000203166002900480601f016020809104026020016040519081016040528092919081815260200182805460018160011615610100020316600290048015611a565780601f10611a2b57610100808354040283529160200191611a56565b820191906000526020600020905b815481529060010190602001808311611a3957829003601f168201915b505050505090806002015490806003018054600181600116156101000203166002900480601f016020809104026020016040519081016040528092919081815260200182805460018160011615610100020316600290048015611afa5780601f10611acf57610100808354040283529160200191611afa565b820191906000526020600020905b815481529060010190602001808311611add57829003601f168201915b505050505090806004018054600181600116156101000203166002900480601f016020809104026020016040519081016040528092919081815260200182805460018160011615610100020316600290048015611b985780601f10611b6d57610100808354040283529160200191611b98565b820191906000526020600020905b815481529060010190602001808311611b7b57829003601f168201915b505050505090806005018054600181600116156101000203166002900480601f016020809104026020016040519081016040528092919081815260200182805460018160011615610100020316600290048015611c365780601f10611c0b57610100808354040283529160200191611c36565b820191906000526020600020905b815481529060010190602001808311611c1957829003601f168201915b505050505090806006018054600181600116156101000203166002900480601f016020809104026020016040519081016040528092919081815260200182805460018160011615610100020316600290048015611cd45780601f10611ca957610100808354040283529160200191611cd4565b820191906000526020600020905b815481529060010190602001808311611cb757829003601f168201915b5050505050908060070160009054906101000a900460ff16908060070160019054906101000a900460ff16908060070160029054906101000a900460ff1690508a565b600160009054906101000a900473ffffffffffffffffffffffffffffffffffffffff1681565b600060046000838152602001908152602001600020905060008160000154118015611d6e5750600254816000015411155b611d7757600080fd5b600160009054906101000a900473ffffffffffffffffffffffffffffffffffffffff1673ffffffffffffffffffffffffffffffffffffffff163373ffffffffffffffffffffffffffffffffffffffff1614611dd157600080fd5b60018160070160016101000a81548160ff02191690831515021790555080600460008481526020019081526020016000206000820154816000015560018201816001019080546001816001161561010002031660029004611e339291906125ed565b506002820154816002015560038201816003019080546001816001161561010002031660029004611e659291906125ed565b5060048201816004019080546001816001161561010002031660029004611e8d9291906125ed565b5060058201816005019080546001816001161561010002031660029004611eb59291906125ed565b5060068201816006019080546001816001161561010002031660029004611edd9291906125ed565b506007820160009054906101000a900460ff168160070160006101000a81548160ff0219169083151502179055506007820160019054906101000a900460ff168160070160016101000a81548160ff0219169083151502179055506007820160029054906101000a900460ff168160070160026101000a81548160ff0219169083151502179055509050506003600081548092919060010191905055506000621a5e00420190506040518060e001604052806003548152602001828152602001600073ffffffffffffffffffffffffffffffffffffffff16815260200183600201548152602001600081526020016000151581526020018360000154815250600560006003548152602001908152602001600020600082015181600001556020820151816001015560408201518160020160006101000a81548173ffffffffffffffffffffffffffffffffffffffff021916908373ffffffffffffffffffffffffffffffffffffffff160217905550606082015181600301556080820151816004015560a08201518160050160006101000a81548160ff02191690831515021790555060c082015181600601559050507fc5b56ef28a33b7aa02835d41cf99eb4626bf3696d6037ad8259ecee675eebfd560035482600085600201546000808860000154604051808881526020018781526020018673ffffffffffffffffffffffffffffffffffffffff1673ffffffffffffffffffffffffffffffffffffffff1681526020018581526020018481526020018315151515815260200182815260200197505050505050505060405180910390a1505050565b60025481565b600160009054906101000a900473ffffffffffffffffffffffffffffffffffffffff1673ffffffffffffffffffffffffffffffffffffffff163373ffffffffffffffffffffffffffffffffffffffff161461219557600080fd5b60008651116121a357600080fd5b600085116121b057600080fd5b60008451116121be57600080fd5b60008351116121cc57600080fd5b60008251116121da57600080fd5b60008151116121e857600080fd5b600260008154809291906001019190505550604051806101400160405280600254815260200187815260200186815260200185815260200184815260200183815260200182815260200160001515815260200160001515815260200160001515815250600460006002548152602001908152602001600020600082015181600001556020820151816001019080519060200190612286929190612674565b506040820151816002015560608201518160030190805190602001906122ad929190612674565b5060808201518160040190805190602001906122ca929190612674565b5060a08201518160050190805190602001906122e7929190612674565b5060c0820151816006019080519060200190612304929190612674565b5060e08201518160070160006101000a81548160ff0219169083151502179055506101008201518160070160016101000a81548160ff0219169083151502179055506101208201518160070160026101000a81548160ff0219169083151502179055509050507fe84d163122cd80ac28d349f4cc926b047afd3c604db3788d4666788444005279600254878787878787600080604051808a81526020018060200189815260200180602001806020018060200180602001881515151581526020018715151515815260200186810386528e818151815260200191508051906020019080838360005b838110156124075780820151818401526020810190506123ec565b50505050905090810190601f1680156124345780820380516001836020036101000a031916815260200191505b5086810385528c818151815260200191508051906020019080838360005b8381101561246d578082015181840152602081019050612452565b50505050905090810190601f16801561249a5780820380516001836020036101000a031916815260200191505b5086810384528b818151815260200191508051906020019080838360005b838110156124d35780820151818401526020810190506124b8565b50505050905090810190601f1680156125005780820380516001836020036101000a031916815260200191505b5086810383528a818151815260200191508051906020019080838360005b8381101561253957808201518184015260208101905061251e565b50505050905090810190601f1680156125665780820380516001836020036101000a031916815260200191505b50868103825289818151815260200191508051906020019080838360005b8381101561259f578082015181840152602081019050612584565b50505050905090810190601f1680156125cc5780820380516001836020036101000a031916815260200191505b509e50505050505050505050505050505060405180910390a1505050505050565b828054600181600116156101000203166002900490600052602060002090601f016020900481019282601f106126265780548555612663565b8280016001018555821561266357600052602060002091601f016020900482015b82811115612662578254825591600101919060010190612647565b5b50905061267091906126f4565b5090565b828054600181600116156101000203166002900490600052602060002090601f016020900481019282601f106126b557805160ff19168380011785556126e3565b828001600101855582156126e3579182015b828111156126e25782518255916020019190600101906126c7565b5b5090506126f091906126f4565b5090565b61271691905b808211156127125760008160009055506001016126fa565b5090565b9056fe61756374696f6e456e642068617320616c7265616479206265656e2063616c6c65642ea265627a7a72315820e2e96914f57527a34f16362097b3a06536d16f38964cbf8d28b618cfbdf685d964736f6c63430005100032",
  "source": "pragma solidity ^0.5.0;\n// pragma solidity >=0.7.0 <0.9.0;\n\n/**\n * The AuctionHouse\n contract does this and that...\n */\n\ncontract AuctionHouse {\n\tstring public name;\n    address payable public owner;\n\tuint public productCount = 0;\n    uint public auctionCount = 0;\n\tmapping(uint => Product) public products;\n    mapping(uint => Auction) public auctionList;\n\n\tstruct Product{\n        uint id_product;\n        string name;\n        uint price;\n        string artist_name;\n        string category;\n        string description;\n        string image_hash;\n        bool purchased;\n        bool auction_started;\n        bool auction_ended;\n    }\n\n    struct Auction{\n        uint id_auction;\n        // address payable beneficiary;\n        uint auctionEndTime;\n        address highestBidder;\n        uint highestBid;\n        uint offerCount;\n        bool ended;\n        uint id_product;\n        mapping(address => uint) clients;\n        // mapping(address => string) clientNames;\n    }\n\n    event ProductCreated(\n        uint id_product,\n        string name,\n        uint price,\n        string artist_name,\n        string category,\n        string description,\n        string image_hash,\n        bool purchased,\n        bool auction_started\n    );\n\n    event ProductSold(\n        uint id_product,\n        string name,\n        uint price,\n        string artist_name,\n        string category,\n        string description,\n        string image_hash,\n        bool purchased\n    );\n\n    event AuctionCreated(\n        uint id_auction,\n        // address payable beneficiary,\n        uint auctionEndTime,\n        address highestBidder,\n        uint highestBid,\n        uint offerCount,\n        bool ended,\n        uint id_product\n    );\n\n    event AuctionUpdated(\n        uint id_auction,\n        // address payable beneficiary,\n        uint auctionEndTime,\n        address highestBidder,\n        uint highestBid,\n        uint offerCount,\n        bool ended,\n        uint id_product\n    );\n\n    event HighestBidIncreased(\n        address bidder, \n        uint amount\n    );\n\n    event AuctionEnded(\n        address winner, \n        uint amount\n    );\n\n    // event SetOwner(address payable owner);\n    \n\n\tconstructor() public {\n\t\tname = \"Auction House of Art\";\n        // owner = 0x87334fFB04eF3b2C0194213AB65B74A7989f0671;\n        owner = msg.sender;\n\t}\n\n    // function setOwner() public {\n    //     // require (owner == address(0));\n    //     owner = address(msg.sender);\n    //     emit SetOwner();\n    // }\n\n\tfunction createProduct (string memory _name, uint _price, string memory _artist, string memory _category, string memory _description, string memory _imageHash) public {\n\t\trequire(msg.sender == owner);\n        require(bytes(_name).length > 0);\n        require(_price > 0);\n        require(bytes(_artist).length > 0);\n        require(bytes(_category).length > 0);\n        require(bytes(_description).length > 0);\n        require(bytes(_imageHash).length > 0);\n\t\tproductCount++;\n        products[productCount] = Product(productCount, _name, _price, _artist, _category, _description, _imageHash, false, false, false);\n\t\temit ProductCreated(productCount, _name, _price, _artist, _category, _description, _imageHash, false, false);\n\t}\n\n    function createAuction (uint _id) public {\n        Product storage _product = products[_id];\n        require(_product.id_product > 0 && _product.id_product <= productCount);\n        require(msg.sender == owner);\n        _product.auction_started = true;\n        products[_id] = _product;\n        auctionCount++;\n        uint endTime = now + 20 days;\n        auctionList[auctionCount] = Auction(auctionCount, endTime, address(0), _product.price, 0, false, _product.id_product);\n        emit AuctionCreated(auctionCount, endTime, address(0), _product.price, 0, false, _product.id_product);\n    }\n\n    function bid(uint auction_id, uint bid_value, uint product_id) public payable {\n        Product storage _product = products[product_id];\n        require(_product.id_product > 0 && _product.id_product <= productCount, \"Product not found\");\n        Auction storage _auction = auctionList[auction_id];\n        require(_auction.id_auction > 0 && _auction.id_auction <= auctionCount, \"Auction not found\");\n        require(block.timestamp <= _auction.auctionEndTime, \"Auction ended\");\n        require(bid_value > _auction.highestBid, \"Value too little\");\n        require(msg.sender != owner, \"Owner!!!\");\n        if (_auction.highestBid != _product.price){\n            _auction.clients[_auction.highestBidder] = _auction.highestBid;\n        }\n        _auction.offerCount += 1;\n        _auction.highestBidder = msg.sender;\n        _auction.highestBid = bid_value;\n        // _auction.clientNames[_auction.highestBidder] = clientName;\n        auctionList[auction_id] = _auction;\n        emit AuctionUpdated(auction_id, _auction.auctionEndTime, msg.sender, bid_value, _auction.offerCount, _auction.ended, product_id);\n        emit HighestBidIncreased(msg.sender, bid_value);\n    }\n\n    // function withdraw(uint auction_id) public returns (bool) {\n    //     Auction storage _auction = auctionList[auction_id];\n    //     uint bid_value = _auction.clients[msg.sender];\n    //     if (bid_value > 0) {\n    //         // It is important to set this to zero because the recipient\n    //         // can call this function again as part of the receiving call\n    //         // before `send` returns.\n    //         _auction.clients[msg.sender] = 0;\n\n    //         if (!msg.sender.send(bid_value)) {\n    //             //Calling throw not necessary here, simply reset the bid_value owing\n    //             _auction.clients[msg.sender] = bid_value;\n    //             return false;\n    //         }\n    //     }\n    //     return true;\n    // }\n\n    function auctionEnd(uint _id_auction) public {\n        // It is a good guideline to structure functions that interact\n        // with other contracts (i.e. they call functions or send Ether)\n        // into three phases:\n        // 1. checking conditions\n        // 2. performing actions (potentially changing conditions)\n        // 3. interacting with other contracts\n        // If these phases are mixed up, the other contract could call\n        // back into the current contract and modify the state or cause\n        // effects (ether payout) to be performed multiple times.\n        // If functions called internally include interaction with external\n        // contracts, they also have to be considered interaction with\n        // external contracts.\n        Auction storage _auction = auctionList[_id_auction];\n        require(_auction.id_auction > 0 && _auction.id_auction <= auctionCount);\n        \n        // 1. Conditions\n        require(block.timestamp >= _auction.auctionEndTime, \"Auction not yet ended.\");\n        require(!_auction.ended, \"auctionEnd has already been called.\");\n\n        Product storage _product = products[_auction.id_product];\n        require(_product.id_product > 0 && _product.id_product <= productCount);\n        require(!_product.purchased);\n\n        if(_auction.offerCount==0){\n            _product.purchased = false;\n        }\n        else{\n            _product.purchased = true;\n        }\n        \n        \n\n        // 2. Effects\n        _auction.ended = true;\n        auctionList[_id_auction] = _auction;\n\n        _product.auction_ended = true;\n        products[_auction.id_product] = _product;\n\n        require (_auction.highestBidder != address(0), \"No one bid at this auction\");\n\n        emit AuctionEnded(_auction.highestBidder, _auction.highestBid);\n        emit ProductSold(_product.id_product, _product.name, _product.price, _product.artist_name, _product.category, _product.description, _product.image_hash, _product.purchased);\n        // 3. Interaction\n        if(_auction.highestBidder != owner)\n            owner.transfer(_auction.highestBid);\n    }\n    \n    \n}\n",
  "sourcePath": "/Users/alexandrazambitchi/Desktop/licenta/licitatie2/src/contracts/AuctionHouse.sol",
  "compiler": {
    "name": "solc",
    "version": "0.5.16+commit.9c3226ce.Emscripten.clang"
  },
  "schemaVersion": "3.0.22",
  "updatedAt": "2021-05-26T13:25:13.390Z",
  "networkType": "ethereum",
  "devdoc": {
    "methods": {}
  },
  "userdoc": {
    "methods": {},
    "notice": "The AuctionHouse contract does this and that..."
  }
}