{
  "contractName": "AuctionHouse",
  "abi": [
    {
      "inputs": [],
      "payable": false,
      "stateMutability": "nonpayable",
      "type": "constructor"
    },
    {
      "anonymous": false,
      "inputs": [
        {
          "indexed": false,
          "internalType": "uint256",
          "name": "id_artist",
          "type": "uint256"
        },
        {
          "indexed": false,
          "internalType": "string",
          "name": "artist_name",
          "type": "string"
        },
        {
          "indexed": false,
          "internalType": "string",
          "name": "details",
          "type": "string"
        }
      ],
      "name": "ArtistCreated",
      "type": "event"
    },
    {
      "anonymous": false,
      "inputs": [
        {
          "indexed": false,
          "internalType": "uint256",
          "name": "id_artist",
          "type": "uint256"
        },
        {
          "indexed": false,
          "internalType": "string",
          "name": "artist_name",
          "type": "string"
        },
        {
          "indexed": false,
          "internalType": "string",
          "name": "details",
          "type": "string"
        }
      ],
      "name": "ArtistUpdated",
      "type": "event"
    },
    {
      "anonymous": false,
      "inputs": [
        {
          "indexed": false,
          "internalType": "uint256",
          "name": "id_auction",
          "type": "uint256"
        },
        {
          "indexed": false,
          "internalType": "uint256",
          "name": "target_price",
          "type": "uint256"
        },
        {
          "indexed": false,
          "internalType": "uint256",
          "name": "auctionEndTime",
          "type": "uint256"
        },
        {
          "indexed": false,
          "internalType": "uint256",
          "name": "id_product",
          "type": "uint256"
        }
      ],
      "name": "AuctionCreated",
      "type": "event"
    },
    {
      "anonymous": false,
      "inputs": [
        {
          "indexed": false,
          "internalType": "address payable",
          "name": "winner",
          "type": "address"
        },
        {
          "indexed": false,
          "internalType": "uint256",
          "name": "amount",
          "type": "uint256"
        }
      ],
      "name": "AuctionEnded",
      "type": "event"
    },
    {
      "anonymous": false,
      "inputs": [
        {
          "indexed": false,
          "internalType": "uint256",
          "name": "id_auction",
          "type": "uint256"
        },
        {
          "indexed": false,
          "internalType": "uint256",
          "name": "target_price",
          "type": "uint256"
        },
        {
          "indexed": false,
          "internalType": "uint256",
          "name": "auctionEndTime",
          "type": "uint256"
        },
        {
          "indexed": false,
          "internalType": "address payable",
          "name": "highestBidder",
          "type": "address"
        },
        {
          "indexed": false,
          "internalType": "uint256",
          "name": "highestBid",
          "type": "uint256"
        },
        {
          "indexed": false,
          "internalType": "uint256",
          "name": "offerCount",
          "type": "uint256"
        },
        {
          "indexed": false,
          "internalType": "bool",
          "name": "ended",
          "type": "bool"
        },
        {
          "indexed": false,
          "internalType": "uint256",
          "name": "id_product",
          "type": "uint256"
        },
        {
          "indexed": false,
          "internalType": "bool",
          "name": "moneySent",
          "type": "bool"
        }
      ],
      "name": "AuctionUpdated",
      "type": "event"
    },
    {
      "anonymous": false,
      "inputs": [
        {
          "indexed": false,
          "internalType": "address payable",
          "name": "bidder",
          "type": "address"
        },
        {
          "indexed": false,
          "internalType": "uint256",
          "name": "amount",
          "type": "uint256"
        }
      ],
      "name": "HighestBidIncreased",
      "type": "event"
    },
    {
      "anonymous": false,
      "inputs": [
        {
          "indexed": false,
          "internalType": "uint256",
          "name": "id_artist",
          "type": "uint256"
        },
        {
          "indexed": false,
          "internalType": "string",
          "name": "artist_name",
          "type": "string"
        },
        {
          "indexed": false,
          "internalType": "uint256",
          "name": "amount",
          "type": "uint256"
        }
      ],
      "name": "IncreasedDonation",
      "type": "event"
    },
    {
      "anonymous": false,
      "inputs": [
        {
          "indexed": false,
          "internalType": "uint256",
          "name": "id_product",
          "type": "uint256"
        },
        {
          "indexed": false,
          "internalType": "string",
          "name": "name",
          "type": "string"
        },
        {
          "indexed": false,
          "internalType": "uint256",
          "name": "price",
          "type": "uint256"
        },
        {
          "indexed": false,
          "internalType": "uint256",
          "name": "id_artist",
          "type": "uint256"
        },
        {
          "indexed": false,
          "internalType": "string",
          "name": "category",
          "type": "string"
        },
        {
          "indexed": false,
          "internalType": "string",
          "name": "description",
          "type": "string"
        },
        {
          "indexed": false,
          "internalType": "string",
          "name": "image_hash",
          "type": "string"
        }
      ],
      "name": "ProductCreated",
      "type": "event"
    },
    {
      "anonymous": false,
      "inputs": [
        {
          "indexed": false,
          "internalType": "uint256",
          "name": "id_product",
          "type": "uint256"
        },
        {
          "indexed": false,
          "internalType": "string",
          "name": "name",
          "type": "string"
        },
        {
          "indexed": false,
          "internalType": "uint256",
          "name": "price",
          "type": "uint256"
        },
        {
          "indexed": false,
          "internalType": "uint256",
          "name": "id_artist",
          "type": "uint256"
        },
        {
          "indexed": false,
          "internalType": "string",
          "name": "category",
          "type": "string"
        },
        {
          "indexed": false,
          "internalType": "string",
          "name": "description",
          "type": "string"
        },
        {
          "indexed": false,
          "internalType": "string",
          "name": "image_hash",
          "type": "string"
        },
        {
          "indexed": false,
          "internalType": "bool",
          "name": "purchased",
          "type": "bool"
        },
        {
          "indexed": false,
          "internalType": "uint256",
          "name": "priceSold",
          "type": "uint256"
        },
        {
          "indexed": false,
          "internalType": "address payable",
          "name": "winner",
          "type": "address"
        }
      ],
      "name": "ProductSold",
      "type": "event"
    },
    {
      "anonymous": false,
      "inputs": [
        {
          "indexed": false,
          "internalType": "uint256",
          "name": "id_product",
          "type": "uint256"
        },
        {
          "indexed": false,
          "internalType": "string",
          "name": "name",
          "type": "string"
        },
        {
          "indexed": false,
          "internalType": "uint256",
          "name": "price",
          "type": "uint256"
        },
        {
          "indexed": false,
          "internalType": "uint256",
          "name": "id_artist",
          "type": "uint256"
        },
        {
          "indexed": false,
          "internalType": "string",
          "name": "category",
          "type": "string"
        },
        {
          "indexed": false,
          "internalType": "string",
          "name": "description",
          "type": "string"
        },
        {
          "indexed": false,
          "internalType": "string",
          "name": "image_hash",
          "type": "string"
        }
      ],
      "name": "ProductUpdated",
      "type": "event"
    },
    {
      "constant": true,
      "inputs": [],
      "name": "activeAuction",
      "outputs": [
        {
          "internalType": "uint256",
          "name": "",
          "type": "uint256"
        }
      ],
      "payable": false,
      "stateMutability": "view",
      "type": "function"
    },
    {
      "constant": true,
      "inputs": [],
      "name": "artistCount",
      "outputs": [
        {
          "internalType": "uint256",
          "name": "",
          "type": "uint256"
        }
      ],
      "payable": false,
      "stateMutability": "view",
      "type": "function"
    },
    {
      "constant": true,
      "inputs": [
        {
          "internalType": "uint256",
          "name": "",
          "type": "uint256"
        }
      ],
      "name": "artists",
      "outputs": [
        {
          "internalType": "uint256",
          "name": "id_artist",
          "type": "uint256"
        },
        {
          "internalType": "string",
          "name": "artist_name",
          "type": "string"
        },
        {
          "internalType": "string",
          "name": "details",
          "type": "string"
        },
        {
          "internalType": "uint256",
          "name": "amount_collected",
          "type": "uint256"
        }
      ],
      "payable": false,
      "stateMutability": "view",
      "type": "function"
    },
    {
      "constant": true,
      "inputs": [],
      "name": "auctionCount",
      "outputs": [
        {
          "internalType": "uint256",
          "name": "",
          "type": "uint256"
        }
      ],
      "payable": false,
      "stateMutability": "view",
      "type": "function"
    },
    {
      "constant": true,
      "inputs": [
        {
          "internalType": "uint256",
          "name": "",
          "type": "uint256"
        }
      ],
      "name": "auctionList",
      "outputs": [
        {
          "internalType": "uint256",
          "name": "id_auction",
          "type": "uint256"
        },
        {
          "internalType": "uint256",
          "name": "target_price",
          "type": "uint256"
        },
        {
          "internalType": "uint256",
          "name": "auctionEndTime",
          "type": "uint256"
        },
        {
          "internalType": "address payable",
          "name": "highestBidder",
          "type": "address"
        },
        {
          "internalType": "uint256",
          "name": "highestBid",
          "type": "uint256"
        },
        {
          "internalType": "uint256",
          "name": "offerCount",
          "type": "uint256"
        },
        {
          "internalType": "bool",
          "name": "ended",
          "type": "bool"
        },
        {
          "internalType": "uint256",
          "name": "id_product",
          "type": "uint256"
        },
        {
          "internalType": "bool",
          "name": "moneySent",
          "type": "bool"
        }
      ],
      "payable": false,
      "stateMutability": "view",
      "type": "function"
    },
    {
      "constant": true,
      "inputs": [
        {
          "internalType": "address",
          "name": "",
          "type": "address"
        }
      ],
      "name": "donations",
      "outputs": [
        {
          "internalType": "uint256",
          "name": "",
          "type": "uint256"
        }
      ],
      "payable": false,
      "stateMutability": "view",
      "type": "function"
    },
    {
      "constant": true,
      "inputs": [],
      "name": "donationsCount",
      "outputs": [
        {
          "internalType": "uint256",
          "name": "",
          "type": "uint256"
        }
      ],
      "payable": false,
      "stateMutability": "view",
      "type": "function"
    },
    {
      "constant": true,
      "inputs": [],
      "name": "name",
      "outputs": [
        {
          "internalType": "string",
          "name": "",
          "type": "string"
        }
      ],
      "payable": false,
      "stateMutability": "view",
      "type": "function"
    },
    {
      "constant": true,
      "inputs": [],
      "name": "owner",
      "outputs": [
        {
          "internalType": "address payable",
          "name": "",
          "type": "address"
        }
      ],
      "payable": false,
      "stateMutability": "view",
      "type": "function"
    },
    {
      "constant": true,
      "inputs": [],
      "name": "productCount",
      "outputs": [
        {
          "internalType": "uint256",
          "name": "",
          "type": "uint256"
        }
      ],
      "payable": false,
      "stateMutability": "view",
      "type": "function"
    },
    {
      "constant": true,
      "inputs": [
        {
          "internalType": "uint256",
          "name": "",
          "type": "uint256"
        }
      ],
      "name": "products",
      "outputs": [
        {
          "internalType": "uint256",
          "name": "id_product",
          "type": "uint256"
        },
        {
          "internalType": "string",
          "name": "name",
          "type": "string"
        },
        {
          "internalType": "uint256",
          "name": "price",
          "type": "uint256"
        },
        {
          "internalType": "uint256",
          "name": "id_artist",
          "type": "uint256"
        },
        {
          "internalType": "string",
          "name": "category",
          "type": "string"
        },
        {
          "internalType": "string",
          "name": "description",
          "type": "string"
        },
        {
          "internalType": "string",
          "name": "image_hash",
          "type": "string"
        },
        {
          "internalType": "bool",
          "name": "purchased",
          "type": "bool"
        },
        {
          "internalType": "bool",
          "name": "auction_started",
          "type": "bool"
        },
        {
          "internalType": "bool",
          "name": "auction_ended",
          "type": "bool"
        }
      ],
      "payable": false,
      "stateMutability": "view",
      "type": "function"
    },
    {
      "constant": true,
      "inputs": [],
      "name": "productsOnAuction",
      "outputs": [
        {
          "internalType": "uint256",
          "name": "",
          "type": "uint256"
        }
      ],
      "payable": false,
      "stateMutability": "view",
      "type": "function"
    },
    {
      "constant": false,
      "inputs": [
        {
          "internalType": "string",
          "name": "_name",
          "type": "string"
        },
        {
          "internalType": "string",
          "name": "_details",
          "type": "string"
        }
      ],
      "name": "createArtist",
      "outputs": [],
      "payable": false,
      "stateMutability": "nonpayable",
      "type": "function"
    },
    {
      "constant": false,
      "inputs": [
        {
          "internalType": "uint256",
          "name": "_id",
          "type": "uint256"
        },
        {
          "internalType": "string",
          "name": "_name",
          "type": "string"
        },
        {
          "internalType": "string",
          "name": "_details",
          "type": "string"
        }
      ],
      "name": "editArtist",
      "outputs": [],
      "payable": false,
      "stateMutability": "nonpayable",
      "type": "function"
    },
    {
      "constant": false,
      "inputs": [
        {
          "internalType": "string",
          "name": "_name",
          "type": "string"
        },
        {
          "internalType": "uint256",
          "name": "_price",
          "type": "uint256"
        },
        {
          "internalType": "uint256",
          "name": "_id_artist",
          "type": "uint256"
        },
        {
          "internalType": "string",
          "name": "_category",
          "type": "string"
        },
        {
          "internalType": "string",
          "name": "_description",
          "type": "string"
        },
        {
          "internalType": "string",
          "name": "_imageHash",
          "type": "string"
        }
      ],
      "name": "createProduct",
      "outputs": [],
      "payable": false,
      "stateMutability": "nonpayable",
      "type": "function"
    },
    {
      "constant": false,
      "inputs": [
        {
          "internalType": "uint256",
          "name": "_id",
          "type": "uint256"
        },
        {
          "internalType": "string",
          "name": "_name",
          "type": "string"
        },
        {
          "internalType": "uint256",
          "name": "_price",
          "type": "uint256"
        },
        {
          "internalType": "uint256",
          "name": "id_artist",
          "type": "uint256"
        },
        {
          "internalType": "string",
          "name": "_category",
          "type": "string"
        },
        {
          "internalType": "string",
          "name": "_description",
          "type": "string"
        },
        {
          "internalType": "string",
          "name": "_imageHash",
          "type": "string"
        }
      ],
      "name": "editProduct",
      "outputs": [],
      "payable": false,
      "stateMutability": "nonpayable",
      "type": "function"
    },
    {
      "constant": false,
      "inputs": [
        {
          "internalType": "uint256",
          "name": "_id_product",
          "type": "uint256"
        }
      ],
      "name": "deleteProduct",
      "outputs": [],
      "payable": false,
      "stateMutability": "nonpayable",
      "type": "function"
    },
    {
      "constant": false,
      "inputs": [
        {
          "internalType": "uint256",
          "name": "_id",
          "type": "uint256"
        }
      ],
      "name": "createAuction",
      "outputs": [],
      "payable": false,
      "stateMutability": "nonpayable",
      "type": "function"
    },
    {
      "constant": false,
      "inputs": [
        {
          "internalType": "uint256",
          "name": "_id",
          "type": "uint256"
        },
        {
          "internalType": "uint256",
          "name": "_target_price",
          "type": "uint256"
        }
      ],
      "name": "editAuction",
      "outputs": [],
      "payable": false,
      "stateMutability": "nonpayable",
      "type": "function"
    },
    {
      "constant": false,
      "inputs": [
        {
          "internalType": "uint256",
          "name": "auction_id",
          "type": "uint256"
        },
        {
          "internalType": "uint256",
          "name": "bid_value",
          "type": "uint256"
        },
        {
          "internalType": "uint256",
          "name": "product_id",
          "type": "uint256"
        }
      ],
      "name": "bid",
      "outputs": [],
      "payable": true,
      "stateMutability": "payable",
      "type": "function"
    },
    {
      "constant": false,
      "inputs": [
        {
          "internalType": "uint256",
          "name": "value",
          "type": "uint256"
        },
        {
          "internalType": "uint256",
          "name": "artist_id",
          "type": "uint256"
        }
      ],
      "name": "donation",
      "outputs": [],
      "payable": true,
      "stateMutability": "payable",
      "type": "function"
    },
    {
      "constant": false,
      "inputs": [
        {
          "internalType": "uint256",
          "name": "_id",
          "type": "uint256"
        }
      ],
      "name": "sendValue",
      "outputs": [],
      "payable": true,
      "stateMutability": "payable",
      "type": "function"
    },
    {
      "constant": false,
      "inputs": [
        {
          "internalType": "uint256",
          "name": "_id",
          "type": "uint256"
        }
      ],
      "name": "auctionEnd",
      "outputs": [],
      "payable": true,
      "stateMutability": "payable",
      "type": "function"
    }
  ],
  "bytecode": "0x60806040526000600255600060035560006004556000600555600060065560006007553480156200002f57600080fd5b506040518060400160405280601481526020017f41756374696f6e20486f757365206f6620417274000000000000000000000000815250600090805190602001906200007d929190620000c5565b5033600160006101000a81548173ffffffffffffffffffffffffffffffffffffffff021916908373ffffffffffffffffffffffffffffffffffffffff16021790555062000174565b828054600181600116156101000203166002900490600052602060002090601f016020900481019282601f106200010857805160ff191683800117855562000139565b8280016001018555821562000139579182015b82811115620001385782518255916020019190600101906200011b565b5b5090506200014891906200014c565b5090565b6200017191905b808211156200016d57600081600090555060010162000153565b5090565b90565b61455280620001846000396000f3fe6080604052600436106101405760003560e01c80637acc0b20116100b6578063d5563f311161006f578063d5563f3114610c5f578063e0f6ef8714610c9a578063ed90c7b714610cc5578063f821a91514610d00578063fb0cf2cc14610d45578063fbf8f46814610ea457610140565b80637acc0b20146107f157806380edeb5314610a1f5780638da5cb5b14610a4a578063be53048214610aa1578063cc6cb19a14610acc578063cd7e10c114610b3157610140565b80632ad71573116101085780632ad715731461064c57806332246e9f1461067757806333ed796c146106a557806336d1e2dd146106d0578063669c00831461070857806367563268146107c357610140565b806306fdde031461014557806307f8b0c7146101d55780631f5225951461033e57806324b8ab2c146103695780632ac9bf091461060a575b600080fd5b34801561015157600080fd5b5061015a61114f565b6040518080602001828103825283818151815260200191508051906020019080838360005b8381101561019a57808201518184015260208101905061017f565b50505050905090810190601f1680156101c75780820380516001836020036101000a031916815260200191505b509250505060405180910390f35b3480156101e157600080fd5b5061033c600480360360608110156101f857600080fd5b81019080803590602001909291908035906020019064010000000081111561021f57600080fd5b82018360208201111561023157600080fd5b8035906020019184600183028401116401000000008311171561025357600080fd5b91908080601f016020809104026020016040519081016040528093929190818152602001838380828437600081840152601f19601f820116905080830192505050505050509192919290803590602001906401000000008111156102b657600080fd5b8201836020820111156102c857600080fd5b803590602001918460018302840111640100000000831117156102ea57600080fd5b91908080601f016020809104026020016040519081016040528093929190818152602001838380828437600081840152601f19601f8201169050808301925050505050505091929192905050506111ed565b005b34801561034a57600080fd5b506103536113e4565b6040518082815260200191505060405180910390f35b34801561037557600080fd5b50610608600480360360c081101561038c57600080fd5b81019080803590602001906401000000008111156103a957600080fd5b8201836020820111156103bb57600080fd5b803590602001918460018302840111640100000000831117156103dd57600080fd5b91908080601f016020809104026020016040519081016040528093929190818152602001838380828437600081840152601f19601f82011690508083019250505050505050919291929080359060200190929190803590602001909291908035906020019064010000000081111561045457600080fd5b82018360208201111561046657600080fd5b8035906020019184600183028401116401000000008311171561048857600080fd5b91908080601f016020809104026020016040519081016040528093929190818152602001838380828437600081840152601f19601f820116905080830192505050505050509192919290803590602001906401000000008111156104eb57600080fd5b8201836020820111156104fd57600080fd5b8035906020019184600183028401116401000000008311171561051f57600080fd5b91908080601f016020809104026020016040519081016040528093929190818152602001838380828437600081840152601f19601f8201169050808301925050505050505091929192908035906020019064010000000081111561058257600080fd5b82018360208201111561059457600080fd5b803590602001918460018302840111640100000000831117156105b657600080fd5b91908080601f016020809104026020016040519081016040528093929190818152602001838380828437600081840152601f19601f8201169050808301925050505050505091929192905050506113ea565b005b61064a6004803603606081101561062057600080fd5b8101908080359060200190929190803590602001909291908035906020019092919050505061180f565b005b34801561065857600080fd5b50610661611e48565b6040518082815260200191505060405180910390f35b6106a36004803603602081101561068d57600080fd5b8101908080359060200190929190505050611e4e565b005b3480156106b157600080fd5b506106ba61260b565b6040518082815260200191505060405180910390f35b610706600480360360408110156106e657600080fd5b810190808035906020019092919080359060200190929190505050612611565b005b34801561071457600080fd5b506107416004803603602081101561072b57600080fd5b8101908080359060200190929190505050612829565b604051808a81526020018981526020018881526020018773ffffffffffffffffffffffffffffffffffffffff1673ffffffffffffffffffffffffffffffffffffffff1681526020018681526020018581526020018415151515815260200183815260200182151515158152602001995050505050505050505060405180910390f35b6107ef600480360360208110156107d957600080fd5b81019080803590602001909291905050506128b1565b005b3480156107fd57600080fd5b5061082a6004803603602081101561081457600080fd5b8101908080359060200190929190505050612b6b565b604051808b8152602001806020018a815260200189815260200180602001806020018060200188151515158152602001871515151581526020018615151515815260200185810385528e818151815260200191508051906020019080838360005b838110156108a657808201518184015260208101905061088b565b50505050905090810190601f1680156108d35780820380516001836020036101000a031916815260200191505b5085810384528b818151815260200191508051906020019080838360005b8381101561090c5780820151818401526020810190506108f1565b50505050905090810190601f1680156109395780820380516001836020036101000a031916815260200191505b5085810383528a818151815260200191508051906020019080838360005b83811015610972578082015181840152602081019050610957565b50505050905090810190601f16801561099f5780820380516001836020036101000a031916815260200191505b50858103825289818151815260200191508051906020019080838360005b838110156109d85780820151818401526020810190506109bd565b50505050905090810190601f168015610a055780820380516001836020036101000a031916815260200191505b509e50505050505050505050505050505060405180910390f35b348015610a2b57600080fd5b50610a34612e46565b6040518082815260200191505060405180910390f35b348015610a5657600080fd5b50610a5f612e4c565b604051808273ffffffffffffffffffffffffffffffffffffffff1673ffffffffffffffffffffffffffffffffffffffff16815260200191505060405180910390f35b348015610aad57600080fd5b50610ab6612e72565b6040518082815260200191505060405180910390f35b348015610ad857600080fd5b50610b1b60048036036020811015610aef57600080fd5b81019080803573ffffffffffffffffffffffffffffffffffffffff169060200190929190505050612e78565b6040518082815260200191505060405180910390f35b348015610b3d57600080fd5b50610b6a60048036036020811015610b5457600080fd5b8101908080359060200190929190505050612e90565b604051808581526020018060200180602001848152602001838103835286818151815260200191508051906020019080838360005b83811015610bba578082015181840152602081019050610b9f565b50505050905090810190601f168015610be75780820380516001836020036101000a031916815260200191505b50838103825285818151815260200191508051906020019080838360005b83811015610c20578082015181840152602081019050610c05565b50505050905090810190601f168015610c4d5780820380516001836020036101000a031916815260200191505b50965050505050505060405180910390f35b348015610c6b57600080fd5b50610c9860048036036020811015610c8257600080fd5b8101908080359060200190929190505050612ff0565b005b348015610ca657600080fd5b50610caf6133d2565b6040518082815260200191505060405180910390f35b348015610cd157600080fd5b50610cfe60048036036020811015610ce857600080fd5b81019080803590602001909291905050506133d8565b005b348015610d0c57600080fd5b50610d4360048036036040811015610d2357600080fd5b810190808035906020019092919080359060200190929190505050613917565b005b348015610d5157600080fd5b50610ea260048036036040811015610d6857600080fd5b8101908080359060200190640100000000811115610d8557600080fd5b820183602082011115610d9757600080fd5b80359060200191846001830284011164010000000083111715610db957600080fd5b91908080601f016020809104026020016040519081016040528093929190818152602001838380828437600081840152601f19601f82011690508083019250505050505050919291929080359060200190640100000000811115610e1c57600080fd5b820183602082011115610e2e57600080fd5b80359060200191846001830284011164010000000083111715610e5057600080fd5b91908080601f016020809104026020016040519081016040528093929190818152602001838380828437600081840152601f19601f820116905080830192505050505050509192919290505050613be1565b005b348015610eb057600080fd5b5061114d600480360360e0811015610ec757600080fd5b810190808035906020019092919080359060200190640100000000811115610eee57600080fd5b820183602082011115610f0057600080fd5b80359060200191846001830284011164010000000083111715610f2257600080fd5b91908080601f016020809104026020016040519081016040528093929190818152602001838380828437600081840152601f19601f820116905080830192505050505050509192919290803590602001909291908035906020019092919080359060200190640100000000811115610f9957600080fd5b820183602082011115610fab57600080fd5b80359060200191846001830284011164010000000083111715610fcd57600080fd5b91908080601f016020809104026020016040519081016040528093929190818152602001838380828437600081840152601f19601f8201169050808301925050505050505091929192908035906020019064010000000081111561103057600080fd5b82018360208201111561104257600080fd5b8035906020019184600183028401116401000000008311171561106457600080fd5b91908080601f016020809104026020016040519081016040528093929190818152602001838380828437600081840152601f19601f820116905080830192505050505050509192919290803590602001906401000000008111156110c757600080fd5b8201836020820111156110d957600080fd5b803590602001918460018302840111640100000000831117156110fb57600080fd5b91908080601f016020809104026020016040519081016040528093929190818152602001838380828437600081840152601f19601f820116905080830192505050505050509192919290505050613e82565b005b60008054600181600116156101000203166002900480601f0160208091040260200160405190810160405280929190818152602001828054600181600116156101000203166002900480156111e55780601f106111ba576101008083540402835291602001916111e5565b820191906000526020600020905b8154815290600101906020018083116111c857829003601f168201915b505050505081565b60008251116111fb57600080fd5b600081511161120957600080fd5b60006008600085815260200190815260200160002090508281600101908051906020019061123892919061434e565b508181600201908051906020019061125192919061434e565b50806008600086815260200190815260200160002060008201548160000155600182018160010190805460018160011615610100020316600290046112979291906143ce565b50600282018160020190805460018160011615610100020316600290046112bf9291906143ce565b50600382015481600301559050507f32141d773ee9c2c3d65647f0cefc910eb6ae3973dcb50abf2affd519d6d71ebb848484604051808481526020018060200180602001838103835285818151815260200191508051906020019080838360005b8381101561133b578082015181840152602081019050611320565b50505050905090810190601f1680156113685780820380516001836020036101000a031916815260200191505b50838103825284818151815260200191508051906020019080838360005b838110156113a1578082015181840152602081019050611386565b50505050905090810190601f1680156113ce5780820380516001836020036101000a031916815260200191505b509550505050505060405180910390a150505050565b60075481565b600160009054906101000a900473ffffffffffffffffffffffffffffffffffffffff1673ffffffffffffffffffffffffffffffffffffffff163373ffffffffffffffffffffffffffffffffffffffff161461144457600080fd5b600086511161145257600080fd5b6000851161145f57600080fd5b600083511161146d57600080fd5b600082511161147b57600080fd5b600081511161148957600080fd5b600260008154809291906001019190505550600460008154809291906001019190505550604051806101400160405280600254815260200187815260200186815260200185815260200184815260200183815260200182815260200160001515815260200160001515815260200160001515815250600960006002548152602001908152602001600020600082015181600001556020820151816001019080519060200190611539929190614455565b506040820151816002015560608201518160030155608082015181600401908051906020019061156a929190614455565b5060a0820151816005019080519060200190611587929190614455565b5060c08201518160060190805190602001906115a4929190614455565b5060e08201518160070160006101000a81548160ff0219169083151502179055506101008201518160070160016101000a81548160ff0219169083151502179055506101208201518160070160026101000a81548160ff0219169083151502179055509050507f8827633fd6f7cc8fea01ef2debac580ba0afd149fc94f73670eb94cda1c68246600254878787878787604051808881526020018060200187815260200186815260200180602001806020018060200185810385528b818151815260200191508051906020019080838360005b83811015611692578082015181840152602081019050611677565b50505050905090810190601f1680156116bf5780820380516001836020036101000a031916815260200191505b50858103845288818151815260200191508051906020019080838360005b838110156116f85780820151818401526020810190506116dd565b50505050905090810190601f1680156117255780820380516001836020036101000a031916815260200191505b50858103835287818151815260200191508051906020019080838360005b8381101561175e578082015181840152602081019050611743565b50505050905090810190601f16801561178b5780820380516001836020036101000a031916815260200191505b50858103825286818151815260200191508051906020019080838360005b838110156117c45780820151818401526020810190506117a9565b50505050905090810190601f1680156117f15780820380516001836020036101000a031916815260200191505b509b50505050505050505050505060405180910390a1505050505050565b6000600960008381526020019081526020016000209050600081600001541180156118405750600254816000015411155b6118b2576040517f08c379a00000000000000000000000000000000000000000000000000000000081526004018080602001828103825260118152602001807f50726f64756374206e6f7420666f756e6400000000000000000000000000000081525060200191505060405180910390fd5b6000600a60008681526020019081526020016000209050600081600001541180156118e35750600354816000015411155b611955576040517f08c379a00000000000000000000000000000000000000000000000000000000081526004018080602001828103825260118152602001807f41756374696f6e206e6f7420666f756e6400000000000000000000000000000081525060200191505060405180910390fd5b80600201544211156119cf576040517f08c379a000000000000000000000000000000000000000000000000000000000815260040180806020018281038252600d8152602001807f41756374696f6e20656e6465640000000000000000000000000000000000000081525060200191505060405180910390fd5b600160009054906101000a900473ffffffffffffffffffffffffffffffffffffffff1673ffffffffffffffffffffffffffffffffffffffff163373ffffffffffffffffffffffffffffffffffffffff161415611a93576040517f08c379a00000000000000000000000000000000000000000000000000000000081526004018080602001828103825260088152602001807f4f776e657221212100000000000000000000000000000000000000000000000081525060200191505060405180910390fd5b80600401548411611b0c576040517f08c379a00000000000000000000000000000000000000000000000000000000081526004018080602001828103825260108152602001807f56616c756520746f6f206c6974746c650000000000000000000000000000000081525060200191505060405180910390fd5b8160020154816004015410611b8a5780600401548160090160008360030160009054906101000a900473ffffffffffffffffffffffffffffffffffffffff1673ffffffffffffffffffffffffffffffffffffffff1673ffffffffffffffffffffffffffffffffffffffff168152602001908152602001600020819055505b60018160050160008282540192505081905550338160030160006101000a81548173ffffffffffffffffffffffffffffffffffffffff021916908373ffffffffffffffffffffffffffffffffffffffff16021790555083816004018190555080600a60008781526020019081526020016000206000820154816000015560018201548160010155600282015481600201556003820160009054906101000a900473ffffffffffffffffffffffffffffffffffffffff168160030160006101000a81548173ffffffffffffffffffffffffffffffffffffffff021916908373ffffffffffffffffffffffffffffffffffffffff16021790555060048201548160040155600582015481600501556006820160009054906101000a900460ff168160060160006101000a81548160ff021916908315150217905550600782015481600701556008820160009054906101000a900460ff168160080160006101000a81548160ff0219169083151502179055509050507f2f7e4492427ee1a76fbac4482d287a3e229e6b06c021a6f767dc83b41f8830f28582600101548360020154338886600501548760060160009054906101000a900460ff168a8960080160009054906101000a900460ff16604051808a81526020018981526020018881526020018773ffffffffffffffffffffffffffffffffffffffff1673ffffffffffffffffffffffffffffffffffffffff1681526020018681526020018581526020018415151515815260200183815260200182151515158152602001995050505050505050505060405180910390a17ff4757a49b326036464bec6fe419a4ae38c8a02ce3e68bf0809674f6aab8ad3003385604051808373ffffffffffffffffffffffffffffffffffffffff1673ffffffffffffffffffffffffffffffffffffffff1681526020018281526020019250505060405180910390a15050505050565b60035481565b6000600a6000838152602001908152602001600020905060008160000154118015611e7f5750600354816000015411155b611e8857600080fd5b8060060160009054906101000a900460ff1615611ef0576040517f08c379a00000000000000000000000000000000000000000000000000000000081526004018080602001828103825260238152602001806144fb6023913960400191505060405180910390fd5b60006009600083600701548152602001908152602001600020905060008160000154118015611f255750600254816000015411155b611f2e57600080fd5b8060070160009054906101000a900460ff1615611f4a57600080fd5b600082600501541415611f795760008160070160006101000a81548160ff021916908315150217905550611f97565b60018160070160006101000a81548160ff0219169083151502179055505b60018160070160026101000a81548160ff02191690831515021790555060018260060160006101000a81548160ff021916908315150217905550600460008154809291906001900391905055506005600081548092919060019003919050555081600a60008581526020019081526020016000206000820154816000015560018201548160010155600282015481600201556003820160009054906101000a900473ffffffffffffffffffffffffffffffffffffffff168160030160006101000a81548173ffffffffffffffffffffffffffffffffffffffff021916908373ffffffffffffffffffffffffffffffffffffffff16021790555060048201548160040155600582015481600501556006820160009054906101000a900460ff168160060160006101000a81548160ff021916908315150217905550600782015481600701556008820160009054906101000a900460ff168160080160006101000a81548160ff02191690831515021790555090505080600960008460070154815260200190815260200160002060008201548160000155600182018160010190805460018160011615610100020316600290046121549291906143ce565b506002820154816002015560038201548160030155600482018160040190805460018160011615610100020316600290046121909291906143ce565b50600582018160050190805460018160011615610100020316600290046121b89291906143ce565b50600682018160060190805460018160011615610100020316600290046121e09291906143ce565b506007820160009054906101000a900460ff168160070160006101000a81548160ff0219169083151502179055506007820160019054906101000a900460ff168160070160016101000a81548160ff0219169083151502179055506007820160029054906101000a900460ff168160070160026101000a81548160ff0219169083151502179055509050507fdaec4582d5d9595688c8c98545fdd1c696d41c6aeaeb636737e84ed2f5c00eda8260030160009054906101000a900473ffffffffffffffffffffffffffffffffffffffff168360040154604051808373ffffffffffffffffffffffffffffffffffffffff1673ffffffffffffffffffffffffffffffffffffffff1681526020018281526020019250505060405180910390a17fc9cf267540414db4c25729c73a4a878a6bdc1e2bba366b78ed4975bf356419e8816000015482600101836002015484600301548560040186600501876006018860070160009054906101000a900460ff168a600401548b60030160009054906101000a900473ffffffffffffffffffffffffffffffffffffffff16604051808b8152602001806020018a8152602001898152602001806020018060200180602001881515151581526020018781526020018673ffffffffffffffffffffffffffffffffffffffff1673ffffffffffffffffffffffffffffffffffffffff16815260200185810385528e8181546001816001161561010002031660029004815260200191508054600181600116156101000203166002900480156124635780601f1061243857610100808354040283529160200191612463565b820191906000526020600020905b81548152906001019060200180831161244657829003601f168201915b505085810384528b8181546001816001161561010002031660029004815260200191508054600181600116156101000203166002900480156124e65780601f106124bb576101008083540402835291602001916124e6565b820191906000526020600020905b8154815290600101906020018083116124c957829003601f168201915b505085810383528a8181546001816001161561010002031660029004815260200191508054600181600116156101000203166002900480156125695780601f1061253e57610100808354040283529160200191612569565b820191906000526020600020905b81548152906001019060200180831161254c57829003601f168201915b50508581038252898181546001816001161561010002031660029004815260200191508054600181600116156101000203166002900480156125ec5780601f106125c1576101008083540402835291602001916125ec565b820191906000526020600020905b8154815290600101906020018083116125cf57829003601f168201915b50509e50505050505050505050505050505060405180910390a1505050565b60055481565b60006008600083815260200190815260200160002090506000831161263557600080fd5b6000600b60003373ffffffffffffffffffffffffffffffffffffffff1673ffffffffffffffffffffffffffffffffffffffff168152602001908152602001600020541415612690576007600081548092919060010191905055505b82600b60003373ffffffffffffffffffffffffffffffffffffffff1673ffffffffffffffffffffffffffffffffffffffff16815260200190815260200160002060008282540192505081905550828160030160008282540192505081905550600160009054906101000a900473ffffffffffffffffffffffffffffffffffffffff1673ffffffffffffffffffffffffffffffffffffffff166108fc349081150290604051600060405180830381858888f19350505050158015612757573d6000803e3d6000fd5b507f62947c19bd0e82be02869f914e667557a9d0310712ea4a7c9a07186958d1c79882826001013460405180848152602001806020018381526020018281038252848181546001816001161561010002031660029004815260200191508054600181600116156101000203166002900480156128145780601f106127e957610100808354040283529160200191612814565b820191906000526020600020905b8154815290600101906020018083116127f757829003601f168201915b505094505050505060405180910390a1505050565b600a6020528060005260406000206000915090508060000154908060010154908060020154908060030160009054906101000a900473ffffffffffffffffffffffffffffffffffffffff16908060040154908060050154908060060160009054906101000a900460ff16908060070154908060080160009054906101000a900460ff16905089565b6000600a6000838152602001908152602001600020905060018160080160006101000a81548160ff02191690831515021790555080600a60008481526020019081526020016000206000820154816000015560018201548160010155600282015481600201556003820160009054906101000a900473ffffffffffffffffffffffffffffffffffffffff168160030160006101000a81548173ffffffffffffffffffffffffffffffffffffffff021916908373ffffffffffffffffffffffffffffffffffffffff16021790555060048201548160040155600582015481600501556006820160009054906101000a900460ff168160060160006101000a81548160ff021916908315150217905550600782015481600701556008820160009054906101000a900460ff168160080160006101000a81548160ff0219169083151502179055509050507f2f7e4492427ee1a76fbac4482d287a3e229e6b06c021a6f767dc83b41f8830f282826001015483600201548460030160009054906101000a900473ffffffffffffffffffffffffffffffffffffffff16856004015486600501548760060160009054906101000a900460ff1688600701548960080160009054906101000a900460ff16604051808a81526020018981526020018881526020018773ffffffffffffffffffffffffffffffffffffffff1673ffffffffffffffffffffffffffffffffffffffff1681526020018681526020018581526020018415151515815260200183815260200182151515158152602001995050505050505050505060405180910390a1600160009054906101000a900473ffffffffffffffffffffffffffffffffffffffff1673ffffffffffffffffffffffffffffffffffffffff166108fc349081150290604051600060405180830381858888f19350505050158015612b66573d6000803e3d6000fd5b505050565b6009602052806000526040600020600091509050806000015490806001018054600181600116156101000203166002900480601f016020809104026020016040519081016040528092919081815260200182805460018160011615610100020316600290048015612c1d5780601f10612bf257610100808354040283529160200191612c1d565b820191906000526020600020905b815481529060010190602001808311612c0057829003601f168201915b505050505090806002015490806003015490806004018054600181600116156101000203166002900480601f016020809104026020016040519081016040528092919081815260200182805460018160011615610100020316600290048015612cc75780601f10612c9c57610100808354040283529160200191612cc7565b820191906000526020600020905b815481529060010190602001808311612caa57829003601f168201915b505050505090806005018054600181600116156101000203166002900480601f016020809104026020016040519081016040528092919081815260200182805460018160011615610100020316600290048015612d655780601f10612d3a57610100808354040283529160200191612d65565b820191906000526020600020905b815481529060010190602001808311612d4857829003601f168201915b505050505090806006018054600181600116156101000203166002900480601f016020809104026020016040519081016040528092919081815260200182805460018160011615610100020316600290048015612e035780601f10612dd857610100808354040283529160200191612e03565b820191906000526020600020905b815481529060010190602001808311612de657829003601f168201915b5050505050908060070160009054906101000a900460ff16908060070160019054906101000a900460ff16908060070160029054906101000a900460ff1690508a565b60045481565b600160009054906101000a900473ffffffffffffffffffffffffffffffffffffffff1681565b60065481565b600b6020528060005260406000206000915090505481565b6008602052806000526040600020600091509050806000015490806001018054600181600116156101000203166002900480601f016020809104026020016040519081016040528092919081815260200182805460018160011615610100020316600290048015612f425780601f10612f1757610100808354040283529160200191612f42565b820191906000526020600020905b815481529060010190602001808311612f2557829003601f168201915b505050505090806002018054600181600116156101000203166002900480601f016020809104026020016040519081016040528092919081815260200182805460018160011615610100020316600290048015612fe05780601f10612fb557610100808354040283529160200191612fe0565b820191906000526020600020905b815481529060010190602001808311612fc357829003601f168201915b5050505050908060030154905084565b6000600960008381526020019081526020016000209050600081600001541180156130215750600254816000015411155b61302a57600080fd5b600160009054906101000a900473ffffffffffffffffffffffffffffffffffffffff1673ffffffffffffffffffffffffffffffffffffffff163373ffffffffffffffffffffffffffffffffffffffff161461308457600080fd5b60018160070160016101000a81548160ff0219169083151502179055506003600081548092919060010191905055506005600081548092919060010191905055506000610e10420190506000600283600201540290508260096000868152602001908152602001600020600082015481600001556001820181600101908054600181600116156101000203166002900461311f9291906143ce565b5060028201548160020155600382015481600301556004820181600401908054600181600116156101000203166002900461315b9291906143ce565b50600582018160050190805460018160011615610100020316600290046131839291906143ce565b50600682018160060190805460018160011615610100020316600290046131ab9291906143ce565b506007820160009054906101000a900460ff168160070160006101000a81548160ff0219169083151502179055506007820160019054906101000a900460ff168160070160016101000a81548160ff0219169083151502179055506007820160029054906101000a900460ff168160070160026101000a81548160ff0219169083151502179055509050506040518061012001604052806003548152602001828152602001838152602001600073ffffffffffffffffffffffffffffffffffffffff16815260200160008152602001600081526020016000151581526020018460000154815260200160001515815250600a6000600354815260200190815260200160002060008201518160000155602082015181600101556040820151816002015560608201518160030160006101000a81548173ffffffffffffffffffffffffffffffffffffffff021916908373ffffffffffffffffffffffffffffffffffffffff1602179055506080820151816004015560a0820151816005015560c08201518160060160006101000a81548160ff02191690831515021790555060e082015181600701556101008201518160080160006101000a81548160ff0219169083151502179055509050507fa9c8dfcda5664a5a124c713e386da27de87432d5b668e79458501eb296389ba7600354828486600001546040518085815260200184815260200183815260200182815260200194505050505060405180910390a150505050565b60025481565b6000600960008381526020019081526020016000209050600081600001541180156134095750600254816000015411155b61347b576040517f08c379a00000000000000000000000000000000000000000000000000000000081526004018080602001828103825260118152602001807f50726f64756374206e6f7420666f756e6400000000000000000000000000000081525060200191505060405180910390fd5b60018160070160006101000a81548160ff021916908315150217905550806009600084815260200190815260200160002060008201548160000155600182018160010190805460018160011615610100020316600290046134dd9291906143ce565b506002820154816002015560038201548160030155600482018160040190805460018160011615610100020316600290046135199291906143ce565b50600582018160050190805460018160011615610100020316600290046135419291906143ce565b50600682018160060190805460018160011615610100020316600290046135699291906143ce565b506007820160009054906101000a900460ff168160070160006101000a81548160ff0219169083151502179055506007820160019054906101000a900460ff168160070160016101000a81548160ff0219169083151502179055506007820160029054906101000a900460ff168160070160026101000a81548160ff021916908315150217905550905050600460008154809291906001900391905055508060070160019054906101000a900460ff161561363257600560008154809291906001900391905055505b7fc9cf267540414db4c25729c73a4a878a6bdc1e2bba366b78ed4975bf356419e8816000015482600101836002015484600301548560040186600501876006018860070160009054906101000a900460ff16600080604051808b8152602001806020018a8152602001898152602001806020018060200180602001881515151581526020018781526020018673ffffffffffffffffffffffffffffffffffffffff1673ffffffffffffffffffffffffffffffffffffffff16815260200185810385528e8181546001816001161561010002031660029004815260200191508054600181600116156101000203166002900480156137705780601f1061374557610100808354040283529160200191613770565b820191906000526020600020905b81548152906001019060200180831161375357829003601f168201915b505085810384528b8181546001816001161561010002031660029004815260200191508054600181600116156101000203166002900480156137f35780601f106137c8576101008083540402835291602001916137f3565b820191906000526020600020905b8154815290600101906020018083116137d657829003601f168201915b505085810383528a8181546001816001161561010002031660029004815260200191508054600181600116156101000203166002900480156138765780601f1061384b57610100808354040283529160200191613876565b820191906000526020600020905b81548152906001019060200180831161385957829003601f168201915b50508581038252898181546001816001161561010002031660029004815260200191508054600181600116156101000203166002900480156138f95780601f106138ce576101008083540402835291602001916138f9565b820191906000526020600020905b8154815290600101906020018083116138dc57829003601f168201915b50509e50505050505050505050505050505060405180910390a15050565b6000600a60008481526020019081526020016000209050600081600001541180156139485750600354816000015411155b6139ba576040517f08c379a00000000000000000000000000000000000000000000000000000000081526004018080602001828103825260118152602001807f41756374696f6e206e6f7420666f756e6400000000000000000000000000000081525060200191505060405180910390fd5b81816001018190555080600a60008581526020019081526020016000206000820154816000015560018201548160010155600282015481600201556003820160009054906101000a900473ffffffffffffffffffffffffffffffffffffffff168160030160006101000a81548173ffffffffffffffffffffffffffffffffffffffff021916908373ffffffffffffffffffffffffffffffffffffffff16021790555060048201548160040155600582015481600501556006820160009054906101000a900460ff168160060160006101000a81548160ff021916908315150217905550600782015481600701556008820160009054906101000a900460ff168160080160006101000a81548160ff0219169083151502179055509050507f2f7e4492427ee1a76fbac4482d287a3e229e6b06c021a6f767dc83b41f8830f283826001015483600201548460030160009054906101000a900473ffffffffffffffffffffffffffffffffffffffff16856004015486600501548760060160009054906101000a900460ff1688600701548960080160009054906101000a900460ff16604051808a81526020018981526020018881526020018773ffffffffffffffffffffffffffffffffffffffff1673ffffffffffffffffffffffffffffffffffffffff1681526020018681526020018581526020018415151515815260200183815260200182151515158152602001995050505050505050505060405180910390a1505050565b6000825111613c58576040517f08c379a000000000000000000000000000000000000000000000000000000000815260040180806020018281038252600e8152602001807f6e616d6520746f6f2073686f727400000000000000000000000000000000000081525060200191505060405180910390fd5b6000815111613ccf576040517f08c379a000000000000000000000000000000000000000000000000000000000815260040180806020018281038252600d8152602001807f656d7074792064657461696c730000000000000000000000000000000000000081525060200191505060405180910390fd5b600660008154809291906001019190505550604051806080016040528060065481526020018381526020018281526020016000815250600860006006548152602001908152602001600020600082015181600001556020820151816001019080519060200190613d40929190614455565b506040820151816002019080519060200190613d5d929190614455565b50606082015181600301559050507fc80d84d603620f36f0e23c87749890542fbe6208721d2fc986e0545713e68da46006548383604051808481526020018060200180602001838103835285818151815260200191508051906020019080838360005b83811015613ddb578082015181840152602081019050613dc0565b50505050905090810190601f168015613e085780820380516001836020036101000a031916815260200191505b50838103825284818151815260200191508051906020019080838360005b83811015613e41578082015181840152602081019050613e26565b50505050905090810190601f168015613e6e5780820380516001836020036101000a031916815260200191505b509550505050505060405180910390a15050565b600160009054906101000a900473ffffffffffffffffffffffffffffffffffffffff1673ffffffffffffffffffffffffffffffffffffffff163373ffffffffffffffffffffffffffffffffffffffff1614613edc57600080fd5b6000865111613eea57600080fd5b60008511613ef757600080fd5b6000835111613f0557600080fd5b6000825111613f1357600080fd5b6000815111613f2157600080fd5b600060086000868152602001908152602001600020905060008160000154118015613f525750600654816000015411155b613f5b57600080fd5b6000600960008a8152602001908152602001600020905087816001019080519060200190613f8a92919061434e565b5086816002018190555085816003018190555084816004019080519060200190613fb592919061434e565b5083816005019080519060200190613fce92919061434e565b5082816006019080519060200190613fe792919061434e565b5080600960006002548152602001908152602001600020600082015481600001556001820181600101908054600181600116156101000203166002900461402f9291906143ce565b5060028201548160020155600382015481600301556004820181600401908054600181600116156101000203166002900461406b9291906143ce565b50600582018160050190805460018160011615610100020316600290046140939291906143ce565b50600682018160060190805460018160011615610100020316600290046140bb9291906143ce565b506007820160009054906101000a900460ff168160070160006101000a81548160ff0219169083151502179055506007820160019054906101000a900460ff168160070160016101000a81548160ff0219169083151502179055506007820160029054906101000a900460ff168160070160026101000a81548160ff0219169083151502179055509050507fa96fb91f542a05bd99b8aefd1c433d4d0401735ee76ee79ea91c06a8d78a2138600254898989898989604051808881526020018060200187815260200186815260200180602001806020018060200185810385528b818151815260200191508051906020019080838360005b838110156141ce5780820151818401526020810190506141b3565b50505050905090810190601f1680156141fb5780820380516001836020036101000a031916815260200191505b50858103845288818151815260200191508051906020019080838360005b83811015614234578082015181840152602081019050614219565b50505050905090810190601f1680156142615780820380516001836020036101000a031916815260200191505b50858103835287818151815260200191508051906020019080838360005b8381101561429a57808201518184015260208101905061427f565b50505050905090810190601f1680156142c75780820380516001836020036101000a031916815260200191505b50858103825286818151815260200191508051906020019080838360005b838110156143005780820151818401526020810190506142e5565b50505050905090810190601f16801561432d5780820380516001836020036101000a031916815260200191505b509b50505050505050505050505060405180910390a1505050505050505050565b828054600181600116156101000203166002900490600052602060002090601f016020900481019282601f1061438f57805160ff19168380011785556143bd565b828001600101855582156143bd579182015b828111156143bc5782518255916020019190600101906143a1565b5b5090506143ca91906144d5565b5090565b828054600181600116156101000203166002900490600052602060002090601f016020900481019282601f106144075780548555614444565b8280016001018555821561444457600052602060002091601f016020900482015b82811115614443578254825591600101919060010190614428565b5b50905061445191906144d5565b5090565b828054600181600116156101000203166002900490600052602060002090601f016020900481019282601f1061449657805160ff19168380011785556144c4565b828001600101855582156144c4579182015b828111156144c35782518255916020019190600101906144a8565b5b5090506144d191906144d5565b5090565b6144f791905b808211156144f35760008160009055506001016144db565b5090565b9056fe61756374696f6e456e642068617320616c7265616479206265656e2063616c6c65642ea265627a7a72315820dd65281658b977326bd14d9e680901214e10985fdf788ffb8a80fc7d9b8e70fb64736f6c63430005100032",
  "source": "// pragma solidity ^0.5.0;\npragma solidity >=0.5.0 <0.9.0;\n\n/**\n * The AuctionHouse\n contract does this and that...\n */\n\ncontract AuctionHouse {\n\tstring public name;\n    address payable public owner;\n\tuint public productCount = 0;\n    uint public auctionCount = 0;\n    uint public productsOnAuction = 0;\n    uint public activeAuction = 0;\n    uint public artistCount = 0;\n    uint public donationsCount = 0;\n    mapping (uint => Artist) public artists;\n\tmapping(uint => Product) public products;\n    mapping(uint => Auction) public auctionList;\n    mapping(address => uint) public donations;\n\n\tstruct Product{\n        uint id_product;\n        string name;\n        uint price;\n        uint id_artist;\n        string category;\n        string description;\n        string image_hash;\n        bool purchased;\n        bool auction_started;\n        bool auction_ended;\n    }\n\n    struct Auction{\n        uint id_auction;\n        uint target_price;\n        uint auctionEndTime;\n        address payable highestBidder;\n        uint highestBid;\n        uint offerCount;\n        bool ended;\n        uint id_product;\n        bool moneySent;\n        mapping(address => uint) clients;\n    }\n\n    struct Artist{\n        uint id_artist;\n        string artist_name;\n        string details;\n        uint amount_collected;\n    }\n\n    event ProductCreated(\n        uint id_product,\n        string name,\n        uint price,\n        uint id_artist,\n        string category,\n        string description,\n        string image_hash\n    );\n\n    event ProductUpdated(\n        uint id_product,\n        string name,\n        uint price,\n        uint id_artist,\n        string category,\n        string description,\n        string image_hash\n    );\n\n    event ProductSold(\n        uint id_product,\n        string name,\n        uint price,\n        uint id_artist,\n        string category,\n        string description,\n        string image_hash,\n        bool purchased,\n        uint priceSold,\n        address payable winner\n    );\n\n    event ArtistCreated(\n        uint id_artist,\n        string artist_name,\n        string details\n    );\n\n    event ArtistUpdated(\n        uint id_artist,\n        string artist_name,\n        string details\n    );\n\n    event IncreasedDonation(\n        uint id_artist,\n        string artist_name,\n        uint amount\n    );\n\n    event AuctionCreated(\n        uint id_auction,\n        uint target_price,\n        uint auctionEndTime,\n        uint id_product\n    );\n\n    event AuctionUpdated(\n        uint id_auction,\n        uint target_price,\n        uint auctionEndTime,\n        address payable highestBidder,\n        uint highestBid,\n        uint offerCount,\n        bool ended,\n        uint id_product, \n        bool moneySent\n    );\n\n    event HighestBidIncreased(\n        address payable bidder, \n        uint amount\n    );\n\n    event AuctionEnded(\n        address payable winner, \n        uint amount\n    );\n    \n\n\tconstructor() public {\n\t\tname = \"Auction House of Art\";\n        owner = msg.sender;\n\t}\n\n    function createArtist (string memory _name, string memory _details) public {\n        require(bytes(_name).length > 0, \"name too short\");\n        require(bytes(_details).length > 0, \"empty details\");\n        artistCount++;\n        artists[artistCount] = Artist(artistCount, _name, _details, 0);\n        emit ArtistCreated(artistCount, _name, _details);\n    }\n\n    function editArtist (uint _id, string memory _name, string memory _details) public {\n        require(bytes(_name).length > 0);\n        require(bytes(_details).length > 0);\n        Artist storage _artist = artists[_id];\n        _artist.artist_name= _name;\n        _artist.details = _details;\n        artists[_id] = _artist;\n        emit ArtistUpdated(_id, _name, _details);\n    }\n\n\tfunction createProduct (string memory _name, uint _price, uint _id_artist, string memory _category, string memory _description, string memory _imageHash) public {\n        require(msg.sender == owner);\n        require(bytes(_name).length > 0);\n        require(_price > 0);\n        require(bytes(_category).length > 0);\n        require(bytes(_description).length > 0);\n        require(bytes(_imageHash).length > 0);\n\t\tproductCount++;\n        productsOnAuction++;\n        products[productCount] = Product(productCount, _name, _price, _id_artist, _category, _description, _imageHash, false, false, false);\n\t\temit ProductCreated(productCount, _name, _price, _id_artist, _category, _description, _imageHash);\n\t}\n\n    function editProduct (uint _id, string memory _name, uint _price, uint id_artist, string memory _category, string memory _description, string memory _imageHash) public {\n        require(msg.sender == owner);\n        require(bytes(_name).length > 0);\n        require(_price > 0);\n        require(bytes(_category).length > 0);\n        require(bytes(_description).length > 0);\n        require(bytes(_imageHash).length > 0);\n        Artist storage _artist = artists[id_artist];\n        require(_artist.id_artist > 0 && _artist.id_artist <= artistCount);\n        Product storage _product = products[_id];\n        _product.name= _name;\n        _product.price = _price;\n        _product.id_artist = id_artist;\n        _product.category = _category;\n        _product.description = _description;\n        _product.image_hash = _imageHash;\n        products[productCount] = _product;\n        emit ProductUpdated(productCount, _name, _price, id_artist, _category, _description, _imageHash);\n    }\n\n    function deleteProduct (uint _id_product) public {\n        Product storage _product = products[_id_product];\n        require(_product.id_product > 0 && _product.id_product <= productCount, \"Product not found\");\n        _product.purchased = true;\n        products[_id_product] = _product;\n        productsOnAuction--;\n        if(_product.auction_started){\n            activeAuction--;\n        }\n        emit ProductSold(_product.id_product, _product.name, _product.price, _product.id_artist, _product.category, _product.description, _product.image_hash, _product.purchased, 0, address(0));\n    }\n\n    function createAuction (uint _id) public {\n        Product storage _product = products[_id];\n        require(_product.id_product > 0 && _product.id_product <= productCount);\n        require(msg.sender == owner);\n        _product.auction_started = true;\n        auctionCount++;\n        activeAuction++;\n        uint endTime = now + 1 hours;\n        uint target_price = _product.price * 2;\n        products[_id] = _product;\n        auctionList[auctionCount] = Auction(auctionCount, target_price, endTime, address(0), 0, 0, false, _product.id_product, false);\n        emit AuctionCreated(auctionCount, target_price, endTime, _product.id_product);\n    }\n\n    function editAuction (uint _id, uint _target_price) public{\n        Auction storage _auction = auctionList[_id];\n        require(_auction.id_auction > 0 && _auction.id_auction <= auctionCount, \"Auction not found\");\n        _auction.target_price = _target_price;\n        auctionList[_id] = _auction;\n        emit AuctionUpdated(_id, _auction.target_price, _auction.auctionEndTime, _auction.highestBidder, _auction.highestBid, _auction.offerCount, _auction.ended, _auction.id_product, _auction.moneySent);\n    }\n\n    function bid (uint auction_id, uint bid_value, uint product_id) public payable {\n        Product storage _product = products[product_id];\n        require(_product.id_product > 0 && _product.id_product <= productCount, \"Product not found\");\n        Auction storage _auction = auctionList[auction_id];\n        require(_auction.id_auction > 0 && _auction.id_auction <= auctionCount, \"Auction not found\");\n        require(block.timestamp <= _auction.auctionEndTime, \"Auction ended\");\n        require(msg.sender != owner, \"Owner!!!\");\n        require(bid_value > _auction.highestBid, \"Value too little\");\n        if (_auction.highestBid >= _product.price){\n            _auction.clients[_auction.highestBidder] = _auction.highestBid;\n        }        \n        _auction.offerCount += 1;\n        _auction.highestBidder = msg.sender;\n        _auction.highestBid = bid_value;\n        auctionList[auction_id] = _auction;\n        emit AuctionUpdated(auction_id, _auction.target_price, _auction.auctionEndTime, msg.sender, bid_value, _auction.offerCount, _auction.ended, product_id, _auction.moneySent);\n        emit HighestBidIncreased(msg.sender, bid_value);\n        // if(bid_value >= _auction.target_price){\n        //     auctionEnd(auction_id);\n        // }\n    }\n\n    function donation (uint value, uint artist_id) public payable {\n        Artist storage _artist = artists[artist_id];\n        require (value > 0);\n        if(donations[msg.sender]==0){\n            donationsCount++;\n        }\n        donations[msg.sender] += value;\n        _artist.amount_collected += value;\n        address(owner).transfer(msg.value);\n        emit IncreasedDonation(artist_id, _artist.artist_name, msg.value);\n    }\n    \n    function sendValue(uint _id) public payable {\n        Auction storage _auction = auctionList[_id];\n        _auction.moneySent = true;\n        auctionList[_id] = _auction;\n        emit AuctionUpdated(_id, _auction.target_price, _auction.auctionEndTime, _auction.highestBidder, _auction.highestBid, _auction.offerCount, _auction.ended, _auction.id_product, _auction.moneySent);\n        address(owner).transfer(msg.value);\n    }\n\n\n    function auctionEnd(uint _id) public payable {\n\n        Auction storage _auction = auctionList[_id];\n        require(_auction.id_auction > 0 && _auction.id_auction <= auctionCount);\n        require(!_auction.ended, \"auctionEnd has already been called.\");\n\n        Product storage _product = products[_auction.id_product];\n        require(_product.id_product > 0 && _product.id_product <= productCount);\n        require(!_product.purchased);\n\n        if(_auction.offerCount==0){\n            _product.purchased = false;\n        }\n        else{\n            _product.purchased = true;\n        }\n        \n        _product.auction_ended = true;\n        _auction.ended = true;\n        productsOnAuction--;\n        activeAuction--;\n\n        // uint bid_value = _auction.highestBid;\n        // address payable sender = _auction.highestBidder;\n        // address(owner).transfer(msg.value);\n        // address(owner).transfer(msg.value);\n        auctionList[_id] = _auction;\n        products[_auction.id_product] = _product;\n        emit AuctionEnded(_auction.highestBidder, _auction.highestBid);\n        // emit AuctionUpdated(_auction.id_auction, _auction.auctionEndTime, _auction.highestBidder, _auction.highestBid, _auction.offerCount, _auction.ended, _auction.id_product);\n        emit ProductSold(_product.id_product, _product.name, _product.price, _product.id_artist, _product.category, _product.description, _product.image_hash, _product.purchased, _auction.highestBid, _auction.highestBidder);\n\n    }\n    \n    \n}\n",
  "sourcePath": "/Users/alexandrazambitchi/Desktop/licenta/licitatie2/src/contracts/AuctionHouse.sol",
  "compiler": {
    "name": "solc",
    "version": "0.5.16+commit.9c3226ce.Emscripten.clang"
  },
  "schemaVersion": "3.4.1",
  "updatedAt": "2021-06-03T10:57:01.721Z",
  "networkType": "ethereum",
  "devdoc": {
    "methods": {}
  },
  "userdoc": {
    "methods": {},
    "notice": "The AuctionHouse contract does this and that..."
  }
}