{
  "contractName": "AuctionHouse",
  "abi": [
    {
      "inputs": [],
      "payable": false,
      "stateMutability": "nonpayable",
      "type": "constructor"
    },
    {
      "anonymous": false,
      "inputs": [
        {
          "indexed": false,
          "internalType": "uint256",
          "name": "id_auction",
          "type": "uint256"
        },
        {
          "indexed": false,
          "internalType": "uint256",
          "name": "auctionEndTime",
          "type": "uint256"
        },
        {
          "indexed": false,
          "internalType": "address payable",
          "name": "highestBidder",
          "type": "address"
        },
        {
          "indexed": false,
          "internalType": "uint256",
          "name": "highestBid",
          "type": "uint256"
        },
        {
          "indexed": false,
          "internalType": "uint256",
          "name": "offerCount",
          "type": "uint256"
        },
        {
          "indexed": false,
          "internalType": "bool",
          "name": "ended",
          "type": "bool"
        },
        {
          "indexed": false,
          "internalType": "uint256",
          "name": "id_product",
          "type": "uint256"
        }
      ],
      "name": "AuctionCreated",
      "type": "event"
    },
    {
      "anonymous": false,
      "inputs": [
        {
          "indexed": false,
          "internalType": "address payable",
          "name": "winner",
          "type": "address"
        },
        {
          "indexed": false,
          "internalType": "uint256",
          "name": "amount",
          "type": "uint256"
        }
      ],
      "name": "AuctionEnded",
      "type": "event"
    },
    {
      "anonymous": false,
      "inputs": [
        {
          "indexed": false,
          "internalType": "uint256",
          "name": "id_auction",
          "type": "uint256"
        },
        {
          "indexed": false,
          "internalType": "uint256",
          "name": "auctionEndTime",
          "type": "uint256"
        },
        {
          "indexed": false,
          "internalType": "address payable",
          "name": "highestBidder",
          "type": "address"
        },
        {
          "indexed": false,
          "internalType": "uint256",
          "name": "highestBid",
          "type": "uint256"
        },
        {
          "indexed": false,
          "internalType": "uint256",
          "name": "offerCount",
          "type": "uint256"
        },
        {
          "indexed": false,
          "internalType": "bool",
          "name": "ended",
          "type": "bool"
        },
        {
          "indexed": false,
          "internalType": "uint256",
          "name": "id_product",
          "type": "uint256"
        }
      ],
      "name": "AuctionUpdated",
      "type": "event"
    },
    {
      "anonymous": false,
      "inputs": [
        {
          "indexed": false,
          "internalType": "address payable",
          "name": "bidder",
          "type": "address"
        },
        {
          "indexed": false,
          "internalType": "uint256",
          "name": "amount",
          "type": "uint256"
        }
      ],
      "name": "HighestBidIncreased",
      "type": "event"
    },
    {
      "anonymous": false,
      "inputs": [
        {
          "indexed": false,
          "internalType": "uint256",
          "name": "id_product",
          "type": "uint256"
        },
        {
          "indexed": false,
          "internalType": "string",
          "name": "name",
          "type": "string"
        },
        {
          "indexed": false,
          "internalType": "uint256",
          "name": "price",
          "type": "uint256"
        },
        {
          "indexed": false,
          "internalType": "string",
          "name": "artist_name",
          "type": "string"
        },
        {
          "indexed": false,
          "internalType": "string",
          "name": "category",
          "type": "string"
        },
        {
          "indexed": false,
          "internalType": "string",
          "name": "description",
          "type": "string"
        },
        {
          "indexed": false,
          "internalType": "string",
          "name": "image_hash",
          "type": "string"
        },
        {
          "indexed": false,
          "internalType": "bool",
          "name": "purchased",
          "type": "bool"
        },
        {
          "indexed": false,
          "internalType": "bool",
          "name": "auction_started",
          "type": "bool"
        }
      ],
      "name": "ProductCreated",
      "type": "event"
    },
    {
      "anonymous": false,
      "inputs": [
        {
          "indexed": false,
          "internalType": "uint256",
          "name": "id_product",
          "type": "uint256"
        },
        {
          "indexed": false,
          "internalType": "string",
          "name": "name",
          "type": "string"
        },
        {
          "indexed": false,
          "internalType": "uint256",
          "name": "price",
          "type": "uint256"
        },
        {
          "indexed": false,
          "internalType": "string",
          "name": "artist_name",
          "type": "string"
        },
        {
          "indexed": false,
          "internalType": "string",
          "name": "category",
          "type": "string"
        },
        {
          "indexed": false,
          "internalType": "string",
          "name": "description",
          "type": "string"
        },
        {
          "indexed": false,
          "internalType": "string",
          "name": "image_hash",
          "type": "string"
        },
        {
          "indexed": false,
          "internalType": "bool",
          "name": "purchased",
          "type": "bool"
        },
        {
          "indexed": false,
          "internalType": "uint256",
          "name": "priceSold",
          "type": "uint256"
        },
        {
          "indexed": false,
          "internalType": "address payable",
          "name": "winner",
          "type": "address"
        }
      ],
      "name": "ProductSold",
      "type": "event"
    },
    {
      "constant": true,
      "inputs": [],
      "name": "activeAuction",
      "outputs": [
        {
          "internalType": "uint256",
          "name": "",
          "type": "uint256"
        }
      ],
      "payable": false,
      "stateMutability": "view",
      "type": "function"
    },
    {
      "constant": true,
      "inputs": [],
      "name": "auctionCount",
      "outputs": [
        {
          "internalType": "uint256",
          "name": "",
          "type": "uint256"
        }
      ],
      "payable": false,
      "stateMutability": "view",
      "type": "function"
    },
    {
      "constant": true,
      "inputs": [
        {
          "internalType": "uint256",
          "name": "",
          "type": "uint256"
        }
      ],
      "name": "auctionList",
      "outputs": [
        {
          "internalType": "uint256",
          "name": "id_auction",
          "type": "uint256"
        },
        {
          "internalType": "uint256",
          "name": "auctionEndTime",
          "type": "uint256"
        },
        {
          "internalType": "address payable",
          "name": "highestBidder",
          "type": "address"
        },
        {
          "internalType": "uint256",
          "name": "highestBid",
          "type": "uint256"
        },
        {
          "internalType": "uint256",
          "name": "offerCount",
          "type": "uint256"
        },
        {
          "internalType": "bool",
          "name": "ended",
          "type": "bool"
        },
        {
          "internalType": "uint256",
          "name": "id_product",
          "type": "uint256"
        }
      ],
      "payable": false,
      "stateMutability": "view",
      "type": "function"
    },
    {
      "constant": true,
      "inputs": [],
      "name": "name",
      "outputs": [
        {
          "internalType": "string",
          "name": "",
          "type": "string"
        }
      ],
      "payable": false,
      "stateMutability": "view",
      "type": "function"
    },
    {
      "constant": true,
      "inputs": [],
      "name": "owner",
      "outputs": [
        {
          "internalType": "address payable",
          "name": "",
          "type": "address"
        }
      ],
      "payable": false,
      "stateMutability": "view",
      "type": "function"
    },
    {
      "constant": true,
      "inputs": [],
      "name": "productCount",
      "outputs": [
        {
          "internalType": "uint256",
          "name": "",
          "type": "uint256"
        }
      ],
      "payable": false,
      "stateMutability": "view",
      "type": "function"
    },
    {
      "constant": true,
      "inputs": [
        {
          "internalType": "uint256",
          "name": "",
          "type": "uint256"
        }
      ],
      "name": "products",
      "outputs": [
        {
          "internalType": "uint256",
          "name": "id_product",
          "type": "uint256"
        },
        {
          "internalType": "string",
          "name": "name",
          "type": "string"
        },
        {
          "internalType": "uint256",
          "name": "price",
          "type": "uint256"
        },
        {
          "internalType": "string",
          "name": "artist_name",
          "type": "string"
        },
        {
          "internalType": "string",
          "name": "category",
          "type": "string"
        },
        {
          "internalType": "string",
          "name": "description",
          "type": "string"
        },
        {
          "internalType": "string",
          "name": "image_hash",
          "type": "string"
        },
        {
          "internalType": "bool",
          "name": "purchased",
          "type": "bool"
        },
        {
          "internalType": "bool",
          "name": "auction_started",
          "type": "bool"
        },
        {
          "internalType": "bool",
          "name": "auction_ended",
          "type": "bool"
        }
      ],
      "payable": false,
      "stateMutability": "view",
      "type": "function"
    },
    {
      "constant": true,
      "inputs": [],
      "name": "productsOnAuction",
      "outputs": [
        {
          "internalType": "uint256",
          "name": "",
          "type": "uint256"
        }
      ],
      "payable": false,
      "stateMutability": "view",
      "type": "function"
    },
    {
      "constant": false,
      "inputs": [
        {
          "internalType": "string",
          "name": "_name",
          "type": "string"
        },
        {
          "internalType": "uint256",
          "name": "_price",
          "type": "uint256"
        },
        {
          "internalType": "string",
          "name": "_artist",
          "type": "string"
        },
        {
          "internalType": "string",
          "name": "_category",
          "type": "string"
        },
        {
          "internalType": "string",
          "name": "_description",
          "type": "string"
        },
        {
          "internalType": "string",
          "name": "_imageHash",
          "type": "string"
        }
      ],
      "name": "createProduct",
      "outputs": [],
      "payable": false,
      "stateMutability": "nonpayable",
      "type": "function"
    },
    {
      "constant": false,
      "inputs": [
        {
          "internalType": "uint256",
          "name": "_id",
          "type": "uint256"
        }
      ],
      "name": "createAuction",
      "outputs": [],
      "payable": false,
      "stateMutability": "nonpayable",
      "type": "function"
    },
    {
      "constant": false,
      "inputs": [
        {
          "internalType": "uint256",
          "name": "auction_id",
          "type": "uint256"
        },
        {
          "internalType": "uint256",
          "name": "bid_value",
          "type": "uint256"
        },
        {
          "internalType": "uint256",
          "name": "product_id",
          "type": "uint256"
        }
      ],
      "name": "bid",
      "outputs": [],
      "payable": true,
      "stateMutability": "payable",
      "type": "function"
    },
    {
      "constant": false,
      "inputs": [
        {
          "internalType": "uint256",
          "name": "_id_product",
          "type": "uint256"
        }
      ],
      "name": "deleteProduct",
      "outputs": [],
      "payable": false,
      "stateMutability": "nonpayable",
      "type": "function"
    },
    {
      "constant": false,
      "inputs": [
        {
          "internalType": "uint256",
          "name": "_id",
          "type": "uint256"
        }
      ],
      "name": "auctionEnd",
      "outputs": [],
      "payable": true,
      "stateMutability": "payable",
      "type": "function"
    }
  ],
  "bytecode": "0x608060405260006002556000600355600060045560006005553480156200002557600080fd5b506040518060400160405280601481526020017f41756374696f6e20486f757365206f66204172740000000000000000000000008152506000908051906020019062000073929190620000bb565b5033600160006101000a81548173ffffffffffffffffffffffffffffffffffffffff021916908373ffffffffffffffffffffffffffffffffffffffff1602179055506200016a565b828054600181600116156101000203166002900490600052602060002090601f016020900481019282601f10620000fe57805160ff19168380011785556200012f565b828001600101855582156200012f579182015b828111156200012e57825182559160200191906001019062000111565b5b5090506200013e919062000142565b5090565b6200016791905b808211156200016357600081600090555060010162000149565b5090565b90565b612da2806200017a6000396000f3fe6080604052600436106100c25760003560e01c80637acc0b201161007f578063d5563f3111610059578063d5563f31146105db578063e0f6ef8714610616578063e6821f5c14610641578063ed90c7b71461096f576100c2565b80637acc0b20146102c657806380edeb53146105595780638da5cb5b14610584576100c2565b806306fdde03146100c75780632ac9bf09146101575780632ad715731461019957806332246e9f146101c457806333ed796c146101f2578063669c00831461021d575b600080fd5b3480156100d357600080fd5b506100dc6109aa565b6040518080602001828103825283818151815260200191508051906020019080838360005b8381101561011c578082015181840152602081019050610101565b50505050905090810190601f1680156101495780820380516001836020036101000a031916815260200191505b509250505060405180910390f35b6101976004803603606081101561016d57600080fd5b81019080803590602001909291908035906020019092919080359060200190929190505050610a48565b005b3480156101a557600080fd5b506101ae611021565b6040518082815260200191505060405180910390f35b6101f0600480360360208110156101da57600080fd5b8101908080359060200190929190505050611027565b005b3480156101fe57600080fd5b50610207611960565b6040518082815260200191505060405180910390f35b34801561022957600080fd5b506102566004803603602081101561024057600080fd5b8101908080359060200190929190505050611966565b604051808881526020018781526020018673ffffffffffffffffffffffffffffffffffffffff1673ffffffffffffffffffffffffffffffffffffffff1681526020018581526020018481526020018315151515815260200182815260200197505050505050505060405180910390f35b3480156102d257600080fd5b506102ff600480360360208110156102e957600080fd5b81019080803590602001909291905050506119d5565b604051808b8152602001806020018a81526020018060200180602001806020018060200189151515158152602001881515151581526020018715151515815260200186810386528f818151815260200191508051906020019080838360005b8381101561037957808201518184015260208101905061035e565b50505050905090810190601f1680156103a65780820380516001836020036101000a031916815260200191505b5086810385528d818151815260200191508051906020019080838360005b838110156103df5780820151818401526020810190506103c4565b50505050905090810190601f16801561040c5780820380516001836020036101000a031916815260200191505b5086810384528c818151815260200191508051906020019080838360005b8381101561044557808201518184015260208101905061042a565b50505050905090810190601f1680156104725780820380516001836020036101000a031916815260200191505b5086810383528b818151815260200191508051906020019080838360005b838110156104ab578082015181840152602081019050610490565b50505050905090810190601f1680156104d85780820380516001836020036101000a031916815260200191505b5086810382528a818151815260200191508051906020019080838360005b838110156105115780820151818401526020810190506104f6565b50505050905090810190601f16801561053e5780820380516001836020036101000a031916815260200191505b509f5050505050505050505050505050505060405180910390f35b34801561056557600080fd5b5061056e611d48565b6040518082815260200191505060405180910390f35b34801561059057600080fd5b50610599611d4e565b604051808273ffffffffffffffffffffffffffffffffffffffff1673ffffffffffffffffffffffffffffffffffffffff16815260200191505060405180910390f35b3480156105e757600080fd5b50610614600480360360208110156105fe57600080fd5b8101908080359060200190929190505050611d74565b005b34801561062257600080fd5b5061062b612176565b6040518082815260200191505060405180910390f35b34801561064d57600080fd5b5061096d600480360360c081101561066457600080fd5b810190808035906020019064010000000081111561068157600080fd5b82018360208201111561069357600080fd5b803590602001918460018302840111640100000000831117156106b557600080fd5b91908080601f016020809104026020016040519081016040528093929190818152602001838380828437600081840152601f19601f820116905080830192505050505050509192919290803590602001909291908035906020019064010000000081111561072257600080fd5b82018360208201111561073457600080fd5b8035906020019184600183028401116401000000008311171561075657600080fd5b91908080601f016020809104026020016040519081016040528093929190818152602001838380828437600081840152601f19601f820116905080830192505050505050509192919290803590602001906401000000008111156107b957600080fd5b8201836020820111156107cb57600080fd5b803590602001918460018302840111640100000000831117156107ed57600080fd5b91908080601f016020809104026020016040519081016040528093929190818152602001838380828437600081840152601f19601f8201169050808301925050505050505091929192908035906020019064010000000081111561085057600080fd5b82018360208201111561086257600080fd5b8035906020019184600183028401116401000000008311171561088457600080fd5b91908080601f016020809104026020016040519081016040528093929190818152602001838380828437600081840152601f19601f820116905080830192505050505050509192919290803590602001906401000000008111156108e757600080fd5b8201836020820111156108f957600080fd5b8035906020019184600183028401116401000000008311171561091b57600080fd5b91908080601f016020809104026020016040519081016040528093929190818152602001838380828437600081840152601f19601f82011690508083019250505050505050919291929050505061217c565b005b34801561097b57600080fd5b506109a86004803603602081101561099257600080fd5b8101908080359060200190929190505050612640565b005b60008054600181600116156101000203166002900480601f016020809104026020016040519081016040528092919081815260200182805460018160011615610100020316600290048015610a405780601f10610a1557610100808354040283529160200191610a40565b820191906000526020600020905b815481529060010190602001808311610a2357829003601f168201915b505050505081565b600060066000838152602001908152602001600020905060008160000154118015610a795750600254816000015411155b610aeb576040517f08c379a00000000000000000000000000000000000000000000000000000000081526004018080602001828103825260118152602001807f50726f64756374206e6f7420666f756e6400000000000000000000000000000081525060200191505060405180910390fd5b600060076000868152602001908152602001600020905060008160000154118015610b1c5750600354816000015411155b610b8e576040517f08c379a00000000000000000000000000000000000000000000000000000000081526004018080602001828103825260118152602001807f41756374696f6e206e6f7420666f756e6400000000000000000000000000000081525060200191505060405180910390fd5b8060010154421115610c08576040517f08c379a000000000000000000000000000000000000000000000000000000000815260040180806020018281038252600d8152602001807f41756374696f6e20656e6465640000000000000000000000000000000000000081525060200191505060405180910390fd5b80600301548411610c81576040517f08c379a00000000000000000000000000000000000000000000000000000000081526004018080602001828103825260108152602001807f56616c756520746f6f206c6974746c650000000000000000000000000000000081525060200191505060405180910390fd5b600160009054906101000a900473ffffffffffffffffffffffffffffffffffffffff1673ffffffffffffffffffffffffffffffffffffffff163373ffffffffffffffffffffffffffffffffffffffff161415610d45576040517f08c379a00000000000000000000000000000000000000000000000000000000081526004018080602001828103825260088152602001807f4f776e657221212100000000000000000000000000000000000000000000000081525060200191505060405180910390fd5b8160020154816003015414610dc35780600301548160070160008360020160009054906101000a900473ffffffffffffffffffffffffffffffffffffffff1673ffffffffffffffffffffffffffffffffffffffff1673ffffffffffffffffffffffffffffffffffffffff168152602001908152602001600020819055505b60018160040160008282540192505081905550338160020160006101000a81548173ffffffffffffffffffffffffffffffffffffffff021916908373ffffffffffffffffffffffffffffffffffffffff160217905550838160030181905550806007600087815260200190815260200160002060008201548160000155600182015481600101556002820160009054906101000a900473ffffffffffffffffffffffffffffffffffffffff168160020160006101000a81548173ffffffffffffffffffffffffffffffffffffffff021916908373ffffffffffffffffffffffffffffffffffffffff16021790555060038201548160030155600482015481600401556005820160009054906101000a900460ff168160050160006101000a81548160ff021916908315150217905550600682015481600601559050507fbddf7d5b3d652be151c4b606fb4afe67059a9ccc0f0a1b66b292488b36d002a7858260010154338785600401548660050160009054906101000a900460ff1689604051808881526020018781526020018673ffffffffffffffffffffffffffffffffffffffff1673ffffffffffffffffffffffffffffffffffffffff1681526020018581526020018481526020018315151515815260200182815260200197505050505050505060405180910390a17ff4757a49b326036464bec6fe419a4ae38c8a02ce3e68bf0809674f6aab8ad3003385604051808373ffffffffffffffffffffffffffffffffffffffff1673ffffffffffffffffffffffffffffffffffffffff1681526020018281526020019250505060405180910390a15050505050565b60035481565b6000600760008381526020019081526020016000209050600081600001541180156110585750600354816000015411155b61106157600080fd5b8060050160009054906101000a900460ff16156110c9576040517f08c379a0000000000000000000000000000000000000000000000000000000008152600401808060200182810382526023815260200180612d4b6023913960400191505060405180910390fd5b600060066000836006015481526020019081526020016000209050600081600001541180156110fe5750600254816000015411155b61110757600080fd5b8060070160009054906101000a900460ff161561112357600080fd5b6000826004015414156111525760008160070160006101000a81548160ff021916908315150217905550611170565b60018160070160006101000a81548160ff0219169083151502179055505b60018160070160026101000a81548160ff02191690831515021790555060018260050160006101000a81548160ff021916908315150217905550600460008154809291906001900391905055506005600081548092919060019003919050555060008260030154905060008360020160009054906101000a900473ffffffffffffffffffffffffffffffffffffffff169050836007600087815260200190815260200160002060008201548160000155600182015481600101556002820160009054906101000a900473ffffffffffffffffffffffffffffffffffffffff168160020160006101000a81548173ffffffffffffffffffffffffffffffffffffffff021916908373ffffffffffffffffffffffffffffffffffffffff16021790555060038201548160030155600482015481600401556005820160009054906101000a900460ff168160050160006101000a81548160ff021916908315150217905550600682015481600601559050508260066000866006015481526020019081526020016000206000820154816000015560018201816001019080546001816001161561010002031660029004611328929190612c1e565b50600282015481600201556003820181600301908054600181600116156101000203166002900461135a929190612c1e565b5060048201816004019080546001816001161561010002031660029004611382929190612c1e565b50600582018160050190805460018160011615610100020316600290046113aa929190612c1e565b50600682018160060190805460018160011615610100020316600290046113d2929190612c1e565b506007820160009054906101000a900460ff168160070160006101000a81548160ff0219169083151502179055506007820160019054906101000a900460ff168160070160016101000a81548160ff0219169083151502179055506007820160029054906101000a900460ff168160070160026101000a81548160ff0219169083151502179055509050507fdaec4582d5d9595688c8c98545fdd1c696d41c6aeaeb636737e84ed2f5c00eda8460020160009054906101000a900473ffffffffffffffffffffffffffffffffffffffff168560030154604051808373ffffffffffffffffffffffffffffffffffffffff1673ffffffffffffffffffffffffffffffffffffffff1681526020018281526020019250505060405180910390a17fbddf7d5b3d652be151c4b606fb4afe67059a9ccc0f0a1b66b292488b36d002a7846000015485600101548660020160009054906101000a900473ffffffffffffffffffffffffffffffffffffffff16876003015488600401548960050160009054906101000a900460ff168a60060154604051808881526020018781526020018673ffffffffffffffffffffffffffffffffffffffff1673ffffffffffffffffffffffffffffffffffffffff1681526020018581526020018481526020018315151515815260200182815260200197505050505050505060405180910390a17f16b7e7c2d9c385f4af9a5dbfccf3ee6e2ab0218153ccfb6731d2c175e44142e78360000154846001018560020154866003018760040188600501896006018a60070160009054906101000a900460ff168c600301548d60020160009054906101000a900473ffffffffffffffffffffffffffffffffffffffff16604051808b8152602001806020018a815260200180602001806020018060200180602001891515151581526020018881526020018773ffffffffffffffffffffffffffffffffffffffff1673ffffffffffffffffffffffffffffffffffffffff16815260200186810386528f8181546001816001161561010002031660029004815260200191508054600181600116156101000203166002900480156117325780601f1061170757610100808354040283529160200191611732565b820191906000526020600020905b81548152906001019060200180831161171557829003601f168201915b505086810385528d8181546001816001161561010002031660029004815260200191508054600181600116156101000203166002900480156117b55780601f1061178a576101008083540402835291602001916117b5565b820191906000526020600020905b81548152906001019060200180831161179857829003601f168201915b505086810384528c8181546001816001161561010002031660029004815260200191508054600181600116156101000203166002900480156118385780601f1061180d57610100808354040283529160200191611838565b820191906000526020600020905b81548152906001019060200180831161181b57829003601f168201915b505086810383528b8181546001816001161561010002031660029004815260200191508054600181600116156101000203166002900480156118bb5780601f10611890576101008083540402835291602001916118bb565b820191906000526020600020905b81548152906001019060200180831161189e57829003601f168201915b505086810382528a81815460018160011615610100020316600290048152602001915080546001816001161561010002031660029004801561193e5780601f106119135761010080835404028352916020019161193e565b820191906000526020600020905b81548152906001019060200180831161192157829003601f168201915b50509f5050505050505050505050505050505060405180910390a15050505050565b60055481565b60076020528060005260406000206000915090508060000154908060010154908060020160009054906101000a900473ffffffffffffffffffffffffffffffffffffffff16908060030154908060040154908060050160009054906101000a900460ff16908060060154905087565b6006602052806000526040600020600091509050806000015490806001018054600181600116156101000203166002900480601f016020809104026020016040519081016040528092919081815260200182805460018160011615610100020316600290048015611a875780601f10611a5c57610100808354040283529160200191611a87565b820191906000526020600020905b815481529060010190602001808311611a6a57829003601f168201915b505050505090806002015490806003018054600181600116156101000203166002900480601f016020809104026020016040519081016040528092919081815260200182805460018160011615610100020316600290048015611b2b5780601f10611b0057610100808354040283529160200191611b2b565b820191906000526020600020905b815481529060010190602001808311611b0e57829003601f168201915b505050505090806004018054600181600116156101000203166002900480601f016020809104026020016040519081016040528092919081815260200182805460018160011615610100020316600290048015611bc95780601f10611b9e57610100808354040283529160200191611bc9565b820191906000526020600020905b815481529060010190602001808311611bac57829003601f168201915b505050505090806005018054600181600116156101000203166002900480601f016020809104026020016040519081016040528092919081815260200182805460018160011615610100020316600290048015611c675780601f10611c3c57610100808354040283529160200191611c67565b820191906000526020600020905b815481529060010190602001808311611c4a57829003601f168201915b505050505090806006018054600181600116156101000203166002900480601f016020809104026020016040519081016040528092919081815260200182805460018160011615610100020316600290048015611d055780601f10611cda57610100808354040283529160200191611d05565b820191906000526020600020905b815481529060010190602001808311611ce857829003601f168201915b5050505050908060070160009054906101000a900460ff16908060070160019054906101000a900460ff16908060070160029054906101000a900460ff1690508a565b60045481565b600160009054906101000a900473ffffffffffffffffffffffffffffffffffffffff1681565b600060066000838152602001908152602001600020905060008160000154118015611da55750600254816000015411155b611dae57600080fd5b600160009054906101000a900473ffffffffffffffffffffffffffffffffffffffff1673ffffffffffffffffffffffffffffffffffffffff163373ffffffffffffffffffffffffffffffffffffffff1614611e0857600080fd5b60018160070160016101000a81548160ff0219169083151502179055506003600081548092919060010191905055506005600081548092919060010191905055506000610e104201905081600660008581526020019081526020016000206000820154816000015560018201816001019080546001816001161561010002031660029004611e97929190612c1e565b506002820154816002015560038201816003019080546001816001161561010002031660029004611ec9929190612c1e565b5060048201816004019080546001816001161561010002031660029004611ef1929190612c1e565b5060058201816005019080546001816001161561010002031660029004611f19929190612c1e565b5060068201816006019080546001816001161561010002031660029004611f41929190612c1e565b506007820160009054906101000a900460ff168160070160006101000a81548160ff0219169083151502179055506007820160019054906101000a900460ff168160070160016101000a81548160ff0219169083151502179055506007820160029054906101000a900460ff168160070160026101000a81548160ff0219169083151502179055509050506040518060e001604052806003548152602001828152602001600073ffffffffffffffffffffffffffffffffffffffff16815260200160008152602001600081526020016000151581526020018360000154815250600760006003548152602001908152602001600020600082015181600001556020820151816001015560408201518160020160006101000a81548173ffffffffffffffffffffffffffffffffffffffff021916908373ffffffffffffffffffffffffffffffffffffffff160217905550606082015181600301556080820151816004015560a08201518160050160006101000a81548160ff02191690831515021790555060c082015181600601559050507fc5b56ef28a33b7aa02835d41cf99eb4626bf3696d6037ad8259ecee675eebfd5600354826000806000808860000154604051808881526020018781526020018673ffffffffffffffffffffffffffffffffffffffff1673ffffffffffffffffffffffffffffffffffffffff1681526020018581526020018481526020018315151515815260200182815260200197505050505050505060405180910390a1505050565b60025481565b600160009054906101000a900473ffffffffffffffffffffffffffffffffffffffff1673ffffffffffffffffffffffffffffffffffffffff163373ffffffffffffffffffffffffffffffffffffffff16146121d657600080fd5b60008651116121e457600080fd5b600085116121f157600080fd5b60008451116121ff57600080fd5b600083511161220d57600080fd5b600082511161221b57600080fd5b600081511161222957600080fd5b6002600081548092919060010191905055506004600081548092919060010191905055506040518061014001604052806002548152602001878152602001868152602001858152602001848152602001838152602001828152602001600015158152602001600015158152602001600015158152506006600060025481526020019081526020016000206000820151816000015560208201518160010190805190602001906122d9929190612ca5565b50604082015181600201556060820151816003019080519060200190612300929190612ca5565b50608082015181600401908051906020019061231d929190612ca5565b5060a082015181600501908051906020019061233a929190612ca5565b5060c0820151816006019080519060200190612357929190612ca5565b5060e08201518160070160006101000a81548160ff0219169083151502179055506101008201518160070160016101000a81548160ff0219169083151502179055506101208201518160070160026101000a81548160ff0219169083151502179055509050507fe84d163122cd80ac28d349f4cc926b047afd3c604db3788d4666788444005279600254878787878787600080604051808a81526020018060200189815260200180602001806020018060200180602001881515151581526020018715151515815260200186810386528e818151815260200191508051906020019080838360005b8381101561245a57808201518184015260208101905061243f565b50505050905090810190601f1680156124875780820380516001836020036101000a031916815260200191505b5086810385528c818151815260200191508051906020019080838360005b838110156124c05780820151818401526020810190506124a5565b50505050905090810190601f1680156124ed5780820380516001836020036101000a031916815260200191505b5086810384528b818151815260200191508051906020019080838360005b8381101561252657808201518184015260208101905061250b565b50505050905090810190601f1680156125535780820380516001836020036101000a031916815260200191505b5086810383528a818151815260200191508051906020019080838360005b8381101561258c578082015181840152602081019050612571565b50505050905090810190601f1680156125b95780820380516001836020036101000a031916815260200191505b50868103825289818151815260200191508051906020019080838360005b838110156125f25780820151818401526020810190506125d7565b50505050905090810190601f16801561261f5780820380516001836020036101000a031916815260200191505b509e50505050505050505050505050505060405180910390a1505050505050565b6000600660008381526020019081526020016000209050600081600001541180156126715750600254816000015411155b6126e3576040517f08c379a00000000000000000000000000000000000000000000000000000000081526004018080602001828103825260118152602001807f50726f64756374206e6f7420666f756e6400000000000000000000000000000081525060200191505060405180910390fd5b60018160070160006101000a81548160ff02191690831515021790555080600660008481526020019081526020016000206000820154816000015560018201816001019080546001816001161561010002031660029004612745929190612c1e565b506002820154816002015560038201816003019080546001816001161561010002031660029004612777929190612c1e565b506004820181600401908054600181600116156101000203166002900461279f929190612c1e565b50600582018160050190805460018160011615610100020316600290046127c7929190612c1e565b50600682018160060190805460018160011615610100020316600290046127ef929190612c1e565b506007820160009054906101000a900460ff168160070160006101000a81548160ff0219169083151502179055506007820160019054906101000a900460ff168160070160016101000a81548160ff0219169083151502179055506007820160029054906101000a900460ff168160070160026101000a81548160ff021916908315150217905550905050600460008154809291906001900391905055508060070160019054906101000a900460ff16156128b857600560008154809291906001900391905055505b7f16b7e7c2d9c385f4af9a5dbfccf3ee6e2ab0218153ccfb6731d2c175e44142e78160000154826001018360020154846003018560040186600501876006018860070160009054906101000a900460ff16600080604051808b8152602001806020018a815260200180602001806020018060200180602001891515151581526020018881526020018773ffffffffffffffffffffffffffffffffffffffff1673ffffffffffffffffffffffffffffffffffffffff16815260200186810386528f8181546001816001161561010002031660029004815260200191508054600181600116156101000203166002900480156129f35780601f106129c8576101008083540402835291602001916129f3565b820191906000526020600020905b8154815290600101906020018083116129d657829003601f168201915b505086810385528d818154600181600116156101000203166002900481526020019150805460018160011615610100020316600290048015612a765780601f10612a4b57610100808354040283529160200191612a76565b820191906000526020600020905b815481529060010190602001808311612a5957829003601f168201915b505086810384528c818154600181600116156101000203166002900481526020019150805460018160011615610100020316600290048015612af95780601f10612ace57610100808354040283529160200191612af9565b820191906000526020600020905b815481529060010190602001808311612adc57829003601f168201915b505086810383528b818154600181600116156101000203166002900481526020019150805460018160011615610100020316600290048015612b7c5780601f10612b5157610100808354040283529160200191612b7c565b820191906000526020600020905b815481529060010190602001808311612b5f57829003601f168201915b505086810382528a818154600181600116156101000203166002900481526020019150805460018160011615610100020316600290048015612bff5780601f10612bd457610100808354040283529160200191612bff565b820191906000526020600020905b815481529060010190602001808311612be257829003601f168201915b50509f5050505050505050505050505050505060405180910390a15050565b828054600181600116156101000203166002900490600052602060002090601f016020900481019282601f10612c575780548555612c94565b82800160010185558215612c9457600052602060002091601f016020900482015b82811115612c93578254825591600101919060010190612c78565b5b509050612ca19190612d25565b5090565b828054600181600116156101000203166002900490600052602060002090601f016020900481019282601f10612ce657805160ff1916838001178555612d14565b82800160010185558215612d14579182015b82811115612d13578251825591602001919060010190612cf8565b5b509050612d219190612d25565b5090565b612d4791905b80821115612d43576000816000905550600101612d2b565b5090565b9056fe61756374696f6e456e642068617320616c7265616479206265656e2063616c6c65642ea265627a7a723158202e118e67190430b2bcd4c9fc8699a74eac8a4ca50ed1c7720d8a3f578ee0965a64736f6c63430005100032",
  "source": "// pragma solidity ^0.5.0;\npragma solidity >=0.5.0 <0.9.0;\n\n/**\n * The AuctionHouse\n contract does this and that...\n */\n\ncontract AuctionHouse {\n\tstring public name;\n    address payable public owner;\n\tuint public productCount = 0;\n    uint public auctionCount = 0;\n    uint public productsOnAuction = 0;\n    uint public activeAuction = 0;\n\tmapping(uint => Product) public products;\n    mapping(uint => Auction) public auctionList;\n\n\tstruct Product{\n        uint id_product;\n        string name;\n        uint price;\n        string artist_name;\n        string category;\n        string description;\n        string image_hash;\n        bool purchased;\n        bool auction_started;\n        bool auction_ended;\n    }\n\n    struct Auction{\n        uint id_auction;\n        uint auctionEndTime;\n        address payable highestBidder;\n        uint highestBid;\n        uint offerCount;\n        bool ended;\n        uint id_product;\n        mapping(address => uint) clients;\n    }\n\n    event ProductCreated(\n        uint id_product,\n        string name,\n        uint price,\n        string artist_name,\n        string category,\n        string description,\n        string image_hash,\n        bool purchased,\n        bool auction_started\n    );\n\n    event ProductSold(\n        uint id_product,\n        string name,\n        uint price,\n        string artist_name,\n        string category,\n        string description,\n        string image_hash,\n        bool purchased,\n        uint priceSold,\n        address payable winner\n    );\n\n    event AuctionCreated(\n        uint id_auction,\n        uint auctionEndTime,\n        address payable highestBidder,\n        uint highestBid,\n        uint offerCount,\n        bool ended,\n        uint id_product\n    );\n\n    event AuctionUpdated(\n        uint id_auction,\n        uint auctionEndTime,\n        address payable highestBidder,\n        uint highestBid,\n        uint offerCount,\n        bool ended,\n        uint id_product\n    );\n\n    event HighestBidIncreased(\n        address payable bidder, \n        uint amount\n    );\n\n    event AuctionEnded(\n        address payable winner, \n        uint amount\n    );\n    \n\n\tconstructor() public {\n\t\tname = \"Auction House of Art\";\n        owner = msg.sender;\n\t}\n\n\tfunction createProduct (string memory _name, uint _price, string memory _artist, string memory _category, string memory _description, string memory _imageHash) public {\n\t\trequire(msg.sender == owner);\n        require(bytes(_name).length > 0);\n        require(_price > 0);\n        require(bytes(_artist).length > 0);\n        require(bytes(_category).length > 0);\n        require(bytes(_description).length > 0);\n        require(bytes(_imageHash).length > 0);\n\t\tproductCount++;\n        productsOnAuction++;\n        products[productCount] = Product(productCount, _name, _price, _artist, _category, _description, _imageHash, false, false, false);\n\t\temit ProductCreated(productCount, _name, _price, _artist, _category, _description, _imageHash, false, false);\n\t}\n\n    function createAuction (uint _id) public {\n        Product storage _product = products[_id];\n        require(_product.id_product > 0 && _product.id_product <= productCount);\n        require(msg.sender == owner);\n        _product.auction_started = true;\n        auctionCount++;\n        activeAuction++;\n        uint endTime = now + 1 hours;\n        products[_id] = _product;\n        auctionList[auctionCount] = Auction(auctionCount, endTime, address(0), 0, 0, false, _product.id_product);\n        emit AuctionCreated(auctionCount, endTime, address(0), 0, 0, false, _product.id_product);\n    }\n\n    function bid(uint auction_id, uint bid_value, uint product_id) public payable {\n        Product storage _product = products[product_id];\n        require(_product.id_product > 0 && _product.id_product <= productCount, \"Product not found\");\n        Auction storage _auction = auctionList[auction_id];\n        require(_auction.id_auction > 0 && _auction.id_auction <= auctionCount, \"Auction not found\");\n        require(block.timestamp <= _auction.auctionEndTime, \"Auction ended\");\n        require(bid_value > _auction.highestBid, \"Value too little\");\n        require(msg.sender != owner, \"Owner!!!\");\n        if (_auction.highestBid != _product.price){\n            _auction.clients[_auction.highestBidder] = _auction.highestBid;\n        }\n        _auction.offerCount += 1;\n        _auction.highestBidder = msg.sender;\n        _auction.highestBid = bid_value;\n        // _auction.clientNames[_auction.highestBidder] = clientName;\n        auctionList[auction_id] = _auction;\n        emit AuctionUpdated(auction_id, _auction.auctionEndTime, msg.sender, bid_value, _auction.offerCount, _auction.ended, product_id);\n        emit HighestBidIncreased(msg.sender, bid_value);\n    }\n\n    function deleteProduct(uint _id_product) public {\n        Product storage _product = products[_id_product];\n        require(_product.id_product > 0 && _product.id_product <= productCount, \"Product not found\");\n        _product.purchased = true;\n        products[_id_product] = _product;\n        productsOnAuction--;\n        if(_product.auction_started){\n            activeAuction--;\n        }\n        emit ProductSold(_product.id_product, _product.name, _product.price, _product.artist_name, _product.category, _product.description, _product.image_hash, _product.purchased, 0, address(0));\n    }\n\n\n    function auctionEnd(uint _id) public payable {\n\n        Auction storage _auction = auctionList[_id];\n        require(_auction.id_auction > 0 && _auction.id_auction <= auctionCount);\n        // require(block.timestamp >= _auction.auctionEndTime, \"Auction not yet ended.\");\n        require(!_auction.ended, \"auctionEnd has already been called.\");\n\n        Product storage _product = products[_auction.id_product];\n        require(_product.id_product > 0 && _product.id_product <= productCount);\n        require(!_product.purchased);\n\n        if(_auction.offerCount==0){\n            _product.purchased = false;\n        }\n        else{\n            _product.purchased = true;\n        }\n        \n        _product.auction_ended = true;\n        _auction.ended = true;\n        productsOnAuction--;\n        activeAuction--;\n\n        uint bid_value = _auction.highestBid;\n        address payable localOwner = _auction.highestBidder;\n        // require (_auction.highestBidder != address(0), \"No one bid at this auction\");\n        // if(_auction.highestBidder != owner){\n        // address(localOwner).send(msg.value);\n        // address(localOwner).transfer(_auction.highestBid);\n        // require (success, \"transfer failed\");\n            // address(owner).transfer(_auction.highestBid);\n            // address(_auction.highestBidder).call.value(bid_value)(\"\")\n            // owner.call.value(_auction.highestBid)(\"\");\n        // }\n        auctionList[_id] = _auction;\n        products[_auction.id_product] = _product;\n        emit AuctionEnded(_auction.highestBidder, _auction.highestBid);\n        emit AuctionUpdated(_auction.id_auction, _auction.auctionEndTime, _auction.highestBidder, _auction.highestBid, _auction.offerCount, _auction.ended, _auction.id_product);\n        emit ProductSold(_product.id_product, _product.name, _product.price, _product.artist_name, _product.category, _product.description, _product.image_hash, _product.purchased, _auction.highestBid, _auction.highestBidder);\n\n    }\n    \n    \n}\n",
  "sourcePath": "/Users/alexandrazambitchi/Desktop/licenta/licitatie2/src/contracts/AuctionHouse.sol",
  "compiler": {
    "name": "solc",
    "version": "0.5.16+commit.9c3226ce.Emscripten.clang"
  },
  "schemaVersion": "3.4.1",
  "updatedAt": "2021-05-31T16:23:08.918Z",
  "networkType": "ethereum",
  "devdoc": {
    "methods": {}
  },
  "userdoc": {
    "methods": {},
    "notice": "The AuctionHouse contract does this and that..."
  }
}