{
  "contractName": "AuctionHouse",
  "abi": [
    {
      "inputs": [],
      "payable": false,
      "stateMutability": "nonpayable",
      "type": "constructor"
    },
    {
      "anonymous": false,
      "inputs": [
        {
          "indexed": false,
          "internalType": "uint256",
          "name": "id_artist",
          "type": "uint256"
        },
        {
          "indexed": false,
          "internalType": "string",
          "name": "artist_name",
          "type": "string"
        },
        {
          "indexed": false,
          "internalType": "string",
          "name": "details",
          "type": "string"
        }
      ],
      "name": "ArtistCreated",
      "type": "event"
    },
    {
      "anonymous": false,
      "inputs": [
        {
          "indexed": false,
          "internalType": "uint256",
          "name": "id_artist",
          "type": "uint256"
        },
        {
          "indexed": false,
          "internalType": "string",
          "name": "artist_name",
          "type": "string"
        },
        {
          "indexed": false,
          "internalType": "string",
          "name": "details",
          "type": "string"
        }
      ],
      "name": "ArtistUpdated",
      "type": "event"
    },
    {
      "anonymous": false,
      "inputs": [
        {
          "indexed": false,
          "internalType": "uint256",
          "name": "id_auction",
          "type": "uint256"
        },
        {
          "indexed": false,
          "internalType": "uint256",
          "name": "target_price",
          "type": "uint256"
        },
        {
          "indexed": false,
          "internalType": "uint256",
          "name": "auctionEndTime",
          "type": "uint256"
        },
        {
          "indexed": false,
          "internalType": "uint256",
          "name": "id_product",
          "type": "uint256"
        }
      ],
      "name": "AuctionCreated",
      "type": "event"
    },
    {
      "anonymous": false,
      "inputs": [
        {
          "indexed": false,
          "internalType": "address payable",
          "name": "winner",
          "type": "address"
        },
        {
          "indexed": false,
          "internalType": "uint256",
          "name": "amount",
          "type": "uint256"
        }
      ],
      "name": "AuctionEnded",
      "type": "event"
    },
    {
      "anonymous": false,
      "inputs": [
        {
          "indexed": false,
          "internalType": "uint256",
          "name": "id_auction",
          "type": "uint256"
        },
        {
          "indexed": false,
          "internalType": "uint256",
          "name": "target_price",
          "type": "uint256"
        },
        {
          "indexed": false,
          "internalType": "uint256",
          "name": "auctionEndTime",
          "type": "uint256"
        },
        {
          "indexed": false,
          "internalType": "address payable",
          "name": "highestBidder",
          "type": "address"
        },
        {
          "indexed": false,
          "internalType": "uint256",
          "name": "highestBid",
          "type": "uint256"
        },
        {
          "indexed": false,
          "internalType": "uint256",
          "name": "offerCount",
          "type": "uint256"
        },
        {
          "indexed": false,
          "internalType": "bool",
          "name": "ended",
          "type": "bool"
        },
        {
          "indexed": false,
          "internalType": "uint256",
          "name": "id_product",
          "type": "uint256"
        }
      ],
      "name": "AuctionUpdated",
      "type": "event"
    },
    {
      "anonymous": false,
      "inputs": [
        {
          "indexed": false,
          "internalType": "address payable",
          "name": "bidder",
          "type": "address"
        },
        {
          "indexed": false,
          "internalType": "uint256",
          "name": "amount",
          "type": "uint256"
        }
      ],
      "name": "HighestBidIncreased",
      "type": "event"
    },
    {
      "anonymous": false,
      "inputs": [
        {
          "indexed": false,
          "internalType": "uint256",
          "name": "id_artist",
          "type": "uint256"
        },
        {
          "indexed": false,
          "internalType": "string",
          "name": "artist_name",
          "type": "string"
        },
        {
          "indexed": false,
          "internalType": "uint256",
          "name": "amount",
          "type": "uint256"
        }
      ],
      "name": "IncreasedDonation",
      "type": "event"
    },
    {
      "anonymous": false,
      "inputs": [
        {
          "indexed": false,
          "internalType": "uint256",
          "name": "id_product",
          "type": "uint256"
        },
        {
          "indexed": false,
          "internalType": "string",
          "name": "name",
          "type": "string"
        },
        {
          "indexed": false,
          "internalType": "uint256",
          "name": "price",
          "type": "uint256"
        },
        {
          "indexed": false,
          "internalType": "uint256",
          "name": "id_artist",
          "type": "uint256"
        },
        {
          "indexed": false,
          "internalType": "string",
          "name": "category",
          "type": "string"
        },
        {
          "indexed": false,
          "internalType": "string",
          "name": "description",
          "type": "string"
        },
        {
          "indexed": false,
          "internalType": "string",
          "name": "image_hash",
          "type": "string"
        }
      ],
      "name": "ProductCreated",
      "type": "event"
    },
    {
      "anonymous": false,
      "inputs": [
        {
          "indexed": false,
          "internalType": "uint256",
          "name": "id_product",
          "type": "uint256"
        },
        {
          "indexed": false,
          "internalType": "string",
          "name": "name",
          "type": "string"
        },
        {
          "indexed": false,
          "internalType": "uint256",
          "name": "price",
          "type": "uint256"
        },
        {
          "indexed": false,
          "internalType": "uint256",
          "name": "id_artist",
          "type": "uint256"
        },
        {
          "indexed": false,
          "internalType": "string",
          "name": "category",
          "type": "string"
        },
        {
          "indexed": false,
          "internalType": "string",
          "name": "description",
          "type": "string"
        },
        {
          "indexed": false,
          "internalType": "string",
          "name": "image_hash",
          "type": "string"
        },
        {
          "indexed": false,
          "internalType": "bool",
          "name": "purchased",
          "type": "bool"
        },
        {
          "indexed": false,
          "internalType": "uint256",
          "name": "priceSold",
          "type": "uint256"
        },
        {
          "indexed": false,
          "internalType": "address payable",
          "name": "winner",
          "type": "address"
        }
      ],
      "name": "ProductSold",
      "type": "event"
    },
    {
      "anonymous": false,
      "inputs": [
        {
          "indexed": false,
          "internalType": "uint256",
          "name": "id_product",
          "type": "uint256"
        },
        {
          "indexed": false,
          "internalType": "string",
          "name": "name",
          "type": "string"
        },
        {
          "indexed": false,
          "internalType": "uint256",
          "name": "price",
          "type": "uint256"
        },
        {
          "indexed": false,
          "internalType": "uint256",
          "name": "id_artist",
          "type": "uint256"
        },
        {
          "indexed": false,
          "internalType": "string",
          "name": "category",
          "type": "string"
        },
        {
          "indexed": false,
          "internalType": "string",
          "name": "description",
          "type": "string"
        },
        {
          "indexed": false,
          "internalType": "string",
          "name": "image_hash",
          "type": "string"
        }
      ],
      "name": "ProductUpdated",
      "type": "event"
    },
    {
      "constant": true,
      "inputs": [],
      "name": "activeAuction",
      "outputs": [
        {
          "internalType": "uint256",
          "name": "",
          "type": "uint256"
        }
      ],
      "payable": false,
      "stateMutability": "view",
      "type": "function"
    },
    {
      "constant": true,
      "inputs": [],
      "name": "artistCount",
      "outputs": [
        {
          "internalType": "uint256",
          "name": "",
          "type": "uint256"
        }
      ],
      "payable": false,
      "stateMutability": "view",
      "type": "function"
    },
    {
      "constant": true,
      "inputs": [
        {
          "internalType": "uint256",
          "name": "",
          "type": "uint256"
        }
      ],
      "name": "artists",
      "outputs": [
        {
          "internalType": "uint256",
          "name": "id_artist",
          "type": "uint256"
        },
        {
          "internalType": "string",
          "name": "artist_name",
          "type": "string"
        },
        {
          "internalType": "string",
          "name": "details",
          "type": "string"
        },
        {
          "internalType": "uint256",
          "name": "amount_collected",
          "type": "uint256"
        }
      ],
      "payable": false,
      "stateMutability": "view",
      "type": "function"
    },
    {
      "constant": true,
      "inputs": [],
      "name": "auctionCount",
      "outputs": [
        {
          "internalType": "uint256",
          "name": "",
          "type": "uint256"
        }
      ],
      "payable": false,
      "stateMutability": "view",
      "type": "function"
    },
    {
      "constant": true,
      "inputs": [
        {
          "internalType": "uint256",
          "name": "",
          "type": "uint256"
        }
      ],
      "name": "auctionList",
      "outputs": [
        {
          "internalType": "uint256",
          "name": "id_auction",
          "type": "uint256"
        },
        {
          "internalType": "uint256",
          "name": "target_price",
          "type": "uint256"
        },
        {
          "internalType": "uint256",
          "name": "auctionEndTime",
          "type": "uint256"
        },
        {
          "internalType": "address payable",
          "name": "highestBidder",
          "type": "address"
        },
        {
          "internalType": "uint256",
          "name": "highestBid",
          "type": "uint256"
        },
        {
          "internalType": "uint256",
          "name": "offerCount",
          "type": "uint256"
        },
        {
          "internalType": "bool",
          "name": "ended",
          "type": "bool"
        },
        {
          "internalType": "uint256",
          "name": "id_product",
          "type": "uint256"
        }
      ],
      "payable": false,
      "stateMutability": "view",
      "type": "function"
    },
    {
      "constant": true,
      "inputs": [
        {
          "internalType": "address",
          "name": "",
          "type": "address"
        }
      ],
      "name": "donations",
      "outputs": [
        {
          "internalType": "uint256",
          "name": "",
          "type": "uint256"
        }
      ],
      "payable": false,
      "stateMutability": "view",
      "type": "function"
    },
    {
      "constant": true,
      "inputs": [],
      "name": "name",
      "outputs": [
        {
          "internalType": "string",
          "name": "",
          "type": "string"
        }
      ],
      "payable": false,
      "stateMutability": "view",
      "type": "function"
    },
    {
      "constant": true,
      "inputs": [],
      "name": "owner",
      "outputs": [
        {
          "internalType": "address payable",
          "name": "",
          "type": "address"
        }
      ],
      "payable": false,
      "stateMutability": "view",
      "type": "function"
    },
    {
      "constant": true,
      "inputs": [],
      "name": "productCount",
      "outputs": [
        {
          "internalType": "uint256",
          "name": "",
          "type": "uint256"
        }
      ],
      "payable": false,
      "stateMutability": "view",
      "type": "function"
    },
    {
      "constant": true,
      "inputs": [
        {
          "internalType": "uint256",
          "name": "",
          "type": "uint256"
        }
      ],
      "name": "products",
      "outputs": [
        {
          "internalType": "uint256",
          "name": "id_product",
          "type": "uint256"
        },
        {
          "internalType": "string",
          "name": "name",
          "type": "string"
        },
        {
          "internalType": "uint256",
          "name": "price",
          "type": "uint256"
        },
        {
          "internalType": "uint256",
          "name": "id_artist",
          "type": "uint256"
        },
        {
          "internalType": "string",
          "name": "category",
          "type": "string"
        },
        {
          "internalType": "string",
          "name": "description",
          "type": "string"
        },
        {
          "internalType": "string",
          "name": "image_hash",
          "type": "string"
        },
        {
          "internalType": "bool",
          "name": "purchased",
          "type": "bool"
        },
        {
          "internalType": "bool",
          "name": "auction_started",
          "type": "bool"
        },
        {
          "internalType": "bool",
          "name": "auction_ended",
          "type": "bool"
        }
      ],
      "payable": false,
      "stateMutability": "view",
      "type": "function"
    },
    {
      "constant": true,
      "inputs": [],
      "name": "productsOnAuction",
      "outputs": [
        {
          "internalType": "uint256",
          "name": "",
          "type": "uint256"
        }
      ],
      "payable": false,
      "stateMutability": "view",
      "type": "function"
    },
    {
      "constant": false,
      "inputs": [
        {
          "internalType": "string",
          "name": "_name",
          "type": "string"
        },
        {
          "internalType": "string",
          "name": "_details",
          "type": "string"
        }
      ],
      "name": "createArtist",
      "outputs": [],
      "payable": false,
      "stateMutability": "nonpayable",
      "type": "function"
    },
    {
      "constant": false,
      "inputs": [
        {
          "internalType": "uint256",
          "name": "_id",
          "type": "uint256"
        },
        {
          "internalType": "string",
          "name": "_name",
          "type": "string"
        },
        {
          "internalType": "string",
          "name": "_details",
          "type": "string"
        }
      ],
      "name": "editArtist",
      "outputs": [],
      "payable": false,
      "stateMutability": "nonpayable",
      "type": "function"
    },
    {
      "constant": false,
      "inputs": [
        {
          "internalType": "string",
          "name": "_name",
          "type": "string"
        },
        {
          "internalType": "uint256",
          "name": "_price",
          "type": "uint256"
        },
        {
          "internalType": "uint256",
          "name": "_id_artist",
          "type": "uint256"
        },
        {
          "internalType": "string",
          "name": "_category",
          "type": "string"
        },
        {
          "internalType": "string",
          "name": "_description",
          "type": "string"
        },
        {
          "internalType": "string",
          "name": "_imageHash",
          "type": "string"
        }
      ],
      "name": "createProduct",
      "outputs": [],
      "payable": false,
      "stateMutability": "nonpayable",
      "type": "function"
    },
    {
      "constant": false,
      "inputs": [
        {
          "internalType": "uint256",
          "name": "_id",
          "type": "uint256"
        },
        {
          "internalType": "string",
          "name": "_name",
          "type": "string"
        },
        {
          "internalType": "uint256",
          "name": "_price",
          "type": "uint256"
        },
        {
          "internalType": "uint256",
          "name": "id_artist",
          "type": "uint256"
        },
        {
          "internalType": "string",
          "name": "_category",
          "type": "string"
        },
        {
          "internalType": "string",
          "name": "_description",
          "type": "string"
        },
        {
          "internalType": "string",
          "name": "_imageHash",
          "type": "string"
        }
      ],
      "name": "editProduct",
      "outputs": [],
      "payable": false,
      "stateMutability": "nonpayable",
      "type": "function"
    },
    {
      "constant": false,
      "inputs": [
        {
          "internalType": "uint256",
          "name": "_id_product",
          "type": "uint256"
        }
      ],
      "name": "deleteProduct",
      "outputs": [],
      "payable": false,
      "stateMutability": "nonpayable",
      "type": "function"
    },
    {
      "constant": false,
      "inputs": [
        {
          "internalType": "uint256",
          "name": "_id",
          "type": "uint256"
        }
      ],
      "name": "createAuction",
      "outputs": [],
      "payable": false,
      "stateMutability": "nonpayable",
      "type": "function"
    },
    {
      "constant": false,
      "inputs": [
        {
          "internalType": "uint256",
          "name": "_id",
          "type": "uint256"
        },
        {
          "internalType": "uint256",
          "name": "_target_price",
          "type": "uint256"
        }
      ],
      "name": "editAuction",
      "outputs": [],
      "payable": false,
      "stateMutability": "nonpayable",
      "type": "function"
    },
    {
      "constant": false,
      "inputs": [
        {
          "internalType": "uint256",
          "name": "auction_id",
          "type": "uint256"
        },
        {
          "internalType": "uint256",
          "name": "bid_value",
          "type": "uint256"
        },
        {
          "internalType": "uint256",
          "name": "product_id",
          "type": "uint256"
        }
      ],
      "name": "bid",
      "outputs": [],
      "payable": true,
      "stateMutability": "payable",
      "type": "function"
    },
    {
      "constant": false,
      "inputs": [
        {
          "internalType": "uint256",
          "name": "value",
          "type": "uint256"
        },
        {
          "internalType": "uint256",
          "name": "artist_id",
          "type": "uint256"
        }
      ],
      "name": "donation",
      "outputs": [],
      "payable": true,
      "stateMutability": "payable",
      "type": "function"
    },
    {
      "constant": false,
      "inputs": [
        {
          "internalType": "uint256",
          "name": "_id",
          "type": "uint256"
        }
      ],
      "name": "auctionEnd",
      "outputs": [],
      "payable": true,
      "stateMutability": "payable",
      "type": "function"
    }
  ],
  "bytecode": "0x6080604052600060025560006003556000600455600060055560006006553480156200002a57600080fd5b506040518060400160405280601481526020017f41756374696f6e20486f757365206f66204172740000000000000000000000008152506000908051906020019062000078929190620000c0565b5033600160006101000a81548173ffffffffffffffffffffffffffffffffffffffff021916908373ffffffffffffffffffffffffffffffffffffffff1602179055506200016f565b828054600181600116156101000203166002900490600052602060002090601f016020900481019282601f106200010357805160ff191683800117855562000134565b8280016001018555821562000134579182015b828111156200013357825182559160200191906001019062000116565b5b50905062000143919062000147565b5090565b6200016c91905b80821115620001685760008160009055506001016200014e565b5090565b90565b614123806200017f6000396000f3fe60806040526004361061012a5760003560e01c806380edeb53116100ab578063d5563f311161006f578063d5563f3114610be5578063e0f6ef8714610c20578063ed90c7b714610c4b578063f821a91514610c86578063fb0cf2cc14610ccb578063fbf8f46814610e2a5761012a565b806380edeb53146109a55780638da5cb5b146109d0578063be53048214610a27578063cc6cb19a14610a52578063cd7e10c114610ab75761012a565b806332246e9f116100f257806332246e9f1461063657806333ed796c1461066457806336d1e2dd1461068f578063669c0083146106c75780637acc0b20146107775761012a565b806306fdde031461012f57806307f8b0c7146101bf57806324b8ab2c146103285780632ac9bf09146105c95780632ad715731461060b575b600080fd5b34801561013b57600080fd5b506101446110d5565b6040518080602001828103825283818151815260200191508051906020019080838360005b83811015610184578082015181840152602081019050610169565b50505050905090810190601f1680156101b15780820380516001836020036101000a031916815260200191505b509250505060405180910390f35b3480156101cb57600080fd5b50610326600480360360608110156101e257600080fd5b81019080803590602001909291908035906020019064010000000081111561020957600080fd5b82018360208201111561021b57600080fd5b8035906020019184600183028401116401000000008311171561023d57600080fd5b91908080601f016020809104026020016040519081016040528093929190818152602001838380828437600081840152601f19601f820116905080830192505050505050509192919290803590602001906401000000008111156102a057600080fd5b8201836020820111156102b257600080fd5b803590602001918460018302840111640100000000831117156102d457600080fd5b91908080601f016020809104026020016040519081016040528093929190818152602001838380828437600081840152601f19601f820116905080830192505050505050509192919290505050611173565b005b34801561033457600080fd5b506105c7600480360360c081101561034b57600080fd5b810190808035906020019064010000000081111561036857600080fd5b82018360208201111561037a57600080fd5b8035906020019184600183028401116401000000008311171561039c57600080fd5b91908080601f016020809104026020016040519081016040528093929190818152602001838380828437600081840152601f19601f82011690508083019250505050505050919291929080359060200190929190803590602001909291908035906020019064010000000081111561041357600080fd5b82018360208201111561042557600080fd5b8035906020019184600183028401116401000000008311171561044757600080fd5b91908080601f016020809104026020016040519081016040528093929190818152602001838380828437600081840152601f19601f820116905080830192505050505050509192919290803590602001906401000000008111156104aa57600080fd5b8201836020820111156104bc57600080fd5b803590602001918460018302840111640100000000831117156104de57600080fd5b91908080601f016020809104026020016040519081016040528093929190818152602001838380828437600081840152601f19601f8201169050808301925050505050505091929192908035906020019064010000000081111561054157600080fd5b82018360208201111561055357600080fd5b8035906020019184600183028401116401000000008311171561057557600080fd5b91908080601f016020809104026020016040519081016040528093929190818152602001838380828437600081840152601f19601f82011690508083019250505050505050919291929050505061136a565b005b610609600480360360608110156105df57600080fd5b8101908080359060200190929190803590602001909291908035906020019092919050505061178f565b005b34801561061757600080fd5b50610620611d93565b6040518082815260200191505060405180910390f35b6106626004803603602081101561064c57600080fd5b8101908080359060200190929190505050611d99565b005b34801561067057600080fd5b5061067961259a565b6040518082815260200191505060405180910390f35b6106c5600480360360408110156106a557600080fd5b8101908080359060200190929190803590602001909291905050506125a0565b005b3480156106d357600080fd5b50610700600480360360208110156106ea57600080fd5b810190808035906020019092919050505061273b565b604051808981526020018881526020018781526020018673ffffffffffffffffffffffffffffffffffffffff1673ffffffffffffffffffffffffffffffffffffffff168152602001858152602001848152602001831515151581526020018281526020019850505050505050505060405180910390f35b34801561078357600080fd5b506107b06004803603602081101561079a57600080fd5b81019080803590602001909291905050506127b0565b604051808b8152602001806020018a815260200189815260200180602001806020018060200188151515158152602001871515151581526020018615151515815260200185810385528e818151815260200191508051906020019080838360005b8381101561082c578082015181840152602081019050610811565b50505050905090810190601f1680156108595780820380516001836020036101000a031916815260200191505b5085810384528b818151815260200191508051906020019080838360005b83811015610892578082015181840152602081019050610877565b50505050905090810190601f1680156108bf5780820380516001836020036101000a031916815260200191505b5085810383528a818151815260200191508051906020019080838360005b838110156108f85780820151818401526020810190506108dd565b50505050905090810190601f1680156109255780820380516001836020036101000a031916815260200191505b50858103825289818151815260200191508051906020019080838360005b8381101561095e578082015181840152602081019050610943565b50505050905090810190601f16801561098b5780820380516001836020036101000a031916815260200191505b509e50505050505050505050505050505060405180910390f35b3480156109b157600080fd5b506109ba612a8b565b6040518082815260200191505060405180910390f35b3480156109dc57600080fd5b506109e5612a91565b604051808273ffffffffffffffffffffffffffffffffffffffff1673ffffffffffffffffffffffffffffffffffffffff16815260200191505060405180910390f35b348015610a3357600080fd5b50610a3c612ab7565b6040518082815260200191505060405180910390f35b348015610a5e57600080fd5b50610aa160048036036020811015610a7557600080fd5b81019080803573ffffffffffffffffffffffffffffffffffffffff169060200190929190505050612abd565b6040518082815260200191505060405180910390f35b348015610ac357600080fd5b50610af060048036036020811015610ada57600080fd5b8101908080359060200190929190505050612ad5565b604051808581526020018060200180602001848152602001838103835286818151815260200191508051906020019080838360005b83811015610b40578082015181840152602081019050610b25565b50505050905090810190601f168015610b6d5780820380516001836020036101000a031916815260200191505b50838103825285818151815260200191508051906020019080838360005b83811015610ba6578082015181840152602081019050610b8b565b50505050905090810190601f168015610bd35780820380516001836020036101000a031916815260200191505b50965050505050505060405180910390f35b348015610bf157600080fd5b50610c1e60048036036020811015610c0857600080fd5b8101908080359060200190929190505050612c35565b005b348015610c2c57600080fd5b50610c35612fed565b6040518082815260200191505060405180910390f35b348015610c5757600080fd5b50610c8460048036036020811015610c6e57600080fd5b8101908080359060200190929190505050612ff3565b005b348015610c9257600080fd5b50610cc960048036036040811015610ca957600080fd5b810190808035906020019092919080359060200190929190505050613532565b005b348015610cd757600080fd5b50610e2860048036036040811015610cee57600080fd5b8101908080359060200190640100000000811115610d0b57600080fd5b820183602082011115610d1d57600080fd5b80359060200191846001830284011164010000000083111715610d3f57600080fd5b91908080601f016020809104026020016040519081016040528093929190818152602001838380828437600081840152601f19601f82011690508083019250505050505050919291929080359060200190640100000000811115610da257600080fd5b820183602082011115610db457600080fd5b80359060200191846001830284011164010000000083111715610dd657600080fd5b91908080601f016020809104026020016040519081016040528093929190818152602001838380828437600081840152601f19601f8201169050808301925050505050505091929192905050506137b2565b005b348015610e3657600080fd5b506110d3600480360360e0811015610e4d57600080fd5b810190808035906020019092919080359060200190640100000000811115610e7457600080fd5b820183602082011115610e8657600080fd5b80359060200191846001830284011164010000000083111715610ea857600080fd5b91908080601f016020809104026020016040519081016040528093929190818152602001838380828437600081840152601f19601f820116905080830192505050505050509192919290803590602001909291908035906020019092919080359060200190640100000000811115610f1f57600080fd5b820183602082011115610f3157600080fd5b80359060200191846001830284011164010000000083111715610f5357600080fd5b91908080601f016020809104026020016040519081016040528093929190818152602001838380828437600081840152601f19601f82011690508083019250505050505050919291929080359060200190640100000000811115610fb657600080fd5b820183602082011115610fc857600080fd5b80359060200191846001830284011164010000000083111715610fea57600080fd5b91908080601f016020809104026020016040519081016040528093929190818152602001838380828437600081840152601f19601f8201169050808301925050505050505091929192908035906020019064010000000081111561104d57600080fd5b82018360208201111561105f57600080fd5b8035906020019184600183028401116401000000008311171561108157600080fd5b91908080601f016020809104026020016040519081016040528093929190818152602001838380828437600081840152601f19601f820116905080830192505050505050509192919290505050613a53565b005b60008054600181600116156101000203166002900480601f01602080910402602001604051908101604052809291908181526020018280546001816001161561010002031660029004801561116b5780601f106111405761010080835404028352916020019161116b565b820191906000526020600020905b81548152906001019060200180831161114e57829003601f168201915b505050505081565b600082511161118157600080fd5b600081511161118f57600080fd5b6000600760008581526020019081526020016000209050828160010190805190602001906111be929190613f1f565b50818160020190805190602001906111d7929190613f1f565b508060076000868152602001908152602001600020600082015481600001556001820181600101908054600181600116156101000203166002900461121d929190613f9f565b5060028201816002019080546001816001161561010002031660029004611245929190613f9f565b50600382015481600301559050507f32141d773ee9c2c3d65647f0cefc910eb6ae3973dcb50abf2affd519d6d71ebb848484604051808481526020018060200180602001838103835285818151815260200191508051906020019080838360005b838110156112c15780820151818401526020810190506112a6565b50505050905090810190601f1680156112ee5780820380516001836020036101000a031916815260200191505b50838103825284818151815260200191508051906020019080838360005b8381101561132757808201518184015260208101905061130c565b50505050905090810190601f1680156113545780820380516001836020036101000a031916815260200191505b509550505050505060405180910390a150505050565b600160009054906101000a900473ffffffffffffffffffffffffffffffffffffffff1673ffffffffffffffffffffffffffffffffffffffff163373ffffffffffffffffffffffffffffffffffffffff16146113c457600080fd5b60008651116113d257600080fd5b600085116113df57600080fd5b60008351116113ed57600080fd5b60008251116113fb57600080fd5b600081511161140957600080fd5b6002600081548092919060010191905055506004600081548092919060010191905055506040518061014001604052806002548152602001878152602001868152602001858152602001848152602001838152602001828152602001600015158152602001600015158152602001600015158152506008600060025481526020019081526020016000206000820151816000015560208201518160010190805190602001906114b9929190614026565b50604082015181600201556060820151816003015560808201518160040190805190602001906114ea929190614026565b5060a0820151816005019080519060200190611507929190614026565b5060c0820151816006019080519060200190611524929190614026565b5060e08201518160070160006101000a81548160ff0219169083151502179055506101008201518160070160016101000a81548160ff0219169083151502179055506101208201518160070160026101000a81548160ff0219169083151502179055509050507f8827633fd6f7cc8fea01ef2debac580ba0afd149fc94f73670eb94cda1c68246600254878787878787604051808881526020018060200187815260200186815260200180602001806020018060200185810385528b818151815260200191508051906020019080838360005b838110156116125780820151818401526020810190506115f7565b50505050905090810190601f16801561163f5780820380516001836020036101000a031916815260200191505b50858103845288818151815260200191508051906020019080838360005b8381101561167857808201518184015260208101905061165d565b50505050905090810190601f1680156116a55780820380516001836020036101000a031916815260200191505b50858103835287818151815260200191508051906020019080838360005b838110156116de5780820151818401526020810190506116c3565b50505050905090810190601f16801561170b5780820380516001836020036101000a031916815260200191505b50858103825286818151815260200191508051906020019080838360005b83811015611744578082015181840152602081019050611729565b50505050905090810190601f1680156117715780820380516001836020036101000a031916815260200191505b509b50505050505050505050505060405180910390a1505050505050565b6000600860008381526020019081526020016000209050600081600001541180156117c05750600254816000015411155b611832576040517f08c379a00000000000000000000000000000000000000000000000000000000081526004018080602001828103825260118152602001807f50726f64756374206e6f7420666f756e6400000000000000000000000000000081525060200191505060405180910390fd5b6000600960008681526020019081526020016000209050600081600001541180156118635750600354816000015411155b6118d5576040517f08c379a00000000000000000000000000000000000000000000000000000000081526004018080602001828103825260118152602001807f41756374696f6e206e6f7420666f756e6400000000000000000000000000000081525060200191505060405180910390fd5b806002015442111561194f576040517f08c379a000000000000000000000000000000000000000000000000000000000815260040180806020018281038252600d8152602001807f41756374696f6e20656e6465640000000000000000000000000000000000000081525060200191505060405180910390fd5b600160009054906101000a900473ffffffffffffffffffffffffffffffffffffffff1673ffffffffffffffffffffffffffffffffffffffff163373ffffffffffffffffffffffffffffffffffffffff161415611a13576040517f08c379a00000000000000000000000000000000000000000000000000000000081526004018080602001828103825260088152602001807f4f776e657221212100000000000000000000000000000000000000000000000081525060200191505060405180910390fd5b80600401548411611a8c576040517f08c379a00000000000000000000000000000000000000000000000000000000081526004018080602001828103825260108152602001807f56616c756520746f6f206c6974746c650000000000000000000000000000000081525060200191505060405180910390fd5b8160020154816004015410611b0a5780600401548160080160008360030160009054906101000a900473ffffffffffffffffffffffffffffffffffffffff1673ffffffffffffffffffffffffffffffffffffffff1673ffffffffffffffffffffffffffffffffffffffff168152602001908152602001600020819055505b60018160050160008282540192505081905550338160030160006101000a81548173ffffffffffffffffffffffffffffffffffffffff021916908373ffffffffffffffffffffffffffffffffffffffff16021790555083816004018190555080600960008781526020019081526020016000206000820154816000015560018201548160010155600282015481600201556003820160009054906101000a900473ffffffffffffffffffffffffffffffffffffffff168160030160006101000a81548173ffffffffffffffffffffffffffffffffffffffff021916908373ffffffffffffffffffffffffffffffffffffffff16021790555060048201548160040155600582015481600501556006820160009054906101000a900460ff168160060160006101000a81548160ff021916908315150217905550600782015481600701559050507f7c01232bc1e9ff28838307228c496a1e1528d7be93bf90641e15b9dd6ae07a668582600101548360020154338886600501548760060160009054906101000a900460ff168a604051808981526020018881526020018781526020018673ffffffffffffffffffffffffffffffffffffffff1673ffffffffffffffffffffffffffffffffffffffff168152602001858152602001848152602001831515151581526020018281526020019850505050505050505060405180910390a17ff4757a49b326036464bec6fe419a4ae38c8a02ce3e68bf0809674f6aab8ad3003385604051808373ffffffffffffffffffffffffffffffffffffffff1673ffffffffffffffffffffffffffffffffffffffff1681526020018281526020019250505060405180910390a180600101548410611d8c57611d8b85611d99565b5b5050505050565b60035481565b600060096000838152602001908152602001600020905060008160000154118015611dca5750600354816000015411155b611dd357600080fd5b8060060160009054906101000a900460ff1615611e3b576040517f08c379a00000000000000000000000000000000000000000000000000000000081526004018080602001828103825260238152602001806140cc6023913960400191505060405180910390fd5b60006008600083600701548152602001908152602001600020905060008160000154118015611e705750600254816000015411155b611e7957600080fd5b8060070160009054906101000a900460ff1615611e9557600080fd5b600082600501541415611ec45760008160070160006101000a81548160ff021916908315150217905550611ee2565b60018160070160006101000a81548160ff0219169083151502179055505b60018160070160026101000a81548160ff02191690831515021790555060018260060160006101000a81548160ff021916908315150217905550600460008154809291906001900391905055506005600081548092919060019003919050555060008260030160009054906101000a900473ffffffffffffffffffffffffffffffffffffffff1690508073ffffffffffffffffffffffffffffffffffffffff166108fc349081150290604051600060405180830381858888f19350505050158015611fb1573d6000803e3d6000fd5b5082600960008681526020019081526020016000206000820154816000015560018201548160010155600282015481600201556003820160009054906101000a900473ffffffffffffffffffffffffffffffffffffffff168160030160006101000a81548173ffffffffffffffffffffffffffffffffffffffff021916908373ffffffffffffffffffffffffffffffffffffffff16021790555060048201548160040155600582015481600501556006820160009054906101000a900460ff168160060160006101000a81548160ff0219169083151502179055506007820154816007015590505081600860008560070154815260200190815260200160002060008201548160000155600182018160010190805460018160011615610100020316600290046120e2929190613f9f565b5060028201548160020155600382015481600301556004820181600401908054600181600116156101000203166002900461211e929190613f9f565b5060058201816005019080546001816001161561010002031660029004612146929190613f9f565b506006820181600601908054600181600116156101000203166002900461216e929190613f9f565b506007820160009054906101000a900460ff168160070160006101000a81548160ff0219169083151502179055506007820160019054906101000a900460ff168160070160016101000a81548160ff0219169083151502179055506007820160029054906101000a900460ff168160070160026101000a81548160ff0219169083151502179055509050507fdaec4582d5d9595688c8c98545fdd1c696d41c6aeaeb636737e84ed2f5c00eda8360030160009054906101000a900473ffffffffffffffffffffffffffffffffffffffff168460040154604051808373ffffffffffffffffffffffffffffffffffffffff1673ffffffffffffffffffffffffffffffffffffffff1681526020018281526020019250505060405180910390a17fc9cf267540414db4c25729c73a4a878a6bdc1e2bba366b78ed4975bf356419e8826000015483600101846002015485600301548660040187600501886006018960070160009054906101000a900460ff168b600401548c60030160009054906101000a900473ffffffffffffffffffffffffffffffffffffffff16604051808b8152602001806020018a8152602001898152602001806020018060200180602001881515151581526020018781526020018673ffffffffffffffffffffffffffffffffffffffff1673ffffffffffffffffffffffffffffffffffffffff16815260200185810385528e8181546001816001161561010002031660029004815260200191508054600181600116156101000203166002900480156123f15780601f106123c6576101008083540402835291602001916123f1565b820191906000526020600020905b8154815290600101906020018083116123d457829003601f168201915b505085810384528b8181546001816001161561010002031660029004815260200191508054600181600116156101000203166002900480156124745780601f1061244957610100808354040283529160200191612474565b820191906000526020600020905b81548152906001019060200180831161245757829003601f168201915b505085810383528a8181546001816001161561010002031660029004815260200191508054600181600116156101000203166002900480156124f75780601f106124cc576101008083540402835291602001916124f7565b820191906000526020600020905b8154815290600101906020018083116124da57829003601f168201915b505085810382528981815460018160011615610100020316600290048152602001915080546001816001161561010002031660029004801561257a5780601f1061254f5761010080835404028352916020019161257a565b820191906000526020600020905b81548152906001019060200180831161255d57829003601f168201915b50509e50505050505050505050505050505060405180910390a150505050565b60055481565b6000600760008381526020019081526020016000209050600083116125c457600080fd5b82600a60003373ffffffffffffffffffffffffffffffffffffffff1673ffffffffffffffffffffffffffffffffffffffff168152602001908152602001600020600082825401925050819055508281600301600082825401925050819055503373ffffffffffffffffffffffffffffffffffffffff166108fc349081150290604051600060405180830381858888f19350505050158015612669573d6000803e3d6000fd5b507f62947c19bd0e82be02869f914e667557a9d0310712ea4a7c9a07186958d1c79882826001013460405180848152602001806020018381526020018281038252848181546001816001161561010002031660029004815260200191508054600181600116156101000203166002900480156127265780601f106126fb57610100808354040283529160200191612726565b820191906000526020600020905b81548152906001019060200180831161270957829003601f168201915b505094505050505060405180910390a1505050565b60096020528060005260406000206000915090508060000154908060010154908060020154908060030160009054906101000a900473ffffffffffffffffffffffffffffffffffffffff16908060040154908060050154908060060160009054906101000a900460ff16908060070154905088565b6008602052806000526040600020600091509050806000015490806001018054600181600116156101000203166002900480601f0160208091040260200160405190810160405280929190818152602001828054600181600116156101000203166002900480156128625780601f1061283757610100808354040283529160200191612862565b820191906000526020600020905b81548152906001019060200180831161284557829003601f168201915b505050505090806002015490806003015490806004018054600181600116156101000203166002900480601f01602080910402602001604051908101604052809291908181526020018280546001816001161561010002031660029004801561290c5780601f106128e15761010080835404028352916020019161290c565b820191906000526020600020905b8154815290600101906020018083116128ef57829003601f168201915b505050505090806005018054600181600116156101000203166002900480601f0160208091040260200160405190810160405280929190818152602001828054600181600116156101000203166002900480156129aa5780601f1061297f576101008083540402835291602001916129aa565b820191906000526020600020905b81548152906001019060200180831161298d57829003601f168201915b505050505090806006018054600181600116156101000203166002900480601f016020809104026020016040519081016040528092919081815260200182805460018160011615610100020316600290048015612a485780601f10612a1d57610100808354040283529160200191612a48565b820191906000526020600020905b815481529060010190602001808311612a2b57829003601f168201915b5050505050908060070160009054906101000a900460ff16908060070160019054906101000a900460ff16908060070160029054906101000a900460ff1690508a565b60045481565b600160009054906101000a900473ffffffffffffffffffffffffffffffffffffffff1681565b60065481565b600a6020528060005260406000206000915090505481565b6007602052806000526040600020600091509050806000015490806001018054600181600116156101000203166002900480601f016020809104026020016040519081016040528092919081815260200182805460018160011615610100020316600290048015612b875780601f10612b5c57610100808354040283529160200191612b87565b820191906000526020600020905b815481529060010190602001808311612b6a57829003601f168201915b505050505090806002018054600181600116156101000203166002900480601f016020809104026020016040519081016040528092919081815260200182805460018160011615610100020316600290048015612c255780601f10612bfa57610100808354040283529160200191612c25565b820191906000526020600020905b815481529060010190602001808311612c0857829003601f168201915b5050505050908060030154905084565b600060086000838152602001908152602001600020905060008160000154118015612c665750600254816000015411155b612c6f57600080fd5b600160009054906101000a900473ffffffffffffffffffffffffffffffffffffffff1673ffffffffffffffffffffffffffffffffffffffff163373ffffffffffffffffffffffffffffffffffffffff1614612cc957600080fd5b60018160070160016101000a81548160ff0219169083151502179055506003600081548092919060010191905055506005600081548092919060010191905055506000610e104201905060006002836002015402905082600860008681526020019081526020016000206000820154816000015560018201816001019080546001816001161561010002031660029004612d64929190613f9f565b50600282015481600201556003820154816003015560048201816004019080546001816001161561010002031660029004612da0929190613f9f565b5060058201816005019080546001816001161561010002031660029004612dc8929190613f9f565b5060068201816006019080546001816001161561010002031660029004612df0929190613f9f565b506007820160009054906101000a900460ff168160070160006101000a81548160ff0219169083151502179055506007820160019054906101000a900460ff168160070160016101000a81548160ff0219169083151502179055506007820160029054906101000a900460ff168160070160026101000a81548160ff0219169083151502179055509050506040518061010001604052806003548152602001828152602001838152602001600073ffffffffffffffffffffffffffffffffffffffff1681526020016000815260200160008152602001600015158152602001846000015481525060096000600354815260200190815260200160002060008201518160000155602082015181600101556040820151816002015560608201518160030160006101000a81548173ffffffffffffffffffffffffffffffffffffffff021916908373ffffffffffffffffffffffffffffffffffffffff1602179055506080820151816004015560a0820151816005015560c08201518160060160006101000a81548160ff02191690831515021790555060e082015181600701559050507fa9c8dfcda5664a5a124c713e386da27de87432d5b668e79458501eb296389ba7600354828486600001546040518085815260200184815260200183815260200182815260200194505050505060405180910390a150505050565b60025481565b6000600860008381526020019081526020016000209050600081600001541180156130245750600254816000015411155b613096576040517f08c379a00000000000000000000000000000000000000000000000000000000081526004018080602001828103825260118152602001807f50726f64756374206e6f7420666f756e6400000000000000000000000000000081525060200191505060405180910390fd5b60018160070160006101000a81548160ff021916908315150217905550806008600084815260200190815260200160002060008201548160000155600182018160010190805460018160011615610100020316600290046130f8929190613f9f565b50600282015481600201556003820154816003015560048201816004019080546001816001161561010002031660029004613134929190613f9f565b506005820181600501908054600181600116156101000203166002900461315c929190613f9f565b5060068201816006019080546001816001161561010002031660029004613184929190613f9f565b506007820160009054906101000a900460ff168160070160006101000a81548160ff0219169083151502179055506007820160019054906101000a900460ff168160070160016101000a81548160ff0219169083151502179055506007820160029054906101000a900460ff168160070160026101000a81548160ff021916908315150217905550905050600460008154809291906001900391905055508060070160019054906101000a900460ff161561324d57600560008154809291906001900391905055505b7fc9cf267540414db4c25729c73a4a878a6bdc1e2bba366b78ed4975bf356419e8816000015482600101836002015484600301548560040186600501876006018860070160009054906101000a900460ff16600080604051808b8152602001806020018a8152602001898152602001806020018060200180602001881515151581526020018781526020018673ffffffffffffffffffffffffffffffffffffffff1673ffffffffffffffffffffffffffffffffffffffff16815260200185810385528e81815460018160011615610100020316600290048152602001915080546001816001161561010002031660029004801561338b5780601f106133605761010080835404028352916020019161338b565b820191906000526020600020905b81548152906001019060200180831161336e57829003601f168201915b505085810384528b81815460018160011615610100020316600290048152602001915080546001816001161561010002031660029004801561340e5780601f106133e35761010080835404028352916020019161340e565b820191906000526020600020905b8154815290600101906020018083116133f157829003601f168201915b505085810383528a8181546001816001161561010002031660029004815260200191508054600181600116156101000203166002900480156134915780601f1061346657610100808354040283529160200191613491565b820191906000526020600020905b81548152906001019060200180831161347457829003601f168201915b50508581038252898181546001816001161561010002031660029004815260200191508054600181600116156101000203166002900480156135145780601f106134e957610100808354040283529160200191613514565b820191906000526020600020905b8154815290600101906020018083116134f757829003601f168201915b50509e50505050505050505050505050505060405180910390a15050565b6000600960008481526020019081526020016000209050600081600001541180156135635750600354816000015411155b6135d5576040517f08c379a00000000000000000000000000000000000000000000000000000000081526004018080602001828103825260118152602001807f41756374696f6e206e6f7420666f756e6400000000000000000000000000000081525060200191505060405180910390fd5b81816001018190555080600960008581526020019081526020016000206000820154816000015560018201548160010155600282015481600201556003820160009054906101000a900473ffffffffffffffffffffffffffffffffffffffff168160030160006101000a81548173ffffffffffffffffffffffffffffffffffffffff021916908373ffffffffffffffffffffffffffffffffffffffff16021790555060048201548160040155600582015481600501556006820160009054906101000a900460ff168160060160006101000a81548160ff021916908315150217905550600782015481600701559050507f7c01232bc1e9ff28838307228c496a1e1528d7be93bf90641e15b9dd6ae07a6683826001015483600201548460030160009054906101000a900473ffffffffffffffffffffffffffffffffffffffff16856004015486600501548760060160009054906101000a900460ff168860070154604051808981526020018881526020018781526020018673ffffffffffffffffffffffffffffffffffffffff1673ffffffffffffffffffffffffffffffffffffffff168152602001858152602001848152602001831515151581526020018281526020019850505050505050505060405180910390a1505050565b6000825111613829576040517f08c379a000000000000000000000000000000000000000000000000000000000815260040180806020018281038252600e8152602001807f6e616d6520746f6f2073686f727400000000000000000000000000000000000081525060200191505060405180910390fd5b60008151116138a0576040517f08c379a000000000000000000000000000000000000000000000000000000000815260040180806020018281038252600d8152602001807f656d7074792064657461696c730000000000000000000000000000000000000081525060200191505060405180910390fd5b600660008154809291906001019190505550604051806080016040528060065481526020018381526020018281526020016000815250600760006006548152602001908152602001600020600082015181600001556020820151816001019080519060200190613911929190614026565b50604082015181600201908051906020019061392e929190614026565b50606082015181600301559050507fc80d84d603620f36f0e23c87749890542fbe6208721d2fc986e0545713e68da46006548383604051808481526020018060200180602001838103835285818151815260200191508051906020019080838360005b838110156139ac578082015181840152602081019050613991565b50505050905090810190601f1680156139d95780820380516001836020036101000a031916815260200191505b50838103825284818151815260200191508051906020019080838360005b83811015613a125780820151818401526020810190506139f7565b50505050905090810190601f168015613a3f5780820380516001836020036101000a031916815260200191505b509550505050505060405180910390a15050565b600160009054906101000a900473ffffffffffffffffffffffffffffffffffffffff1673ffffffffffffffffffffffffffffffffffffffff163373ffffffffffffffffffffffffffffffffffffffff1614613aad57600080fd5b6000865111613abb57600080fd5b60008511613ac857600080fd5b6000835111613ad657600080fd5b6000825111613ae457600080fd5b6000815111613af257600080fd5b600060076000868152602001908152602001600020905060008160000154118015613b235750600654816000015411155b613b2c57600080fd5b6000600860008a8152602001908152602001600020905087816001019080519060200190613b5b929190613f1f565b5086816002018190555085816003018190555084816004019080519060200190613b86929190613f1f565b5083816005019080519060200190613b9f929190613f1f565b5082816006019080519060200190613bb8929190613f1f565b50806008600060025481526020019081526020016000206000820154816000015560018201816001019080546001816001161561010002031660029004613c00929190613f9f565b50600282015481600201556003820154816003015560048201816004019080546001816001161561010002031660029004613c3c929190613f9f565b5060058201816005019080546001816001161561010002031660029004613c64929190613f9f565b5060068201816006019080546001816001161561010002031660029004613c8c929190613f9f565b506007820160009054906101000a900460ff168160070160006101000a81548160ff0219169083151502179055506007820160019054906101000a900460ff168160070160016101000a81548160ff0219169083151502179055506007820160029054906101000a900460ff168160070160026101000a81548160ff0219169083151502179055509050507fa96fb91f542a05bd99b8aefd1c433d4d0401735ee76ee79ea91c06a8d78a2138600254898989898989604051808881526020018060200187815260200186815260200180602001806020018060200185810385528b818151815260200191508051906020019080838360005b83811015613d9f578082015181840152602081019050613d84565b50505050905090810190601f168015613dcc5780820380516001836020036101000a031916815260200191505b50858103845288818151815260200191508051906020019080838360005b83811015613e05578082015181840152602081019050613dea565b50505050905090810190601f168015613e325780820380516001836020036101000a031916815260200191505b50858103835287818151815260200191508051906020019080838360005b83811015613e6b578082015181840152602081019050613e50565b50505050905090810190601f168015613e985780820380516001836020036101000a031916815260200191505b50858103825286818151815260200191508051906020019080838360005b83811015613ed1578082015181840152602081019050613eb6565b50505050905090810190601f168015613efe5780820380516001836020036101000a031916815260200191505b509b50505050505050505050505060405180910390a1505050505050505050565b828054600181600116156101000203166002900490600052602060002090601f016020900481019282601f10613f6057805160ff1916838001178555613f8e565b82800160010185558215613f8e579182015b82811115613f8d578251825591602001919060010190613f72565b5b509050613f9b91906140a6565b5090565b828054600181600116156101000203166002900490600052602060002090601f016020900481019282601f10613fd85780548555614015565b8280016001018555821561401557600052602060002091601f016020900482015b82811115614014578254825591600101919060010190613ff9565b5b50905061402291906140a6565b5090565b828054600181600116156101000203166002900490600052602060002090601f016020900481019282601f1061406757805160ff1916838001178555614095565b82800160010185558215614095579182015b82811115614094578251825591602001919060010190614079565b5b5090506140a291906140a6565b5090565b6140c891905b808211156140c45760008160009055506001016140ac565b5090565b9056fe61756374696f6e456e642068617320616c7265616479206265656e2063616c6c65642ea265627a7a7231582018f91ca1d6887ca064b03f645b1bd434ea7524d1bae0ad4d49932a61624af12b64736f6c63430005100032",
  "source": "// pragma solidity ^0.5.0;\npragma solidity >=0.5.0 <0.9.0;\n\n/**\n * The AuctionHouse\n contract does this and that...\n */\n\ncontract AuctionHouse {\n\tstring public name;\n    address payable public owner;\n\tuint public productCount = 0;\n    uint public auctionCount = 0;\n    uint public productsOnAuction = 0;\n    uint public activeAuction = 0;\n    uint public artistCount = 0;\n    mapping (uint => Artist) public artists;\n\tmapping(uint => Product) public products;\n    mapping(uint => Auction) public auctionList;\n    mapping(address => uint) public donations;\n\n\tstruct Product{\n        uint id_product;\n        string name;\n        uint price;\n        uint id_artist;\n        string category;\n        string description;\n        string image_hash;\n        bool purchased;\n        bool auction_started;\n        bool auction_ended;\n    }\n\n    struct Auction{\n        uint id_auction;\n        uint target_price;\n        uint auctionEndTime;\n        address payable highestBidder;\n        uint highestBid;\n        uint offerCount;\n        bool ended;\n        uint id_product;\n        mapping(address => uint) clients;\n    }\n\n    struct Artist{\n        uint id_artist;\n        string artist_name;\n        string details;\n        uint amount_collected;\n    }\n\n    event ProductCreated(\n        uint id_product,\n        string name,\n        uint price,\n        uint id_artist,\n        string category,\n        string description,\n        string image_hash\n    );\n\n    event ProductUpdated(\n        uint id_product,\n        string name,\n        uint price,\n        uint id_artist,\n        string category,\n        string description,\n        string image_hash\n    );\n\n    event ProductSold(\n        uint id_product,\n        string name,\n        uint price,\n        uint id_artist,\n        string category,\n        string description,\n        string image_hash,\n        bool purchased,\n        uint priceSold,\n        address payable winner\n    );\n\n    event ArtistCreated(\n        uint id_artist,\n        string artist_name,\n        string details\n    );\n\n    event ArtistUpdated(\n        uint id_artist,\n        string artist_name,\n        string details\n    );\n\n    event IncreasedDonation(\n        uint id_artist,\n        string artist_name,\n        uint amount\n    );\n\n    event AuctionCreated(\n        uint id_auction,\n        uint target_price,\n        uint auctionEndTime,\n        uint id_product\n    );\n\n    event AuctionUpdated(\n        uint id_auction,\n        uint target_price,\n        uint auctionEndTime,\n        address payable highestBidder,\n        uint highestBid,\n        uint offerCount,\n        bool ended,\n        uint id_product\n    );\n\n    event HighestBidIncreased(\n        address payable bidder, \n        uint amount\n    );\n\n    event AuctionEnded(\n        address payable winner, \n        uint amount\n    );\n    \n\n\tconstructor() public {\n\t\tname = \"Auction House of Art\";\n        owner = msg.sender;\n\t}\n\n    function createArtist(string memory _name, string memory _details) public {\n        require(bytes(_name).length > 0, \"name too short\");\n        require(bytes(_details).length > 0, \"empty details\");\n        artistCount++;\n        artists[artistCount] = Artist(artistCount, _name, _details, 0);\n        emit ArtistCreated(artistCount, _name, _details);\n    }\n\n    function editArtist(uint _id, string memory _name, string memory _details) public {\n        require(bytes(_name).length > 0);\n        require(bytes(_details).length > 0);\n        Artist storage _artist = artists[_id];\n        _artist.artist_name= _name;\n        _artist.details = _details;\n        artists[_id] = _artist;\n        emit ArtistUpdated(_id, _name, _details);\n    }\n\n\tfunction createProduct (string memory _name, uint _price, uint _id_artist, string memory _category, string memory _description, string memory _imageHash) public {\n        require(msg.sender == owner);\n        require(bytes(_name).length > 0);\n        require(_price > 0);\n        require(bytes(_category).length > 0);\n        require(bytes(_description).length > 0);\n        require(bytes(_imageHash).length > 0);\n\t\tproductCount++;\n        productsOnAuction++;\n        products[productCount] = Product(productCount, _name, _price, _id_artist, _category, _description, _imageHash, false, false, false);\n\t\temit ProductCreated(productCount, _name, _price, _id_artist, _category, _description, _imageHash);\n\t}\n\n    function editProduct(uint _id, string memory _name, uint _price, uint id_artist, string memory _category, string memory _description, string memory _imageHash) public {\n        require(msg.sender == owner);\n        require(bytes(_name).length > 0);\n        require(_price > 0);\n        require(bytes(_category).length > 0);\n        require(bytes(_description).length > 0);\n        require(bytes(_imageHash).length > 0);\n        Artist storage _artist = artists[id_artist];\n        require(_artist.id_artist > 0 && _artist.id_artist <= artistCount);\n        Product storage _product = products[_id];\n        _product.name= _name;\n        _product.price = _price;\n        _product.id_artist = id_artist;\n        _product.category = _category;\n        _product.description = _description;\n        _product.image_hash = _imageHash;\n        products[productCount] = _product;\n        emit ProductUpdated(productCount, _name, _price, id_artist, _category, _description, _imageHash);\n    }\n\n    function deleteProduct(uint _id_product) public {\n        Product storage _product = products[_id_product];\n        require(_product.id_product > 0 && _product.id_product <= productCount, \"Product not found\");\n        _product.purchased = true;\n        products[_id_product] = _product;\n        productsOnAuction--;\n        if(_product.auction_started){\n            activeAuction--;\n        }\n        emit ProductSold(_product.id_product, _product.name, _product.price, _product.id_artist, _product.category, _product.description, _product.image_hash, _product.purchased, 0, address(0));\n    }\n\n    function createAuction (uint _id) public {\n        Product storage _product = products[_id];\n        require(_product.id_product > 0 && _product.id_product <= productCount);\n        require(msg.sender == owner);\n        _product.auction_started = true;\n        auctionCount++;\n        activeAuction++;\n        uint endTime = now + 1 hours;\n        uint target_price = _product.price * 2;\n        products[_id] = _product;\n        auctionList[auctionCount] = Auction(auctionCount, target_price, endTime, address(0), 0, 0, false, _product.id_product);\n        emit AuctionCreated(auctionCount, target_price, endTime, _product.id_product);\n    }\n\n    function editAuction (uint _id, uint _target_price) public{\n        Auction storage _auction = auctionList[_id];\n        require(_auction.id_auction > 0 && _auction.id_auction <= auctionCount, \"Auction not found\");\n        _auction.target_price = _target_price;\n        auctionList[_id] = _auction;\n        emit AuctionUpdated(_id, _auction.target_price, _auction.auctionEndTime, _auction.highestBidder, _auction.highestBid, _auction.offerCount, _auction.ended, _auction.id_product);\n    }\n\n    function bid(uint auction_id, uint bid_value, uint product_id) public payable {\n        Product storage _product = products[product_id];\n        require(_product.id_product > 0 && _product.id_product <= productCount, \"Product not found\");\n        Auction storage _auction = auctionList[auction_id];\n        require(_auction.id_auction > 0 && _auction.id_auction <= auctionCount, \"Auction not found\");\n        require(block.timestamp <= _auction.auctionEndTime, \"Auction ended\");\n        require(msg.sender != owner, \"Owner!!!\");\n        require(bid_value > _auction.highestBid, \"Value too little\");\n        if (_auction.highestBid >= _product.price){\n            _auction.clients[_auction.highestBidder] = _auction.highestBid;\n        }        \n        _auction.offerCount += 1;\n        _auction.highestBidder = msg.sender;\n        _auction.highestBid = bid_value;\n        auctionList[auction_id] = _auction;\n        emit AuctionUpdated(auction_id, _auction.target_price, _auction.auctionEndTime, msg.sender, bid_value, _auction.offerCount, _auction.ended, product_id);\n        emit HighestBidIncreased(msg.sender, bid_value);\n        if(bid_value >= _auction.target_price){\n            auctionEnd(auction_id);\n        }\n    }\n\n    function donation (uint value, uint artist_id) public payable {\n        Artist storage _artist = artists[artist_id];\n        require (value > 0);\n        donations[msg.sender] += value;\n        _artist.amount_collected += value;\n        address(msg.sender).transfer(msg.value);\n        emit IncreasedDonation(artist_id, _artist.artist_name, msg.value);\n    }\n    \n\n\n    function auctionEnd(uint _id) public payable {\n\n        Auction storage _auction = auctionList[_id];\n        require(_auction.id_auction > 0 && _auction.id_auction <= auctionCount);\n        require(!_auction.ended, \"auctionEnd has already been called.\");\n\n        Product storage _product = products[_auction.id_product];\n        require(_product.id_product > 0 && _product.id_product <= productCount);\n        require(!_product.purchased);\n\n        if(_auction.offerCount==0){\n            _product.purchased = false;\n        }\n        else{\n            _product.purchased = true;\n        }\n        \n        _product.auction_ended = true;\n        _auction.ended = true;\n        productsOnAuction--;\n        activeAuction--;\n\n        // uint bid_value = _auction.highestBid;\n        address payable sender = _auction.highestBidder;\n        address(sender).transfer(msg.value);\n        // address(owner).transfer(msg.value);\n        auctionList[_id] = _auction;\n        products[_auction.id_product] = _product;\n        emit AuctionEnded(_auction.highestBidder, _auction.highestBid);\n        // emit AuctionUpdated(_auction.id_auction, _auction.auctionEndTime, _auction.highestBidder, _auction.highestBid, _auction.offerCount, _auction.ended, _auction.id_product);\n        emit ProductSold(_product.id_product, _product.name, _product.price, _product.id_artist, _product.category, _product.description, _product.image_hash, _product.purchased, _auction.highestBid, _auction.highestBidder);\n\n    }\n    \n    \n}\n",
  "sourcePath": "/Users/alexandrazambitchi/Desktop/licenta/licitatie2/src/contracts/AuctionHouse.sol",
  "compiler": {
    "name": "solc",
    "version": "0.5.16+commit.9c3226ce.Emscripten.clang"
  },
  "schemaVersion": "3.4.1",
  "updatedAt": "2021-06-02T13:12:19.093Z",
  "networkType": "ethereum",
  "devdoc": {
    "methods": {}
  },
  "userdoc": {
    "methods": {},
    "notice": "The AuctionHouse contract does this and that..."
  }
}