{
  "contractName": "AuctionHouse",
  "abi": [
    {
      "inputs": [],
      "payable": false,
      "stateMutability": "nonpayable",
      "type": "constructor"
    },
    {
      "anonymous": false,
      "inputs": [
        {
          "indexed": false,
          "internalType": "address",
          "name": "winner",
          "type": "address"
        },
        {
          "indexed": false,
          "internalType": "uint256",
          "name": "amount",
          "type": "uint256"
        }
      ],
      "name": "AuctionEnded",
      "type": "event"
    },
    {
      "anonymous": false,
      "inputs": [
        {
          "indexed": false,
          "internalType": "address",
          "name": "bidder",
          "type": "address"
        },
        {
          "indexed": false,
          "internalType": "uint256",
          "name": "amount",
          "type": "uint256"
        }
      ],
      "name": "HighestBidIncreased",
      "type": "event"
    },
    {
      "anonymous": false,
      "inputs": [
        {
          "indexed": false,
          "internalType": "uint256",
          "name": "id_client",
          "type": "uint256"
        },
        {
          "indexed": false,
          "internalType": "string",
          "name": "name",
          "type": "string"
        },
        {
          "indexed": false,
          "internalType": "address payable",
          "name": "client_address",
          "type": "address"
        },
        {
          "indexed": false,
          "internalType": "uint256",
          "name": "bid_value",
          "type": "uint256"
        }
      ],
      "name": "NewClient",
      "type": "event"
    },
    {
      "anonymous": false,
      "inputs": [
        {
          "indexed": false,
          "internalType": "uint256",
          "name": "id_product",
          "type": "uint256"
        },
        {
          "indexed": false,
          "internalType": "string",
          "name": "name",
          "type": "string"
        },
        {
          "indexed": false,
          "internalType": "uint256",
          "name": "price",
          "type": "uint256"
        },
        {
          "indexed": false,
          "internalType": "string",
          "name": "artist_name",
          "type": "string"
        },
        {
          "indexed": false,
          "internalType": "address payable",
          "name": "owner",
          "type": "address"
        },
        {
          "indexed": false,
          "internalType": "bool",
          "name": "purchased",
          "type": "bool"
        },
        {
          "indexed": false,
          "internalType": "uint256",
          "name": "id_auction",
          "type": "uint256"
        }
      ],
      "name": "ProductCreated",
      "type": "event"
    },
    {
      "anonymous": false,
      "inputs": [
        {
          "indexed": false,
          "internalType": "uint256",
          "name": "id_product",
          "type": "uint256"
        },
        {
          "indexed": false,
          "internalType": "string",
          "name": "name",
          "type": "string"
        },
        {
          "indexed": false,
          "internalType": "uint256",
          "name": "price",
          "type": "uint256"
        },
        {
          "indexed": false,
          "internalType": "string",
          "name": "artist_name",
          "type": "string"
        },
        {
          "indexed": false,
          "internalType": "address payable",
          "name": "owner",
          "type": "address"
        },
        {
          "indexed": false,
          "internalType": "bool",
          "name": "purchased",
          "type": "bool"
        }
      ],
      "name": "ProductPurchased",
      "type": "event"
    },
    {
      "constant": true,
      "inputs": [],
      "name": "auctionCount",
      "outputs": [
        {
          "internalType": "uint256",
          "name": "",
          "type": "uint256"
        }
      ],
      "payable": false,
      "stateMutability": "view",
      "type": "function"
    },
    {
      "constant": true,
      "inputs": [
        {
          "internalType": "uint256",
          "name": "",
          "type": "uint256"
        }
      ],
      "name": "auctionList",
      "outputs": [
        {
          "internalType": "uint256",
          "name": "id_auction",
          "type": "uint256"
        },
        {
          "internalType": "address payable",
          "name": "beneficiary",
          "type": "address"
        },
        {
          "internalType": "uint256",
          "name": "auctionEndTime",
          "type": "uint256"
        },
        {
          "internalType": "address",
          "name": "highestBidder",
          "type": "address"
        },
        {
          "internalType": "uint256",
          "name": "highestBid",
          "type": "uint256"
        },
        {
          "internalType": "uint256",
          "name": "clientCount",
          "type": "uint256"
        },
        {
          "internalType": "bool",
          "name": "ended",
          "type": "bool"
        },
        {
          "internalType": "uint256",
          "name": "id_product",
          "type": "uint256"
        }
      ],
      "payable": false,
      "stateMutability": "view",
      "type": "function"
    },
    {
      "constant": true,
      "inputs": [],
      "name": "name",
      "outputs": [
        {
          "internalType": "string",
          "name": "",
          "type": "string"
        }
      ],
      "payable": false,
      "stateMutability": "view",
      "type": "function"
    },
    {
      "constant": true,
      "inputs": [],
      "name": "productCount",
      "outputs": [
        {
          "internalType": "uint256",
          "name": "",
          "type": "uint256"
        }
      ],
      "payable": false,
      "stateMutability": "view",
      "type": "function"
    },
    {
      "constant": true,
      "inputs": [
        {
          "internalType": "uint256",
          "name": "",
          "type": "uint256"
        }
      ],
      "name": "products",
      "outputs": [
        {
          "internalType": "uint256",
          "name": "id_product",
          "type": "uint256"
        },
        {
          "internalType": "string",
          "name": "name",
          "type": "string"
        },
        {
          "internalType": "uint256",
          "name": "price",
          "type": "uint256"
        },
        {
          "internalType": "string",
          "name": "artist_name",
          "type": "string"
        },
        {
          "internalType": "address payable",
          "name": "owner",
          "type": "address"
        },
        {
          "internalType": "bool",
          "name": "purchased",
          "type": "bool"
        },
        {
          "internalType": "uint256",
          "name": "id_auction",
          "type": "uint256"
        }
      ],
      "payable": false,
      "stateMutability": "view",
      "type": "function"
    },
    {
      "constant": false,
      "inputs": [
        {
          "internalType": "string",
          "name": "_name",
          "type": "string"
        },
        {
          "internalType": "uint256",
          "name": "_price",
          "type": "uint256"
        },
        {
          "internalType": "string",
          "name": "_artist",
          "type": "string"
        }
      ],
      "name": "createProduct",
      "outputs": [],
      "payable": false,
      "stateMutability": "nonpayable",
      "type": "function"
    },
    {
      "constant": false,
      "inputs": [
        {
          "internalType": "uint256",
          "name": "_id",
          "type": "uint256"
        }
      ],
      "name": "purchaseProduct",
      "outputs": [],
      "payable": true,
      "stateMutability": "payable",
      "type": "function"
    },
    {
      "constant": false,
      "inputs": [
        {
          "internalType": "uint256",
          "name": "_id",
          "type": "uint256"
        }
      ],
      "name": "createAuction",
      "outputs": [
        {
          "internalType": "uint256",
          "name": "auctionId",
          "type": "uint256"
        }
      ],
      "payable": false,
      "stateMutability": "nonpayable",
      "type": "function"
    },
    {
      "constant": false,
      "inputs": [
        {
          "internalType": "uint256",
          "name": "product_id",
          "type": "uint256"
        },
        {
          "internalType": "string",
          "name": "clientName",
          "type": "string"
        }
      ],
      "name": "bid",
      "outputs": [],
      "payable": true,
      "stateMutability": "payable",
      "type": "function"
    },
    {
      "constant": false,
      "inputs": [
        {
          "internalType": "uint256",
          "name": "auction_id",
          "type": "uint256"
        }
      ],
      "name": "withdraw",
      "outputs": [
        {
          "internalType": "bool",
          "name": "",
          "type": "bool"
        }
      ],
      "payable": false,
      "stateMutability": "nonpayable",
      "type": "function"
    },
    {
      "constant": false,
      "inputs": [
        {
          "internalType": "uint256",
          "name": "_id_auction",
          "type": "uint256"
        }
      ],
      "name": "auctionEnd",
      "outputs": [],
      "payable": false,
      "stateMutability": "nonpayable",
      "type": "function"
    }
  ],
  "bytecode": "0x6080604052600060015560006002553480156200001b57600080fd5b506040518060400160405280601481526020017f41756374696f6e20486f757365206f6620417274000000000000000000000000815250600090805190602001906200006992919062000070565b506200011f565b828054600181600116156101000203166002900490600052602060002090601f016020900481019282601f10620000b357805160ff1916838001178555620000e4565b82800160010185558215620000e4579182015b82811115620000e3578251825591602001919060010190620000c6565b5b509050620000f39190620000f7565b5090565b6200011c91905b8082111562000118576000816000905550600101620000fe565b5090565b90565b611a37806200012f6000396000f3fe60806040526004361061009c5760003560e01c806338e76a031161006457806338e76a03146102af578063669c0083146102dd5780637acc0b20146103b9578063d5563f311461052c578063e0f6ef871461057b578063ff38ec0f146105a65761009c565b806306fdde03146100a15780630fc55fd1146101315780632ad71573146101f65780632e1a7d4d1461022157806332246e9f14610274575b600080fd5b3480156100ad57600080fd5b506100b661070f565b6040518080602001828103825283818151815260200191508051906020019080838360005b838110156100f65780820151818401526020810190506100db565b50505050905090810190601f1680156101235780820380516001836020036101000a031916815260200191505b509250505060405180910390f35b6101f46004803603604081101561014757600080fd5b81019080803590602001909291908035906020019064010000000081111561016e57600080fd5b82018360208201111561018057600080fd5b803590602001918460018302840111640100000000831117156101a257600080fd5b91908080601f016020809104026020016040519081016040528093929190818152602001838380828437600081840152601f19601f8201169050808301925050505050505091929192905050506107ad565b005b34801561020257600080fd5b5061020b6109e4565b6040518082815260200191505060405180910390f35b34801561022d57600080fd5b5061025a6004803603602081101561024457600080fd5b81019080803590602001909291905050506109ea565b604051808215151515815260200191505060405180910390f35b34801561028057600080fd5b506102ad6004803603602081101561029757600080fd5b8101908080359060200190929190505050610b2f565b005b6102db600480360360208110156102c557600080fd5b8101908080359060200190929190505050610da7565b005b3480156102e957600080fd5b506103166004803603602081101561030057600080fd5b8101908080359060200190929190505050611159565b604051808981526020018873ffffffffffffffffffffffffffffffffffffffff1673ffffffffffffffffffffffffffffffffffffffff1681526020018781526020018673ffffffffffffffffffffffffffffffffffffffff1673ffffffffffffffffffffffffffffffffffffffff168152602001858152602001848152602001831515151581526020018281526020019850505050505050505060405180910390f35b3480156103c557600080fd5b506103f2600480360360208110156103dc57600080fd5b81019080803590602001909291905050506111ee565b6040518088815260200180602001878152602001806020018673ffffffffffffffffffffffffffffffffffffffff1673ffffffffffffffffffffffffffffffffffffffff16815260200185151515158152602001848152602001838103835289818151815260200191508051906020019080838360005b83811015610484578082015181840152602081019050610469565b50505050905090810190601f1680156104b15780820380516001836020036101000a031916815260200191505b50838103825287818151815260200191508051906020019080838360005b838110156104ea5780820151818401526020810190506104cf565b50505050905090810190601f1680156105175780820380516001836020036101000a031916815260200191505b50995050505050505050505060405180910390f35b34801561053857600080fd5b506105656004803603602081101561054f57600080fd5b810190808035906020019092919050505061138d565b6040518082815260200191505060405180910390f35b34801561058757600080fd5b50610590611554565b6040518082815260200191505060405180910390f35b3480156105b257600080fd5b5061070d600480360360608110156105c957600080fd5b81019080803590602001906401000000008111156105e657600080fd5b8201836020820111156105f857600080fd5b8035906020019184600183028401116401000000008311171561061a57600080fd5b91908080601f016020809104026020016040519081016040528093929190818152602001838380828437600081840152601f19601f820116905080830192505050505050509192919290803590602001909291908035906020019064010000000081111561068757600080fd5b82018360208201111561069957600080fd5b803590602001918460018302840111640100000000831117156106bb57600080fd5b91908080601f016020809104026020016040519081016040528093929190818152602001838380828437600081840152601f19601f82011690508083019250505050505050919291929050505061155a565b005b60008054600181600116156101000203166002900480601f0160208091040260200160405190810160405280929190818152602001828054600181600116156101000203166002900480156107a55780601f1061077a576101008083540402835291602001916107a5565b820191906000526020600020905b81548152906001019060200180831161078857829003601f168201915b505050505081565b6000600360008481526020019081526020016000209050600081600001541180156107de5750600154816000015411155b6107e757600080fd5b6000816005015490506000600460008381526020019081526020016000209050806002015442111561081857600080fd5b8060040154341161082857600080fd5b60008160040154146109265780600401548160080160008360030160009054906101000a900473ffffffffffffffffffffffffffffffffffffffff1673ffffffffffffffffffffffffffffffffffffffff1673ffffffffffffffffffffffffffffffffffffffff16815260200190815260200160002060008282540192505081905550838160090160008360030160009054906101000a900473ffffffffffffffffffffffffffffffffffffffff1673ffffffffffffffffffffffffffffffffffffffff1673ffffffffffffffffffffffffffffffffffffffff1681526020019081526020016000209080519060200190610924929190611833565b505b338160030160006101000a81548173ffffffffffffffffffffffffffffffffffffffff021916908373ffffffffffffffffffffffffffffffffffffffff1602179055503481600401819055507ff4757a49b326036464bec6fe419a4ae38c8a02ce3e68bf0809674f6aab8ad3003334604051808373ffffffffffffffffffffffffffffffffffffffff1673ffffffffffffffffffffffffffffffffffffffff1681526020018281526020019250505060405180910390a15050505050565b60025481565b60008060046000848152602001908152602001600020905060008160080160003373ffffffffffffffffffffffffffffffffffffffff1673ffffffffffffffffffffffffffffffffffffffff1681526020019081526020016000205490506000811115610b235760008260080160003373ffffffffffffffffffffffffffffffffffffffff1673ffffffffffffffffffffffffffffffffffffffff168152602001908152602001600020819055503373ffffffffffffffffffffffffffffffffffffffff166108fc829081150290604051600060405180830381858888f19350505050610b2257808260080160003373ffffffffffffffffffffffffffffffffffffffff1673ffffffffffffffffffffffffffffffffffffffff16815260200190815260200160002081905550600092505050610b2a565b5b6001925050505b919050565b600060046000838152602001908152602001600020905060008160000154118015610b605750600254816000015411155b610b6957600080fd5b8060020154421015610be3576040517f08c379a00000000000000000000000000000000000000000000000000000000081526004018080602001828103825260168152602001807f41756374696f6e206e6f742079657420656e6465642e0000000000000000000081525060200191505060405180910390fd5b8060060160009054906101000a900460ff1615610c4b576040517f08c379a00000000000000000000000000000000000000000000000000000000081526004018080602001828103825260238152602001806119e06023913960400191505060405180910390fd5b60018160060160006101000a81548160ff02191690831515021790555060006003600083600701548152602001908152602001600020905060018160040160146101000a81548160ff0219169083151502179055507fdaec4582d5d9595688c8c98545fdd1c696d41c6aeaeb636737e84ed2f5c00eda8260030160009054906101000a900473ffffffffffffffffffffffffffffffffffffffff168360040154604051808373ffffffffffffffffffffffffffffffffffffffff1673ffffffffffffffffffffffffffffffffffffffff1681526020018281526020019250505060405180910390a18160010160009054906101000a900473ffffffffffffffffffffffffffffffffffffffff1673ffffffffffffffffffffffffffffffffffffffff166108fc83600401549081150290604051600060405180830381858888f19350505050158015610da1573d6000803e3d6000fd5b50505050565b600060036000838152602001908152602001600020905060008160040160009054906101000a900473ffffffffffffffffffffffffffffffffffffffff16905060008260000154118015610e015750600154826000015411155b610e0a57600080fd5b8160020154341015610e1b57600080fd5b8160040160149054906101000a900460ff1615610e3757600080fd5b60018260040160146101000a81548160ff02191690831515021790555081600360008581526020019081526020016000206000820154816000015560018201816001019080546001816001161561010002031660029004610e999291906118b3565b506002820154816002015560038201816003019080546001816001161561010002031660029004610ecb9291906118b3565b506004820160009054906101000a900473ffffffffffffffffffffffffffffffffffffffff168160040160006101000a81548173ffffffffffffffffffffffffffffffffffffffff021916908373ffffffffffffffffffffffffffffffffffffffff1602179055506004820160149054906101000a900460ff168160040160146101000a81548160ff021916908315150217905550600582015481600501559050508073ffffffffffffffffffffffffffffffffffffffff166108fc349081150290604051600060405180830381858888f19350505050158015610fb3573d6000803e3d6000fd5b507f51d5efda86089031ebc8356fe0f58f1d1bc46538d67bca7b95950e9053f886ed600154836001018460020154856003013360016040518087815260200180602001868152602001806020018573ffffffffffffffffffffffffffffffffffffffff1673ffffffffffffffffffffffffffffffffffffffff168152602001841515151581526020018381038352888181546001816001161561010002031660029004815260200191508054600181600116156101000203166002900480156110bd5780601f10611092576101008083540402835291602001916110bd565b820191906000526020600020905b8154815290600101906020018083116110a057829003601f168201915b50508381038252868181546001816001161561010002031660029004815260200191508054600181600116156101000203166002900480156111405780601f1061111557610100808354040283529160200191611140565b820191906000526020600020905b81548152906001019060200180831161112357829003601f168201915b50509850505050505050505060405180910390a1505050565b60046020528060005260406000206000915090508060000154908060010160009054906101000a900473ffffffffffffffffffffffffffffffffffffffff16908060020154908060030160009054906101000a900473ffffffffffffffffffffffffffffffffffffffff16908060040154908060050154908060060160009054906101000a900460ff16908060070154905088565b6003602052806000526040600020600091509050806000015490806001018054600181600116156101000203166002900480601f0160208091040260200160405190810160405280929190818152602001828054600181600116156101000203166002900480156112a05780601f10611275576101008083540402835291602001916112a0565b820191906000526020600020905b81548152906001019060200180831161128357829003601f168201915b505050505090806002015490806003018054600181600116156101000203166002900480601f0160208091040260200160405190810160405280929190818152602001828054600181600116156101000203166002900480156113445780601f1061131957610100808354040283529160200191611344565b820191906000526020600020905b81548152906001019060200180831161132757829003601f168201915b5050505050908060040160009054906101000a900473ffffffffffffffffffffffffffffffffffffffff16908060040160149054906101000a900460ff16908060050154905087565b600080600360008481526020019081526020016000209050600081600001541180156113bf5750600154816000015411155b6113c857600080fd5b6002600081548092919060010191905055506000621a5e004201905060405180610100016040528060025481526020013373ffffffffffffffffffffffffffffffffffffffff1681526020018281526020013373ffffffffffffffffffffffffffffffffffffffff168152602001600081526020016000815260200160001515815260200183600001548152506004600060025481526020019081526020016000206000820151816000015560208201518160010160006101000a81548173ffffffffffffffffffffffffffffffffffffffff021916908373ffffffffffffffffffffffffffffffffffffffff1602179055506040820151816002015560608201518160030160006101000a81548173ffffffffffffffffffffffffffffffffffffffff021916908373ffffffffffffffffffffffffffffffffffffffff1602179055506080820151816004015560a0820151816005015560c08201518160060160006101000a81548160ff02191690831515021790555060e082015181600701559050505050919050565b60015481565b600083511161156857600080fd5b6000821161157557600080fd5b600081511161158357600080fd5b60016000815480929190600101919050555060006115a260015461138d565b90506040518060e0016040528060015481526020018581526020018481526020018381526020013373ffffffffffffffffffffffffffffffffffffffff1681526020016000151581526020018281525060036000600154815260200190815260200160002060008201518160000155602082015181600101908051906020019061162d92919061193a565b5060408201518160020155606082015181600301908051906020019061165492919061193a565b5060808201518160040160006101000a81548173ffffffffffffffffffffffffffffffffffffffff021916908373ffffffffffffffffffffffffffffffffffffffff16021790555060a08201518160040160146101000a81548160ff02191690831515021790555060c082015181600501559050507fc42113a8d1ede6cbf6e12e5908e6856e03500bd03fe036773f03e5423c726693600154858585336000876040518088815260200180602001878152602001806020018673ffffffffffffffffffffffffffffffffffffffff1673ffffffffffffffffffffffffffffffffffffffff16815260200185151515158152602001848152602001838103835289818151815260200191508051906020019080838360005b8381101561178657808201518184015260208101905061176b565b50505050905090810190601f1680156117b35780820380516001836020036101000a031916815260200191505b50838103825287818151815260200191508051906020019080838360005b838110156117ec5780820151818401526020810190506117d1565b50505050905090810190601f1680156118195780820380516001836020036101000a031916815260200191505b50995050505050505050505060405180910390a150505050565b828054600181600116156101000203166002900490600052602060002090601f016020900481019282601f1061187457805160ff19168380011785556118a2565b828001600101855582156118a2579182015b828111156118a1578251825591602001919060010190611886565b5b5090506118af91906119ba565b5090565b828054600181600116156101000203166002900490600052602060002090601f016020900481019282601f106118ec5780548555611929565b8280016001018555821561192957600052602060002091601f016020900482015b8281111561192857825482559160010191906001019061190d565b5b50905061193691906119ba565b5090565b828054600181600116156101000203166002900490600052602060002090601f016020900481019282601f1061197b57805160ff19168380011785556119a9565b828001600101855582156119a9579182015b828111156119a857825182559160200191906001019061198d565b5b5090506119b691906119ba565b5090565b6119dc91905b808211156119d85760008160009055506001016119c0565b5090565b9056fe61756374696f6e456e642068617320616c7265616479206265656e2063616c6c65642ea265627a7a72315820cbc5a158c8d102298f9e17335079486834712605a7e95a9a175a8668614e54e564736f6c63430005100032",
  "source": "pragma solidity ^0.5.0;\n// pragma solidity >=0.7.0 <0.9.0;\n\n/**\n * The AuctionHouse\n contract does this and that...\n */\n\n// import \"./Auction.sol\";\n\ncontract AuctionHouse {\n\tstring public name;\n\tuint public productCount = 0;\n    uint public auctionCount = 0;\n\tmapping(uint => Product) public products;\n    mapping(uint => Auction) public auctionList;\n    \n\n\tstruct Product{\n        uint id_product;\n        string name;\n        uint price;\n        string artist_name;\n        address payable owner;\n        bool purchased;\n        uint id_auction;\n    }\n\n    // struct Client{\n    //     uint id_client;\n    //     string name;\n    //     address payable client_address;\n    //     uint bid_value;\n    // }\n\n    struct Auction{\n        uint id_auction;\n        address payable beneficiary;\n        uint auctionEndTime;\n        address highestBidder;\n        uint highestBid;\n        uint clientCount;\n        bool ended;\n        uint id_product;\n        mapping(address => uint) clients;\n        mapping(address => string) clientNames;\n    }\n\n    event ProductCreated(\n        uint id_product,\n        string name,\n        uint price,\n        string artist_name,\n        address payable owner,\n        bool purchased,\n        uint id_auction\n    );\n\n    event ProductPurchased(\n        uint id_product,\n        string name,\n        uint price,\n        string artist_name,\n\t\taddress payable owner,\n        bool purchased\n    );\n\n    // event AuctionCreated(\n    //     uint id_auction,\n    //     address payable beneficiary,\n    //     uint auctionEndTime,\n    //     address highestBidder,\n    //     uint highestBid,\n    //     uint clientCount,\n    //     bool ended,\n    //     uint id_product,\n    //     mapping(address => uint) clients,\n    //     mapping(address => string) clientNames\n    // );\n\n    event NewClient(\n        uint id_client,\n        string name,\n        address payable client_address,\n        uint bid_value\n    );\n\n    event HighestBidIncreased(\n        address bidder, \n        uint amount\n    );\n\n    event AuctionEnded(\n        address winner, \n        uint amount\n    );\n    \n\n\tconstructor() public {\n\t\tname = \"Auction House of Art\";\n\t}\n\n\tfunction createProduct (string memory _name, uint _price, string memory _artist) public {\n\t\trequire(bytes(_name).length > 0);\n        require(_price > 0);\n        require (bytes(_artist).length > 0);\n\t\tproductCount++;\n        uint new_auction_id = createAuction(productCount);\n        products[productCount] = Product(productCount, _name,_price, _artist, msg.sender, false, new_auction_id);\n\t\temit ProductCreated(productCount, _name,_price, _artist, msg.sender, false, new_auction_id);\n\t}\n\n\tfunction purchaseProduct(uint _id) public payable {\n        // Fetch the product\n        Product storage _product = products[_id];\n        address payable _seller = _product.owner;\n        // Make sure the product has a valid id\n        require(_product.id_product > 0 && _product.id_product <= productCount);\n        // Require that there is enough Ether in the transaction\n        require(msg.value >= _product.price);\n        // Require that the product has not been purchased already\n        require(!_product.purchased);\n        // Mark as purchased\n        _product.purchased = true;\n        // Update the product\n        products[_id] = _product;\n        // Pay the seller by sending them Ether\n        address(_seller).transfer(msg.value);\n        // Trigger an event\n        emit ProductPurchased(productCount, _product.name, _product.price, _product.artist_name, msg.sender, true);\n    }\n\n    function createAuction (uint _id) public returns (uint auctionId) {\n        Product storage _product = products[_id];\n        require(_product.id_product > 0 && _product.id_product <= productCount);\n        auctionCount++;\n        uint endTime = block.timestamp + 20 days;\n        auctionList[auctionCount] = Auction(auctionCount, msg.sender, endTime, msg.sender, 0, 0, false, _product.id_product);\n        // emit AuctionCreated(auctionCount, msg.sender, endTime, '', 0, 0, 0, false, _product.id_product);\n        // emit ProductCreated(productCount, _name,_price, _artist, msg.sender, false);\n    }\n\n    // function newClient (uint _id_auction, string memory _name, uint bid_value) public returns (Client new_client) {\n    //     Auction memory _auction = auctionList[_id_auction];\n    //     require(_auction.id_auction > 0 && _auction.id_auction <= auctionCount);\n    //     _auction.clientCount += 1;\n    //     Client new_client = Client(_auction.clientCount, _name, msg.sender, bid_value);\n    //     auctionList[_id_auction].clientList[auctionList[_id_auction].clientCount] = new_client;\n    // }\n\n    // function addAClient (uint _id_auction, string memory _name, uint bid_value) public {\n    //     Auction memory _auction = auctionList[_id_auction];\n    //     require(_auction.id_auction > 0 && _auction.id_auction <= auctionCount);\n    //     _auction.clientCount += 1;\n    //     Client memory client = newClient(_id_auction, _name, bid_value);\n    //     auctionList[_id_auction].clientList[auctionList[_id_auction].clientCount] = client;\n    // }\n\n    function bid(uint product_id, string memory clientName) public payable {\n        Product storage _product = products[product_id];\n        require(_product.id_product > 0 && _product.id_product <= productCount);\n        uint auction_id = _product.id_auction;\n        Auction storage _auction = auctionList[auction_id];\n        require(block.timestamp <= _auction.auctionEndTime);\n        require(msg.value > _auction.highestBid);\n        if (_auction.highestBid != 0){\n            _auction.clients[_auction.highestBidder] += _auction.highestBid;\n            _auction.clientNames[_auction.highestBidder] = clientName;\n        }\n        _auction.highestBidder = msg.sender;\n        _auction.highestBid = msg.value;\n        emit HighestBidIncreased(msg.sender, msg.value);\n    }\n\n    function withdraw(uint auction_id) public returns (bool) {\n        Auction storage _auction = auctionList[auction_id];\n        uint bid_value = _auction.clients[msg.sender];\n        if (bid_value > 0) {\n            // It is important to set this to zero because the recipient\n            // can call this function again as part of the receiving call\n            // before `send` returns.\n            _auction.clients[msg.sender] = 0;\n\n            if (!msg.sender.send(bid_value)) {\n                //Calling throw not necessary here, simply reset the bid_value owing\n                _auction.clients[msg.sender] = bid_value;\n                return false;\n            }\n        }\n        return true;\n    }\n    \n\n    function auctionEnd(uint _id_auction) public {\n        // It is a good guideline to structure functions that interact\n        // with other contracts (i.e. they call functions or send Ether)\n        // into three phases:\n        // 1. checking conditions\n        // 2. performing actions (potentially changing conditions)\n        // 3. interacting with other contracts\n        // If these phases are mixed up, the other contract could call\n        // back into the current contract and modify the state or cause\n        // effects (ether payout) to be performed multiple times.\n        // If functions called internally include interaction with external\n        // contracts, they also have to be considered interaction with\n        // external contracts.\n        Auction storage _auction = auctionList[_id_auction];\n        require(_auction.id_auction > 0 && _auction.id_auction <= auctionCount);\n        \n        // 1. Conditions\n        require(block.timestamp >= _auction.auctionEndTime, \"Auction not yet ended.\");\n        require(!_auction.ended, \"auctionEnd has already been called.\");\n\n        // 2. Effects\n        _auction.ended = true;\n\n        Product storage _product = products[_auction.id_product];\n        _product.purchased = true;\n        emit AuctionEnded(_auction.highestBidder, _auction.highestBid);\n\n        // 3. Interaction\n        _auction.beneficiary.transfer(_auction.highestBid);\n    }\n    \n    \n}\n",
  "sourcePath": "/Users/alexandrazambitchi/Desktop/licenta/licitatie2/src/contracts/AuctionHouse.sol",
  "compiler": {
    "name": "solc",
    "version": "0.5.16+commit.9c3226ce.Emscripten.clang"
  },
  "schemaVersion": "3.3.4",
  "updatedAt": "2021-05-13T18:03:09.384Z",
  "devdoc": {
    "methods": {}
  },
  "userdoc": {
    "methods": {},
    "notice": "The AuctionHouse contract does this and that..."
  }
}