{
  "contractName": "AuctionHouse",
  "abi": [
    {
      "inputs": [],
      "payable": false,
      "stateMutability": "nonpayable",
      "type": "constructor"
    },
    {
      "anonymous": false,
      "inputs": [
        {
          "indexed": false,
          "internalType": "uint256",
          "name": "id_artist",
          "type": "uint256"
        },
        {
          "indexed": false,
          "internalType": "string",
          "name": "artist_name",
          "type": "string"
        },
        {
          "indexed": false,
          "internalType": "string",
          "name": "details",
          "type": "string"
        }
      ],
      "name": "ArtistCreated",
      "type": "event"
    },
    {
      "anonymous": false,
      "inputs": [
        {
          "indexed": false,
          "internalType": "uint256",
          "name": "id_artist",
          "type": "uint256"
        },
        {
          "indexed": false,
          "internalType": "string",
          "name": "artist_name",
          "type": "string"
        },
        {
          "indexed": false,
          "internalType": "string",
          "name": "details",
          "type": "string"
        }
      ],
      "name": "ArtistUpdated",
      "type": "event"
    },
    {
      "anonymous": false,
      "inputs": [
        {
          "indexed": false,
          "internalType": "uint256",
          "name": "id_auction",
          "type": "uint256"
        },
        {
          "indexed": false,
          "internalType": "uint256",
          "name": "target_price",
          "type": "uint256"
        },
        {
          "indexed": false,
          "internalType": "uint256",
          "name": "auctionEndTime",
          "type": "uint256"
        },
        {
          "indexed": false,
          "internalType": "uint256",
          "name": "id_product",
          "type": "uint256"
        }
      ],
      "name": "AuctionCreated",
      "type": "event"
    },
    {
      "anonymous": false,
      "inputs": [
        {
          "indexed": false,
          "internalType": "address payable",
          "name": "winner",
          "type": "address"
        },
        {
          "indexed": false,
          "internalType": "uint256",
          "name": "amount",
          "type": "uint256"
        }
      ],
      "name": "AuctionEnded",
      "type": "event"
    },
    {
      "anonymous": false,
      "inputs": [
        {
          "indexed": false,
          "internalType": "uint256",
          "name": "id_auction",
          "type": "uint256"
        },
        {
          "indexed": false,
          "internalType": "uint256",
          "name": "target_price",
          "type": "uint256"
        },
        {
          "indexed": false,
          "internalType": "uint256",
          "name": "auctionEndTime",
          "type": "uint256"
        },
        {
          "indexed": false,
          "internalType": "address payable",
          "name": "highestBidder",
          "type": "address"
        },
        {
          "indexed": false,
          "internalType": "uint256",
          "name": "highestBid",
          "type": "uint256"
        },
        {
          "indexed": false,
          "internalType": "uint256",
          "name": "offerCount",
          "type": "uint256"
        },
        {
          "indexed": false,
          "internalType": "bool",
          "name": "ended",
          "type": "bool"
        },
        {
          "indexed": false,
          "internalType": "uint256",
          "name": "id_product",
          "type": "uint256"
        }
      ],
      "name": "AuctionUpdated",
      "type": "event"
    },
    {
      "anonymous": false,
      "inputs": [
        {
          "indexed": false,
          "internalType": "address payable",
          "name": "bidder",
          "type": "address"
        },
        {
          "indexed": false,
          "internalType": "uint256",
          "name": "amount",
          "type": "uint256"
        }
      ],
      "name": "HighestBidIncreased",
      "type": "event"
    },
    {
      "anonymous": false,
      "inputs": [
        {
          "indexed": false,
          "internalType": "uint256",
          "name": "id_artist",
          "type": "uint256"
        },
        {
          "indexed": false,
          "internalType": "string",
          "name": "artist_name",
          "type": "string"
        },
        {
          "indexed": false,
          "internalType": "uint256",
          "name": "amount",
          "type": "uint256"
        }
      ],
      "name": "IncreasedDonation",
      "type": "event"
    },
    {
      "anonymous": false,
      "inputs": [
        {
          "indexed": false,
          "internalType": "uint256",
          "name": "id_product",
          "type": "uint256"
        },
        {
          "indexed": false,
          "internalType": "string",
          "name": "name",
          "type": "string"
        },
        {
          "indexed": false,
          "internalType": "uint256",
          "name": "price",
          "type": "uint256"
        },
        {
          "indexed": false,
          "internalType": "uint256",
          "name": "id_artist",
          "type": "uint256"
        },
        {
          "indexed": false,
          "internalType": "string",
          "name": "category",
          "type": "string"
        },
        {
          "indexed": false,
          "internalType": "string",
          "name": "description",
          "type": "string"
        },
        {
          "indexed": false,
          "internalType": "string",
          "name": "image_hash",
          "type": "string"
        }
      ],
      "name": "ProductCreated",
      "type": "event"
    },
    {
      "anonymous": false,
      "inputs": [
        {
          "indexed": false,
          "internalType": "uint256",
          "name": "id_product",
          "type": "uint256"
        },
        {
          "indexed": false,
          "internalType": "string",
          "name": "name",
          "type": "string"
        },
        {
          "indexed": false,
          "internalType": "uint256",
          "name": "price",
          "type": "uint256"
        },
        {
          "indexed": false,
          "internalType": "uint256",
          "name": "id_artist",
          "type": "uint256"
        },
        {
          "indexed": false,
          "internalType": "string",
          "name": "category",
          "type": "string"
        },
        {
          "indexed": false,
          "internalType": "string",
          "name": "description",
          "type": "string"
        },
        {
          "indexed": false,
          "internalType": "string",
          "name": "image_hash",
          "type": "string"
        },
        {
          "indexed": false,
          "internalType": "bool",
          "name": "purchased",
          "type": "bool"
        },
        {
          "indexed": false,
          "internalType": "uint256",
          "name": "priceSold",
          "type": "uint256"
        },
        {
          "indexed": false,
          "internalType": "address payable",
          "name": "winner",
          "type": "address"
        }
      ],
      "name": "ProductSold",
      "type": "event"
    },
    {
      "anonymous": false,
      "inputs": [
        {
          "indexed": false,
          "internalType": "uint256",
          "name": "id_product",
          "type": "uint256"
        },
        {
          "indexed": false,
          "internalType": "string",
          "name": "name",
          "type": "string"
        },
        {
          "indexed": false,
          "internalType": "uint256",
          "name": "price",
          "type": "uint256"
        },
        {
          "indexed": false,
          "internalType": "uint256",
          "name": "id_artist",
          "type": "uint256"
        },
        {
          "indexed": false,
          "internalType": "string",
          "name": "category",
          "type": "string"
        },
        {
          "indexed": false,
          "internalType": "string",
          "name": "description",
          "type": "string"
        },
        {
          "indexed": false,
          "internalType": "string",
          "name": "image_hash",
          "type": "string"
        }
      ],
      "name": "ProductUpdated",
      "type": "event"
    },
    {
      "constant": true,
      "inputs": [],
      "name": "activeAuction",
      "outputs": [
        {
          "internalType": "uint256",
          "name": "",
          "type": "uint256"
        }
      ],
      "payable": false,
      "stateMutability": "view",
      "type": "function"
    },
    {
      "constant": true,
      "inputs": [],
      "name": "artistCount",
      "outputs": [
        {
          "internalType": "uint256",
          "name": "",
          "type": "uint256"
        }
      ],
      "payable": false,
      "stateMutability": "view",
      "type": "function"
    },
    {
      "constant": true,
      "inputs": [
        {
          "internalType": "uint256",
          "name": "",
          "type": "uint256"
        }
      ],
      "name": "artists",
      "outputs": [
        {
          "internalType": "uint256",
          "name": "id_artist",
          "type": "uint256"
        },
        {
          "internalType": "string",
          "name": "artist_name",
          "type": "string"
        },
        {
          "internalType": "string",
          "name": "details",
          "type": "string"
        },
        {
          "internalType": "uint256",
          "name": "amount_collected",
          "type": "uint256"
        }
      ],
      "payable": false,
      "stateMutability": "view",
      "type": "function"
    },
    {
      "constant": true,
      "inputs": [],
      "name": "auctionCount",
      "outputs": [
        {
          "internalType": "uint256",
          "name": "",
          "type": "uint256"
        }
      ],
      "payable": false,
      "stateMutability": "view",
      "type": "function"
    },
    {
      "constant": true,
      "inputs": [
        {
          "internalType": "uint256",
          "name": "",
          "type": "uint256"
        }
      ],
      "name": "auctionList",
      "outputs": [
        {
          "internalType": "uint256",
          "name": "id_auction",
          "type": "uint256"
        },
        {
          "internalType": "uint256",
          "name": "target_price",
          "type": "uint256"
        },
        {
          "internalType": "uint256",
          "name": "auctionEndTime",
          "type": "uint256"
        },
        {
          "internalType": "address payable",
          "name": "highestBidder",
          "type": "address"
        },
        {
          "internalType": "uint256",
          "name": "highestBid",
          "type": "uint256"
        },
        {
          "internalType": "uint256",
          "name": "offerCount",
          "type": "uint256"
        },
        {
          "internalType": "bool",
          "name": "ended",
          "type": "bool"
        },
        {
          "internalType": "uint256",
          "name": "id_product",
          "type": "uint256"
        }
      ],
      "payable": false,
      "stateMutability": "view",
      "type": "function"
    },
    {
      "constant": true,
      "inputs": [
        {
          "internalType": "address",
          "name": "",
          "type": "address"
        }
      ],
      "name": "donations",
      "outputs": [
        {
          "internalType": "uint256",
          "name": "",
          "type": "uint256"
        }
      ],
      "payable": false,
      "stateMutability": "view",
      "type": "function"
    },
    {
      "constant": true,
      "inputs": [],
      "name": "donationsCount",
      "outputs": [
        {
          "internalType": "uint256",
          "name": "",
          "type": "uint256"
        }
      ],
      "payable": false,
      "stateMutability": "view",
      "type": "function"
    },
    {
      "constant": true,
      "inputs": [],
      "name": "name",
      "outputs": [
        {
          "internalType": "string",
          "name": "",
          "type": "string"
        }
      ],
      "payable": false,
      "stateMutability": "view",
      "type": "function"
    },
    {
      "constant": true,
      "inputs": [],
      "name": "owner",
      "outputs": [
        {
          "internalType": "address payable",
          "name": "",
          "type": "address"
        }
      ],
      "payable": false,
      "stateMutability": "view",
      "type": "function"
    },
    {
      "constant": true,
      "inputs": [],
      "name": "productCount",
      "outputs": [
        {
          "internalType": "uint256",
          "name": "",
          "type": "uint256"
        }
      ],
      "payable": false,
      "stateMutability": "view",
      "type": "function"
    },
    {
      "constant": true,
      "inputs": [
        {
          "internalType": "uint256",
          "name": "",
          "type": "uint256"
        }
      ],
      "name": "products",
      "outputs": [
        {
          "internalType": "uint256",
          "name": "id_product",
          "type": "uint256"
        },
        {
          "internalType": "string",
          "name": "name",
          "type": "string"
        },
        {
          "internalType": "uint256",
          "name": "price",
          "type": "uint256"
        },
        {
          "internalType": "uint256",
          "name": "id_artist",
          "type": "uint256"
        },
        {
          "internalType": "string",
          "name": "category",
          "type": "string"
        },
        {
          "internalType": "string",
          "name": "description",
          "type": "string"
        },
        {
          "internalType": "string",
          "name": "image_hash",
          "type": "string"
        },
        {
          "internalType": "bool",
          "name": "purchased",
          "type": "bool"
        },
        {
          "internalType": "bool",
          "name": "auction_started",
          "type": "bool"
        },
        {
          "internalType": "bool",
          "name": "auction_ended",
          "type": "bool"
        }
      ],
      "payable": false,
      "stateMutability": "view",
      "type": "function"
    },
    {
      "constant": true,
      "inputs": [],
      "name": "productsOnAuction",
      "outputs": [
        {
          "internalType": "uint256",
          "name": "",
          "type": "uint256"
        }
      ],
      "payable": false,
      "stateMutability": "view",
      "type": "function"
    },
    {
      "constant": false,
      "inputs": [
        {
          "internalType": "string",
          "name": "_name",
          "type": "string"
        },
        {
          "internalType": "string",
          "name": "_details",
          "type": "string"
        }
      ],
      "name": "createArtist",
      "outputs": [],
      "payable": false,
      "stateMutability": "nonpayable",
      "type": "function"
    },
    {
      "constant": false,
      "inputs": [
        {
          "internalType": "uint256",
          "name": "_id",
          "type": "uint256"
        },
        {
          "internalType": "string",
          "name": "_name",
          "type": "string"
        },
        {
          "internalType": "string",
          "name": "_details",
          "type": "string"
        }
      ],
      "name": "editArtist",
      "outputs": [],
      "payable": false,
      "stateMutability": "nonpayable",
      "type": "function"
    },
    {
      "constant": false,
      "inputs": [
        {
          "internalType": "string",
          "name": "_name",
          "type": "string"
        },
        {
          "internalType": "uint256",
          "name": "_price",
          "type": "uint256"
        },
        {
          "internalType": "uint256",
          "name": "_id_artist",
          "type": "uint256"
        },
        {
          "internalType": "string",
          "name": "_category",
          "type": "string"
        },
        {
          "internalType": "string",
          "name": "_description",
          "type": "string"
        },
        {
          "internalType": "string",
          "name": "_imageHash",
          "type": "string"
        }
      ],
      "name": "createProduct",
      "outputs": [],
      "payable": false,
      "stateMutability": "nonpayable",
      "type": "function"
    },
    {
      "constant": false,
      "inputs": [
        {
          "internalType": "uint256",
          "name": "_id",
          "type": "uint256"
        },
        {
          "internalType": "string",
          "name": "_name",
          "type": "string"
        },
        {
          "internalType": "uint256",
          "name": "_price",
          "type": "uint256"
        },
        {
          "internalType": "uint256",
          "name": "id_artist",
          "type": "uint256"
        },
        {
          "internalType": "string",
          "name": "_category",
          "type": "string"
        },
        {
          "internalType": "string",
          "name": "_description",
          "type": "string"
        },
        {
          "internalType": "string",
          "name": "_imageHash",
          "type": "string"
        }
      ],
      "name": "editProduct",
      "outputs": [],
      "payable": false,
      "stateMutability": "nonpayable",
      "type": "function"
    },
    {
      "constant": false,
      "inputs": [
        {
          "internalType": "uint256",
          "name": "_id_product",
          "type": "uint256"
        }
      ],
      "name": "deleteProduct",
      "outputs": [],
      "payable": false,
      "stateMutability": "nonpayable",
      "type": "function"
    },
    {
      "constant": false,
      "inputs": [
        {
          "internalType": "uint256",
          "name": "_id",
          "type": "uint256"
        }
      ],
      "name": "createAuction",
      "outputs": [],
      "payable": false,
      "stateMutability": "nonpayable",
      "type": "function"
    },
    {
      "constant": false,
      "inputs": [
        {
          "internalType": "uint256",
          "name": "_id",
          "type": "uint256"
        },
        {
          "internalType": "uint256",
          "name": "_target_price",
          "type": "uint256"
        }
      ],
      "name": "editAuction",
      "outputs": [],
      "payable": false,
      "stateMutability": "nonpayable",
      "type": "function"
    },
    {
      "constant": false,
      "inputs": [
        {
          "internalType": "uint256",
          "name": "auction_id",
          "type": "uint256"
        },
        {
          "internalType": "uint256",
          "name": "bid_value",
          "type": "uint256"
        },
        {
          "internalType": "uint256",
          "name": "product_id",
          "type": "uint256"
        }
      ],
      "name": "bid",
      "outputs": [],
      "payable": true,
      "stateMutability": "payable",
      "type": "function"
    },
    {
      "constant": false,
      "inputs": [
        {
          "internalType": "uint256",
          "name": "value",
          "type": "uint256"
        },
        {
          "internalType": "uint256",
          "name": "artist_id",
          "type": "uint256"
        }
      ],
      "name": "donation",
      "outputs": [],
      "payable": true,
      "stateMutability": "payable",
      "type": "function"
    },
    {
      "constant": false,
      "inputs": [
        {
          "internalType": "uint256",
          "name": "_id",
          "type": "uint256"
        }
      ],
      "name": "auctionEnd",
      "outputs": [],
      "payable": true,
      "stateMutability": "payable",
      "type": "function"
    }
  ],
  "bytecode": "0x60806040526000600255600060035560006004556000600555600060065560006007553480156200002f57600080fd5b506040518060400160405280601481526020017f41756374696f6e20486f757365206f6620417274000000000000000000000000815250600090805190602001906200007d929190620000c5565b5033600160006101000a81548173ffffffffffffffffffffffffffffffffffffffff021916908373ffffffffffffffffffffffffffffffffffffffff16021790555062000174565b828054600181600116156101000203166002900490600052602060002090601f016020900481019282601f106200010857805160ff191683800117855562000139565b8280016001018555821562000139579182015b82811115620001385782518255916020019190600101906200011b565b5b5090506200014891906200014c565b5090565b6200017191905b808211156200016d57600081600090555060010162000153565b5090565b90565b6141a580620001846000396000f3fe6080604052600436106101355760003560e01c806380edeb53116100ab578063d5563f311161006f578063d5563f3114610c1b578063e0f6ef8714610c56578063ed90c7b714610c81578063f821a91514610cbc578063fb0cf2cc14610d01578063fbf8f46814610e6057610135565b806380edeb53146109db5780638da5cb5b14610a06578063be53048214610a5d578063cc6cb19a14610a88578063cd7e10c114610aed57610135565b80632ad71573116100fd5780632ad715731461064157806332246e9f1461066c57806333ed796c1461069a57806336d1e2dd146106c5578063669c0083146106fd5780637acc0b20146107ad57610135565b806306fdde031461013a57806307f8b0c7146101ca5780631f5225951461033357806324b8ab2c1461035e5780632ac9bf09146105ff575b600080fd5b34801561014657600080fd5b5061014f61110b565b6040518080602001828103825283818151815260200191508051906020019080838360005b8381101561018f578082015181840152602081019050610174565b50505050905090810190601f1680156101bc5780820380516001836020036101000a031916815260200191505b509250505060405180910390f35b3480156101d657600080fd5b50610331600480360360608110156101ed57600080fd5b81019080803590602001909291908035906020019064010000000081111561021457600080fd5b82018360208201111561022657600080fd5b8035906020019184600183028401116401000000008311171561024857600080fd5b91908080601f016020809104026020016040519081016040528093929190818152602001838380828437600081840152601f19601f820116905080830192505050505050509192919290803590602001906401000000008111156102ab57600080fd5b8201836020820111156102bd57600080fd5b803590602001918460018302840111640100000000831117156102df57600080fd5b91908080601f016020809104026020016040519081016040528093929190818152602001838380828437600081840152601f19601f8201169050808301925050505050505091929192905050506111a9565b005b34801561033f57600080fd5b506103486113a0565b6040518082815260200191505060405180910390f35b34801561036a57600080fd5b506105fd600480360360c081101561038157600080fd5b810190808035906020019064010000000081111561039e57600080fd5b8201836020820111156103b057600080fd5b803590602001918460018302840111640100000000831117156103d257600080fd5b91908080601f016020809104026020016040519081016040528093929190818152602001838380828437600081840152601f19601f82011690508083019250505050505050919291929080359060200190929190803590602001909291908035906020019064010000000081111561044957600080fd5b82018360208201111561045b57600080fd5b8035906020019184600183028401116401000000008311171561047d57600080fd5b91908080601f016020809104026020016040519081016040528093929190818152602001838380828437600081840152601f19601f820116905080830192505050505050509192919290803590602001906401000000008111156104e057600080fd5b8201836020820111156104f257600080fd5b8035906020019184600183028401116401000000008311171561051457600080fd5b91908080601f016020809104026020016040519081016040528093929190818152602001838380828437600081840152601f19601f8201169050808301925050505050505091929192908035906020019064010000000081111561057757600080fd5b82018360208201111561058957600080fd5b803590602001918460018302840111640100000000831117156105ab57600080fd5b91908080601f016020809104026020016040519081016040528093929190818152602001838380828437600081840152601f19601f8201169050808301925050505050505091929192905050506113a6565b005b61063f6004803603606081101561061557600080fd5b810190808035906020019092919080359060200190929190803590602001909291905050506117cb565b005b34801561064d57600080fd5b50610656611dba565b6040518082815260200191505060405180910390f35b6106986004803603602081101561068257600080fd5b8101908080359060200190929190505050611dc0565b005b3480156106a657600080fd5b506106af6125c1565b6040518082815260200191505060405180910390f35b6106fb600480360360408110156106db57600080fd5b8101908080359060200190929190803590602001909291905050506125c7565b005b34801561070957600080fd5b506107366004803603602081101561072057600080fd5b81019080803590602001909291905050506127bd565b604051808981526020018881526020018781526020018673ffffffffffffffffffffffffffffffffffffffff1673ffffffffffffffffffffffffffffffffffffffff168152602001858152602001848152602001831515151581526020018281526020019850505050505050505060405180910390f35b3480156107b957600080fd5b506107e6600480360360208110156107d057600080fd5b8101908080359060200190929190505050612832565b604051808b8152602001806020018a815260200189815260200180602001806020018060200188151515158152602001871515151581526020018615151515815260200185810385528e818151815260200191508051906020019080838360005b83811015610862578082015181840152602081019050610847565b50505050905090810190601f16801561088f5780820380516001836020036101000a031916815260200191505b5085810384528b818151815260200191508051906020019080838360005b838110156108c85780820151818401526020810190506108ad565b50505050905090810190601f1680156108f55780820380516001836020036101000a031916815260200191505b5085810383528a818151815260200191508051906020019080838360005b8381101561092e578082015181840152602081019050610913565b50505050905090810190601f16801561095b5780820380516001836020036101000a031916815260200191505b50858103825289818151815260200191508051906020019080838360005b83811015610994578082015181840152602081019050610979565b50505050905090810190601f1680156109c15780820380516001836020036101000a031916815260200191505b509e50505050505050505050505050505060405180910390f35b3480156109e757600080fd5b506109f0612b0d565b6040518082815260200191505060405180910390f35b348015610a1257600080fd5b50610a1b612b13565b604051808273ffffffffffffffffffffffffffffffffffffffff1673ffffffffffffffffffffffffffffffffffffffff16815260200191505060405180910390f35b348015610a6957600080fd5b50610a72612b39565b6040518082815260200191505060405180910390f35b348015610a9457600080fd5b50610ad760048036036020811015610aab57600080fd5b81019080803573ffffffffffffffffffffffffffffffffffffffff169060200190929190505050612b3f565b6040518082815260200191505060405180910390f35b348015610af957600080fd5b50610b2660048036036020811015610b1057600080fd5b8101908080359060200190929190505050612b57565b604051808581526020018060200180602001848152602001838103835286818151815260200191508051906020019080838360005b83811015610b76578082015181840152602081019050610b5b565b50505050905090810190601f168015610ba35780820380516001836020036101000a031916815260200191505b50838103825285818151815260200191508051906020019080838360005b83811015610bdc578082015181840152602081019050610bc1565b50505050905090810190601f168015610c095780820380516001836020036101000a031916815260200191505b50965050505050505060405180910390f35b348015610c2757600080fd5b50610c5460048036036020811015610c3e57600080fd5b8101908080359060200190929190505050612cb7565b005b348015610c6257600080fd5b50610c6b61306f565b6040518082815260200191505060405180910390f35b348015610c8d57600080fd5b50610cba60048036036020811015610ca457600080fd5b8101908080359060200190929190505050613075565b005b348015610cc857600080fd5b50610cff60048036036040811015610cdf57600080fd5b8101908080359060200190929190803590602001909291905050506135b4565b005b348015610d0d57600080fd5b50610e5e60048036036040811015610d2457600080fd5b8101908080359060200190640100000000811115610d4157600080fd5b820183602082011115610d5357600080fd5b80359060200191846001830284011164010000000083111715610d7557600080fd5b91908080601f016020809104026020016040519081016040528093929190818152602001838380828437600081840152601f19601f82011690508083019250505050505050919291929080359060200190640100000000811115610dd857600080fd5b820183602082011115610dea57600080fd5b80359060200191846001830284011164010000000083111715610e0c57600080fd5b91908080601f016020809104026020016040519081016040528093929190818152602001838380828437600081840152601f19601f820116905080830192505050505050509192919290505050613834565b005b348015610e6c57600080fd5b50611109600480360360e0811015610e8357600080fd5b810190808035906020019092919080359060200190640100000000811115610eaa57600080fd5b820183602082011115610ebc57600080fd5b80359060200191846001830284011164010000000083111715610ede57600080fd5b91908080601f016020809104026020016040519081016040528093929190818152602001838380828437600081840152601f19601f820116905080830192505050505050509192919290803590602001909291908035906020019092919080359060200190640100000000811115610f5557600080fd5b820183602082011115610f6757600080fd5b80359060200191846001830284011164010000000083111715610f8957600080fd5b91908080601f016020809104026020016040519081016040528093929190818152602001838380828437600081840152601f19601f82011690508083019250505050505050919291929080359060200190640100000000811115610fec57600080fd5b820183602082011115610ffe57600080fd5b8035906020019184600183028401116401000000008311171561102057600080fd5b91908080601f016020809104026020016040519081016040528093929190818152602001838380828437600081840152601f19601f8201169050808301925050505050505091929192908035906020019064010000000081111561108357600080fd5b82018360208201111561109557600080fd5b803590602001918460018302840111640100000000831117156110b757600080fd5b91908080601f016020809104026020016040519081016040528093929190818152602001838380828437600081840152601f19601f820116905080830192505050505050509192919290505050613ad5565b005b60008054600181600116156101000203166002900480601f0160208091040260200160405190810160405280929190818152602001828054600181600116156101000203166002900480156111a15780601f10611176576101008083540402835291602001916111a1565b820191906000526020600020905b81548152906001019060200180831161118457829003601f168201915b505050505081565b60008251116111b757600080fd5b60008151116111c557600080fd5b6000600860008581526020019081526020016000209050828160010190805190602001906111f4929190613fa1565b508181600201908051906020019061120d929190613fa1565b5080600860008681526020019081526020016000206000820154816000015560018201816001019080546001816001161561010002031660029004611253929190614021565b506002820181600201908054600181600116156101000203166002900461127b929190614021565b50600382015481600301559050507f32141d773ee9c2c3d65647f0cefc910eb6ae3973dcb50abf2affd519d6d71ebb848484604051808481526020018060200180602001838103835285818151815260200191508051906020019080838360005b838110156112f75780820151818401526020810190506112dc565b50505050905090810190601f1680156113245780820380516001836020036101000a031916815260200191505b50838103825284818151815260200191508051906020019080838360005b8381101561135d578082015181840152602081019050611342565b50505050905090810190601f16801561138a5780820380516001836020036101000a031916815260200191505b509550505050505060405180910390a150505050565b60075481565b600160009054906101000a900473ffffffffffffffffffffffffffffffffffffffff1673ffffffffffffffffffffffffffffffffffffffff163373ffffffffffffffffffffffffffffffffffffffff161461140057600080fd5b600086511161140e57600080fd5b6000851161141b57600080fd5b600083511161142957600080fd5b600082511161143757600080fd5b600081511161144557600080fd5b6002600081548092919060010191905055506004600081548092919060010191905055506040518061014001604052806002548152602001878152602001868152602001858152602001848152602001838152602001828152602001600015158152602001600015158152602001600015158152506009600060025481526020019081526020016000206000820151816000015560208201518160010190805190602001906114f59291906140a8565b50604082015181600201556060820151816003015560808201518160040190805190602001906115269291906140a8565b5060a08201518160050190805190602001906115439291906140a8565b5060c08201518160060190805190602001906115609291906140a8565b5060e08201518160070160006101000a81548160ff0219169083151502179055506101008201518160070160016101000a81548160ff0219169083151502179055506101208201518160070160026101000a81548160ff0219169083151502179055509050507f8827633fd6f7cc8fea01ef2debac580ba0afd149fc94f73670eb94cda1c68246600254878787878787604051808881526020018060200187815260200186815260200180602001806020018060200185810385528b818151815260200191508051906020019080838360005b8381101561164e578082015181840152602081019050611633565b50505050905090810190601f16801561167b5780820380516001836020036101000a031916815260200191505b50858103845288818151815260200191508051906020019080838360005b838110156116b4578082015181840152602081019050611699565b50505050905090810190601f1680156116e15780820380516001836020036101000a031916815260200191505b50858103835287818151815260200191508051906020019080838360005b8381101561171a5780820151818401526020810190506116ff565b50505050905090810190601f1680156117475780820380516001836020036101000a031916815260200191505b50858103825286818151815260200191508051906020019080838360005b83811015611780578082015181840152602081019050611765565b50505050905090810190601f1680156117ad5780820380516001836020036101000a031916815260200191505b509b50505050505050505050505060405180910390a1505050505050565b6000600960008381526020019081526020016000209050600081600001541180156117fc5750600254816000015411155b61186e576040517f08c379a00000000000000000000000000000000000000000000000000000000081526004018080602001828103825260118152602001807f50726f64756374206e6f7420666f756e6400000000000000000000000000000081525060200191505060405180910390fd5b6000600a600086815260200190815260200160002090506000816000015411801561189f5750600354816000015411155b611911576040517f08c379a00000000000000000000000000000000000000000000000000000000081526004018080602001828103825260118152602001807f41756374696f6e206e6f7420666f756e6400000000000000000000000000000081525060200191505060405180910390fd5b806002015442111561198b576040517f08c379a000000000000000000000000000000000000000000000000000000000815260040180806020018281038252600d8152602001807f41756374696f6e20656e6465640000000000000000000000000000000000000081525060200191505060405180910390fd5b600160009054906101000a900473ffffffffffffffffffffffffffffffffffffffff1673ffffffffffffffffffffffffffffffffffffffff163373ffffffffffffffffffffffffffffffffffffffff161415611a4f576040517f08c379a00000000000000000000000000000000000000000000000000000000081526004018080602001828103825260088152602001807f4f776e657221212100000000000000000000000000000000000000000000000081525060200191505060405180910390fd5b80600401548411611ac8576040517f08c379a00000000000000000000000000000000000000000000000000000000081526004018080602001828103825260108152602001807f56616c756520746f6f206c6974746c650000000000000000000000000000000081525060200191505060405180910390fd5b8160020154816004015410611b465780600401548160080160008360030160009054906101000a900473ffffffffffffffffffffffffffffffffffffffff1673ffffffffffffffffffffffffffffffffffffffff1673ffffffffffffffffffffffffffffffffffffffff168152602001908152602001600020819055505b60018160050160008282540192505081905550338160030160006101000a81548173ffffffffffffffffffffffffffffffffffffffff021916908373ffffffffffffffffffffffffffffffffffffffff16021790555083816004018190555080600a60008781526020019081526020016000206000820154816000015560018201548160010155600282015481600201556003820160009054906101000a900473ffffffffffffffffffffffffffffffffffffffff168160030160006101000a81548173ffffffffffffffffffffffffffffffffffffffff021916908373ffffffffffffffffffffffffffffffffffffffff16021790555060048201548160040155600582015481600501556006820160009054906101000a900460ff168160060160006101000a81548160ff021916908315150217905550600782015481600701559050507f7c01232bc1e9ff28838307228c496a1e1528d7be93bf90641e15b9dd6ae07a668582600101548360020154338886600501548760060160009054906101000a900460ff168a604051808981526020018881526020018781526020018673ffffffffffffffffffffffffffffffffffffffff1673ffffffffffffffffffffffffffffffffffffffff168152602001858152602001848152602001831515151581526020018281526020019850505050505050505060405180910390a17ff4757a49b326036464bec6fe419a4ae38c8a02ce3e68bf0809674f6aab8ad3003385604051808373ffffffffffffffffffffffffffffffffffffffff1673ffffffffffffffffffffffffffffffffffffffff1681526020018281526020019250505060405180910390a15050505050565b60035481565b6000600a6000838152602001908152602001600020905060008160000154118015611df15750600354816000015411155b611dfa57600080fd5b8060060160009054906101000a900460ff1615611e62576040517f08c379a000000000000000000000000000000000000000000000000000000000815260040180806020018281038252602381526020018061414e6023913960400191505060405180910390fd5b60006009600083600701548152602001908152602001600020905060008160000154118015611e975750600254816000015411155b611ea057600080fd5b8060070160009054906101000a900460ff1615611ebc57600080fd5b600082600501541415611eeb5760008160070160006101000a81548160ff021916908315150217905550611f09565b60018160070160006101000a81548160ff0219169083151502179055505b60018160070160026101000a81548160ff02191690831515021790555060018260060160006101000a81548160ff021916908315150217905550600460008154809291906001900391905055506005600081548092919060019003919050555060008260030160009054906101000a900473ffffffffffffffffffffffffffffffffffffffff1690508073ffffffffffffffffffffffffffffffffffffffff166108fc349081150290604051600060405180830381858888f19350505050158015611fd8573d6000803e3d6000fd5b5082600a60008681526020019081526020016000206000820154816000015560018201548160010155600282015481600201556003820160009054906101000a900473ffffffffffffffffffffffffffffffffffffffff168160030160006101000a81548173ffffffffffffffffffffffffffffffffffffffff021916908373ffffffffffffffffffffffffffffffffffffffff16021790555060048201548160040155600582015481600501556006820160009054906101000a900460ff168160060160006101000a81548160ff021916908315150217905550600782015481600701559050508160096000856007015481526020019081526020016000206000820154816000015560018201816001019080546001816001161561010002031660029004612109929190614021565b50600282015481600201556003820154816003015560048201816004019080546001816001161561010002031660029004612145929190614021565b506005820181600501908054600181600116156101000203166002900461216d929190614021565b5060068201816006019080546001816001161561010002031660029004612195929190614021565b506007820160009054906101000a900460ff168160070160006101000a81548160ff0219169083151502179055506007820160019054906101000a900460ff168160070160016101000a81548160ff0219169083151502179055506007820160029054906101000a900460ff168160070160026101000a81548160ff0219169083151502179055509050507fdaec4582d5d9595688c8c98545fdd1c696d41c6aeaeb636737e84ed2f5c00eda8360030160009054906101000a900473ffffffffffffffffffffffffffffffffffffffff168460040154604051808373ffffffffffffffffffffffffffffffffffffffff1673ffffffffffffffffffffffffffffffffffffffff1681526020018281526020019250505060405180910390a17fc9cf267540414db4c25729c73a4a878a6bdc1e2bba366b78ed4975bf356419e8826000015483600101846002015485600301548660040187600501886006018960070160009054906101000a900460ff168b600401548c60030160009054906101000a900473ffffffffffffffffffffffffffffffffffffffff16604051808b8152602001806020018a8152602001898152602001806020018060200180602001881515151581526020018781526020018673ffffffffffffffffffffffffffffffffffffffff1673ffffffffffffffffffffffffffffffffffffffff16815260200185810385528e8181546001816001161561010002031660029004815260200191508054600181600116156101000203166002900480156124185780601f106123ed57610100808354040283529160200191612418565b820191906000526020600020905b8154815290600101906020018083116123fb57829003601f168201915b505085810384528b81815460018160011615610100020316600290048152602001915080546001816001161561010002031660029004801561249b5780601f106124705761010080835404028352916020019161249b565b820191906000526020600020905b81548152906001019060200180831161247e57829003601f168201915b505085810383528a81815460018160011615610100020316600290048152602001915080546001816001161561010002031660029004801561251e5780601f106124f35761010080835404028352916020019161251e565b820191906000526020600020905b81548152906001019060200180831161250157829003601f168201915b50508581038252898181546001816001161561010002031660029004815260200191508054600181600116156101000203166002900480156125a15780601f10612576576101008083540402835291602001916125a1565b820191906000526020600020905b81548152906001019060200180831161258457829003601f168201915b50509e50505050505050505050505050505060405180910390a150505050565b60055481565b6000600860008381526020019081526020016000209050600083116125eb57600080fd5b6000600b60003373ffffffffffffffffffffffffffffffffffffffff1673ffffffffffffffffffffffffffffffffffffffff168152602001908152602001600020541415612646576007600081548092919060010191905055505b82600b60003373ffffffffffffffffffffffffffffffffffffffff1673ffffffffffffffffffffffffffffffffffffffff168152602001908152602001600020600082825401925050819055508281600301600082825401925050819055503373ffffffffffffffffffffffffffffffffffffffff166108fc349081150290604051600060405180830381858888f193505050501580156126eb573d6000803e3d6000fd5b507f62947c19bd0e82be02869f914e667557a9d0310712ea4a7c9a07186958d1c79882826001013460405180848152602001806020018381526020018281038252848181546001816001161561010002031660029004815260200191508054600181600116156101000203166002900480156127a85780601f1061277d576101008083540402835291602001916127a8565b820191906000526020600020905b81548152906001019060200180831161278b57829003601f168201915b505094505050505060405180910390a1505050565b600a6020528060005260406000206000915090508060000154908060010154908060020154908060030160009054906101000a900473ffffffffffffffffffffffffffffffffffffffff16908060040154908060050154908060060160009054906101000a900460ff16908060070154905088565b6009602052806000526040600020600091509050806000015490806001018054600181600116156101000203166002900480601f0160208091040260200160405190810160405280929190818152602001828054600181600116156101000203166002900480156128e45780601f106128b9576101008083540402835291602001916128e4565b820191906000526020600020905b8154815290600101906020018083116128c757829003601f168201915b505050505090806002015490806003015490806004018054600181600116156101000203166002900480601f01602080910402602001604051908101604052809291908181526020018280546001816001161561010002031660029004801561298e5780601f106129635761010080835404028352916020019161298e565b820191906000526020600020905b81548152906001019060200180831161297157829003601f168201915b505050505090806005018054600181600116156101000203166002900480601f016020809104026020016040519081016040528092919081815260200182805460018160011615610100020316600290048015612a2c5780601f10612a0157610100808354040283529160200191612a2c565b820191906000526020600020905b815481529060010190602001808311612a0f57829003601f168201915b505050505090806006018054600181600116156101000203166002900480601f016020809104026020016040519081016040528092919081815260200182805460018160011615610100020316600290048015612aca5780601f10612a9f57610100808354040283529160200191612aca565b820191906000526020600020905b815481529060010190602001808311612aad57829003601f168201915b5050505050908060070160009054906101000a900460ff16908060070160019054906101000a900460ff16908060070160029054906101000a900460ff1690508a565b60045481565b600160009054906101000a900473ffffffffffffffffffffffffffffffffffffffff1681565b60065481565b600b6020528060005260406000206000915090505481565b6008602052806000526040600020600091509050806000015490806001018054600181600116156101000203166002900480601f016020809104026020016040519081016040528092919081815260200182805460018160011615610100020316600290048015612c095780601f10612bde57610100808354040283529160200191612c09565b820191906000526020600020905b815481529060010190602001808311612bec57829003601f168201915b505050505090806002018054600181600116156101000203166002900480601f016020809104026020016040519081016040528092919081815260200182805460018160011615610100020316600290048015612ca75780601f10612c7c57610100808354040283529160200191612ca7565b820191906000526020600020905b815481529060010190602001808311612c8a57829003601f168201915b5050505050908060030154905084565b600060096000838152602001908152602001600020905060008160000154118015612ce85750600254816000015411155b612cf157600080fd5b600160009054906101000a900473ffffffffffffffffffffffffffffffffffffffff1673ffffffffffffffffffffffffffffffffffffffff163373ffffffffffffffffffffffffffffffffffffffff1614612d4b57600080fd5b60018160070160016101000a81548160ff0219169083151502179055506003600081548092919060010191905055506005600081548092919060010191905055506000610e104201905060006002836002015402905082600960008681526020019081526020016000206000820154816000015560018201816001019080546001816001161561010002031660029004612de6929190614021565b50600282015481600201556003820154816003015560048201816004019080546001816001161561010002031660029004612e22929190614021565b5060058201816005019080546001816001161561010002031660029004612e4a929190614021565b5060068201816006019080546001816001161561010002031660029004612e72929190614021565b506007820160009054906101000a900460ff168160070160006101000a81548160ff0219169083151502179055506007820160019054906101000a900460ff168160070160016101000a81548160ff0219169083151502179055506007820160029054906101000a900460ff168160070160026101000a81548160ff0219169083151502179055509050506040518061010001604052806003548152602001828152602001838152602001600073ffffffffffffffffffffffffffffffffffffffff16815260200160008152602001600081526020016000151581526020018460000154815250600a6000600354815260200190815260200160002060008201518160000155602082015181600101556040820151816002015560608201518160030160006101000a81548173ffffffffffffffffffffffffffffffffffffffff021916908373ffffffffffffffffffffffffffffffffffffffff1602179055506080820151816004015560a0820151816005015560c08201518160060160006101000a81548160ff02191690831515021790555060e082015181600701559050507fa9c8dfcda5664a5a124c713e386da27de87432d5b668e79458501eb296389ba7600354828486600001546040518085815260200184815260200183815260200182815260200194505050505060405180910390a150505050565b60025481565b6000600960008381526020019081526020016000209050600081600001541180156130a65750600254816000015411155b613118576040517f08c379a00000000000000000000000000000000000000000000000000000000081526004018080602001828103825260118152602001807f50726f64756374206e6f7420666f756e6400000000000000000000000000000081525060200191505060405180910390fd5b60018160070160006101000a81548160ff0219169083151502179055508060096000848152602001908152602001600020600082015481600001556001820181600101908054600181600116156101000203166002900461317a929190614021565b506002820154816002015560038201548160030155600482018160040190805460018160011615610100020316600290046131b6929190614021565b50600582018160050190805460018160011615610100020316600290046131de929190614021565b5060068201816006019080546001816001161561010002031660029004613206929190614021565b506007820160009054906101000a900460ff168160070160006101000a81548160ff0219169083151502179055506007820160019054906101000a900460ff168160070160016101000a81548160ff0219169083151502179055506007820160029054906101000a900460ff168160070160026101000a81548160ff021916908315150217905550905050600460008154809291906001900391905055508060070160019054906101000a900460ff16156132cf57600560008154809291906001900391905055505b7fc9cf267540414db4c25729c73a4a878a6bdc1e2bba366b78ed4975bf356419e8816000015482600101836002015484600301548560040186600501876006018860070160009054906101000a900460ff16600080604051808b8152602001806020018a8152602001898152602001806020018060200180602001881515151581526020018781526020018673ffffffffffffffffffffffffffffffffffffffff1673ffffffffffffffffffffffffffffffffffffffff16815260200185810385528e81815460018160011615610100020316600290048152602001915080546001816001161561010002031660029004801561340d5780601f106133e25761010080835404028352916020019161340d565b820191906000526020600020905b8154815290600101906020018083116133f057829003601f168201915b505085810384528b8181546001816001161561010002031660029004815260200191508054600181600116156101000203166002900480156134905780601f1061346557610100808354040283529160200191613490565b820191906000526020600020905b81548152906001019060200180831161347357829003601f168201915b505085810383528a8181546001816001161561010002031660029004815260200191508054600181600116156101000203166002900480156135135780601f106134e857610100808354040283529160200191613513565b820191906000526020600020905b8154815290600101906020018083116134f657829003601f168201915b50508581038252898181546001816001161561010002031660029004815260200191508054600181600116156101000203166002900480156135965780601f1061356b57610100808354040283529160200191613596565b820191906000526020600020905b81548152906001019060200180831161357957829003601f168201915b50509e50505050505050505050505050505060405180910390a15050565b6000600a60008481526020019081526020016000209050600081600001541180156135e55750600354816000015411155b613657576040517f08c379a00000000000000000000000000000000000000000000000000000000081526004018080602001828103825260118152602001807f41756374696f6e206e6f7420666f756e6400000000000000000000000000000081525060200191505060405180910390fd5b81816001018190555080600a60008581526020019081526020016000206000820154816000015560018201548160010155600282015481600201556003820160009054906101000a900473ffffffffffffffffffffffffffffffffffffffff168160030160006101000a81548173ffffffffffffffffffffffffffffffffffffffff021916908373ffffffffffffffffffffffffffffffffffffffff16021790555060048201548160040155600582015481600501556006820160009054906101000a900460ff168160060160006101000a81548160ff021916908315150217905550600782015481600701559050507f7c01232bc1e9ff28838307228c496a1e1528d7be93bf90641e15b9dd6ae07a6683826001015483600201548460030160009054906101000a900473ffffffffffffffffffffffffffffffffffffffff16856004015486600501548760060160009054906101000a900460ff168860070154604051808981526020018881526020018781526020018673ffffffffffffffffffffffffffffffffffffffff1673ffffffffffffffffffffffffffffffffffffffff168152602001858152602001848152602001831515151581526020018281526020019850505050505050505060405180910390a1505050565b60008251116138ab576040517f08c379a000000000000000000000000000000000000000000000000000000000815260040180806020018281038252600e8152602001807f6e616d6520746f6f2073686f727400000000000000000000000000000000000081525060200191505060405180910390fd5b6000815111613922576040517f08c379a000000000000000000000000000000000000000000000000000000000815260040180806020018281038252600d8152602001807f656d7074792064657461696c730000000000000000000000000000000000000081525060200191505060405180910390fd5b6006600081548092919060010191905055506040518060800160405280600654815260200183815260200182815260200160008152506008600060065481526020019081526020016000206000820151816000015560208201518160010190805190602001906139939291906140a8565b5060408201518160020190805190602001906139b09291906140a8565b50606082015181600301559050507fc80d84d603620f36f0e23c87749890542fbe6208721d2fc986e0545713e68da46006548383604051808481526020018060200180602001838103835285818151815260200191508051906020019080838360005b83811015613a2e578082015181840152602081019050613a13565b50505050905090810190601f168015613a5b5780820380516001836020036101000a031916815260200191505b50838103825284818151815260200191508051906020019080838360005b83811015613a94578082015181840152602081019050613a79565b50505050905090810190601f168015613ac15780820380516001836020036101000a031916815260200191505b509550505050505060405180910390a15050565b600160009054906101000a900473ffffffffffffffffffffffffffffffffffffffff1673ffffffffffffffffffffffffffffffffffffffff163373ffffffffffffffffffffffffffffffffffffffff1614613b2f57600080fd5b6000865111613b3d57600080fd5b60008511613b4a57600080fd5b6000835111613b5857600080fd5b6000825111613b6657600080fd5b6000815111613b7457600080fd5b600060086000868152602001908152602001600020905060008160000154118015613ba55750600654816000015411155b613bae57600080fd5b6000600960008a8152602001908152602001600020905087816001019080519060200190613bdd929190613fa1565b5086816002018190555085816003018190555084816004019080519060200190613c08929190613fa1565b5083816005019080519060200190613c21929190613fa1565b5082816006019080519060200190613c3a929190613fa1565b50806009600060025481526020019081526020016000206000820154816000015560018201816001019080546001816001161561010002031660029004613c82929190614021565b50600282015481600201556003820154816003015560048201816004019080546001816001161561010002031660029004613cbe929190614021565b5060058201816005019080546001816001161561010002031660029004613ce6929190614021565b5060068201816006019080546001816001161561010002031660029004613d0e929190614021565b506007820160009054906101000a900460ff168160070160006101000a81548160ff0219169083151502179055506007820160019054906101000a900460ff168160070160016101000a81548160ff0219169083151502179055506007820160029054906101000a900460ff168160070160026101000a81548160ff0219169083151502179055509050507fa96fb91f542a05bd99b8aefd1c433d4d0401735ee76ee79ea91c06a8d78a2138600254898989898989604051808881526020018060200187815260200186815260200180602001806020018060200185810385528b818151815260200191508051906020019080838360005b83811015613e21578082015181840152602081019050613e06565b50505050905090810190601f168015613e4e5780820380516001836020036101000a031916815260200191505b50858103845288818151815260200191508051906020019080838360005b83811015613e87578082015181840152602081019050613e6c565b50505050905090810190601f168015613eb45780820380516001836020036101000a031916815260200191505b50858103835287818151815260200191508051906020019080838360005b83811015613eed578082015181840152602081019050613ed2565b50505050905090810190601f168015613f1a5780820380516001836020036101000a031916815260200191505b50858103825286818151815260200191508051906020019080838360005b83811015613f53578082015181840152602081019050613f38565b50505050905090810190601f168015613f805780820380516001836020036101000a031916815260200191505b509b50505050505050505050505060405180910390a1505050505050505050565b828054600181600116156101000203166002900490600052602060002090601f016020900481019282601f10613fe257805160ff1916838001178555614010565b82800160010185558215614010579182015b8281111561400f578251825591602001919060010190613ff4565b5b50905061401d9190614128565b5090565b828054600181600116156101000203166002900490600052602060002090601f016020900481019282601f1061405a5780548555614097565b8280016001018555821561409757600052602060002091601f016020900482015b8281111561409657825482559160010191906001019061407b565b5b5090506140a49190614128565b5090565b828054600181600116156101000203166002900490600052602060002090601f016020900481019282601f106140e957805160ff1916838001178555614117565b82800160010185558215614117579182015b828111156141165782518255916020019190600101906140fb565b5b5090506141249190614128565b5090565b61414a91905b8082111561414657600081600090555060010161412e565b5090565b9056fe61756374696f6e456e642068617320616c7265616479206265656e2063616c6c65642ea265627a7a723158202b56b21b2a007db718087fbe2191d89d160320a5fa0b2e1f2df8e68a311fe77764736f6c63430005100032",
  "source": "// pragma solidity ^0.5.0;\npragma solidity >=0.5.0 <0.9.0;\n\n/**\n * The AuctionHouse\n contract does this and that...\n */\n\ncontract AuctionHouse {\n\tstring public name;\n    address payable public owner;\n\tuint public productCount = 0;\n    uint public auctionCount = 0;\n    uint public productsOnAuction = 0;\n    uint public activeAuction = 0;\n    uint public artistCount = 0;\n    uint public donationsCount = 0;\n    mapping (uint => Artist) public artists;\n\tmapping(uint => Product) public products;\n    mapping(uint => Auction) public auctionList;\n    mapping(address => uint) public donations;\n\n\tstruct Product{\n        uint id_product;\n        string name;\n        uint price;\n        uint id_artist;\n        string category;\n        string description;\n        string image_hash;\n        bool purchased;\n        bool auction_started;\n        bool auction_ended;\n    }\n\n    struct Auction{\n        uint id_auction;\n        uint target_price;\n        uint auctionEndTime;\n        address payable highestBidder;\n        uint highestBid;\n        uint offerCount;\n        bool ended;\n        uint id_product;\n        mapping(address => uint) clients;\n    }\n\n    struct Artist{\n        uint id_artist;\n        string artist_name;\n        string details;\n        uint amount_collected;\n    }\n\n    event ProductCreated(\n        uint id_product,\n        string name,\n        uint price,\n        uint id_artist,\n        string category,\n        string description,\n        string image_hash\n    );\n\n    event ProductUpdated(\n        uint id_product,\n        string name,\n        uint price,\n        uint id_artist,\n        string category,\n        string description,\n        string image_hash\n    );\n\n    event ProductSold(\n        uint id_product,\n        string name,\n        uint price,\n        uint id_artist,\n        string category,\n        string description,\n        string image_hash,\n        bool purchased,\n        uint priceSold,\n        address payable winner\n    );\n\n    event ArtistCreated(\n        uint id_artist,\n        string artist_name,\n        string details\n    );\n\n    event ArtistUpdated(\n        uint id_artist,\n        string artist_name,\n        string details\n    );\n\n    event IncreasedDonation(\n        uint id_artist,\n        string artist_name,\n        uint amount\n    );\n\n    event AuctionCreated(\n        uint id_auction,\n        uint target_price,\n        uint auctionEndTime,\n        uint id_product\n    );\n\n    event AuctionUpdated(\n        uint id_auction,\n        uint target_price,\n        uint auctionEndTime,\n        address payable highestBidder,\n        uint highestBid,\n        uint offerCount,\n        bool ended,\n        uint id_product\n    );\n\n    event HighestBidIncreased(\n        address payable bidder, \n        uint amount\n    );\n\n    event AuctionEnded(\n        address payable winner, \n        uint amount\n    );\n    \n\n\tconstructor() public {\n\t\tname = \"Auction House of Art\";\n        owner = msg.sender;\n\t}\n\n    function createArtist (string memory _name, string memory _details) public {\n        require(bytes(_name).length > 0, \"name too short\");\n        require(bytes(_details).length > 0, \"empty details\");\n        artistCount++;\n        artists[artistCount] = Artist(artistCount, _name, _details, 0);\n        emit ArtistCreated(artistCount, _name, _details);\n    }\n\n    function editArtist (uint _id, string memory _name, string memory _details) public {\n        require(bytes(_name).length > 0);\n        require(bytes(_details).length > 0);\n        Artist storage _artist = artists[_id];\n        _artist.artist_name= _name;\n        _artist.details = _details;\n        artists[_id] = _artist;\n        emit ArtistUpdated(_id, _name, _details);\n    }\n\n\tfunction createProduct (string memory _name, uint _price, uint _id_artist, string memory _category, string memory _description, string memory _imageHash) public {\n        require(msg.sender == owner);\n        require(bytes(_name).length > 0);\n        require(_price > 0);\n        require(bytes(_category).length > 0);\n        require(bytes(_description).length > 0);\n        require(bytes(_imageHash).length > 0);\n\t\tproductCount++;\n        productsOnAuction++;\n        products[productCount] = Product(productCount, _name, _price, _id_artist, _category, _description, _imageHash, false, false, false);\n\t\temit ProductCreated(productCount, _name, _price, _id_artist, _category, _description, _imageHash);\n\t}\n\n    function editProduct (uint _id, string memory _name, uint _price, uint id_artist, string memory _category, string memory _description, string memory _imageHash) public {\n        require(msg.sender == owner);\n        require(bytes(_name).length > 0);\n        require(_price > 0);\n        require(bytes(_category).length > 0);\n        require(bytes(_description).length > 0);\n        require(bytes(_imageHash).length > 0);\n        Artist storage _artist = artists[id_artist];\n        require(_artist.id_artist > 0 && _artist.id_artist <= artistCount);\n        Product storage _product = products[_id];\n        _product.name= _name;\n        _product.price = _price;\n        _product.id_artist = id_artist;\n        _product.category = _category;\n        _product.description = _description;\n        _product.image_hash = _imageHash;\n        products[productCount] = _product;\n        emit ProductUpdated(productCount, _name, _price, id_artist, _category, _description, _imageHash);\n    }\n\n    function deleteProduct (uint _id_product) public {\n        Product storage _product = products[_id_product];\n        require(_product.id_product > 0 && _product.id_product <= productCount, \"Product not found\");\n        _product.purchased = true;\n        products[_id_product] = _product;\n        productsOnAuction--;\n        if(_product.auction_started){\n            activeAuction--;\n        }\n        emit ProductSold(_product.id_product, _product.name, _product.price, _product.id_artist, _product.category, _product.description, _product.image_hash, _product.purchased, 0, address(0));\n    }\n\n    function createAuction (uint _id) public {\n        Product storage _product = products[_id];\n        require(_product.id_product > 0 && _product.id_product <= productCount);\n        require(msg.sender == owner);\n        _product.auction_started = true;\n        auctionCount++;\n        activeAuction++;\n        uint endTime = now + 1 hours;\n        uint target_price = _product.price * 2;\n        products[_id] = _product;\n        auctionList[auctionCount] = Auction(auctionCount, target_price, endTime, address(0), 0, 0, false, _product.id_product);\n        emit AuctionCreated(auctionCount, target_price, endTime, _product.id_product);\n    }\n\n    function editAuction (uint _id, uint _target_price) public{\n        Auction storage _auction = auctionList[_id];\n        require(_auction.id_auction > 0 && _auction.id_auction <= auctionCount, \"Auction not found\");\n        _auction.target_price = _target_price;\n        auctionList[_id] = _auction;\n        emit AuctionUpdated(_id, _auction.target_price, _auction.auctionEndTime, _auction.highestBidder, _auction.highestBid, _auction.offerCount, _auction.ended, _auction.id_product);\n    }\n\n    function bid (uint auction_id, uint bid_value, uint product_id) public payable {\n        Product storage _product = products[product_id];\n        require(_product.id_product > 0 && _product.id_product <= productCount, \"Product not found\");\n        Auction storage _auction = auctionList[auction_id];\n        require(_auction.id_auction > 0 && _auction.id_auction <= auctionCount, \"Auction not found\");\n        require(block.timestamp <= _auction.auctionEndTime, \"Auction ended\");\n        require(msg.sender != owner, \"Owner!!!\");\n        require(bid_value > _auction.highestBid, \"Value too little\");\n        if (_auction.highestBid >= _product.price){\n            _auction.clients[_auction.highestBidder] = _auction.highestBid;\n        }        \n        _auction.offerCount += 1;\n        _auction.highestBidder = msg.sender;\n        _auction.highestBid = bid_value;\n        auctionList[auction_id] = _auction;\n        emit AuctionUpdated(auction_id, _auction.target_price, _auction.auctionEndTime, msg.sender, bid_value, _auction.offerCount, _auction.ended, product_id);\n        emit HighestBidIncreased(msg.sender, bid_value);\n        // if(bid_value >= _auction.target_price){\n        //     auctionEnd(auction_id);\n        // }\n    }\n\n    function donation (uint value, uint artist_id) public payable {\n        Artist storage _artist = artists[artist_id];\n        require (value > 0);\n        if(donations[msg.sender]==0){\n            donationsCount++;\n        }\n        donations[msg.sender] += value;\n        _artist.amount_collected += value;\n        address(msg.sender).transfer(msg.value);\n        emit IncreasedDonation(artist_id, _artist.artist_name, msg.value);\n    }\n    \n\n\n    function auctionEnd(uint _id) public payable {\n\n        Auction storage _auction = auctionList[_id];\n        require(_auction.id_auction > 0 && _auction.id_auction <= auctionCount);\n        require(!_auction.ended, \"auctionEnd has already been called.\");\n\n        Product storage _product = products[_auction.id_product];\n        require(_product.id_product > 0 && _product.id_product <= productCount);\n        require(!_product.purchased);\n\n        if(_auction.offerCount==0){\n            _product.purchased = false;\n        }\n        else{\n            _product.purchased = true;\n        }\n        \n        _product.auction_ended = true;\n        _auction.ended = true;\n        productsOnAuction--;\n        activeAuction--;\n\n        // uint bid_value = _auction.highestBid;\n        address payable sender = _auction.highestBidder;\n        address(sender).transfer(msg.value);\n        // address(owner).transfer(msg.value);\n        auctionList[_id] = _auction;\n        products[_auction.id_product] = _product;\n        emit AuctionEnded(_auction.highestBidder, _auction.highestBid);\n        // emit AuctionUpdated(_auction.id_auction, _auction.auctionEndTime, _auction.highestBidder, _auction.highestBid, _auction.offerCount, _auction.ended, _auction.id_product);\n        emit ProductSold(_product.id_product, _product.name, _product.price, _product.id_artist, _product.category, _product.description, _product.image_hash, _product.purchased, _auction.highestBid, _auction.highestBidder);\n\n    }\n    \n    \n}\n",
  "sourcePath": "/Users/alexandrazambitchi/Desktop/licenta/licitatie2/src/contracts/AuctionHouse.sol",
  "compiler": {
    "name": "solc",
    "version": "0.5.16+commit.9c3226ce.Emscripten.clang"
  },
  "schemaVersion": "3.4.1",
  "updatedAt": "2021-06-02T14:56:05.161Z",
  "networkType": "ethereum",
  "devdoc": {
    "methods": {}
  },
  "userdoc": {
    "methods": {},
    "notice": "The AuctionHouse contract does this and that..."
  }
}