{
  "contractName": "AuctionHouse",
  "abi": [
    {
      "inputs": [],
      "payable": false,
      "stateMutability": "nonpayable",
      "type": "constructor"
    },
    {
      "anonymous": false,
      "inputs": [
        {
          "indexed": false,
          "internalType": "uint256",
          "name": "id_auction",
          "type": "uint256"
        },
        {
          "indexed": false,
          "internalType": "address payable",
          "name": "beneficiary",
          "type": "address"
        },
        {
          "indexed": false,
          "internalType": "uint256",
          "name": "auctionEndTime",
          "type": "uint256"
        },
        {
          "indexed": false,
          "internalType": "address",
          "name": "highestBidder",
          "type": "address"
        },
        {
          "indexed": false,
          "internalType": "uint256",
          "name": "highestBid",
          "type": "uint256"
        },
        {
          "indexed": false,
          "internalType": "uint256",
          "name": "clientCount",
          "type": "uint256"
        },
        {
          "indexed": false,
          "internalType": "bool",
          "name": "ended",
          "type": "bool"
        },
        {
          "indexed": false,
          "internalType": "uint256",
          "name": "id_product",
          "type": "uint256"
        }
      ],
      "name": "AuctionCreated",
      "type": "event"
    },
    {
      "anonymous": false,
      "inputs": [
        {
          "indexed": false,
          "internalType": "address",
          "name": "winner",
          "type": "address"
        },
        {
          "indexed": false,
          "internalType": "uint256",
          "name": "amount",
          "type": "uint256"
        }
      ],
      "name": "AuctionEnded",
      "type": "event"
    },
    {
      "anonymous": false,
      "inputs": [
        {
          "indexed": false,
          "internalType": "uint256",
          "name": "id_auction",
          "type": "uint256"
        },
        {
          "indexed": false,
          "internalType": "address payable",
          "name": "beneficiary",
          "type": "address"
        },
        {
          "indexed": false,
          "internalType": "uint256",
          "name": "auctionEndTime",
          "type": "uint256"
        },
        {
          "indexed": false,
          "internalType": "address",
          "name": "highestBidder",
          "type": "address"
        },
        {
          "indexed": false,
          "internalType": "uint256",
          "name": "highestBid",
          "type": "uint256"
        },
        {
          "indexed": false,
          "internalType": "uint256",
          "name": "clientCount",
          "type": "uint256"
        },
        {
          "indexed": false,
          "internalType": "bool",
          "name": "ended",
          "type": "bool"
        },
        {
          "indexed": false,
          "internalType": "uint256",
          "name": "id_product",
          "type": "uint256"
        }
      ],
      "name": "AuctionUpdated",
      "type": "event"
    },
    {
      "anonymous": false,
      "inputs": [
        {
          "indexed": false,
          "internalType": "address",
          "name": "bidder",
          "type": "address"
        },
        {
          "indexed": false,
          "internalType": "uint256",
          "name": "amount",
          "type": "uint256"
        }
      ],
      "name": "HighestBidIncreased",
      "type": "event"
    },
    {
      "anonymous": false,
      "inputs": [
        {
          "indexed": false,
          "internalType": "uint256",
          "name": "id_client",
          "type": "uint256"
        },
        {
          "indexed": false,
          "internalType": "string",
          "name": "name",
          "type": "string"
        },
        {
          "indexed": false,
          "internalType": "address payable",
          "name": "client_address",
          "type": "address"
        },
        {
          "indexed": false,
          "internalType": "uint256",
          "name": "bid_value",
          "type": "uint256"
        }
      ],
      "name": "NewClient",
      "type": "event"
    },
    {
      "anonymous": false,
      "inputs": [
        {
          "indexed": false,
          "internalType": "uint256",
          "name": "id_product",
          "type": "uint256"
        },
        {
          "indexed": false,
          "internalType": "string",
          "name": "name",
          "type": "string"
        },
        {
          "indexed": false,
          "internalType": "uint256",
          "name": "price",
          "type": "uint256"
        },
        {
          "indexed": false,
          "internalType": "string",
          "name": "artist_name",
          "type": "string"
        },
        {
          "indexed": false,
          "internalType": "address payable",
          "name": "owner",
          "type": "address"
        },
        {
          "indexed": false,
          "internalType": "bool",
          "name": "purchased",
          "type": "bool"
        }
      ],
      "name": "ProductCreated",
      "type": "event"
    },
    {
      "anonymous": false,
      "inputs": [
        {
          "indexed": false,
          "internalType": "uint256",
          "name": "id_product",
          "type": "uint256"
        },
        {
          "indexed": false,
          "internalType": "string",
          "name": "name",
          "type": "string"
        },
        {
          "indexed": false,
          "internalType": "uint256",
          "name": "price",
          "type": "uint256"
        },
        {
          "indexed": false,
          "internalType": "string",
          "name": "artist_name",
          "type": "string"
        },
        {
          "indexed": false,
          "internalType": "address payable",
          "name": "owner",
          "type": "address"
        },
        {
          "indexed": false,
          "internalType": "bool",
          "name": "purchased",
          "type": "bool"
        }
      ],
      "name": "ProductPurchased",
      "type": "event"
    },
    {
      "constant": true,
      "inputs": [],
      "name": "auctionCount",
      "outputs": [
        {
          "internalType": "uint256",
          "name": "",
          "type": "uint256"
        }
      ],
      "payable": false,
      "stateMutability": "view",
      "type": "function"
    },
    {
      "constant": true,
      "inputs": [
        {
          "internalType": "uint256",
          "name": "",
          "type": "uint256"
        }
      ],
      "name": "auctionList",
      "outputs": [
        {
          "internalType": "uint256",
          "name": "id_auction",
          "type": "uint256"
        },
        {
          "internalType": "address payable",
          "name": "beneficiary",
          "type": "address"
        },
        {
          "internalType": "uint256",
          "name": "auctionEndTime",
          "type": "uint256"
        },
        {
          "internalType": "address",
          "name": "highestBidder",
          "type": "address"
        },
        {
          "internalType": "uint256",
          "name": "highestBid",
          "type": "uint256"
        },
        {
          "internalType": "uint256",
          "name": "clientCount",
          "type": "uint256"
        },
        {
          "internalType": "bool",
          "name": "ended",
          "type": "bool"
        },
        {
          "internalType": "uint256",
          "name": "id_product",
          "type": "uint256"
        }
      ],
      "payable": false,
      "stateMutability": "view",
      "type": "function"
    },
    {
      "constant": true,
      "inputs": [],
      "name": "name",
      "outputs": [
        {
          "internalType": "string",
          "name": "",
          "type": "string"
        }
      ],
      "payable": false,
      "stateMutability": "view",
      "type": "function"
    },
    {
      "constant": true,
      "inputs": [],
      "name": "productCount",
      "outputs": [
        {
          "internalType": "uint256",
          "name": "",
          "type": "uint256"
        }
      ],
      "payable": false,
      "stateMutability": "view",
      "type": "function"
    },
    {
      "constant": true,
      "inputs": [
        {
          "internalType": "uint256",
          "name": "",
          "type": "uint256"
        }
      ],
      "name": "products",
      "outputs": [
        {
          "internalType": "uint256",
          "name": "id_product",
          "type": "uint256"
        },
        {
          "internalType": "string",
          "name": "name",
          "type": "string"
        },
        {
          "internalType": "uint256",
          "name": "price",
          "type": "uint256"
        },
        {
          "internalType": "string",
          "name": "artist_name",
          "type": "string"
        },
        {
          "internalType": "address payable",
          "name": "owner",
          "type": "address"
        },
        {
          "internalType": "bool",
          "name": "purchased",
          "type": "bool"
        }
      ],
      "payable": false,
      "stateMutability": "view",
      "type": "function"
    },
    {
      "constant": false,
      "inputs": [
        {
          "internalType": "string",
          "name": "_name",
          "type": "string"
        },
        {
          "internalType": "uint256",
          "name": "_price",
          "type": "uint256"
        },
        {
          "internalType": "string",
          "name": "_artist",
          "type": "string"
        }
      ],
      "name": "createProduct",
      "outputs": [],
      "payable": false,
      "stateMutability": "nonpayable",
      "type": "function"
    },
    {
      "constant": false,
      "inputs": [
        {
          "internalType": "uint256",
          "name": "_id",
          "type": "uint256"
        }
      ],
      "name": "createAuction",
      "outputs": [],
      "payable": false,
      "stateMutability": "nonpayable",
      "type": "function"
    },
    {
      "constant": false,
      "inputs": [
        {
          "internalType": "uint256",
          "name": "product_id",
          "type": "uint256"
        },
        {
          "internalType": "string",
          "name": "clientName",
          "type": "string"
        }
      ],
      "name": "bid",
      "outputs": [],
      "payable": true,
      "stateMutability": "payable",
      "type": "function"
    },
    {
      "constant": false,
      "inputs": [
        {
          "internalType": "uint256",
          "name": "auction_id",
          "type": "uint256"
        }
      ],
      "name": "withdraw",
      "outputs": [
        {
          "internalType": "bool",
          "name": "",
          "type": "bool"
        }
      ],
      "payable": false,
      "stateMutability": "nonpayable",
      "type": "function"
    },
    {
      "constant": false,
      "inputs": [
        {
          "internalType": "uint256",
          "name": "_id_auction",
          "type": "uint256"
        }
      ],
      "name": "auctionEnd",
      "outputs": [],
      "payable": false,
      "stateMutability": "nonpayable",
      "type": "function"
    }
  ],
  "bytecode": "0x6080604052600060015560006002553480156200001b57600080fd5b506040518060400160405280601481526020017f41756374696f6e20486f757365206f6620417274000000000000000000000000815250600090805190602001906200006992919062000070565b506200011f565b828054600181600116156101000203166002900490600052602060002090601f016020900481019282601f10620000b357805160ff1916838001178555620000e4565b82800160010185558215620000e4579182015b82811115620000e3578251825591602001919060010190620000c6565b5b509050620000f39190620000f7565b5090565b6200011c91905b8082111562000118576000816000905550600101620000fe565b5090565b90565b611c1f806200012f6000396000f3fe6080604052600436106100915760003560e01c8063669c008311610059578063669c0083146102a45780637acc0b2014610380578063d5563f31146104ec578063e0f6ef8714610527578063ff38ec0f1461055257610091565b806306fdde03146100965780630fc55fd1146101265780632ad71573146101eb5780632e1a7d4d1461021657806332246e9f14610269575b600080fd5b3480156100a257600080fd5b506100ab6106bb565b6040518080602001828103825283818151815260200191508051906020019080838360005b838110156100eb5780820151818401526020810190506100d0565b50505050905090810190601f1680156101185780820380516001836020036101000a031916815260200191505b509250505060405180910390f35b6101e96004803603604081101561013c57600080fd5b81019080803590602001909291908035906020019064010000000081111561016357600080fd5b82018360208201111561017557600080fd5b8035906020019184600183028401116401000000008311171561019757600080fd5b91908080601f016020809104026020016040519081016040528093929190818152602001838380828437600081840152601f19601f820116905080830192505050505050509192919290505050610759565b005b3480156101f757600080fd5b50610200610c46565b6040518082815260200191505060405180910390f35b34801561022257600080fd5b5061024f6004803603602081101561023957600080fd5b8101908080359060200190929190505050610c4c565b604051808215151515815260200191505060405180910390f35b34801561027557600080fd5b506102a26004803603602081101561028c57600080fd5b8101908080359060200190929190505050610d91565b005b3480156102b057600080fd5b506102dd600480360360208110156102c757600080fd5b810190808035906020019092919050505061129f565b604051808981526020018873ffffffffffffffffffffffffffffffffffffffff1673ffffffffffffffffffffffffffffffffffffffff1681526020018781526020018673ffffffffffffffffffffffffffffffffffffffff1673ffffffffffffffffffffffffffffffffffffffff168152602001858152602001848152602001831515151581526020018281526020019850505050505050505060405180910390f35b34801561038c57600080fd5b506103b9600480360360208110156103a357600080fd5b8101908080359060200190929190505050611334565b6040518087815260200180602001868152602001806020018573ffffffffffffffffffffffffffffffffffffffff1673ffffffffffffffffffffffffffffffffffffffff16815260200184151515158152602001838103835288818151815260200191508051906020019080838360005b8381101561044557808201518184015260208101905061042a565b50505050905090810190601f1680156104725780820380516001836020036101000a031916815260200191505b50838103825286818151815260200191508051906020019080838360005b838110156104ab578082015181840152602081019050610490565b50505050905090810190601f1680156104d85780820380516001836020036101000a031916815260200191505b509850505050505050505060405180910390f35b3480156104f857600080fd5b506105256004803603602081101561050f57600080fd5b81019080803590602001909291905050506114cd565b005b34801561053357600080fd5b5061053c611764565b6040518082815260200191505060405180910390f35b34801561055e57600080fd5b506106b96004803603606081101561057557600080fd5b810190808035906020019064010000000081111561059257600080fd5b8201836020820111156105a457600080fd5b803590602001918460018302840111640100000000831117156105c657600080fd5b91908080601f016020809104026020016040519081016040528093929190818152602001838380828437600081840152601f19601f820116905080830192505050505050509192919290803590602001909291908035906020019064010000000081111561063357600080fd5b82018360208201111561064557600080fd5b8035906020019184600183028401116401000000008311171561066757600080fd5b91908080601f016020809104026020016040519081016040528093929190818152602001838380828437600081840152601f19601f82011690508083019250505050505050919291929050505061176a565b005b60008054600181600116156101000203166002900480601f0160208091040260200160405190810160405280929190818152602001828054600181600116156101000203166002900480156107515780601f1061072657610100808354040283529160200191610751565b820191906000526020600020905b81548152906001019060200180831161073457829003601f168201915b505050505081565b60006003600084815260200190815260200160002090506000816000015411801561078a5750600154816000015411155b61079357600080fd5b600060046000858152602001908152602001600020905080600201544211156107bb57600080fd5b806004015434116107cb57600080fd5b8060010160009054906101000a900473ffffffffffffffffffffffffffffffffffffffff1673ffffffffffffffffffffffffffffffffffffffff163373ffffffffffffffffffffffffffffffffffffffff16141561082857600080fd5b60008160040154146109265780600401548160080160008360030160009054906101000a900473ffffffffffffffffffffffffffffffffffffffff1673ffffffffffffffffffffffffffffffffffffffff1673ffffffffffffffffffffffffffffffffffffffff16815260200190815260200160002060008282540192505081905550828160090160008360030160009054906101000a900473ffffffffffffffffffffffffffffffffffffffff1673ffffffffffffffffffffffffffffffffffffffff1673ffffffffffffffffffffffffffffffffffffffff1681526020019081526020016000209080519060200190610924929190611a1b565b505b60018160050160008282540192505081905550338160030160006101000a81548173ffffffffffffffffffffffffffffffffffffffff021916908373ffffffffffffffffffffffffffffffffffffffff1602179055503481600401819055508060046000868152602001908152602001600020600082015481600001556001820160009054906101000a900473ffffffffffffffffffffffffffffffffffffffff168160010160006101000a81548173ffffffffffffffffffffffffffffffffffffffff021916908373ffffffffffffffffffffffffffffffffffffffff160217905550600282015481600201556003820160009054906101000a900473ffffffffffffffffffffffffffffffffffffffff168160030160006101000a81548173ffffffffffffffffffffffffffffffffffffffff021916908373ffffffffffffffffffffffffffffffffffffffff16021790555060048201548160040155600582015481600501556006820160009054906101000a900460ff168160060160006101000a81548160ff021916908315150217905550600782015481600701559050507ff8e69c354a0fc4d3cd09c855e21097d86257d129f836d351affbaae8d55ee17781600001548260010160009054906101000a900473ffffffffffffffffffffffffffffffffffffffff168360020154333486600501548760060160009054906101000a900460ff168b604051808981526020018873ffffffffffffffffffffffffffffffffffffffff1673ffffffffffffffffffffffffffffffffffffffff1681526020018781526020018673ffffffffffffffffffffffffffffffffffffffff1673ffffffffffffffffffffffffffffffffffffffff168152602001858152602001848152602001831515151581526020018281526020019850505050505050505060405180910390a17ff4757a49b326036464bec6fe419a4ae38c8a02ce3e68bf0809674f6aab8ad3003334604051808373ffffffffffffffffffffffffffffffffffffffff1673ffffffffffffffffffffffffffffffffffffffff1681526020018281526020019250505060405180910390a150505050565b60025481565b60008060046000848152602001908152602001600020905060008160080160003373ffffffffffffffffffffffffffffffffffffffff1673ffffffffffffffffffffffffffffffffffffffff1681526020019081526020016000205490506000811115610d855760008260080160003373ffffffffffffffffffffffffffffffffffffffff1673ffffffffffffffffffffffffffffffffffffffff168152602001908152602001600020819055503373ffffffffffffffffffffffffffffffffffffffff166108fc829081150290604051600060405180830381858888f19350505050610d8457808260080160003373ffffffffffffffffffffffffffffffffffffffff1673ffffffffffffffffffffffffffffffffffffffff16815260200190815260200160002081905550600092505050610d8c565b5b6001925050505b919050565b600060046000838152602001908152602001600020905060008160000154118015610dc25750600254816000015411155b610dcb57600080fd5b8060020154421015610e45576040517f08c379a00000000000000000000000000000000000000000000000000000000081526004018080602001828103825260168152602001807f41756374696f6e206e6f742079657420656e6465642e0000000000000000000081525060200191505060405180910390fd5b8060060160009054906101000a900460ff1615610ead576040517f08c379a0000000000000000000000000000000000000000000000000000000008152600401808060200182810382526023815260200180611bc86023913960400191505060405180910390fd5b60018160060160006101000a81548160ff0219169083151502179055508060046000848152602001908152602001600020600082015481600001556001820160009054906101000a900473ffffffffffffffffffffffffffffffffffffffff168160010160006101000a81548173ffffffffffffffffffffffffffffffffffffffff021916908373ffffffffffffffffffffffffffffffffffffffff160217905550600282015481600201556003820160009054906101000a900473ffffffffffffffffffffffffffffffffffffffff168160030160006101000a81548173ffffffffffffffffffffffffffffffffffffffff021916908373ffffffffffffffffffffffffffffffffffffffff16021790555060048201548160040155600582015481600501556006820160009054906101000a900460ff168160060160006101000a81548160ff02191690831515021790555060078201548160070155905050600060036000836007015481526020019081526020016000209050600081600001541180156110435750600154816000015411155b61104c57600080fd5b8060040160149054906101000a900460ff161561106857600080fd5b60018160040160146101000a81548160ff02191690831515021790555080600360008460070154815260200190815260200160002060008201548160000155600182018160010190805460018160011615610100020316600290046110ce929190611a9b565b506002820154816002015560038201816003019080546001816001161561010002031660029004611100929190611a9b565b506004820160009054906101000a900473ffffffffffffffffffffffffffffffffffffffff168160040160006101000a81548173ffffffffffffffffffffffffffffffffffffffff021916908373ffffffffffffffffffffffffffffffffffffffff1602179055506004820160149054906101000a900460ff168160040160146101000a81548160ff0219169083151502179055509050507fdaec4582d5d9595688c8c98545fdd1c696d41c6aeaeb636737e84ed2f5c00eda8260030160009054906101000a900473ffffffffffffffffffffffffffffffffffffffff168360040154604051808373ffffffffffffffffffffffffffffffffffffffff1673ffffffffffffffffffffffffffffffffffffffff1681526020018281526020019250505060405180910390a18160010160009054906101000a900473ffffffffffffffffffffffffffffffffffffffff1673ffffffffffffffffffffffffffffffffffffffff166108fc83600401549081150290604051600060405180830381858888f19350505050158015611299573d6000803e3d6000fd5b50505050565b60046020528060005260406000206000915090508060000154908060010160009054906101000a900473ffffffffffffffffffffffffffffffffffffffff16908060020154908060030160009054906101000a900473ffffffffffffffffffffffffffffffffffffffff16908060040154908060050154908060060160009054906101000a900460ff16908060070154905088565b6003602052806000526040600020600091509050806000015490806001018054600181600116156101000203166002900480601f0160208091040260200160405190810160405280929190818152602001828054600181600116156101000203166002900480156113e65780601f106113bb576101008083540402835291602001916113e6565b820191906000526020600020905b8154815290600101906020018083116113c957829003601f168201915b505050505090806002015490806003018054600181600116156101000203166002900480601f01602080910402602001604051908101604052809291908181526020018280546001816001161561010002031660029004801561148a5780601f1061145f5761010080835404028352916020019161148a565b820191906000526020600020905b81548152906001019060200180831161146d57829003601f168201915b5050505050908060040160009054906101000a900473ffffffffffffffffffffffffffffffffffffffff16908060040160149054906101000a900460ff16905086565b6000600360008381526020019081526020016000209050600081600001541180156114fe5750600154816000015411155b61150757600080fd5b6002600081548092919060010191905055506000621a5e004201905060405180610100016040528060025481526020013373ffffffffffffffffffffffffffffffffffffffff1681526020018281526020013373ffffffffffffffffffffffffffffffffffffffff168152602001600081526020016000815260200160001515815260200183600001548152506004600060025481526020019081526020016000206000820151816000015560208201518160010160006101000a81548173ffffffffffffffffffffffffffffffffffffffff021916908373ffffffffffffffffffffffffffffffffffffffff1602179055506040820151816002015560608201518160030160006101000a81548173ffffffffffffffffffffffffffffffffffffffff021916908373ffffffffffffffffffffffffffffffffffffffff1602179055506080820151816004015560a0820151816005015560c08201518160060160006101000a81548160ff02191690831515021790555060e082015181600701559050507f0da45b3b18080287d7fbb9c86053a27abc62ad0670b64f78174db23d9d2ff6a360025433833360008060008960000154604051808981526020018873ffffffffffffffffffffffffffffffffffffffff1673ffffffffffffffffffffffffffffffffffffffff1681526020018781526020018673ffffffffffffffffffffffffffffffffffffffff1673ffffffffffffffffffffffffffffffffffffffff168152602001858152602001848152602001831515151581526020018281526020019850505050505050505060405180910390a1505050565b60015481565b600083511161177857600080fd5b6000821161178557600080fd5b600081511161179357600080fd5b6001600081548092919060010191905055506040518060c0016040528060015481526020018481526020018381526020018281526020013373ffffffffffffffffffffffffffffffffffffffff16815260200160001515815250600360006001548152602001908152602001600020600082015181600001556020820151816001019080519060200190611828929190611b22565b5060408201518160020155606082015181600301908051906020019061184f929190611b22565b5060808201518160040160006101000a81548173ffffffffffffffffffffffffffffffffffffffff021916908373ffffffffffffffffffffffffffffffffffffffff16021790555060a08201518160040160146101000a81548160ff0219169083151502179055509050507f61ecd7a78d5a27ec4cdfb40c88af4af98e472ef75dce549e20a169b2fe9f6a2f6001548484843360006040518087815260200180602001868152602001806020018573ffffffffffffffffffffffffffffffffffffffff1673ffffffffffffffffffffffffffffffffffffffff16815260200184151515158152602001838103835288818151815260200191508051906020019080838360005b83811015611970578082015181840152602081019050611955565b50505050905090810190601f16801561199d5780820380516001836020036101000a031916815260200191505b50838103825286818151815260200191508051906020019080838360005b838110156119d65780820151818401526020810190506119bb565b50505050905090810190601f168015611a035780820380516001836020036101000a031916815260200191505b509850505050505050505060405180910390a1505050565b828054600181600116156101000203166002900490600052602060002090601f016020900481019282601f10611a5c57805160ff1916838001178555611a8a565b82800160010185558215611a8a579182015b82811115611a89578251825591602001919060010190611a6e565b5b509050611a979190611ba2565b5090565b828054600181600116156101000203166002900490600052602060002090601f016020900481019282601f10611ad45780548555611b11565b82800160010185558215611b1157600052602060002091601f016020900482015b82811115611b10578254825591600101919060010190611af5565b5b509050611b1e9190611ba2565b5090565b828054600181600116156101000203166002900490600052602060002090601f016020900481019282601f10611b6357805160ff1916838001178555611b91565b82800160010185558215611b91579182015b82811115611b90578251825591602001919060010190611b75565b5b509050611b9e9190611ba2565b5090565b611bc491905b80821115611bc0576000816000905550600101611ba8565b5090565b9056fe61756374696f6e456e642068617320616c7265616479206265656e2063616c6c65642ea265627a7a72315820b94a63c2e1de0838f75fcff8f75813ae56a76e53a683799e81e981e1483fa96c64736f6c63430005100032",
  "source": "pragma solidity ^0.5.0;\n// pragma solidity >=0.7.0 <0.9.0;\n\n/**\n * The AuctionHouse\n contract does this and that...\n */\n\ncontract AuctionHouse {\n\tstring public name;\n\tuint public productCount = 0;\n    uint public auctionCount = 0;\n\tmapping(uint => Product) public products;\n    mapping(uint => Auction) public auctionList;\n    \n\n\tstruct Product{\n        uint id_product;\n        string name;\n        uint price;\n        string artist_name;\n        address payable owner;\n        bool purchased;\n        // uint id_auction;\n    }\n\n    // struct Client{\n    //     uint id_client;\n    //     string name;\n    //     address payable client_address;\n    //     uint bid_value;\n    //     // uint auction_id;\n    // }\n\n    struct Auction{\n        uint id_auction;\n        address payable beneficiary;\n        uint auctionEndTime;\n        address highestBidder;\n        uint highestBid;\n        uint clientCount;\n        bool ended;\n        uint id_product;\n        mapping(address => uint) clients;\n        mapping(address => string) clientNames;\n    }\n\n    event ProductCreated(\n        uint id_product,\n        string name,\n        uint price,\n        string artist_name,\n        address payable owner,\n        bool purchased\n    );\n\n    event ProductPurchased(\n        uint id_product,\n        string name,\n        uint price,\n        string artist_name,\n\t\taddress payable owner,\n        bool purchased\n    );\n\n    event AuctionCreated(\n        uint id_auction,\n        address payable beneficiary,\n        uint auctionEndTime,\n        address highestBidder,\n        uint highestBid,\n        uint clientCount,\n        bool ended,\n        uint id_product\n    );\n\n    event AuctionUpdated(\n        uint id_auction,\n        address payable beneficiary,\n        uint auctionEndTime,\n        address highestBidder,\n        uint highestBid,\n        uint clientCount,\n        bool ended,\n        uint id_product\n    );\n\n    event NewClient(\n        uint id_client,\n        string name,\n        address payable client_address,\n        uint bid_value\n    );\n\n    event HighestBidIncreased(\n        address bidder, \n        uint amount\n    );\n\n    event AuctionEnded(\n        address winner, \n        uint amount\n    );\n    \n\n\tconstructor() public {\n\t\tname = \"Auction House of Art\";\n\t}\n\n\tfunction createProduct (string memory _name, uint _price, string memory _artist) public {\n\t\trequire(bytes(_name).length > 0);\n        require(_price > 0);\n        require (bytes(_artist).length > 0);\n\t\tproductCount++;\n        products[productCount] = Product(productCount, _name,_price, _artist, msg.sender, false);\n\t\temit ProductCreated(productCount, _name,_price, _artist, msg.sender, false);\n\t}\n\n\t// function purchaseProduct(uint _id) public payable {\n //        // Fetch the product\n //        Product storage _product = products[_id];\n //        address payable _seller = _product.owner;\n //        // Make sure the product has a valid id\n //        require(_product.id_product > 0 && _product.id_product <= productCount);\n //        // Require that there is enough Ether in the transaction\n //        require(msg.value >= _product.price);\n //        // Require that the product has not been purchased already\n //        require(!_product.purchased);\n //        // Mark as purchased\n //        _product.purchased = true;\n //        // Update the product\n //        products[_id] = _product;\n //        // Pay the seller by sending them Ether\n //        address(_seller).transfer(msg.value);\n //        // Trigger an event\n //        emit ProductPurchased(productCount, _product.name, _product.price, _product.artist_name, msg.sender, true);\n //    }\n\n    function createAuction (uint _id) public {\n        Product storage _product = products[_id];\n        require(_product.id_product > 0 && _product.id_product <= productCount);\n        auctionCount++;\n        uint endTime = now + 20 days;\n        auctionList[auctionCount] = Auction(auctionCount, msg.sender, endTime, msg.sender, 0, 0, false, _product.id_product);\n        emit AuctionCreated(auctionCount, msg.sender, endTime, msg.sender, 0, 0, false, _product.id_product);\n    }\n\n    function bid(uint product_id, string memory clientName) public payable {\n        Product storage _product = products[product_id];\n        require(_product.id_product > 0 && _product.id_product <= productCount);\n        // Product storage _product\n        // uint auction_id = auctionList[product_id];\n        Auction storage _auction = auctionList[product_id];\n        require(block.timestamp <= _auction.auctionEndTime);\n        require(msg.value > _auction.highestBid);\n        require (msg.sender != _auction.beneficiary);\n        \n        if (_auction.highestBid != 0){\n            _auction.clients[_auction.highestBidder] += _auction.highestBid;\n            _auction.clientNames[_auction.highestBidder] = clientName;\n        }\n        _auction.clientCount += 1;\n        _auction.highestBidder = msg.sender;\n        _auction.highestBid = msg.value;\n        auctionList[product_id] = _auction;\n        emit AuctionUpdated(_auction.id_auction, _auction.beneficiary, _auction.auctionEndTime, msg.sender, msg.value, _auction.clientCount, _auction.ended, product_id);\n        emit HighestBidIncreased(msg.sender, msg.value);\n    }\n\n    function withdraw(uint auction_id) public returns (bool) {\n        Auction storage _auction = auctionList[auction_id];\n        uint bid_value = _auction.clients[msg.sender];\n        if (bid_value > 0) {\n            // It is important to set this to zero because the recipient\n            // can call this function again as part of the receiving call\n            // before `send` returns.\n            _auction.clients[msg.sender] = 0;\n\n            if (!msg.sender.send(bid_value)) {\n                //Calling throw not necessary here, simply reset the bid_value owing\n                _auction.clients[msg.sender] = bid_value;\n                return false;\n            }\n        }\n        return true;\n    }\n    \n\n    function auctionEnd(uint _id_auction) public {\n        // It is a good guideline to structure functions that interact\n        // with other contracts (i.e. they call functions or send Ether)\n        // into three phases:\n        // 1. checking conditions\n        // 2. performing actions (potentially changing conditions)\n        // 3. interacting with other contracts\n        // If these phases are mixed up, the other contract could call\n        // back into the current contract and modify the state or cause\n        // effects (ether payout) to be performed multiple times.\n        // If functions called internally include interaction with external\n        // contracts, they also have to be considered interaction with\n        // external contracts.\n        Auction storage _auction = auctionList[_id_auction];\n        require(_auction.id_auction > 0 && _auction.id_auction <= auctionCount);\n        \n        // 1. Conditions\n        require(block.timestamp >= _auction.auctionEndTime, \"Auction not yet ended.\");\n        require(!_auction.ended, \"auctionEnd has already been called.\");\n\n        // 2. Effects\n        _auction.ended = true;\n        auctionList[_id_auction] = _auction;\n\n        Product storage _product = products[_auction.id_product];\n        require(_product.id_product > 0 && _product.id_product <= productCount);\n        require(!_product.purchased);\n        _product.purchased = true;\n        products[_auction.id_product] = _product;\n        emit AuctionEnded(_auction.highestBidder, _auction.highestBid);\n\n        // 3. Interaction\n        _auction.beneficiary.transfer(_auction.highestBid);\n    }\n    \n    \n}\n",
  "sourcePath": "/Users/alexandrazambitchi/Desktop/licenta/licitatie2/src/contracts/AuctionHouse.sol",
  "compiler": {
    "name": "solc",
    "version": "0.5.16+commit.9c3226ce.Emscripten.clang"
  },
  "schemaVersion": "3.3.4",
  "updatedAt": "2021-05-14T12:23:24.784Z",
  "networkType": "ethereum",
  "devdoc": {
    "methods": {}
  },
  "userdoc": {
    "methods": {},
    "notice": "The AuctionHouse contract does this and that..."
  }
}