{
  "contractName": "AuctionHouse",
  "abi": [
    {
      "inputs": [],
      "payable": false,
      "stateMutability": "nonpayable",
      "type": "constructor"
    },
    {
      "anonymous": false,
      "inputs": [
        {
          "indexed": false,
          "internalType": "uint256",
          "name": "id_auction",
          "type": "uint256"
        },
        {
          "indexed": false,
          "internalType": "uint256",
          "name": "auctionEndTime",
          "type": "uint256"
        },
        {
          "indexed": false,
          "internalType": "address payable",
          "name": "highestBidder",
          "type": "address"
        },
        {
          "indexed": false,
          "internalType": "uint256",
          "name": "highestBid",
          "type": "uint256"
        },
        {
          "indexed": false,
          "internalType": "uint256",
          "name": "offerCount",
          "type": "uint256"
        },
        {
          "indexed": false,
          "internalType": "bool",
          "name": "ended",
          "type": "bool"
        },
        {
          "indexed": false,
          "internalType": "uint256",
          "name": "id_product",
          "type": "uint256"
        }
      ],
      "name": "AuctionCreated",
      "type": "event"
    },
    {
      "anonymous": false,
      "inputs": [
        {
          "indexed": false,
          "internalType": "address payable",
          "name": "winner",
          "type": "address"
        },
        {
          "indexed": false,
          "internalType": "uint256",
          "name": "amount",
          "type": "uint256"
        }
      ],
      "name": "AuctionEnded",
      "type": "event"
    },
    {
      "anonymous": false,
      "inputs": [
        {
          "indexed": false,
          "internalType": "uint256",
          "name": "id_auction",
          "type": "uint256"
        },
        {
          "indexed": false,
          "internalType": "uint256",
          "name": "auctionEndTime",
          "type": "uint256"
        },
        {
          "indexed": false,
          "internalType": "address payable",
          "name": "highestBidder",
          "type": "address"
        },
        {
          "indexed": false,
          "internalType": "uint256",
          "name": "highestBid",
          "type": "uint256"
        },
        {
          "indexed": false,
          "internalType": "uint256",
          "name": "offerCount",
          "type": "uint256"
        },
        {
          "indexed": false,
          "internalType": "bool",
          "name": "ended",
          "type": "bool"
        },
        {
          "indexed": false,
          "internalType": "uint256",
          "name": "id_product",
          "type": "uint256"
        }
      ],
      "name": "AuctionUpdated",
      "type": "event"
    },
    {
      "anonymous": false,
      "inputs": [
        {
          "indexed": false,
          "internalType": "address payable",
          "name": "bidder",
          "type": "address"
        },
        {
          "indexed": false,
          "internalType": "uint256",
          "name": "amount",
          "type": "uint256"
        }
      ],
      "name": "HighestBidIncreased",
      "type": "event"
    },
    {
      "anonymous": false,
      "inputs": [
        {
          "indexed": false,
          "internalType": "uint256",
          "name": "id_product",
          "type": "uint256"
        },
        {
          "indexed": false,
          "internalType": "string",
          "name": "name",
          "type": "string"
        },
        {
          "indexed": false,
          "internalType": "uint256",
          "name": "price",
          "type": "uint256"
        },
        {
          "indexed": false,
          "internalType": "string",
          "name": "artist_name",
          "type": "string"
        },
        {
          "indexed": false,
          "internalType": "string",
          "name": "category",
          "type": "string"
        },
        {
          "indexed": false,
          "internalType": "string",
          "name": "description",
          "type": "string"
        },
        {
          "indexed": false,
          "internalType": "string",
          "name": "image_hash",
          "type": "string"
        },
        {
          "indexed": false,
          "internalType": "bool",
          "name": "purchased",
          "type": "bool"
        },
        {
          "indexed": false,
          "internalType": "bool",
          "name": "auction_started",
          "type": "bool"
        }
      ],
      "name": "ProductCreated",
      "type": "event"
    },
    {
      "anonymous": false,
      "inputs": [
        {
          "indexed": false,
          "internalType": "uint256",
          "name": "id_product",
          "type": "uint256"
        },
        {
          "indexed": false,
          "internalType": "string",
          "name": "name",
          "type": "string"
        },
        {
          "indexed": false,
          "internalType": "uint256",
          "name": "price",
          "type": "uint256"
        },
        {
          "indexed": false,
          "internalType": "string",
          "name": "artist_name",
          "type": "string"
        },
        {
          "indexed": false,
          "internalType": "string",
          "name": "category",
          "type": "string"
        },
        {
          "indexed": false,
          "internalType": "string",
          "name": "description",
          "type": "string"
        },
        {
          "indexed": false,
          "internalType": "string",
          "name": "image_hash",
          "type": "string"
        },
        {
          "indexed": false,
          "internalType": "bool",
          "name": "purchased",
          "type": "bool"
        },
        {
          "indexed": false,
          "internalType": "uint256",
          "name": "priceSold",
          "type": "uint256"
        },
        {
          "indexed": false,
          "internalType": "address payable",
          "name": "winner",
          "type": "address"
        }
      ],
      "name": "ProductSold",
      "type": "event"
    },
    {
      "constant": true,
      "inputs": [],
      "name": "activeAuction",
      "outputs": [
        {
          "internalType": "uint256",
          "name": "",
          "type": "uint256"
        }
      ],
      "payable": false,
      "stateMutability": "view",
      "type": "function"
    },
    {
      "constant": true,
      "inputs": [],
      "name": "auctionCount",
      "outputs": [
        {
          "internalType": "uint256",
          "name": "",
          "type": "uint256"
        }
      ],
      "payable": false,
      "stateMutability": "view",
      "type": "function"
    },
    {
      "constant": true,
      "inputs": [
        {
          "internalType": "uint256",
          "name": "",
          "type": "uint256"
        }
      ],
      "name": "auctionList",
      "outputs": [
        {
          "internalType": "uint256",
          "name": "id_auction",
          "type": "uint256"
        },
        {
          "internalType": "uint256",
          "name": "auctionEndTime",
          "type": "uint256"
        },
        {
          "internalType": "address payable",
          "name": "highestBidder",
          "type": "address"
        },
        {
          "internalType": "uint256",
          "name": "highestBid",
          "type": "uint256"
        },
        {
          "internalType": "uint256",
          "name": "offerCount",
          "type": "uint256"
        },
        {
          "internalType": "bool",
          "name": "ended",
          "type": "bool"
        },
        {
          "internalType": "uint256",
          "name": "id_product",
          "type": "uint256"
        }
      ],
      "payable": false,
      "stateMutability": "view",
      "type": "function"
    },
    {
      "constant": true,
      "inputs": [],
      "name": "name",
      "outputs": [
        {
          "internalType": "string",
          "name": "",
          "type": "string"
        }
      ],
      "payable": false,
      "stateMutability": "view",
      "type": "function"
    },
    {
      "constant": true,
      "inputs": [],
      "name": "owner",
      "outputs": [
        {
          "internalType": "address payable",
          "name": "",
          "type": "address"
        }
      ],
      "payable": false,
      "stateMutability": "view",
      "type": "function"
    },
    {
      "constant": true,
      "inputs": [],
      "name": "productCount",
      "outputs": [
        {
          "internalType": "uint256",
          "name": "",
          "type": "uint256"
        }
      ],
      "payable": false,
      "stateMutability": "view",
      "type": "function"
    },
    {
      "constant": true,
      "inputs": [
        {
          "internalType": "uint256",
          "name": "",
          "type": "uint256"
        }
      ],
      "name": "products",
      "outputs": [
        {
          "internalType": "uint256",
          "name": "id_product",
          "type": "uint256"
        },
        {
          "internalType": "string",
          "name": "name",
          "type": "string"
        },
        {
          "internalType": "uint256",
          "name": "price",
          "type": "uint256"
        },
        {
          "internalType": "string",
          "name": "artist_name",
          "type": "string"
        },
        {
          "internalType": "string",
          "name": "category",
          "type": "string"
        },
        {
          "internalType": "string",
          "name": "description",
          "type": "string"
        },
        {
          "internalType": "string",
          "name": "image_hash",
          "type": "string"
        },
        {
          "internalType": "bool",
          "name": "purchased",
          "type": "bool"
        },
        {
          "internalType": "bool",
          "name": "auction_started",
          "type": "bool"
        },
        {
          "internalType": "uint256",
          "name": "id_auction",
          "type": "uint256"
        }
      ],
      "payable": false,
      "stateMutability": "view",
      "type": "function"
    },
    {
      "constant": true,
      "inputs": [],
      "name": "productsOnAuction",
      "outputs": [
        {
          "internalType": "uint256",
          "name": "",
          "type": "uint256"
        }
      ],
      "payable": false,
      "stateMutability": "view",
      "type": "function"
    },
    {
      "constant": false,
      "inputs": [
        {
          "internalType": "string",
          "name": "_name",
          "type": "string"
        },
        {
          "internalType": "uint256",
          "name": "_price",
          "type": "uint256"
        },
        {
          "internalType": "string",
          "name": "_artist",
          "type": "string"
        },
        {
          "internalType": "string",
          "name": "_category",
          "type": "string"
        },
        {
          "internalType": "string",
          "name": "_description",
          "type": "string"
        },
        {
          "internalType": "string",
          "name": "_imageHash",
          "type": "string"
        }
      ],
      "name": "createProduct",
      "outputs": [],
      "payable": false,
      "stateMutability": "nonpayable",
      "type": "function"
    },
    {
      "constant": false,
      "inputs": [
        {
          "internalType": "uint256",
          "name": "_id",
          "type": "uint256"
        }
      ],
      "name": "createAuction",
      "outputs": [],
      "payable": false,
      "stateMutability": "nonpayable",
      "type": "function"
    },
    {
      "constant": false,
      "inputs": [
        {
          "internalType": "uint256",
          "name": "auction_id",
          "type": "uint256"
        },
        {
          "internalType": "uint256",
          "name": "bid_value",
          "type": "uint256"
        },
        {
          "internalType": "uint256",
          "name": "product_id",
          "type": "uint256"
        }
      ],
      "name": "bid",
      "outputs": [],
      "payable": true,
      "stateMutability": "payable",
      "type": "function"
    },
    {
      "constant": false,
      "inputs": [
        {
          "internalType": "uint256",
          "name": "_id_product",
          "type": "uint256"
        }
      ],
      "name": "deleteProduct",
      "outputs": [],
      "payable": false,
      "stateMutability": "nonpayable",
      "type": "function"
    },
    {
      "constant": false,
      "inputs": [
        {
          "internalType": "uint256",
          "name": "_id",
          "type": "uint256"
        }
      ],
      "name": "auctionEnd",
      "outputs": [],
      "payable": true,
      "stateMutability": "payable",
      "type": "function"
    }
  ],
  "bytecode": "0x608060405260006002556000600355600060045560006005553480156200002557600080fd5b506040518060400160405280601481526020017f41756374696f6e20486f757365206f66204172740000000000000000000000008152506000908051906020019062000073929190620000bb565b5033600160006101000a81548173ffffffffffffffffffffffffffffffffffffffff021916908373ffffffffffffffffffffffffffffffffffffffff1602179055506200016a565b828054600181600116156101000203166002900490600052602060002090601f016020900481019282601f10620000fe57805160ff19168380011785556200012f565b828001600101855582156200012f579182015b828111156200012e57825182559160200191906001019062000111565b5b5090506200013e919062000142565b5090565b6200016791905b808211156200016357600081600090555060010162000149565b5090565b90565b612c1e806200017a6000396000f3fe6080604052600436106100c25760003560e01c80637acc0b201161007f578063d5563f3111610059578063d5563f31146105d7578063e0f6ef8714610612578063e6821f5c1461063d578063ed90c7b71461096b576100c2565b80637acc0b20146102c657806380edeb53146105555780638da5cb5b14610580576100c2565b806306fdde03146100c75780632ac9bf09146101575780632ad715731461019957806332246e9f146101c457806333ed796c146101f2578063669c00831461021d575b600080fd5b3480156100d357600080fd5b506100dc6109a6565b6040518080602001828103825283818151815260200191508051906020019080838360005b8381101561011c578082015181840152602081019050610101565b50505050905090810190601f1680156101495780820380516001836020036101000a031916815260200191505b509250505060405180910390f35b6101976004803603606081101561016d57600080fd5b81019080803590602001909291908035906020019092919080359060200190929190505050610a44565b005b3480156101a557600080fd5b506101ae61101d565b6040518082815260200191505060405180910390f35b6101f0600480360360208110156101da57600080fd5b8101908080359060200190929190505050611023565b005b3480156101fe57600080fd5b5061020761183c565b6040518082815260200191505060405180910390f35b34801561022957600080fd5b506102566004803603602081101561024057600080fd5b8101908080359060200190929190505050611842565b604051808881526020018781526020018673ffffffffffffffffffffffffffffffffffffffff1673ffffffffffffffffffffffffffffffffffffffff1681526020018581526020018481526020018315151515815260200182815260200197505050505050505060405180910390f35b3480156102d257600080fd5b506102ff600480360360208110156102e957600080fd5b81019080803590602001909291905050506118b1565b604051808b8152602001806020018a815260200180602001806020018060200180602001891515151581526020018815151515815260200187815260200186810386528f818151815260200191508051906020019080838360005b8381101561037557808201518184015260208101905061035a565b50505050905090810190601f1680156103a25780820380516001836020036101000a031916815260200191505b5086810385528d818151815260200191508051906020019080838360005b838110156103db5780820151818401526020810190506103c0565b50505050905090810190601f1680156104085780820380516001836020036101000a031916815260200191505b5086810384528c818151815260200191508051906020019080838360005b83811015610441578082015181840152602081019050610426565b50505050905090810190601f16801561046e5780820380516001836020036101000a031916815260200191505b5086810383528b818151815260200191508051906020019080838360005b838110156104a757808201518184015260208101905061048c565b50505050905090810190601f1680156104d45780820380516001836020036101000a031916815260200191505b5086810382528a818151815260200191508051906020019080838360005b8381101561050d5780820151818401526020810190506104f2565b50505050905090810190601f16801561053a5780820380516001836020036101000a031916815260200191505b509f5050505050505050505050505050505060405180910390f35b34801561056157600080fd5b5061056a611c17565b6040518082815260200191505060405180910390f35b34801561058c57600080fd5b50610595611c1d565b604051808273ffffffffffffffffffffffffffffffffffffffff1673ffffffffffffffffffffffffffffffffffffffff16815260200191505060405180910390f35b3480156105e357600080fd5b50610610600480360360208110156105fa57600080fd5b8101908080359060200190929190505050611c43565b005b34801561061e57600080fd5b5061062761202d565b6040518082815260200191505060405180910390f35b34801561064957600080fd5b50610969600480360360c081101561066057600080fd5b810190808035906020019064010000000081111561067d57600080fd5b82018360208201111561068f57600080fd5b803590602001918460018302840111640100000000831117156106b157600080fd5b91908080601f016020809104026020016040519081016040528093929190818152602001838380828437600081840152601f19601f820116905080830192505050505050509192919290803590602001909291908035906020019064010000000081111561071e57600080fd5b82018360208201111561073057600080fd5b8035906020019184600183028401116401000000008311171561075257600080fd5b91908080601f016020809104026020016040519081016040528093929190818152602001838380828437600081840152601f19601f820116905080830192505050505050509192919290803590602001906401000000008111156107b557600080fd5b8201836020820111156107c757600080fd5b803590602001918460018302840111640100000000831117156107e957600080fd5b91908080601f016020809104026020016040519081016040528093929190818152602001838380828437600081840152601f19601f8201169050808301925050505050505091929192908035906020019064010000000081111561084c57600080fd5b82018360208201111561085e57600080fd5b8035906020019184600183028401116401000000008311171561088057600080fd5b91908080601f016020809104026020016040519081016040528093929190818152602001838380828437600081840152601f19601f820116905080830192505050505050509192919290803590602001906401000000008111156108e357600080fd5b8201836020820111156108f557600080fd5b8035906020019184600183028401116401000000008311171561091757600080fd5b91908080601f016020809104026020016040519081016040528093929190818152602001838380828437600081840152601f19601f820116905080830192505050505050509192919290505050612033565b005b34801561097757600080fd5b506109a46004803603602081101561098e57600080fd5b81019080803590602001909291905050506124df565b005b60008054600181600116156101000203166002900480601f016020809104026020016040519081016040528092919081815260200182805460018160011615610100020316600290048015610a3c5780601f10610a1157610100808354040283529160200191610a3c565b820191906000526020600020905b815481529060010190602001808311610a1f57829003601f168201915b505050505081565b600060066000838152602001908152602001600020905060008160000154118015610a755750600254816000015411155b610ae7576040517f08c379a00000000000000000000000000000000000000000000000000000000081526004018080602001828103825260118152602001807f50726f64756374206e6f7420666f756e6400000000000000000000000000000081525060200191505060405180910390fd5b600060076000868152602001908152602001600020905060008160000154118015610b185750600354816000015411155b610b8a576040517f08c379a00000000000000000000000000000000000000000000000000000000081526004018080602001828103825260118152602001807f41756374696f6e206e6f7420666f756e6400000000000000000000000000000081525060200191505060405180910390fd5b8060010154421115610c04576040517f08c379a000000000000000000000000000000000000000000000000000000000815260040180806020018281038252600d8152602001807f41756374696f6e20656e6465640000000000000000000000000000000000000081525060200191505060405180910390fd5b80600301548411610c7d576040517f08c379a00000000000000000000000000000000000000000000000000000000081526004018080602001828103825260108152602001807f56616c756520746f6f206c6974746c650000000000000000000000000000000081525060200191505060405180910390fd5b600160009054906101000a900473ffffffffffffffffffffffffffffffffffffffff1673ffffffffffffffffffffffffffffffffffffffff163373ffffffffffffffffffffffffffffffffffffffff161415610d41576040517f08c379a00000000000000000000000000000000000000000000000000000000081526004018080602001828103825260088152602001807f4f776e657221212100000000000000000000000000000000000000000000000081525060200191505060405180910390fd5b8160020154816003015414610dbf5780600301548160070160008360020160009054906101000a900473ffffffffffffffffffffffffffffffffffffffff1673ffffffffffffffffffffffffffffffffffffffff1673ffffffffffffffffffffffffffffffffffffffff168152602001908152602001600020819055505b60018160040160008282540192505081905550338160020160006101000a81548173ffffffffffffffffffffffffffffffffffffffff021916908373ffffffffffffffffffffffffffffffffffffffff160217905550838160030181905550806007600087815260200190815260200160002060008201548160000155600182015481600101556002820160009054906101000a900473ffffffffffffffffffffffffffffffffffffffff168160020160006101000a81548173ffffffffffffffffffffffffffffffffffffffff021916908373ffffffffffffffffffffffffffffffffffffffff16021790555060038201548160030155600482015481600401556005820160009054906101000a900460ff168160050160006101000a81548160ff021916908315150217905550600682015481600601559050507fbddf7d5b3d652be151c4b606fb4afe67059a9ccc0f0a1b66b292488b36d002a7858260010154338785600401548660050160009054906101000a900460ff1689604051808881526020018781526020018673ffffffffffffffffffffffffffffffffffffffff1673ffffffffffffffffffffffffffffffffffffffff1681526020018581526020018481526020018315151515815260200182815260200197505050505050505060405180910390a17ff4757a49b326036464bec6fe419a4ae38c8a02ce3e68bf0809674f6aab8ad3003385604051808373ffffffffffffffffffffffffffffffffffffffff1673ffffffffffffffffffffffffffffffffffffffff1681526020018281526020019250505060405180910390a15050505050565b60035481565b6000600760008381526020019081526020016000209050600081600001541180156110545750600354816000015411155b61105d57600080fd5b8060050160009054906101000a900460ff16156110c5576040517f08c379a0000000000000000000000000000000000000000000000000000000008152600401808060200182810382526023815260200180612bc76023913960400191505060405180910390fd5b600060066000836006015481526020019081526020016000209050600081600001541180156110fa5750600254816000015411155b61110357600080fd5b8060070160009054906101000a900460ff161561111f57600080fd5b60008260040154141561114e5760008160070160006101000a81548160ff02191690831515021790555061116c565b60018160070160006101000a81548160ff0219169083151502179055505b60018260050160006101000a81548160ff021916908315150217905550600460008154809291906001900391905055506005600081548092919060019003919050555060008260030154905060008360020160009054906101000a900473ffffffffffffffffffffffffffffffffffffffff169050836007600087815260200190815260200160002060008201548160000155600182015481600101556002820160009054906101000a900473ffffffffffffffffffffffffffffffffffffffff168160020160006101000a81548173ffffffffffffffffffffffffffffffffffffffff021916908373ffffffffffffffffffffffffffffffffffffffff16021790555060038201548160030155600482015481600401556005820160009054906101000a900460ff168160050160006101000a81548160ff021916908315150217905550600682015481600601559050508260066000866006015481526020019081526020016000206000820154816000015560018201816001019080546001816001161561010002031660029004611307929190612a9a565b506002820154816002015560038201816003019080546001816001161561010002031660029004611339929190612a9a565b5060048201816004019080546001816001161561010002031660029004611361929190612a9a565b5060058201816005019080546001816001161561010002031660029004611389929190612a9a565b50600682018160060190805460018160011615610100020316600290046113b1929190612a9a565b506007820160009054906101000a900460ff168160070160006101000a81548160ff0219169083151502179055506007820160019054906101000a900460ff168160070160016101000a81548160ff021916908315150217905550600882015481600801559050507fdaec4582d5d9595688c8c98545fdd1c696d41c6aeaeb636737e84ed2f5c00eda8460020160009054906101000a900473ffffffffffffffffffffffffffffffffffffffff168560030154604051808373ffffffffffffffffffffffffffffffffffffffff1673ffffffffffffffffffffffffffffffffffffffff1681526020018281526020019250505060405180910390a17f16b7e7c2d9c385f4af9a5dbfccf3ee6e2ab0218153ccfb6731d2c175e44142e78360000154846001018560020154866003018760040188600501896006018a60070160009054906101000a900460ff168c600301548d60020160009054906101000a900473ffffffffffffffffffffffffffffffffffffffff16604051808b8152602001806020018a815260200180602001806020018060200180602001891515151581526020018881526020018773ffffffffffffffffffffffffffffffffffffffff1673ffffffffffffffffffffffffffffffffffffffff16815260200186810386528f81815460018160011615610100020316600290048152602001915080546001816001161561010002031660029004801561160e5780601f106115e35761010080835404028352916020019161160e565b820191906000526020600020905b8154815290600101906020018083116115f157829003601f168201915b505086810385528d8181546001816001161561010002031660029004815260200191508054600181600116156101000203166002900480156116915780601f1061166657610100808354040283529160200191611691565b820191906000526020600020905b81548152906001019060200180831161167457829003601f168201915b505086810384528c8181546001816001161561010002031660029004815260200191508054600181600116156101000203166002900480156117145780601f106116e957610100808354040283529160200191611714565b820191906000526020600020905b8154815290600101906020018083116116f757829003601f168201915b505086810383528b8181546001816001161561010002031660029004815260200191508054600181600116156101000203166002900480156117975780601f1061176c57610100808354040283529160200191611797565b820191906000526020600020905b81548152906001019060200180831161177a57829003601f168201915b505086810382528a81815460018160011615610100020316600290048152602001915080546001816001161561010002031660029004801561181a5780601f106117ef5761010080835404028352916020019161181a565b820191906000526020600020905b8154815290600101906020018083116117fd57829003601f168201915b50509f5050505050505050505050505050505060405180910390a15050505050565b60055481565b60076020528060005260406000206000915090508060000154908060010154908060020160009054906101000a900473ffffffffffffffffffffffffffffffffffffffff16908060030154908060040154908060050160009054906101000a900460ff16908060060154905087565b6006602052806000526040600020600091509050806000015490806001018054600181600116156101000203166002900480601f0160208091040260200160405190810160405280929190818152602001828054600181600116156101000203166002900480156119635780601f1061193857610100808354040283529160200191611963565b820191906000526020600020905b81548152906001019060200180831161194657829003601f168201915b505050505090806002015490806003018054600181600116156101000203166002900480601f016020809104026020016040519081016040528092919081815260200182805460018160011615610100020316600290048015611a075780601f106119dc57610100808354040283529160200191611a07565b820191906000526020600020905b8154815290600101906020018083116119ea57829003601f168201915b505050505090806004018054600181600116156101000203166002900480601f016020809104026020016040519081016040528092919081815260200182805460018160011615610100020316600290048015611aa55780601f10611a7a57610100808354040283529160200191611aa5565b820191906000526020600020905b815481529060010190602001808311611a8857829003601f168201915b505050505090806005018054600181600116156101000203166002900480601f016020809104026020016040519081016040528092919081815260200182805460018160011615610100020316600290048015611b435780601f10611b1857610100808354040283529160200191611b43565b820191906000526020600020905b815481529060010190602001808311611b2657829003601f168201915b505050505090806006018054600181600116156101000203166002900480601f016020809104026020016040519081016040528092919081815260200182805460018160011615610100020316600290048015611be15780601f10611bb657610100808354040283529160200191611be1565b820191906000526020600020905b815481529060010190602001808311611bc457829003601f168201915b5050505050908060070160009054906101000a900460ff16908060070160019054906101000a900460ff1690806008015490508a565b60045481565b600160009054906101000a900473ffffffffffffffffffffffffffffffffffffffff1681565b600060066000838152602001908152602001600020905060008160000154118015611c745750600254816000015411155b611c7d57600080fd5b600160009054906101000a900473ffffffffffffffffffffffffffffffffffffffff1673ffffffffffffffffffffffffffffffffffffffff163373ffffffffffffffffffffffffffffffffffffffff1614611cd757600080fd5b60018160070160016101000a81548160ff02191690831515021790555060036000815480929190600101919050555060056000815480929190600101919050555060035481600801819055506000610e104201905081600660008581526020019081526020016000206000820154816000015560018201816001019080546001816001161561010002031660029004611d71929190612a9a565b506002820154816002015560038201816003019080546001816001161561010002031660029004611da3929190612a9a565b5060048201816004019080546001816001161561010002031660029004611dcb929190612a9a565b5060058201816005019080546001816001161561010002031660029004611df3929190612a9a565b5060068201816006019080546001816001161561010002031660029004611e1b929190612a9a565b506007820160009054906101000a900460ff168160070160006101000a81548160ff0219169083151502179055506007820160019054906101000a900460ff168160070160016101000a81548160ff021916908315150217905550600882015481600801559050506040518060e001604052806003548152602001828152602001600073ffffffffffffffffffffffffffffffffffffffff16815260200160008152602001600081526020016000151581526020018360000154815250600760006003548152602001908152602001600020600082015181600001556020820151816001015560408201518160020160006101000a81548173ffffffffffffffffffffffffffffffffffffffff021916908373ffffffffffffffffffffffffffffffffffffffff160217905550606082015181600301556080820151816004015560a08201518160050160006101000a81548160ff02191690831515021790555060c082015181600601559050507fc5b56ef28a33b7aa02835d41cf99eb4626bf3696d6037ad8259ecee675eebfd5600354826000806000808860000154604051808881526020018781526020018673ffffffffffffffffffffffffffffffffffffffff1673ffffffffffffffffffffffffffffffffffffffff1681526020018581526020018481526020018315151515815260200182815260200197505050505050505060405180910390a1505050565b60025481565b600160009054906101000a900473ffffffffffffffffffffffffffffffffffffffff1673ffffffffffffffffffffffffffffffffffffffff163373ffffffffffffffffffffffffffffffffffffffff161461208d57600080fd5b600086511161209b57600080fd5b600085116120a857600080fd5b60008451116120b657600080fd5b60008351116120c457600080fd5b60008251116120d257600080fd5b60008151116120e057600080fd5b6002600081548092919060010191905055506004600081548092919060010191905055506040518061014001604052806002548152602001878152602001868152602001858152602001848152602001838152602001828152602001600015158152602001600015158152602001600081525060066000600254815260200190815260200160002060008201518160000155602082015181600101908051906020019061218e929190612b21565b506040820151816002015560608201518160030190805190602001906121b5929190612b21565b5060808201518160040190805190602001906121d2929190612b21565b5060a08201518160050190805190602001906121ef929190612b21565b5060c082015181600601908051906020019061220c929190612b21565b5060e08201518160070160006101000a81548160ff0219169083151502179055506101008201518160070160016101000a81548160ff02191690831515021790555061012082015181600801559050507fe84d163122cd80ac28d349f4cc926b047afd3c604db3788d4666788444005279600254878787878787600080604051808a81526020018060200189815260200180602001806020018060200180602001881515151581526020018715151515815260200186810386528e818151815260200191508051906020019080838360005b838110156122f95780820151818401526020810190506122de565b50505050905090810190601f1680156123265780820380516001836020036101000a031916815260200191505b5086810385528c818151815260200191508051906020019080838360005b8381101561235f578082015181840152602081019050612344565b50505050905090810190601f16801561238c5780820380516001836020036101000a031916815260200191505b5086810384528b818151815260200191508051906020019080838360005b838110156123c55780820151818401526020810190506123aa565b50505050905090810190601f1680156123f25780820380516001836020036101000a031916815260200191505b5086810383528a818151815260200191508051906020019080838360005b8381101561242b578082015181840152602081019050612410565b50505050905090810190601f1680156124585780820380516001836020036101000a031916815260200191505b50868103825289818151815260200191508051906020019080838360005b83811015612491578082015181840152602081019050612476565b50505050905090810190601f1680156124be5780820380516001836020036101000a031916815260200191505b509e50505050505050505050505050505060405180910390a1505050505050565b6000600660008381526020019081526020016000209050600081600001541180156125105750600254816000015411155b612582576040517f08c379a00000000000000000000000000000000000000000000000000000000081526004018080602001828103825260118152602001807f50726f64756374206e6f7420666f756e6400000000000000000000000000000081525060200191505060405180910390fd5b60018160070160006101000a81548160ff021916908315150217905550806006600084815260200190815260200160002060008201548160000155600182018160010190805460018160011615610100020316600290046125e4929190612a9a565b506002820154816002015560038201816003019080546001816001161561010002031660029004612616929190612a9a565b506004820181600401908054600181600116156101000203166002900461263e929190612a9a565b5060058201816005019080546001816001161561010002031660029004612666929190612a9a565b506006820181600601908054600181600116156101000203166002900461268e929190612a9a565b506007820160009054906101000a900460ff168160070160006101000a81548160ff0219169083151502179055506007820160019054906101000a900460ff168160070160016101000a81548160ff02191690831515021790555060088201548160080155905050600460008154809291906001900391905055508060070160019054906101000a900460ff161561273457600560008154809291906001900391905055505b7f16b7e7c2d9c385f4af9a5dbfccf3ee6e2ab0218153ccfb6731d2c175e44142e78160000154826001018360020154846003018560040186600501876006018860070160009054906101000a900460ff16600080604051808b8152602001806020018a815260200180602001806020018060200180602001891515151581526020018881526020018773ffffffffffffffffffffffffffffffffffffffff1673ffffffffffffffffffffffffffffffffffffffff16815260200186810386528f81815460018160011615610100020316600290048152602001915080546001816001161561010002031660029004801561286f5780601f106128445761010080835404028352916020019161286f565b820191906000526020600020905b81548152906001019060200180831161285257829003601f168201915b505086810385528d8181546001816001161561010002031660029004815260200191508054600181600116156101000203166002900480156128f25780601f106128c7576101008083540402835291602001916128f2565b820191906000526020600020905b8154815290600101906020018083116128d557829003601f168201915b505086810384528c8181546001816001161561010002031660029004815260200191508054600181600116156101000203166002900480156129755780601f1061294a57610100808354040283529160200191612975565b820191906000526020600020905b81548152906001019060200180831161295857829003601f168201915b505086810383528b8181546001816001161561010002031660029004815260200191508054600181600116156101000203166002900480156129f85780601f106129cd576101008083540402835291602001916129f8565b820191906000526020600020905b8154815290600101906020018083116129db57829003601f168201915b505086810382528a818154600181600116156101000203166002900481526020019150805460018160011615610100020316600290048015612a7b5780601f10612a5057610100808354040283529160200191612a7b565b820191906000526020600020905b815481529060010190602001808311612a5e57829003601f168201915b50509f5050505050505050505050505050505060405180910390a15050565b828054600181600116156101000203166002900490600052602060002090601f016020900481019282601f10612ad35780548555612b10565b82800160010185558215612b1057600052602060002091601f016020900482015b82811115612b0f578254825591600101919060010190612af4565b5b509050612b1d9190612ba1565b5090565b828054600181600116156101000203166002900490600052602060002090601f016020900481019282601f10612b6257805160ff1916838001178555612b90565b82800160010185558215612b90579182015b82811115612b8f578251825591602001919060010190612b74565b5b509050612b9d9190612ba1565b5090565b612bc391905b80821115612bbf576000816000905550600101612ba7565b5090565b9056fe61756374696f6e456e642068617320616c7265616479206265656e2063616c6c65642ea265627a7a72315820099ebc96bc95d6fd98061fdf375e71788df9524908a72215b4812b6799ef61d164736f6c63430005100032",
  "source": "// pragma solidity ^0.5.0;\npragma solidity >=0.5.0 <0.9.0;\n\n/**\n * The AuctionHouse\n contract does this and that...\n */\n\ncontract AuctionHouse {\n\tstring public name;\n    address payable public owner;\n\tuint public productCount = 0;\n    uint public auctionCount = 0;\n    uint public productsOnAuction = 0;\n    uint public activeAuction = 0;\n\tmapping(uint => Product) public products;\n    mapping(uint => Auction) public auctionList;\n\n\tstruct Product{\n        uint id_product;\n        string name;\n        uint price;\n        string artist_name;\n        string category;\n        string description;\n        string image_hash;\n        bool purchased;\n        bool auction_started;\n        uint id_auction;\n    }\n\n    struct Auction{\n        uint id_auction;\n        uint auctionEndTime;\n        address payable highestBidder;\n        uint highestBid;\n        uint offerCount;\n        bool ended;\n        uint id_product;\n        mapping(address => uint) clients;\n    }\n\n    event ProductCreated(\n        uint id_product,\n        string name,\n        uint price,\n        string artist_name,\n        string category,\n        string description,\n        string image_hash,\n        bool purchased,\n        bool auction_started\n    );\n\n    event ProductSold(\n        uint id_product,\n        string name,\n        uint price,\n        string artist_name,\n        string category,\n        string description,\n        string image_hash,\n        bool purchased,\n        uint priceSold,\n        address payable winner\n    );\n\n    event AuctionCreated(\n        uint id_auction,\n        uint auctionEndTime,\n        address payable highestBidder,\n        uint highestBid,\n        uint offerCount,\n        bool ended,\n        uint id_product\n    );\n\n    event AuctionUpdated(\n        uint id_auction,\n        uint auctionEndTime,\n        address payable highestBidder,\n        uint highestBid,\n        uint offerCount,\n        bool ended,\n        uint id_product\n    );\n\n    event HighestBidIncreased(\n        address payable bidder, \n        uint amount\n    );\n\n    event AuctionEnded(\n        address payable winner, \n        uint amount\n    );\n    \n\n\tconstructor() public {\n\t\tname = \"Auction House of Art\";\n        owner = msg.sender;\n\t}\n\n\tfunction createProduct (string memory _name, uint _price, string memory _artist, string memory _category, string memory _description, string memory _imageHash) public {\n\t\trequire(msg.sender == owner);\n        require(bytes(_name).length > 0);\n        require(_price > 0);\n        require(bytes(_artist).length > 0);\n        require(bytes(_category).length > 0);\n        require(bytes(_description).length > 0);\n        require(bytes(_imageHash).length > 0);\n\t\tproductCount++;\n        productsOnAuction++;\n        products[productCount] = Product(productCount, _name, _price, _artist, _category, _description, _imageHash, false, false, 0);\n\t\temit ProductCreated(productCount, _name, _price, _artist, _category, _description, _imageHash, false, false);\n\t}\n\n    function createAuction (uint _id) public {\n        Product storage _product = products[_id];\n        require(_product.id_product > 0 && _product.id_product <= productCount);\n        require(msg.sender == owner);\n        _product.auction_started = true;\n        auctionCount++;\n        activeAuction++;\n        _product.id_auction = auctionCount;\n        uint endTime = now + 1 hours;\n        products[_id] = _product;\n        auctionList[auctionCount] = Auction(auctionCount, endTime, address(0), 0, 0, false, _product.id_product);\n        emit AuctionCreated(auctionCount, endTime, address(0), 0, 0, false, _product.id_product);\n    }\n\n    function bid(uint auction_id, uint bid_value, uint product_id) public payable {\n        Product storage _product = products[product_id];\n        require(_product.id_product > 0 && _product.id_product <= productCount, \"Product not found\");\n        Auction storage _auction = auctionList[auction_id];\n        require(_auction.id_auction > 0 && _auction.id_auction <= auctionCount, \"Auction not found\");\n        require(block.timestamp <= _auction.auctionEndTime, \"Auction ended\");\n        require(bid_value > _auction.highestBid, \"Value too little\");\n        require(msg.sender != owner, \"Owner!!!\");\n        if (_auction.highestBid != _product.price){\n            _auction.clients[_auction.highestBidder] = _auction.highestBid;\n        }\n        _auction.offerCount += 1;\n        _auction.highestBidder = msg.sender;\n        _auction.highestBid = bid_value;\n        // _auction.clientNames[_auction.highestBidder] = clientName;\n        auctionList[auction_id] = _auction;\n        emit AuctionUpdated(auction_id, _auction.auctionEndTime, msg.sender, bid_value, _auction.offerCount, _auction.ended, product_id);\n        emit HighestBidIncreased(msg.sender, bid_value);\n    }\n\n    function deleteProduct(uint _id_product) public {\n        Product storage _product = products[_id_product];\n        require(_product.id_product > 0 && _product.id_product <= productCount, \"Product not found\");\n        _product.purchased = true;\n        products[_id_product] = _product;\n        productsOnAuction--;\n        if(_product.auction_started){\n            activeAuction--;\n        }\n        emit ProductSold(_product.id_product, _product.name, _product.price, _product.artist_name, _product.category, _product.description, _product.image_hash, _product.purchased, 0, address(0));\n    }\n\n\n    function auctionEnd(uint _id) public payable {\n\n        Auction storage _auction = auctionList[_id];\n        require(_auction.id_auction > 0 && _auction.id_auction <= auctionCount);\n        // require(block.timestamp >= _auction.auctionEndTime, \"Auction not yet ended.\");\n        require(!_auction.ended, \"auctionEnd has already been called.\");\n\n        Product storage _product = products[_auction.id_product];\n        require(_product.id_product > 0 && _product.id_product <= productCount);\n        require(!_product.purchased);\n\n        if(_auction.offerCount==0){\n            _product.purchased = false;\n        }\n        else{\n            _product.purchased = true;\n        }\n        \n        _auction.ended = true;\n        productsOnAuction--;\n        activeAuction--;\n\n        uint bid_value = _auction.highestBid;\n        address payable localOwner = _auction.highestBidder;\n        // require (_auction.highestBidder != address(0), \"No one bid at this auction\");\n        // if(_auction.highestBidder != owner){\n        // address(localOwner).send(msg.value);\n        // address(localOwner).transfer(_auction.highestBid);\n        // require (success, \"transfer failed\");\n            // address(owner).transfer(_auction.highestBid);\n            // address(_auction.highestBidder).call.value(bid_value)(\"\")\n            // owner.call.value(_auction.highestBid)(\"\");\n        // }\n        auctionList[_id] = _auction;\n        products[_auction.id_product] = _product;\n        emit AuctionEnded(_auction.highestBidder, _auction.highestBid);\n        emit ProductSold(_product.id_product, _product.name, _product.price, _product.artist_name, _product.category, _product.description, _product.image_hash, _product.purchased, _auction.highestBid, _auction.highestBidder);\n\n    }\n    \n    \n}\n",
  "sourcePath": "/Users/alexandrazambitchi/Desktop/licenta/licitatie2/src/contracts/AuctionHouse.sol",
  "compiler": {
    "name": "solc",
    "version": "0.5.16+commit.9c3226ce.Emscripten.clang"
  },
  "schemaVersion": "3.4.1",
  "updatedAt": "2021-05-30T18:06:40.993Z",
  "networkType": "ethereum",
  "devdoc": {
    "methods": {}
  },
  "userdoc": {
    "methods": {},
    "notice": "The AuctionHouse contract does this and that..."
  }
}