{
  "contractName": "AuctionHouse",
  "abi": [
    {
      "inputs": [],
      "payable": false,
      "stateMutability": "nonpayable",
      "type": "constructor"
    },
    {
      "anonymous": false,
      "inputs": [
        {
          "indexed": false,
          "internalType": "uint256",
          "name": "id_auction",
          "type": "uint256"
        },
        {
          "indexed": false,
          "internalType": "uint256",
          "name": "auctionEndTime",
          "type": "uint256"
        },
        {
          "indexed": false,
          "internalType": "address",
          "name": "highestBidder",
          "type": "address"
        },
        {
          "indexed": false,
          "internalType": "uint256",
          "name": "highestBid",
          "type": "uint256"
        },
        {
          "indexed": false,
          "internalType": "uint256",
          "name": "offerCount",
          "type": "uint256"
        },
        {
          "indexed": false,
          "internalType": "bool",
          "name": "ended",
          "type": "bool"
        },
        {
          "indexed": false,
          "internalType": "uint256",
          "name": "id_product",
          "type": "uint256"
        }
      ],
      "name": "AuctionCreated",
      "type": "event"
    },
    {
      "anonymous": false,
      "inputs": [
        {
          "indexed": false,
          "internalType": "address",
          "name": "winner",
          "type": "address"
        },
        {
          "indexed": false,
          "internalType": "uint256",
          "name": "amount",
          "type": "uint256"
        }
      ],
      "name": "AuctionEnded",
      "type": "event"
    },
    {
      "anonymous": false,
      "inputs": [
        {
          "indexed": false,
          "internalType": "uint256",
          "name": "id_auction",
          "type": "uint256"
        },
        {
          "indexed": false,
          "internalType": "uint256",
          "name": "auctionEndTime",
          "type": "uint256"
        },
        {
          "indexed": false,
          "internalType": "address",
          "name": "highestBidder",
          "type": "address"
        },
        {
          "indexed": false,
          "internalType": "uint256",
          "name": "highestBid",
          "type": "uint256"
        },
        {
          "indexed": false,
          "internalType": "uint256",
          "name": "offerCount",
          "type": "uint256"
        },
        {
          "indexed": false,
          "internalType": "bool",
          "name": "ended",
          "type": "bool"
        },
        {
          "indexed": false,
          "internalType": "uint256",
          "name": "id_product",
          "type": "uint256"
        }
      ],
      "name": "AuctionUpdated",
      "type": "event"
    },
    {
      "anonymous": false,
      "inputs": [
        {
          "indexed": false,
          "internalType": "address",
          "name": "bidder",
          "type": "address"
        },
        {
          "indexed": false,
          "internalType": "uint256",
          "name": "amount",
          "type": "uint256"
        }
      ],
      "name": "HighestBidIncreased",
      "type": "event"
    },
    {
      "anonymous": false,
      "inputs": [
        {
          "indexed": false,
          "internalType": "uint256",
          "name": "id_product",
          "type": "uint256"
        },
        {
          "indexed": false,
          "internalType": "string",
          "name": "name",
          "type": "string"
        },
        {
          "indexed": false,
          "internalType": "uint256",
          "name": "price",
          "type": "uint256"
        },
        {
          "indexed": false,
          "internalType": "string",
          "name": "artist_name",
          "type": "string"
        },
        {
          "indexed": false,
          "internalType": "string",
          "name": "category",
          "type": "string"
        },
        {
          "indexed": false,
          "internalType": "string",
          "name": "description",
          "type": "string"
        },
        {
          "indexed": false,
          "internalType": "string",
          "name": "image_hash",
          "type": "string"
        },
        {
          "indexed": false,
          "internalType": "bool",
          "name": "purchased",
          "type": "bool"
        },
        {
          "indexed": false,
          "internalType": "bool",
          "name": "auction_started",
          "type": "bool"
        }
      ],
      "name": "ProductCreated",
      "type": "event"
    },
    {
      "anonymous": false,
      "inputs": [
        {
          "indexed": false,
          "internalType": "uint256",
          "name": "id_product",
          "type": "uint256"
        },
        {
          "indexed": false,
          "internalType": "string",
          "name": "name",
          "type": "string"
        },
        {
          "indexed": false,
          "internalType": "uint256",
          "name": "price",
          "type": "uint256"
        },
        {
          "indexed": false,
          "internalType": "string",
          "name": "artist_name",
          "type": "string"
        },
        {
          "indexed": false,
          "internalType": "string",
          "name": "category",
          "type": "string"
        },
        {
          "indexed": false,
          "internalType": "string",
          "name": "description",
          "type": "string"
        },
        {
          "indexed": false,
          "internalType": "string",
          "name": "image_hash",
          "type": "string"
        },
        {
          "indexed": false,
          "internalType": "bool",
          "name": "purchased",
          "type": "bool"
        }
      ],
      "name": "ProductSold",
      "type": "event"
    },
    {
      "constant": true,
      "inputs": [],
      "name": "auctionCount",
      "outputs": [
        {
          "internalType": "uint256",
          "name": "",
          "type": "uint256"
        }
      ],
      "payable": false,
      "stateMutability": "view",
      "type": "function"
    },
    {
      "constant": true,
      "inputs": [
        {
          "internalType": "uint256",
          "name": "",
          "type": "uint256"
        }
      ],
      "name": "auctionList",
      "outputs": [
        {
          "internalType": "uint256",
          "name": "id_auction",
          "type": "uint256"
        },
        {
          "internalType": "uint256",
          "name": "auctionEndTime",
          "type": "uint256"
        },
        {
          "internalType": "address",
          "name": "highestBidder",
          "type": "address"
        },
        {
          "internalType": "uint256",
          "name": "highestBid",
          "type": "uint256"
        },
        {
          "internalType": "uint256",
          "name": "offerCount",
          "type": "uint256"
        },
        {
          "internalType": "bool",
          "name": "ended",
          "type": "bool"
        },
        {
          "internalType": "uint256",
          "name": "id_product",
          "type": "uint256"
        }
      ],
      "payable": false,
      "stateMutability": "view",
      "type": "function"
    },
    {
      "constant": true,
      "inputs": [
        {
          "internalType": "uint256",
          "name": "",
          "type": "uint256"
        }
      ],
      "name": "images",
      "outputs": [
        {
          "internalType": "string",
          "name": "",
          "type": "string"
        }
      ],
      "payable": false,
      "stateMutability": "view",
      "type": "function"
    },
    {
      "constant": true,
      "inputs": [],
      "name": "name",
      "outputs": [
        {
          "internalType": "string",
          "name": "",
          "type": "string"
        }
      ],
      "payable": false,
      "stateMutability": "view",
      "type": "function"
    },
    {
      "constant": true,
      "inputs": [],
      "name": "owner",
      "outputs": [
        {
          "internalType": "address payable",
          "name": "",
          "type": "address"
        }
      ],
      "payable": false,
      "stateMutability": "view",
      "type": "function"
    },
    {
      "constant": true,
      "inputs": [],
      "name": "productCount",
      "outputs": [
        {
          "internalType": "uint256",
          "name": "",
          "type": "uint256"
        }
      ],
      "payable": false,
      "stateMutability": "view",
      "type": "function"
    },
    {
      "constant": true,
      "inputs": [
        {
          "internalType": "uint256",
          "name": "",
          "type": "uint256"
        }
      ],
      "name": "products",
      "outputs": [
        {
          "internalType": "uint256",
          "name": "id_product",
          "type": "uint256"
        },
        {
          "internalType": "string",
          "name": "name",
          "type": "string"
        },
        {
          "internalType": "uint256",
          "name": "price",
          "type": "uint256"
        },
        {
          "internalType": "string",
          "name": "artist_name",
          "type": "string"
        },
        {
          "internalType": "string",
          "name": "category",
          "type": "string"
        },
        {
          "internalType": "string",
          "name": "description",
          "type": "string"
        },
        {
          "internalType": "string",
          "name": "image_hash",
          "type": "string"
        },
        {
          "internalType": "bool",
          "name": "purchased",
          "type": "bool"
        },
        {
          "internalType": "bool",
          "name": "auction_started",
          "type": "bool"
        },
        {
          "internalType": "bool",
          "name": "auction_ended",
          "type": "bool"
        }
      ],
      "payable": false,
      "stateMutability": "view",
      "type": "function"
    },
    {
      "constant": false,
      "inputs": [
        {
          "internalType": "string",
          "name": "_name",
          "type": "string"
        },
        {
          "internalType": "uint256",
          "name": "_price",
          "type": "uint256"
        },
        {
          "internalType": "string",
          "name": "_artist",
          "type": "string"
        },
        {
          "internalType": "string",
          "name": "_category",
          "type": "string"
        },
        {
          "internalType": "string",
          "name": "_description",
          "type": "string"
        },
        {
          "internalType": "string",
          "name": "_imageHash",
          "type": "string"
        }
      ],
      "name": "createProduct",
      "outputs": [],
      "payable": false,
      "stateMutability": "nonpayable",
      "type": "function"
    },
    {
      "constant": false,
      "inputs": [
        {
          "internalType": "uint256",
          "name": "_id",
          "type": "uint256"
        }
      ],
      "name": "createAuction",
      "outputs": [],
      "payable": false,
      "stateMutability": "nonpayable",
      "type": "function"
    },
    {
      "constant": false,
      "inputs": [
        {
          "internalType": "uint256",
          "name": "product_id",
          "type": "uint256"
        }
      ],
      "name": "bid",
      "outputs": [],
      "payable": true,
      "stateMutability": "payable",
      "type": "function"
    },
    {
      "constant": false,
      "inputs": [
        {
          "internalType": "uint256",
          "name": "_id_auction",
          "type": "uint256"
        }
      ],
      "name": "auctionEnd",
      "outputs": [],
      "payable": false,
      "stateMutability": "nonpayable",
      "type": "function"
    }
  ],
  "bytecode": "0x6080604052600060025560006003553480156200001b57600080fd5b506040518060400160405280601481526020017f41756374696f6e20486f757365206f66204172740000000000000000000000008152506000908051906020019062000069929190620000b1565b5033600160006101000a81548173ffffffffffffffffffffffffffffffffffffffff021916908373ffffffffffffffffffffffffffffffffffffffff16021790555062000160565b828054600181600116156101000203166002900490600052602060002090601f016020900481019282601f10620000f457805160ff191683800117855562000125565b8280016001018555821562000125579182015b828111156200012457825182559160200191906001019062000107565b5b50905062000134919062000138565b5090565b6200015d91905b80821115620001595760008160009055506001016200013f565b5090565b90565b61269e80620001706000396000f3fe60806040526004361061009c5760003560e01c80637acc0b20116100645780637acc0b201461026e57806384856482146105015780638da5cb5b146105b5578063d5563f311461060c578063e0f6ef8714610647578063e6821f5c146106725761009c565b806306fdde03146100a15780632ad715731461013157806332246e9f1461015c578063454a2ab314610197578063669c0083146101c5575b600080fd5b3480156100ad57600080fd5b506100b66109a0565b6040518080602001828103825283818151815260200191508051906020019080838360005b838110156100f65780820151818401526020810190506100db565b50505050905090810190601f1680156101235780820380516001836020036101000a031916815260200191505b509250505060405180910390f35b34801561013d57600080fd5b50610146610a3e565b6040518082815260200191505060405180910390f35b34801561016857600080fd5b506101956004803603602081101561017f57600080fd5b8101908080359060200190929190505050610a44565b005b6101c3600480360360208110156101ad57600080fd5b8101908080359060200190929190505050611407565b005b3480156101d157600080fd5b506101fe600480360360208110156101e857600080fd5b81019080803590602001909291905050506117b2565b604051808881526020018781526020018673ffffffffffffffffffffffffffffffffffffffff1673ffffffffffffffffffffffffffffffffffffffff1681526020018581526020018481526020018315151515815260200182815260200197505050505050505060405180910390f35b34801561027a57600080fd5b506102a76004803603602081101561029157600080fd5b8101908080359060200190929190505050611821565b604051808b8152602001806020018a81526020018060200180602001806020018060200189151515158152602001881515151581526020018715151515815260200186810386528f818151815260200191508051906020019080838360005b83811015610321578082015181840152602081019050610306565b50505050905090810190601f16801561034e5780820380516001836020036101000a031916815260200191505b5086810385528d818151815260200191508051906020019080838360005b8381101561038757808201518184015260208101905061036c565b50505050905090810190601f1680156103b45780820380516001836020036101000a031916815260200191505b5086810384528c818151815260200191508051906020019080838360005b838110156103ed5780820151818401526020810190506103d2565b50505050905090810190601f16801561041a5780820380516001836020036101000a031916815260200191505b5086810383528b818151815260200191508051906020019080838360005b83811015610453578082015181840152602081019050610438565b50505050905090810190601f1680156104805780820380516001836020036101000a031916815260200191505b5086810382528a818151815260200191508051906020019080838360005b838110156104b957808201518184015260208101905061049e565b50505050905090810190601f1680156104e65780820380516001836020036101000a031916815260200191505b509f5050505050505050505050505050505060405180910390f35b34801561050d57600080fd5b5061053a6004803603602081101561052457600080fd5b8101908080359060200190929190505050611b94565b6040518080602001828103825283818151815260200191508051906020019080838360005b8381101561057a57808201518184015260208101905061055f565b50505050905090810190601f1680156105a75780820380516001836020036101000a031916815260200191505b509250505060405180910390f35b3480156105c157600080fd5b506105ca611c44565b604051808273ffffffffffffffffffffffffffffffffffffffff1673ffffffffffffffffffffffffffffffffffffffff16815260200191505060405180910390f35b34801561061857600080fd5b506106456004803603602081101561062f57600080fd5b8101908080359060200190929190505050611c6a565b005b34801561065357600080fd5b5061065c612062565b6040518082815260200191505060405180910390f35b34801561067e57600080fd5b5061099e600480360360c081101561069557600080fd5b81019080803590602001906401000000008111156106b257600080fd5b8201836020820111156106c457600080fd5b803590602001918460018302840111640100000000831117156106e657600080fd5b91908080601f016020809104026020016040519081016040528093929190818152602001838380828437600081840152601f19601f820116905080830192505050505050509192919290803590602001909291908035906020019064010000000081111561075357600080fd5b82018360208201111561076557600080fd5b8035906020019184600183028401116401000000008311171561078757600080fd5b91908080601f016020809104026020016040519081016040528093929190818152602001838380828437600081840152601f19601f820116905080830192505050505050509192919290803590602001906401000000008111156107ea57600080fd5b8201836020820111156107fc57600080fd5b8035906020019184600183028401116401000000008311171561081e57600080fd5b91908080601f016020809104026020016040519081016040528093929190818152602001838380828437600081840152601f19601f8201169050808301925050505050505091929192908035906020019064010000000081111561088157600080fd5b82018360208201111561089357600080fd5b803590602001918460018302840111640100000000831117156108b557600080fd5b91908080601f016020809104026020016040519081016040528093929190818152602001838380828437600081840152601f19601f8201169050808301925050505050505091929192908035906020019064010000000081111561091857600080fd5b82018360208201111561092a57600080fd5b8035906020019184600183028401116401000000008311171561094c57600080fd5b91908080601f016020809104026020016040519081016040528093929190818152602001838380828437600081840152601f19601f820116905080830192505050505050509192919290505050612068565b005b60008054600181600116156101000203166002900480601f016020809104026020016040519081016040528092919081815260200182805460018160011615610100020316600290048015610a365780601f10610a0b57610100808354040283529160200191610a36565b820191906000526020600020905b815481529060010190602001808311610a1957829003601f168201915b505050505081565b60035481565b600060056000838152602001908152602001600020905060008160000154118015610a755750600354816000015411155b610a7e57600080fd5b8060010154421015610af8576040517f08c379a00000000000000000000000000000000000000000000000000000000081526004018080602001828103825260168152602001807f41756374696f6e206e6f742079657420656e6465642e0000000000000000000081525060200191505060405180910390fd5b8060050160009054906101000a900460ff1615610b60576040517f08c379a00000000000000000000000000000000000000000000000000000000081526004018080602001828103825260238152602001806126476023913960400191505060405180910390fd5b60006004600083600601548152602001908152602001600020905060008160000154118015610b955750600254816000015411155b610b9e57600080fd5b8060070160009054906101000a900460ff1615610bba57600080fd5b600082600401541415610be95760008160070160006101000a81548160ff021916908315150217905550610c07565b60018160070160006101000a81548160ff0219169083151502179055505b60018260050160006101000a81548160ff021916908315150217905550816005600085815260200190815260200160002060008201548160000155600182015481600101556002820160009054906101000a900473ffffffffffffffffffffffffffffffffffffffff168160020160006101000a81548173ffffffffffffffffffffffffffffffffffffffff021916908373ffffffffffffffffffffffffffffffffffffffff16021790555060038201548160030155600482015481600401556005820160009054906101000a900460ff168160050160006101000a81548160ff0219169083151502179055506006820154816006015590505060018160070160026101000a81548160ff0219169083151502179055508060046000846006015481526020019081526020016000206000820154816000015560018201816001019080546001816001161561010002031660029004610d6792919061251a565b506002820154816002015560038201816003019080546001816001161561010002031660029004610d9992919061251a565b5060048201816004019080546001816001161561010002031660029004610dc192919061251a565b5060058201816005019080546001816001161561010002031660029004610de992919061251a565b5060068201816006019080546001816001161561010002031660029004610e1192919061251a565b506007820160009054906101000a900460ff168160070160006101000a81548160ff0219169083151502179055506007820160019054906101000a900460ff168160070160016101000a81548160ff0219169083151502179055506007820160029054906101000a900460ff168160070160026101000a81548160ff021916908315150217905550905050600073ffffffffffffffffffffffffffffffffffffffff168260020160009054906101000a900473ffffffffffffffffffffffffffffffffffffffff1673ffffffffffffffffffffffffffffffffffffffff161415610f63576040517f08c379a000000000000000000000000000000000000000000000000000000000815260040180806020018281038252601a8152602001807f4e6f206f6e652062696420617420746869732061756374696f6e00000000000081525060200191505060405180910390fd5b7fdaec4582d5d9595688c8c98545fdd1c696d41c6aeaeb636737e84ed2f5c00eda8260020160009054906101000a900473ffffffffffffffffffffffffffffffffffffffff168360030154604051808373ffffffffffffffffffffffffffffffffffffffff1673ffffffffffffffffffffffffffffffffffffffff1681526020018281526020019250505060405180910390a17fe9e4c127b50c1627c94f22cc6a0ff4837900e57becd252a7489ecd6a62ed3bdc8160000154826001018360020154846003018560040186600501876006018860070160009054906101000a900460ff166040518089815260200180602001888152602001806020018060200180602001806020018715151515815260200186810386528d8181546001816001161561010002031660029004815260200191508054600181600116156101000203166002900480156110f65780601f106110cb576101008083540402835291602001916110f6565b820191906000526020600020905b8154815290600101906020018083116110d957829003601f168201915b505086810385528b8181546001816001161561010002031660029004815260200191508054600181600116156101000203166002900480156111795780601f1061114e57610100808354040283529160200191611179565b820191906000526020600020905b81548152906001019060200180831161115c57829003601f168201915b505086810384528a8181546001816001161561010002031660029004815260200191508054600181600116156101000203166002900480156111fc5780601f106111d1576101008083540402835291602001916111fc565b820191906000526020600020905b8154815290600101906020018083116111df57829003601f168201915b505086810383528981815460018160011615610100020316600290048152602001915080546001816001161561010002031660029004801561127f5780601f106112545761010080835404028352916020019161127f565b820191906000526020600020905b81548152906001019060200180831161126257829003601f168201915b50508681038252888181546001816001161561010002031660029004815260200191508054600181600116156101000203166002900480156113025780601f106112d757610100808354040283529160200191611302565b820191906000526020600020905b8154815290600101906020018083116112e557829003601f168201915b50509d505050505050505050505050505060405180910390a1600160009054906101000a900473ffffffffffffffffffffffffffffffffffffffff1673ffffffffffffffffffffffffffffffffffffffff168260020160009054906101000a900473ffffffffffffffffffffffffffffffffffffffff1673ffffffffffffffffffffffffffffffffffffffff161461140257600160009054906101000a900473ffffffffffffffffffffffffffffffffffffffff1673ffffffffffffffffffffffffffffffffffffffff166108fc83600301549081150290604051600060405180830381858888f19350505050158015611400573d6000803e3d6000fd5b505b505050565b6000600460008381526020019081526020016000209050600081600001541180156114385750600254816000015411155b61144157600080fd5b6000600560008481526020019081526020016000209050806001015442111561146957600080fd5b8060030154341161147957600080fd5b600160009054906101000a900473ffffffffffffffffffffffffffffffffffffffff1673ffffffffffffffffffffffffffffffffffffffff163373ffffffffffffffffffffffffffffffffffffffff1614156114d457600080fd5b81600201548160030154146115525780600301548160070160008360020160009054906101000a900473ffffffffffffffffffffffffffffffffffffffff1673ffffffffffffffffffffffffffffffffffffffff1673ffffffffffffffffffffffffffffffffffffffff168152602001908152602001600020819055505b60018160040160008282540192505081905550338160020160006101000a81548173ffffffffffffffffffffffffffffffffffffffff021916908373ffffffffffffffffffffffffffffffffffffffff160217905550348160030181905550806005600085815260200190815260200160002060008201548160000155600182015481600101556002820160009054906101000a900473ffffffffffffffffffffffffffffffffffffffff168160020160006101000a81548173ffffffffffffffffffffffffffffffffffffffff021916908373ffffffffffffffffffffffffffffffffffffffff16021790555060038201548160030155600482015481600401556005820160009054906101000a900460ff168160050160006101000a81548160ff021916908315150217905550600682015481600601559050507fbddf7d5b3d652be151c4b606fb4afe67059a9ccc0f0a1b66b292488b36d002a781600001548260010154333485600401548660050160009054906101000a900460ff1689604051808881526020018781526020018673ffffffffffffffffffffffffffffffffffffffff1673ffffffffffffffffffffffffffffffffffffffff1681526020018581526020018481526020018315151515815260200182815260200197505050505050505060405180910390a17ff4757a49b326036464bec6fe419a4ae38c8a02ce3e68bf0809674f6aab8ad3003334604051808373ffffffffffffffffffffffffffffffffffffffff1673ffffffffffffffffffffffffffffffffffffffff1681526020018281526020019250505060405180910390a1505050565b60056020528060005260406000206000915090508060000154908060010154908060020160009054906101000a900473ffffffffffffffffffffffffffffffffffffffff16908060030154908060040154908060050160009054906101000a900460ff16908060060154905087565b6004602052806000526040600020600091509050806000015490806001018054600181600116156101000203166002900480601f0160208091040260200160405190810160405280929190818152602001828054600181600116156101000203166002900480156118d35780601f106118a8576101008083540402835291602001916118d3565b820191906000526020600020905b8154815290600101906020018083116118b657829003601f168201915b505050505090806002015490806003018054600181600116156101000203166002900480601f0160208091040260200160405190810160405280929190818152602001828054600181600116156101000203166002900480156119775780601f1061194c57610100808354040283529160200191611977565b820191906000526020600020905b81548152906001019060200180831161195a57829003601f168201915b505050505090806004018054600181600116156101000203166002900480601f016020809104026020016040519081016040528092919081815260200182805460018160011615610100020316600290048015611a155780601f106119ea57610100808354040283529160200191611a15565b820191906000526020600020905b8154815290600101906020018083116119f857829003601f168201915b505050505090806005018054600181600116156101000203166002900480601f016020809104026020016040519081016040528092919081815260200182805460018160011615610100020316600290048015611ab35780601f10611a8857610100808354040283529160200191611ab3565b820191906000526020600020905b815481529060010190602001808311611a9657829003601f168201915b505050505090806006018054600181600116156101000203166002900480601f016020809104026020016040519081016040528092919081815260200182805460018160011615610100020316600290048015611b515780601f10611b2657610100808354040283529160200191611b51565b820191906000526020600020905b815481529060010190602001808311611b3457829003601f168201915b5050505050908060070160009054906101000a900460ff16908060070160019054906101000a900460ff16908060070160029054906101000a900460ff1690508a565b60066020528060005260406000206000915090508054600181600116156101000203166002900480601f016020809104026020016040519081016040528092919081815260200182805460018160011615610100020316600290048015611c3c5780601f10611c1157610100808354040283529160200191611c3c565b820191906000526020600020905b815481529060010190602001808311611c1f57829003601f168201915b505050505081565b600160009054906101000a900473ffffffffffffffffffffffffffffffffffffffff1681565b600060046000838152602001908152602001600020905060008160000154118015611c9b5750600254816000015411155b611ca457600080fd5b600160009054906101000a900473ffffffffffffffffffffffffffffffffffffffff1673ffffffffffffffffffffffffffffffffffffffff163373ffffffffffffffffffffffffffffffffffffffff1614611cfe57600080fd5b60018160070160016101000a81548160ff02191690831515021790555080600460008481526020019081526020016000206000820154816000015560018201816001019080546001816001161561010002031660029004611d6092919061251a565b506002820154816002015560038201816003019080546001816001161561010002031660029004611d9292919061251a565b5060048201816004019080546001816001161561010002031660029004611dba92919061251a565b5060058201816005019080546001816001161561010002031660029004611de292919061251a565b5060068201816006019080546001816001161561010002031660029004611e0a92919061251a565b506007820160009054906101000a900460ff168160070160006101000a81548160ff0219169083151502179055506007820160019054906101000a900460ff168160070160016101000a81548160ff0219169083151502179055506007820160029054906101000a900460ff168160070160026101000a81548160ff0219169083151502179055509050506003600081548092919060010191905055506000621a5e00420190506040518060e001604052806003548152602001828152602001600073ffffffffffffffffffffffffffffffffffffffff16815260200183600201548152602001600081526020016000151581526020018360000154815250600560006003548152602001908152602001600020600082015181600001556020820151816001015560408201518160020160006101000a81548173ffffffffffffffffffffffffffffffffffffffff021916908373ffffffffffffffffffffffffffffffffffffffff160217905550606082015181600301556080820151816004015560a08201518160050160006101000a81548160ff02191690831515021790555060c082015181600601559050507fc5b56ef28a33b7aa02835d41cf99eb4626bf3696d6037ad8259ecee675eebfd560035482600085600201546000808860000154604051808881526020018781526020018673ffffffffffffffffffffffffffffffffffffffff1673ffffffffffffffffffffffffffffffffffffffff1681526020018581526020018481526020018315151515815260200182815260200197505050505050505060405180910390a1505050565b60025481565b600160009054906101000a900473ffffffffffffffffffffffffffffffffffffffff1673ffffffffffffffffffffffffffffffffffffffff163373ffffffffffffffffffffffffffffffffffffffff16146120c257600080fd5b60008651116120d057600080fd5b600085116120dd57600080fd5b60008451116120eb57600080fd5b60008351116120f957600080fd5b600082511161210757600080fd5b600081511161211557600080fd5b6002600081548092919060010191905055506040518061014001604052806002548152602001878152602001868152602001858152602001848152602001838152602001828152602001600015158152602001600015158152602001600015158152506004600060025481526020019081526020016000206000820151816000015560208201518160010190805190602001906121b39291906125a1565b506040820151816002015560608201518160030190805190602001906121da9291906125a1565b5060808201518160040190805190602001906121f79291906125a1565b5060a08201518160050190805190602001906122149291906125a1565b5060c08201518160060190805190602001906122319291906125a1565b5060e08201518160070160006101000a81548160ff0219169083151502179055506101008201518160070160016101000a81548160ff0219169083151502179055506101208201518160070160026101000a81548160ff0219169083151502179055509050507fe84d163122cd80ac28d349f4cc926b047afd3c604db3788d4666788444005279600254878787878787600080604051808a81526020018060200189815260200180602001806020018060200180602001881515151581526020018715151515815260200186810386528e818151815260200191508051906020019080838360005b83811015612334578082015181840152602081019050612319565b50505050905090810190601f1680156123615780820380516001836020036101000a031916815260200191505b5086810385528c818151815260200191508051906020019080838360005b8381101561239a57808201518184015260208101905061237f565b50505050905090810190601f1680156123c75780820380516001836020036101000a031916815260200191505b5086810384528b818151815260200191508051906020019080838360005b838110156124005780820151818401526020810190506123e5565b50505050905090810190601f16801561242d5780820380516001836020036101000a031916815260200191505b5086810383528a818151815260200191508051906020019080838360005b8381101561246657808201518184015260208101905061244b565b50505050905090810190601f1680156124935780820380516001836020036101000a031916815260200191505b50868103825289818151815260200191508051906020019080838360005b838110156124cc5780820151818401526020810190506124b1565b50505050905090810190601f1680156124f95780820380516001836020036101000a031916815260200191505b509e50505050505050505050505050505060405180910390a1505050505050565b828054600181600116156101000203166002900490600052602060002090601f016020900481019282601f106125535780548555612590565b8280016001018555821561259057600052602060002091601f016020900482015b8281111561258f578254825591600101919060010190612574565b5b50905061259d9190612621565b5090565b828054600181600116156101000203166002900490600052602060002090601f016020900481019282601f106125e257805160ff1916838001178555612610565b82800160010185558215612610579182015b8281111561260f5782518255916020019190600101906125f4565b5b50905061261d9190612621565b5090565b61264391905b8082111561263f576000816000905550600101612627565b5090565b9056fe61756374696f6e456e642068617320616c7265616479206265656e2063616c6c65642ea265627a7a72315820c1985108fd5eb07e5ee8bb818389b718ad7a4a1acc61c9b5749532771a662f4e64736f6c63430005100032",
  "source": "pragma solidity ^0.5.0;\n// pragma solidity >=0.7.0 <0.9.0;\n\n/**\n * The AuctionHouse\n contract does this and that...\n */\n\ncontract AuctionHouse {\n\tstring public name;\n    address payable public owner;\n\tuint public productCount = 0;\n    uint public auctionCount = 0;\n\tmapping(uint => Product) public products;\n    mapping(uint => Auction) public auctionList;  \n    mapping (uint => string) public images;\n\n\tstruct Product{\n        uint id_product;\n        string name;\n        uint price;\n        string artist_name;\n        string category;\n        string description;\n        string image_hash;\n        bool purchased;\n        bool auction_started;\n        bool auction_ended;\n    }\n\n    struct Auction{\n        uint id_auction;\n        // address payable beneficiary;\n        uint auctionEndTime;\n        address highestBidder;\n        uint highestBid;\n        uint offerCount;\n        bool ended;\n        uint id_product;\n        mapping(address => uint) clients;\n        // mapping(address => string) clientNames;\n    }\n\n    event ProductCreated(\n        uint id_product,\n        string name,\n        uint price,\n        string artist_name,\n        string category,\n        string description,\n        string image_hash,\n        bool purchased,\n        bool auction_started\n    );\n\n    event ProductSold(\n        uint id_product,\n        string name,\n        uint price,\n        string artist_name,\n        string category,\n        string description,\n        string image_hash,\n        bool purchased\n    );\n\n    event AuctionCreated(\n        uint id_auction,\n        // address payable beneficiary,\n        uint auctionEndTime,\n        address highestBidder,\n        uint highestBid,\n        uint offerCount,\n        bool ended,\n        uint id_product\n    );\n\n    event AuctionUpdated(\n        uint id_auction,\n        // address payable beneficiary,\n        uint auctionEndTime,\n        address highestBidder,\n        uint highestBid,\n        uint offerCount,\n        bool ended,\n        uint id_product\n    );\n\n    event HighestBidIncreased(\n        address bidder, \n        uint amount\n    );\n\n    event AuctionEnded(\n        address winner, \n        uint amount\n    );\n\n    // event SetOwner(address payable owner);\n    \n\n\tconstructor() public {\n\t\tname = \"Auction House of Art\";\n        // owner = 0x87334fFB04eF3b2C0194213AB65B74A7989f0671;\n        owner = msg.sender;\n\t}\n\n    // function setOwner() public {\n    //     // require (owner == address(0));\n    //     owner = address(msg.sender);\n    //     emit SetOwner();\n    // }\n\n\tfunction createProduct (string memory _name, uint _price, string memory _artist, string memory _category, string memory _description, string memory _imageHash) public {\n\t\trequire(msg.sender == owner);\n        require(bytes(_name).length > 0);\n        require(_price > 0);\n        require(bytes(_artist).length > 0);\n        require(bytes(_category).length > 0);\n        require(bytes(_description).length > 0);\n        require(bytes(_imageHash).length > 0);\n\t\tproductCount++;\n        products[productCount] = Product(productCount, _name, _price, _artist, _category, _description, _imageHash, false, false, false);\n\t\temit ProductCreated(productCount, _name, _price, _artist, _category, _description, _imageHash, false, false);\n\t}\n\n    function createAuction (uint _id) public {\n        Product storage _product = products[_id];\n        require(_product.id_product > 0 && _product.id_product <= productCount);\n        require(msg.sender == owner);\n        _product.auction_started = true;\n        products[_id] = _product;\n        auctionCount++;\n        uint endTime = now + 20 days;\n        auctionList[auctionCount] = Auction(auctionCount, endTime, address(0), _product.price, 0, false, _product.id_product);\n        emit AuctionCreated(auctionCount, endTime, address(0), _product.price, 0, false, _product.id_product);\n    }\n\n    function bid(uint product_id) public payable {\n        Product storage _product = products[product_id];\n        require(_product.id_product > 0 && _product.id_product <= productCount);\n        Auction storage _auction = auctionList[product_id];\n        require(block.timestamp <= _auction.auctionEndTime);\n        require(msg.value > _auction.highestBid);\n        require(msg.sender != owner);\n        if (_auction.highestBid != _product.price){\n            _auction.clients[_auction.highestBidder] = _auction.highestBid;\n        }\n        _auction.offerCount += 1;\n        _auction.highestBidder = msg.sender;\n        _auction.highestBid = msg.value;\n        // _auction.clientNames[_auction.highestBidder] = clientName;\n        auctionList[product_id] = _auction;\n        emit AuctionUpdated(_auction.id_auction, _auction.auctionEndTime, msg.sender, msg.value, _auction.offerCount, _auction.ended, product_id);\n        emit HighestBidIncreased(msg.sender, msg.value);\n    }\n\n    // function withdraw(uint auction_id) public returns (bool) {\n    //     Auction storage _auction = auctionList[auction_id];\n    //     uint bid_value = _auction.clients[msg.sender];\n    //     if (bid_value > 0) {\n    //         // It is important to set this to zero because the recipient\n    //         // can call this function again as part of the receiving call\n    //         // before `send` returns.\n    //         _auction.clients[msg.sender] = 0;\n\n    //         if (!msg.sender.send(bid_value)) {\n    //             //Calling throw not necessary here, simply reset the bid_value owing\n    //             _auction.clients[msg.sender] = bid_value;\n    //             return false;\n    //         }\n    //     }\n    //     return true;\n    // }\n\n    function auctionEnd(uint _id_auction) public {\n        // It is a good guideline to structure functions that interact\n        // with other contracts (i.e. they call functions or send Ether)\n        // into three phases:\n        // 1. checking conditions\n        // 2. performing actions (potentially changing conditions)\n        // 3. interacting with other contracts\n        // If these phases are mixed up, the other contract could call\n        // back into the current contract and modify the state or cause\n        // effects (ether payout) to be performed multiple times.\n        // If functions called internally include interaction with external\n        // contracts, they also have to be considered interaction with\n        // external contracts.\n        Auction storage _auction = auctionList[_id_auction];\n        require(_auction.id_auction > 0 && _auction.id_auction <= auctionCount);\n        \n        // 1. Conditions\n        require(block.timestamp >= _auction.auctionEndTime, \"Auction not yet ended.\");\n        require(!_auction.ended, \"auctionEnd has already been called.\");\n\n        Product storage _product = products[_auction.id_product];\n        require(_product.id_product > 0 && _product.id_product <= productCount);\n        require(!_product.purchased);\n\n        if(_auction.offerCount==0){\n            _product.purchased = false;\n        }\n        else{\n            _product.purchased = true;\n        }\n        \n        \n\n        // 2. Effects\n        _auction.ended = true;\n        auctionList[_id_auction] = _auction;\n\n        _product.auction_ended = true;\n        products[_auction.id_product] = _product;\n\n        require (_auction.highestBidder != address(0), \"No one bid at this auction\");\n\n        emit AuctionEnded(_auction.highestBidder, _auction.highestBid);\n        emit ProductSold(_product.id_product, _product.name, _product.price, _product.artist_name, _product.category, _product.description, _product.image_hash, _product.purchased);\n        // 3. Interaction\n        if(_auction.highestBidder != owner)\n            owner.transfer(_auction.highestBid);\n    }\n    \n    \n}\n",
  "sourcePath": "/Users/alexandrazambitchi/Desktop/licenta/licitatie2/src/contracts/AuctionHouse.sol",
  "compiler": {
    "name": "solc",
    "version": "0.5.16+commit.9c3226ce.Emscripten.clang"
  },
  "schemaVersion": "3.0.22",
  "updatedAt": "2021-05-25T17:29:19.585Z",
  "networkType": "ethereum",
  "devdoc": {
    "methods": {}
  },
  "userdoc": {
    "methods": {},
    "notice": "The AuctionHouse contract does this and that..."
  }
}